{
  "_format": "hh-sol-artifact-1",
  "contractName": "BankingApp",
  "sourceName": "contracts/Banking.sol",
  "abi": [
    {
      "inputs": [
        {
          "internalType": "address",
          "name": "_token",
          "type": "address"
        },
        {
          "internalType": "address",
          "name": "_owner",
          "type": "address"
        }
      ],
      "stateMutability": "payable",
      "type": "constructor"
    },
    {
      "anonymous": false,
      "inputs": [
        {
          "indexed": false,
          "internalType": "address",
          "name": "owner",
          "type": "address"
        },
        {
          "indexed": false,
          "internalType": "string",
          "name": "child",
          "type": "string"
        }
      ],
      "name": "BalanceGot",
      "type": "event"
    },
    {
      "anonymous": false,
      "inputs": [
        {
          "indexed": false,
          "internalType": "address",
          "name": "from",
          "type": "address"
        },
        {
          "indexed": false,
          "internalType": "address",
          "name": "to",
          "type": "address"
        },
        {
          "indexed": false,
          "internalType": "uint256",
          "name": "amount",
          "type": "uint256"
        }
      ],
      "name": "InheritumSent",
      "type": "event"
    },
    {
      "anonymous": false,
      "inputs": [
        {
          "indexed": false,
          "internalType": "address",
          "name": "from",
          "type": "address"
        },
        {
          "indexed": false,
          "internalType": "address",
          "name": "to",
          "type": "address"
        },
        {
          "indexed": false,
          "internalType": "string",
          "name": "childName",
          "type": "string"
        },
        {
          "indexed": false,
          "internalType": "uint256",
          "name": "amount",
          "type": "uint256"
        }
      ],
      "name": "SentMoney",
      "type": "event"
    },
    {
      "anonymous": false,
      "inputs": [
        {
          "indexed": false,
          "internalType": "address",
          "name": "recipient",
          "type": "address"
        },
        {
          "indexed": false,
          "internalType": "uint256",
          "name": "amount",
          "type": "uint256"
        }
      ],
      "name": "allowanceTest",
      "type": "event"
    },
    {
      "inputs": [
        {
          "internalType": "string",
          "name": "_name",
          "type": "string"
        },
        {
          "internalType": "uint256",
          "name": "_age",
          "type": "uint256"
        },
        {
          "internalType": "bool",
          "name": "isLimited",
          "type": "bool"
        }
      ],
      "name": "addPerson",
      "outputs": [
        {
          "components": [
            {
              "internalType": "string",
              "name": "name",
              "type": "string"
            },
            {
              "internalType": "uint256",
              "name": "age",
              "type": "uint256"
            },
            {
              "internalType": "uint256",
              "name": "balance",
              "type": "uint256"
            },
            {
              "internalType": "bool",
              "name": "isLimited",
              "type": "bool"
            },
            {
              "internalType": "address[]",
              "name": "children",
              "type": "address[]"
            },
            {
              "internalType": "address[]",
              "name": "parents",
              "type": "address[]"
            },
            {
              "internalType": "uint256",
              "name": "createdTime",
              "type": "uint256"
            }
          ],
          "internalType": "struct BankingApp.Person",
          "name": "",
          "type": "tuple"
        }
      ],
      "stateMutability": "nonpayable",
      "type": "function"
    },
    {
      "inputs": [
        {
          "internalType": "string",
          "name": "_name",
          "type": "string"
        },
        {
          "internalType": "bool",
          "name": "returnErr",
          "type": "bool"
        }
      ],
      "name": "findTheChild",
      "outputs": [
        {
          "components": [
            {
              "internalType": "string",
              "name": "name",
              "type": "string"
            },
            {
              "internalType": "uint256",
              "name": "age",
              "type": "uint256"
            },
            {
              "internalType": "uint256",
              "name": "balance",
              "type": "uint256"
            },
            {
              "internalType": "bool",
              "name": "isLimited",
              "type": "bool"
            },
            {
              "internalType": "address[]",
              "name": "children",
              "type": "address[]"
            },
            {
              "internalType": "address[]",
              "name": "parents",
              "type": "address[]"
            },
            {
              "internalType": "uint256",
              "name": "createdTime",
              "type": "uint256"
            }
          ],
          "internalType": "struct BankingApp.Person",
          "name": "",
          "type": "tuple"
        },
        {
          "internalType": "uint256",
          "name": "index",
          "type": "uint256"
        }
      ],
      "stateMutability": "view",
      "type": "function"
    },
    {
      "inputs": [
        {
          "internalType": "string",
          "name": "_name",
          "type": "string"
        },
        {
          "internalType": "bool",
          "name": "returnErr",
          "type": "bool"
        }
      ],
      "name": "findThePerson",
      "outputs": [
        {
          "components": [
            {
              "internalType": "string",
              "name": "name",
              "type": "string"
            },
            {
              "internalType": "uint256",
              "name": "age",
              "type": "uint256"
            },
            {
              "internalType": "uint256",
              "name": "balance",
              "type": "uint256"
            },
            {
              "internalType": "bool",
              "name": "isLimited",
              "type": "bool"
            },
            {
              "internalType": "address[]",
              "name": "children",
              "type": "address[]"
            },
            {
              "internalType": "address[]",
              "name": "parents",
              "type": "address[]"
            },
            {
              "internalType": "uint256",
              "name": "createdTime",
              "type": "uint256"
            }
          ],
          "internalType": "struct BankingApp.Person",
          "name": "",
          "type": "tuple"
        },
        {
          "internalType": "uint256",
          "name": "index",
          "type": "uint256"
        }
      ],
      "stateMutability": "view",
      "type": "function"
    },
    {
      "inputs": [],
      "name": "getBalanceOfInheritumToken",
      "outputs": [
        {
          "internalType": "uint256",
          "name": "",
          "type": "uint256"
        }
      ],
      "stateMutability": "view",
      "type": "function"
    },
    {
      "inputs": [],
      "name": "getChildren",
      "outputs": [
        {
          "internalType": "address[]",
          "name": "",
          "type": "address[]"
        }
      ],
      "stateMutability": "view",
      "type": "function"
    },
    {
      "inputs": [],
      "name": "getMyBalance",
      "outputs": [
        {
          "internalType": "uint256",
          "name": "",
          "type": "uint256"
        }
      ],
      "stateMutability": "view",
      "type": "function"
    },
    {
      "inputs": [],
      "name": "getMyChild",
      "outputs": [
        {
          "internalType": "address[]",
          "name": "",
          "type": "address[]"
        }
      ],
      "stateMutability": "view",
      "type": "function"
    },
    {
      "inputs": [
        {
          "internalType": "string",
          "name": "_name",
          "type": "string"
        }
      ],
      "name": "getMyChildBalance",
      "outputs": [
        {
          "internalType": "uint256",
          "name": "",
          "type": "uint256"
        }
      ],
      "stateMutability": "nonpayable",
      "type": "function"
    },
    {
      "inputs": [],
      "name": "getPersons",
      "outputs": [
        {
          "components": [
            {
              "internalType": "string",
              "name": "name",
              "type": "string"
            },
            {
              "internalType": "uint256",
              "name": "age",
              "type": "uint256"
            },
            {
              "internalType": "uint256",
              "name": "balance",
              "type": "uint256"
            },
            {
              "internalType": "bool",
              "name": "isLimited",
              "type": "bool"
            },
            {
              "internalType": "address[]",
              "name": "children",
              "type": "address[]"
            },
            {
              "internalType": "address[]",
              "name": "parents",
              "type": "address[]"
            },
            {
              "internalType": "uint256",
              "name": "createdTime",
              "type": "uint256"
            }
          ],
          "internalType": "struct BankingApp.Person[]",
          "name": "",
          "type": "tuple[]"
        }
      ],
      "stateMutability": "view",
      "type": "function"
    },
    {
      "inputs": [],
      "name": "getTranscationHistory",
      "outputs": [
        {
          "components": [
            {
              "internalType": "uint256",
              "name": "timestamp",
              "type": "uint256"
            },
            {
              "internalType": "address",
              "name": "sender",
              "type": "address"
            },
            {
              "internalType": "address",
              "name": "receiver",
              "type": "address"
            },
            {
              "internalType": "uint256",
              "name": "amount",
              "type": "uint256"
            }
          ],
          "internalType": "struct BankingApp.Transaction[]",
          "name": "",
          "type": "tuple[]"
        }
      ],
      "stateMutability": "view",
      "type": "function"
    },
    {
      "inputs": [
        {
          "internalType": "address",
          "name": "addr",
          "type": "address"
        }
      ],
      "name": "getUser",
      "outputs": [
        {
          "components": [
            {
              "internalType": "string",
              "name": "name",
              "type": "string"
            },
            {
              "internalType": "uint256",
              "name": "age",
              "type": "uint256"
            },
            {
              "internalType": "uint256",
              "name": "balance",
              "type": "uint256"
            },
            {
              "internalType": "bool",
              "name": "isLimited",
              "type": "bool"
            },
            {
              "internalType": "address[]",
              "name": "children",
              "type": "address[]"
            },
            {
              "internalType": "address[]",
              "name": "parents",
              "type": "address[]"
            },
            {
              "internalType": "uint256",
              "name": "createdTime",
              "type": "uint256"
            }
          ],
          "internalType": "struct BankingApp.Person",
          "name": "",
          "type": "tuple"
        }
      ],
      "stateMutability": "view",
      "type": "function"
    },
    {
      "inputs": [
        {
          "internalType": "address",
          "name": "childAccount",
          "type": "address"
        },
        {
          "internalType": "string",
          "name": "_name",
          "type": "string"
        },
        {
          "internalType": "uint256",
          "name": "_age",
          "type": "uint256"
        }
      ],
      "name": "linkAccount",
      "outputs": [
        {
          "components": [
            {
              "internalType": "string",
              "name": "name",
              "type": "string"
            },
            {
              "internalType": "uint256",
              "name": "age",
              "type": "uint256"
            },
            {
              "internalType": "uint256",
              "name": "balance",
              "type": "uint256"
            },
            {
              "internalType": "bool",
              "name": "isLimited",
              "type": "bool"
            },
            {
              "internalType": "address[]",
              "name": "children",
              "type": "address[]"
            },
            {
              "internalType": "address[]",
              "name": "parents",
              "type": "address[]"
            },
            {
              "internalType": "uint256",
              "name": "createdTime",
              "type": "uint256"
            }
          ],
          "internalType": "struct BankingApp.Person",
          "name": "",
          "type": "tuple"
        }
      ],
      "stateMutability": "nonpayable",
      "type": "function"
    },
    {
      "inputs": [
        {
          "internalType": "address",
          "name": "linked_account",
          "type": "address"
        }
      ],
      "name": "makeAccountisLimited",
      "outputs": [],
      "stateMutability": "nonpayable",
      "type": "function"
    },
    {
      "inputs": [
        {
          "internalType": "address payable",
          "name": "_to",
          "type": "address"
        },
        {
          "internalType": "uint256",
          "name": "amount",
          "type": "uint256"
        }
      ],
      "name": "sendEther",
      "outputs": [],
      "stateMutability": "payable",
      "type": "function"
    },
    {
      "inputs": [
        {
          "internalType": "address",
          "name": "_to",
          "type": "address"
        },
        {
          "internalType": "uint256",
          "name": "_amount",
          "type": "uint256"
        }
      ],
      "name": "sendTokenToChild",
      "outputs": [],
      "stateMutability": "nonpayable",
      "type": "function"
    },
    {
      "inputs": [],
      "name": "token",
      "outputs": [
        {
          "internalType": "contract IERC20",
          "name": "",
          "type": "address"
        }
      ],
      "stateMutability": "view",
      "type": "function"
    }
  ],
  "bytecode": "0x6080604052604051620048e9380380620048e983398181016040528101906200002991906200011c565b816000806101000a81548173ffffffffffffffffffffffffffffffffffffffff021916908373ffffffffffffffffffffffffffffffffffffffff16021790555080600160006101000a81548173ffffffffffffffffffffffffffffffffffffffff021916908373ffffffffffffffffffffffffffffffffffffffff160217905550505062000163565b600080fd5b600073ffffffffffffffffffffffffffffffffffffffff82169050919050565b6000620000e482620000b7565b9050919050565b620000f681620000d7565b81146200010257600080fd5b50565b6000815190506200011681620000eb565b92915050565b60008060408385031215620001365762000135620000b2565b5b6000620001468582860162000105565b9250506020620001598582860162000105565b9150509250929050565b61477680620001736000396000f3fe6080604052600436106100f35760003560e01c8063b42fbdfd1161008a578063dbc1a22b11610059578063dbc1a22b14610344578063ee203fe61461036f578063fbf8574d1461039a578063fc0c546a146103d8576100f3565b8063b42fbdfd146102ab578063c1756a2c146102d4578063c1a16177146102f0578063c81cdec914610319576100f3565b806353a86c94116100c657806353a86c94146101b65780635412f1c9146101f35780636f77926b146102315780638d6ec2141461026e576100f3565b8063032ce9aa146100f85780634892e8e8146101355780634c6b6c6f146101605780634c7389091461018b575b600080fd5b34801561010457600080fd5b5061011f600480360381019061011a9190613575565b610403565b60405161012c9190613824565b60405180910390f35b34801561014157600080fd5b5061014a61097e565b60405161015791906138b5565b60405180910390f35b34801561016c57600080fd5b50610175610a77565b6040516101829190613a43565b60405180910390f35b34801561019757600080fd5b506101a0610cbd565b6040516101ad9190613a74565b60405180910390f35b3480156101c257600080fd5b506101dd60048036038101906101d89190613a8f565b610cdc565b6040516101ea9190613a74565b60405180910390f35b3480156101ff57600080fd5b5061021a60048036038101906102159190613ad8565b610d37565b604051610228929190613b34565b60405180910390f35b34801561023d57600080fd5b5061025860048036038101906102539190613b90565b610e7c565b6040516102659190613824565b60405180910390f35b34801561027a57600080fd5b5061029560048036038101906102909190613bbd565b6110bc565b6040516102a29190613824565b60405180910390f35b3480156102b757600080fd5b506102d260048036038101906102cd9190613c2c565b611cbe565b005b6102ee60048036038101906102e99190613caa565b611ebf565b005b3480156102fc57600080fd5b5061031760048036038101906103129190613b90565b612055565b005b34801561032557600080fd5b5061032e612242565b60405161033b9190613a74565b60405180910390f35b34801561035057600080fd5b506103596122f3565b6040516103669190613dee565b60405180910390f35b34801561037b57600080fd5b5061038461244f565b60405161039191906138b5565b60405180910390f35b3480156103a657600080fd5b506103c160048036038101906103bc9190613ad8565b61251d565b6040516103cf929190613b34565b60405180910390f35b3480156103e457600080fd5b506103ed612811565b6040516103fa9190613e6f565b60405180910390f35b61040b613162565b6040518060200160405280600081525080519060200120600360003373ffffffffffffffffffffffffffffffffffffffff1673ffffffffffffffffffffffffffffffffffffffff1681526020019081526020016000206000016040516104719190613f8a565b6040518091039020146104b9576040517f08c379a00000000000000000000000000000000000000000000000000000000081526004016104b090613ffe565b60405180910390fd5b600160009054906101000a900473ffffffffffffffffffffffffffffffffffffffff1673ffffffffffffffffffffffffffffffffffffffff163373ffffffffffffffffffffffffffffffffffffffff16141561054a576040517f08c379a00000000000000000000000000000000000000000000000000000000081526004016105419061406a565b60405180910390fd5b6000600360003373ffffffffffffffffffffffffffffffffffffffff1673ffffffffffffffffffffffffffffffffffffffff1681526020019081526020016000209050848160000190805190602001906105a59291906131a1565b508381600101819055503373ffffffffffffffffffffffffffffffffffffffff16318160020181905550828160030160006101000a81548160ff021916908315150217905550600067ffffffffffffffff811115610606576106056133dc565b5b6040519080825280602002602001820160405280156106345781602001602082028036833780820191505090505b5081600401908051906020019061064c929190613227565b50600067ffffffffffffffff811115610668576106676133dc565b5b6040519080825280602002602001820160405280156106965781602001602082028036833780820191505090505b508160050190805190602001906106ae929190613227565b504281600601819055506000816040518060e00160405290816000820180546106d690613eb9565b80601f016020809104026020016040519081016040528092919081815260200182805461070290613eb9565b801561074f5780601f106107245761010080835404028352916020019161074f565b820191906000526020600020905b81548152906001019060200180831161073257829003601f168201915b5050505050815260200160018201548152602001600282015481526020016003820160009054906101000a900460ff161515151581526020016004820180548060200260200160405190810160405280929190818152602001828054801561080c57602002820191906000526020600020905b8160009054906101000a900473ffffffffffffffffffffffffffffffffffffffff1673ffffffffffffffffffffffffffffffffffffffff16815260200190600101908083116107c2575b505050505081526020016005820180548060200260200160405190810160405280929190818152602001828054801561089a57602002820191906000526020600020905b8160009054906101000a900473ffffffffffffffffffffffffffffffffffffffff1673ffffffffffffffffffffffffffffffffffffffff1681526020019060010190808311610850575b505050505081526020016006820154815250509050600481908060018154018082558091505060019003906000526020600020906007020160009091909190915060008201518160000190805190602001906108f79291906131a1565b50602082015181600101556040820151816002015560608201518160030160006101000a81548160ff0219169083151502179055506080820151816004019080519060200190610948929190613227565b5060a0820151816005019080519060200190610965929190613227565b5060c08201518160060155505080925050509392505050565b6060600061098b33610e7c565b9050600081608001515167ffffffffffffffff8111156109ae576109ad6133dc565b5b6040519080825280602002602001820160405280156109dc5781602001602082028036833780820191505090505b50905060005b826080015151811015610a6e5782608001518181518110610a0657610a0561408a565b5b6020026020010151828281518110610a2157610a2061408a565b5b602002602001019073ffffffffffffffffffffffffffffffffffffffff16908173ffffffffffffffffffffffffffffffffffffffff16815250508080610a66906140e8565b9150506109e2565b50809250505090565b60606004805480602002602001604051908101604052809291908181526020016000905b82821015610cb457838290600052602060002090600702016040518060e0016040529081600082018054610ace90613eb9565b80601f0160208091040260200160405190810160405280929190818152602001828054610afa90613eb9565b8015610b475780601f10610b1c57610100808354040283529160200191610b47565b820191906000526020600020905b815481529060010190602001808311610b2a57829003601f168201915b5050505050815260200160018201548152602001600282015481526020016003820160009054906101000a900460ff1615151515815260200160048201805480602002602001604051908101604052809291908181526020018280548015610c0457602002820191906000526020600020905b8160009054906101000a900473ffffffffffffffffffffffffffffffffffffffff1673ffffffffffffffffffffffffffffffffffffffff1681526020019060010190808311610bba575b5050505050815260200160058201805480602002602001604051908101604052809291908181526020018280548015610c9257602002820191906000526020600020905b8160009054906101000a900473ffffffffffffffffffffffffffffffffffffffff1673ffffffffffffffffffffffffffffffffffffffff1681526020019060010190808311610c48575b5050505050815260200160068201548152505081526020019060010190610a9b565b50505050905090565b60003373ffffffffffffffffffffffffffffffffffffffff1631905090565b600080610cea836001610d37565b5090507f43bffc0f95fb1b5cd921e2fa994fd3abf463eefb09b4b0fffddb4d365c172528338260000151604051610d22929190614179565b60405180910390a18060400151915050919050565b610d3f613162565b600080610d4b33610e7c565b90506000816080015151905060018110610e3a5760005b81811015610de157600083608001518281518110610d8357610d8261408a565b5b602002602001015190506000610d9882610e7c565b600001519050888051906020012081805190602001201415610dcc57610dbd82610e7c565b83965096505050505050610e75565b50508080610dd9906140e8565b915050610d62565b508415610e23576040517f08c379a0000000000000000000000000000000000000000000000000000000008152600401610e1a906141f5565b60405180910390fd5b610e2b613162565b80600094509450505050610e75565b6040517f08c379a0000000000000000000000000000000000000000000000000000000008152600401610e6c90614261565b60405180910390fd5b9250929050565b610e84613162565b600360008373ffffffffffffffffffffffffffffffffffffffff1673ffffffffffffffffffffffffffffffffffffffff1681526020019081526020016000206040518060e0016040529081600082018054610ede90613eb9565b80601f0160208091040260200160405190810160405280929190818152602001828054610f0a90613eb9565b8015610f575780601f10610f2c57610100808354040283529160200191610f57565b820191906000526020600020905b815481529060010190602001808311610f3a57829003601f168201915b5050505050815260200160018201548152602001600282015481526020016003820160009054906101000a900460ff161515151581526020016004820180548060200260200160405190810160405280929190818152602001828054801561101457602002820191906000526020600020905b8160009054906101000a900473ffffffffffffffffffffffffffffffffffffffff1673ffffffffffffffffffffffffffffffffffffffff1681526020019060010190808311610fca575b50505050508152602001600582018054806020026020016040519081016040528092919081815260200182805480156110a257602002820191906000526020600020905b8160009054906101000a900473ffffffffffffffffffffffffffffffffffffffff1673ffffffffffffffffffffffffffffffffffffffff1681526020019060010190808311611058575b505050505081526020016006820154815250509050919050565b6110c4613162565b600160009054906101000a900473ffffffffffffffffffffffffffffffffffffffff1673ffffffffffffffffffffffffffffffffffffffff163373ffffffffffffffffffffffffffffffffffffffff161415611155576040517f08c379a000000000000000000000000000000000000000000000000000000000815260040161114c906142cd565b60405180910390fd5b604051806020016040528060008152508051906020012061117533610e7c565b600001518051906020012014156111c1576040517f08c379a00000000000000000000000000000000000000000000000000000000081526004016111b89061435f565b60405180910390fd5b6000600360003373ffffffffffffffffffffffffffffffffffffffff1673ffffffffffffffffffffffffffffffffffffffff168152602001908152602001600020905080600401859080600181540180825580915050600190039060005260206000200160009091909190916101000a81548173ffffffffffffffffffffffffffffffffffffffff021916908373ffffffffffffffffffffffffffffffffffffffff16021790555080600360003373ffffffffffffffffffffffffffffffffffffffff1673ffffffffffffffffffffffffffffffffffffffff16815260200190815260200160002060008201816000019080546112bd90613eb9565b6112c89291906132b1565b5060018201548160010155600282015481600201556003820160009054906101000a900460ff168160030160006101000a81548160ff021916908315150217905550600482018160040190805461132092919061333e565b50600582018160050190805461133792919061333e565b50600682015481600601559050506000806113df83600001805461135a90613eb9565b80601f016020809104026020016040519081016040528092919081815260200182805461138690613eb9565b80156113d35780601f106113a8576101008083540402835291602001916113d3565b820191906000526020600020905b8154815290600101906020018083116113b657829003601f168201915b5050505050600061251d565b91509150600481815481106113f7576113f661408a565b5b9060005260206000209060070201600401879080600181540180825580915050600190039060005260206000200160009091909190916101000a81548173ffffffffffffffffffffffffffffffffffffffff021916908373ffffffffffffffffffffffffffffffffffffffff1602179055506040518060200160405280600081525080519060200120600360008973ffffffffffffffffffffffffffffffffffffffff1673ffffffffffffffffffffffffffffffffffffffff1681526020019081526020016000206000016040516114cf9190613f8a565b60405180910390201461183c5760006114e788610e7c565b905060008160a0015151905060008260a0015190506040518060e001604052808a815260200189815260200160008152602001600115158152602001600067ffffffffffffffff81111561153e5761153d6133dc565b5b60405190808252806020026020018201604052801561156c5781602001602082028036833780820191505090505b50815260200160018461157f919061437f565b67ffffffffffffffff811115611598576115976133dc565b5b6040519080825280602002602001820160405280156115c65781602001602082028036833780820191505090505b50815260200142815250600360008c73ffffffffffffffffffffffffffffffffffffffff1673ffffffffffffffffffffffffffffffffffffffff168152602001908152602001600020600082015181600001908051906020019061162b9291906131a1565b50602082015181600101556040820151816002015560608201518160030160006101000a81548160ff021916908315150217905550608082015181600401908051906020019061167c929190613227565b5060a0820151816005019080519060200190611699929190613227565b5060c0820151816006015590505060005b6001836116b7919061437f565b81101561183357828114156117685733600360008d73ffffffffffffffffffffffffffffffffffffffff1673ffffffffffffffffffffffffffffffffffffffff168152602001908152602001600020600501828154811061171b5761171a61408a565b5b9060005260206000200160006101000a81548173ffffffffffffffffffffffffffffffffffffffff021916908373ffffffffffffffffffffffffffffffffffffffff160217905550611820565b81818151811061177b5761177a61408a565b5b6020026020010151600360008d73ffffffffffffffffffffffffffffffffffffffff1673ffffffffffffffffffffffffffffffffffffffff16815260200190815260200160002060050182815481106117d7576117d661408a565b5b9060005260206000200160006101000a81548173ffffffffffffffffffffffffffffffffffffffff021916908373ffffffffffffffffffffffffffffffffffffffff1602179055505b808061182b906140e8565b9150506116aa565b50505050611a7b565b6040518060e0016040528087815260200186815260200160008152602001600115158152602001600067ffffffffffffffff81111561187e5761187d6133dc565b5b6040519080825280602002602001820160405280156118ac5781602001602082028036833780820191505090505b508152602001600167ffffffffffffffff8111156118cd576118cc6133dc565b5b6040519080825280602002602001820160405280156118fb5781602001602082028036833780820191505090505b50815260200142815250600360008973ffffffffffffffffffffffffffffffffffffffff1673ffffffffffffffffffffffffffffffffffffffff16815260200190815260200160002060008201518160000190805190602001906119609291906131a1565b50602082015181600101556040820151816002015560608201518160030160006101000a81548160ff02191690831515021790555060808201518160040190805190602001906119b1929190613227565b5060a08201518160050190805190602001906119ce929190613227565b5060c0820151816006015590505033600360008973ffffffffffffffffffffffffffffffffffffffff1673ffffffffffffffffffffffffffffffffffffffff168152602001908152602001600020600501600081548110611a3257611a3161408a565b5b9060005260206000200160006101000a81548173ffffffffffffffffffffffffffffffffffffffff021916908373ffffffffffffffffffffffffffffffffffffffff1602179055505b6000600360003373ffffffffffffffffffffffffffffffffffffffff1673ffffffffffffffffffffffffffffffffffffffff1681526020019081526020016000206040518060e0016040529081600082018054611ad790613eb9565b80601f0160208091040260200160405190810160405280929190818152602001828054611b0390613eb9565b8015611b505780601f10611b2557610100808354040283529160200191611b50565b820191906000526020600020905b815481529060010190602001808311611b3357829003601f168201915b5050505050815260200160018201548152602001600282015481526020016003820160009054906101000a900460ff1615151515815260200160048201805480602002602001604051908101604052809291908181526020018280548015611c0d57602002820191906000526020600020905b8160009054906101000a900473ffffffffffffffffffffffffffffffffffffffff1673ffffffffffffffffffffffffffffffffffffffff1681526020019060010190808311611bc3575b5050505050815260200160058201805480602002602001604051908101604052809291908181526020018280548015611c9b57602002820191906000526020600020905b8160009054906101000a900473ffffffffffffffffffffffffffffffffffffffff1673ffffffffffffffffffffffffffffffffffffffff1681526020019060010190808311611c51575b505050505081526020016006820154815250509050809450505050509392505050565b808060008054906101000a900473ffffffffffffffffffffffffffffffffffffffff1673ffffffffffffffffffffffffffffffffffffffff166370a08231336040518263ffffffff1660e01b8152600401611d1991906143d5565b60206040518083038186803b158015611d3157600080fd5b505afa158015611d45573d6000803e3d6000fd5b505050506040513d601f19601f82011682018060405250810190611d699190614405565b1015611d7457600080fd5b600360003373ffffffffffffffffffffffffffffffffffffffff1673ffffffffffffffffffffffffffffffffffffffff16815260200190815260200160002060030160009054906101000a900460ff166000151581151514611e0b576040517f08c379a0000000000000000000000000000000000000000000000000000000008152600401611e02906144a4565b60405180910390fd5b60008054906101000a900473ffffffffffffffffffffffffffffffffffffffff1673ffffffffffffffffffffffffffffffffffffffff1663a9059cbb85856040518363ffffffff1660e01b8152600401611e669291906144c4565b602060405180830381600087803b158015611e8057600080fd5b505af1158015611e94573d6000803e3d6000fd5b505050506040513d601f19601f82011682018060405250810190611eb89190614502565b5050505050565b600360003373ffffffffffffffffffffffffffffffffffffffff1673ffffffffffffffffffffffffffffffffffffffff16815260200190815260200160002060030160009054906101000a900460ff166000151581151514611f56576040517f08c379a0000000000000000000000000000000000000000000000000000000008152600401611f4d906144a4565b60405180910390fd5b60008373ffffffffffffffffffffffffffffffffffffffff1683604051611f7c90614555565b60006040518083038185875af1925050503d8060008114611fb9576040519150601f19603f3d011682016040523d82523d6000602084013e611fbe565b606091505b5050905080612002576040517f08c379a0000000000000000000000000000000000000000000000000000000008152600401611ff9906145b6565b60405180910390fd5b61200e84846001612835565b600061201985610e7c565b90506001151581606001511515141561204e578361203686610e7c565b604001818151612046919061437f565b915081815250505b5050505050565b806001151561206382610e7c565b606001511515146120a9576040517f08c379a00000000000000000000000000000000000000000000000000000000081526004016120a090614622565b60405180910390fd5b600160009054906101000a900473ffffffffffffffffffffffffffffffffffffffff1673ffffffffffffffffffffffffffffffffffffffff163373ffffffffffffffffffffffffffffffffffffffff1614612139576040517f08c379a0000000000000000000000000000000000000000000000000000000008152600401612130906146b4565b60405180910390fd5b600061214483610e7c565b905060008160a001516000815181106121605761215f61408a565b5b6020026020010151905060006121768583612e16565b9050600481908060018154018082558091505060019003906000526020600020906007020160009091909190915060008201518160000190805190602001906121c09291906131a1565b50602082015181600101556040820151816002015560608201518160030160006101000a81548160ff0219169083151502179055506080820151816004019080519060200190612211929190613227565b5060a082015181600501908051906020019061222e929190613227565b5060c0820151816006015550505050505050565b60008060009054906101000a900473ffffffffffffffffffffffffffffffffffffffff1673ffffffffffffffffffffffffffffffffffffffff166370a08231336040518263ffffffff1660e01b815260040161229e91906143d5565b60206040518083038186803b1580156122b657600080fd5b505afa1580156122ca573d6000803e3d6000fd5b505050506040513d601f19601f820116820180604052508101906122ee9190614405565b905090565b6060600260003373ffffffffffffffffffffffffffffffffffffffff1673ffffffffffffffffffffffffffffffffffffffff168152602001908152602001600020805480602002602001604051908101604052809291908181526020016000905b828210156124465783829060005260206000209060040201604051806080016040529081600082015481526020016001820160009054906101000a900473ffffffffffffffffffffffffffffffffffffffff1673ffffffffffffffffffffffffffffffffffffffff1673ffffffffffffffffffffffffffffffffffffffff1681526020016002820160009054906101000a900473ffffffffffffffffffffffffffffffffffffffff1673ffffffffffffffffffffffffffffffffffffffff1673ffffffffffffffffffffffffffffffffffffffff16815260200160038201548152505081526020019060010190612354565b50505050905090565b6060600360003373ffffffffffffffffffffffffffffffffffffffff1673ffffffffffffffffffffffffffffffffffffffff16815260200190815260200160002060040180548060200260200160405190810160405280929190818152602001828054801561251357602002820191906000526020600020905b8160009054906101000a900473ffffffffffffffffffffffffffffffffffffffff1673ffffffffffffffffffffffffffffffffffffffff16815260200190600101908083116124c9575b5050505050905090565b612525613162565b600080600090505b6004805490508110156127b7578480519060200120600482815481106125565761255561408a565b5b90600052602060002090600702016000016040516125749190613f8a565b604051809103902014156127a457600481815481106125965761259561408a565b5b906000526020600020906007020181816040518060e00160405290816000820180546125c190613eb9565b80601f01602080910402602001604051908101604052809291908181526020018280546125ed90613eb9565b801561263a5780601f1061260f5761010080835404028352916020019161263a565b820191906000526020600020905b81548152906001019060200180831161261d57829003601f168201915b5050505050815260200160018201548152602001600282015481526020016003820160009054906101000a900460ff16151515158152602001600482018054806020026020016040519081016040528092919081815260200182805480156126f757602002820191906000526020600020905b8160009054906101000a900473ffffffffffffffffffffffffffffffffffffffff1673ffffffffffffffffffffffffffffffffffffffff16815260200190600101908083116126ad575b505050505081526020016005820180548060200260200160405190810160405280929190818152602001828054801561278557602002820191906000526020600020905b8160009054906101000a900473ffffffffffffffffffffffffffffffffffffffff1673ffffffffffffffffffffffffffffffffffffffff168152602001906001019080831161273b575b505050505081526020016006820154815250509150925092505061280a565b80806127af906140e8565b91505061252d565b5082156127f9576040517f08c379a00000000000000000000000000000000000000000000000000000000081526004016127f090614720565b60405180910390fd5b612801613162565b80600092509250505b9250929050565b60008054906101000a900473ffffffffffffffffffffffffffffffffffffffff1681565b604051806020016040528060008152508051906020012061285533610e7c565b600001518051906020012014156128a1576040517f08c379a00000000000000000000000000000000000000000000000000000000081526004016128989061435f565b60405180910390fd5b8015612b5e57600260003373ffffffffffffffffffffffffffffffffffffffff1673ffffffffffffffffffffffffffffffffffffffff16815260200190815260200160002060405180608001604052804281526020013373ffffffffffffffffffffffffffffffffffffffff1681526020018573ffffffffffffffffffffffffffffffffffffffff1681526020018481525090806001815401808255809150506001900390600052602060002090600402016000909190919091506000820151816000015560208201518160010160006101000a81548173ffffffffffffffffffffffffffffffffffffffff021916908373ffffffffffffffffffffffffffffffffffffffff16021790555060408201518160020160006101000a81548173ffffffffffffffffffffffffffffffffffffffff021916908373ffffffffffffffffffffffffffffffffffffffff160217905550606082015181600301555050600260008473ffffffffffffffffffffffffffffffffffffffff1673ffffffffffffffffffffffffffffffffffffffff16815260200190815260200160002060405180608001604052804281526020013373ffffffffffffffffffffffffffffffffffffffff1681526020018573ffffffffffffffffffffffffffffffffffffffff1681526020018481525090806001815401808255809150506001900390600052602060002090600402016000909190919091506000820151816000015560208201518160010160006101000a81548173ffffffffffffffffffffffffffffffffffffffff021916908373ffffffffffffffffffffffffffffffffffffffff16021790555060408201518160020160006101000a81548173ffffffffffffffffffffffffffffffffffffffff021916908373ffffffffffffffffffffffffffffffffffffffff160217905550606082015181600301555050612e11565b600260008473ffffffffffffffffffffffffffffffffffffffff1673ffffffffffffffffffffffffffffffffffffffff16815260200190815260200160002060405180608001604052804281526020018573ffffffffffffffffffffffffffffffffffffffff1681526020013373ffffffffffffffffffffffffffffffffffffffff1681526020018481525090806001815401808255809150506001900390600052602060002090600402016000909190919091506000820151816000015560208201518160010160006101000a81548173ffffffffffffffffffffffffffffffffffffffff021916908373ffffffffffffffffffffffffffffffffffffffff16021790555060408201518160020160006101000a81548173ffffffffffffffffffffffffffffffffffffffff021916908373ffffffffffffffffffffffffffffffffffffffff160217905550606082015181600301555050600260003373ffffffffffffffffffffffffffffffffffffffff1673ffffffffffffffffffffffffffffffffffffffff16815260200190815260200160002060405180608001604052804281526020018573ffffffffffffffffffffffffffffffffffffffff1681526020013373ffffffffffffffffffffffffffffffffffffffff1681526020018481525090806001815401808255809150506001900390600052602060002090600402016000909190919091506000820151816000015560208201518160010160006101000a81548173ffffffffffffffffffffffffffffffffffffffff021916908373ffffffffffffffffffffffffffffffffffffffff16021790555060408201518160020160006101000a81548173ffffffffffffffffffffffffffffffffffffffff021916908373ffffffffffffffffffffffffffffffffffffffff1602179055506060820151816003015550505b505050565b612e1e613162565b6000612e2983610e7c565b9050600080612e3d8360000151600061251d565b915091506000612e4c87610e7c565b9050600080612e608360000151600061251d565b9150915085608001518181518110612e7b57612e7a61408a565b5b60200260200101600073ffffffffffffffffffffffffffffffffffffffff168152508560048581548110612eb257612eb161408a565b5b90600052602060002090600702016000820151816000019080519060200190612edc9291906131a1565b50602082015181600101556040820151816002015560608201518160030160006101000a81548160ff0219169083151502179055506080820151816004019080519060200190612f2d929190613227565b5060a0820151816005019080519060200190612f4a929190613227565b5060c0820151816006015590505085600360008a73ffffffffffffffffffffffffffffffffffffffff1673ffffffffffffffffffffffffffffffffffffffff1681526020019081526020016000206000820151816000019080519060200190612fb49291906131a1565b50602082015181600101556040820151816002015560608201518160030160006101000a81548160ff0219169083151502179055506080820151816004019080519060200190613005929190613227565b5060a0820151816005019080519060200190613022929190613227565b5060c0820151816006015590505060008360600190151590811515815250508260a001516000815181106130595761305861408a565b5b60200260200101600073ffffffffffffffffffffffffffffffffffffffff1681525082600360008b73ffffffffffffffffffffffffffffffffffffffff1673ffffffffffffffffffffffffffffffffffffffff16815260200190815260200160002060008201518160000190805190602001906130d79291906131a1565b50602082015181600101556040820151816002015560608201518160030160006101000a81548160ff0219169083151502179055506080820151816004019080519060200190613128929190613227565b5060a0820151816005019080519060200190613145929190613227565b5060c0820151816006015590505082965050505050505092915050565b6040518060e001604052806060815260200160008152602001600081526020016000151581526020016060815260200160608152602001600081525090565b8280546131ad90613eb9565b90600052602060002090601f0160209004810192826131cf5760008555613216565b82601f106131e857805160ff1916838001178555613216565b82800160010185558215613216579182015b828111156132155782518255916020019190600101906131fa565b5b5090506132239190613390565b5090565b8280548282559060005260206000209081019282156132a0579160200282015b8281111561329f5782518260006101000a81548173ffffffffffffffffffffffffffffffffffffffff021916908373ffffffffffffffffffffffffffffffffffffffff16021790555091602001919060010190613247565b5b5090506132ad9190613390565b5090565b8280546132bd90613eb9565b90600052602060002090601f0160209004810192826132df576000855561332d565b82601f106132f0578054855561332d565b8280016001018555821561332d57600052602060002091601f016020900482015b8281111561332c578254825591600101919060010190613311565b5b50905061333a9190613390565b5090565b82805482825590600052602060002090810192821561337f5760005260206000209182015b8281111561337e578254825591600101919060010190613363565b5b50905061338c9190613390565b5090565b5b808211156133a9576000816000905550600101613391565b5090565b6000604051905090565b600080fd5b600080fd5b600080fd5b600080fd5b6000601f19601f8301169050919050565b7f4e487b7100000000000000000000000000000000000000000000000000000000600052604160045260246000fd5b613414826133cb565b810181811067ffffffffffffffff82111715613433576134326133dc565b5b80604052505050565b60006134466133ad565b9050613452828261340b565b919050565b600067ffffffffffffffff821115613472576134716133dc565b5b61347b826133cb565b9050602081019050919050565b82818337600083830152505050565b60006134aa6134a584613457565b61343c565b9050828152602081018484840111156134c6576134c56133c6565b5b6134d1848285613488565b509392505050565b600082601f8301126134ee576134ed6133c1565b5b81356134fe848260208601613497565b91505092915050565b6000819050919050565b61351a81613507565b811461352557600080fd5b50565b60008135905061353781613511565b92915050565b60008115159050919050565b6135528161353d565b811461355d57600080fd5b50565b60008135905061356f81613549565b92915050565b60008060006060848603121561358e5761358d6133b7565b5b600084013567ffffffffffffffff8111156135ac576135ab6133bc565b5b6135b8868287016134d9565b93505060206135c986828701613528565b92505060406135da86828701613560565b9150509250925092565b600081519050919050565b600082825260208201905092915050565b60005b8381101561361e578082015181840152602081019050613603565b8381111561362d576000848401525b50505050565b600061363e826135e4565b61364881856135ef565b9350613658818560208601613600565b613661816133cb565b840191505092915050565b61367581613507565b82525050565b6136848161353d565b82525050565b600081519050919050565b600082825260208201905092915050565b6000819050602082019050919050565b600073ffffffffffffffffffffffffffffffffffffffff82169050919050565b60006136e1826136b6565b9050919050565b6136f1816136d6565b82525050565b600061370383836136e8565b60208301905092915050565b6000602082019050919050565b60006137278261368a565b6137318185613695565b935061373c836136a6565b8060005b8381101561376d57815161375488826136f7565b975061375f8361370f565b925050600181019050613740565b5085935050505092915050565b600060e08301600083015184820360008601526137978282613633565b91505060208301516137ac602086018261366c565b5060408301516137bf604086018261366c565b5060608301516137d2606086018261367b565b50608083015184820360808601526137ea828261371c565b91505060a083015184820360a0860152613804828261371c565b91505060c083015161381960c086018261366c565b508091505092915050565b6000602082019050818103600083015261383e818461377a565b905092915050565b600082825260208201905092915050565b60006138628261368a565b61386c8185613846565b9350613877836136a6565b8060005b838110156138a857815161388f88826136f7565b975061389a8361370f565b92505060018101905061387b565b5085935050505092915050565b600060208201905081810360008301526138cf8184613857565b905092915050565b600081519050919050565b600082825260208201905092915050565b6000819050602082019050919050565b600060e08301600083015184820360008601526139208282613633565b9150506020830151613935602086018261366c565b506040830151613948604086018261366c565b50606083015161395b606086018261367b565b5060808301518482036080860152613973828261371c565b91505060a083015184820360a086015261398d828261371c565b91505060c08301516139a260c086018261366c565b508091505092915050565b60006139b98383613903565b905092915050565b6000602082019050919050565b60006139d9826138d7565b6139e381856138e2565b9350836020820285016139f5856138f3565b8060005b85811015613a315784840389528151613a1285826139ad565b9450613a1d836139c1565b925060208a019950506001810190506139f9565b50829750879550505050505092915050565b60006020820190508181036000830152613a5d81846139ce565b905092915050565b613a6e81613507565b82525050565b6000602082019050613a896000830184613a65565b92915050565b600060208284031215613aa557613aa46133b7565b5b600082013567ffffffffffffffff811115613ac357613ac26133bc565b5b613acf848285016134d9565b91505092915050565b60008060408385031215613aef57613aee6133b7565b5b600083013567ffffffffffffffff811115613b0d57613b0c6133bc565b5b613b19858286016134d9565b9250506020613b2a85828601613560565b9150509250929050565b60006040820190508181036000830152613b4e818561377a565b9050613b5d6020830184613a65565b9392505050565b613b6d816136d6565b8114613b7857600080fd5b50565b600081359050613b8a81613b64565b92915050565b600060208284031215613ba657613ba56133b7565b5b6000613bb484828501613b7b565b91505092915050565b600080600060608486031215613bd657613bd56133b7565b5b6000613be486828701613b7b565b935050602084013567ffffffffffffffff811115613c0557613c046133bc565b5b613c11868287016134d9565b9250506040613c2286828701613528565b9150509250925092565b60008060408385031215613c4357613c426133b7565b5b6000613c5185828601613b7b565b9250506020613c6285828601613528565b9150509250929050565b6000613c77826136b6565b9050919050565b613c8781613c6c565b8114613c9257600080fd5b50565b600081359050613ca481613c7e565b92915050565b60008060408385031215613cc157613cc06133b7565b5b6000613ccf85828601613c95565b9250506020613ce085828601613528565b9150509250929050565b600081519050919050565b600082825260208201905092915050565b6000819050602082019050919050565b608082016000820151613d2c600085018261366c565b506020820151613d3f60208501826136e8565b506040820151613d5260408501826136e8565b506060820151613d65606085018261366c565b50505050565b6000613d778383613d16565b60808301905092915050565b6000602082019050919050565b6000613d9b82613cea565b613da58185613cf5565b9350613db083613d06565b8060005b83811015613de1578151613dc88882613d6b565b9750613dd383613d83565b925050600181019050613db4565b5085935050505092915050565b60006020820190508181036000830152613e088184613d90565b905092915050565b6000819050919050565b6000613e35613e30613e2b846136b6565b613e10565b6136b6565b9050919050565b6000613e4782613e1a565b9050919050565b6000613e5982613e3c565b9050919050565b613e6981613e4e565b82525050565b6000602082019050613e846000830184613e60565b92915050565b7f4e487b7100000000000000000000000000000000000000000000000000000000600052602260045260246000fd5b60006002820490506001821680613ed157607f821691505b60208210811415613ee557613ee4613e8a565b5b50919050565b600081905092915050565b60008190508160005260206000209050919050565b60008154613f1881613eb9565b613f228186613eeb565b94506001821660008114613f3d5760018114613f4e57613f81565b60ff19831686528186019350613f81565b613f5785613ef6565b60005b83811015613f7957815481890152600182019150602081019050613f5a565b838801955050505b50505092915050565b6000613f968284613f0b565b915081905092915050565b600082825260208201905092915050565b7f596f7520616c7265616479206861766520616e206163636f756e740000000000600082015250565b6000613fe8601b83613fa1565b9150613ff382613fb2565b602082019050919050565b6000602082019050818103600083015261401781613fdb565b9050919050565b7f596f752772652061646d696e2021212100000000000000000000000000000000600082015250565b6000614054601083613fa1565b915061405f8261401e565b602082019050919050565b6000602082019050818103600083015261408381614047565b9050919050565b7f4e487b7100000000000000000000000000000000000000000000000000000000600052603260045260246000fd5b7f4e487b7100000000000000000000000000000000000000000000000000000000600052601160045260246000fd5b60006140f382613507565b91507fffffffffffffffffffffffffffffffffffffffffffffffffffffffffffffffff821415614126576141256140b9565b5b600182019050919050565b61413a816136d6565b82525050565b600061414b826135e4565b6141558185613fa1565b9350614165818560208601613600565b61416e816133cb565b840191505092915050565b600060408201905061418e6000830185614131565b81810360208301526141a08184614140565b90509392505050565b7f546865206368696c6420646964206e6f7420666f756e64000000000000000000600082015250565b60006141df601783613fa1565b91506141ea826141a9565b602082019050919050565b6000602082019050818103600083015261420e816141d2565b9050919050565b7f596f752068617665206e6f7420616e79206368696c6400000000000000000000600082015250565b600061424b601683613fa1565b915061425682614215565b602082019050919050565b6000602082019050818103600083015261427a8161423e565b9050919050565b7f596f752772652061646d696e0000000000000000000000000000000000000000600082015250565b60006142b7600c83613fa1565b91506142c282614281565b602082019050919050565b600060208201905081810360008301526142e6816142aa565b9050919050565b7f596f752063616e206c696e6b206163636f756e74206166746572206c6f67676560008201527f6420696e00000000000000000000000000000000000000000000000000000000602082015250565b6000614349602483613fa1565b9150614354826142ed565b604082019050919050565b600060208201905081810360008301526143788161433c565b9050919050565b600061438a82613507565b915061439583613507565b9250827fffffffffffffffffffffffffffffffffffffffffffffffffffffffffffffffff038211156143ca576143c96140b9565b5b828201905092915050565b60006020820190506143ea6000830184614131565b92915050565b6000815190506143ff81613511565b92915050565b60006020828403121561441b5761441a6133b7565b5b6000614429848285016143f0565b91505092915050565b7f596f752776652061206c696d69746564206163636f756e74202c20796f75277260008201527f65206e6f7420616e206164756c74000000000000000000000000000000000000602082015250565b600061448e602e83613fa1565b915061449982614432565b604082019050919050565b600060208201905081810360008301526144bd81614481565b9050919050565b60006040820190506144d96000830185614131565b6144e66020830184613a65565b9392505050565b6000815190506144fc81613549565b92915050565b600060208284031215614518576145176133b7565b5b6000614526848285016144ed565b91505092915050565b50565b600061453f600083613eeb565b915061454a8261452f565b600082019050919050565b600061456082614532565b9150819050919050565b7f4661696c656420746f2073656e64204574686572000000000000000000000000600082015250565b60006145a0601483613fa1565b91506145ab8261456a565b602082019050919050565b600060208201905081810360008301526145cf81614593565b9050919050565b7f54686973206163636f756e74206973206e6f74206c696d697465640000000000600082015250565b600061460c601b83613fa1565b9150614617826145d6565b602082019050919050565b6000602082019050818103600083015261463b816145ff565b9050919050565b7f596f75206d757374206265206f776e657220746f2072756e2074686973206d6560008201527f74686f6400000000000000000000000000000000000000000000000000000000602082015250565b600061469e602483613fa1565b91506146a982614642565b604082019050919050565b600060208201905081810360008301526146cd81614691565b9050919050565b7f54686520706572736f6e20646964206e6f7420666f756e640000000000000000600082015250565b600061470a601883613fa1565b9150614715826146d4565b602082019050919050565b60006020820190508181036000830152614739816146fd565b905091905056fea26469706673582212208f8318f346cfd84b55e65c6d0daee728ab0ff84758a54a006513236f551c717964736f6c63430008090033",
  "linkReferences": {},
  "deployedLinkReferences": {}
}