{
  "_format": "hh-sol-artifact-1",
  "contractName": "BankingApp",
  "sourceName": "contracts/Banking.sol",
  "abi": [
    {
      "inputs": [
        {
          "internalType": "address",
          "name": "_token",
          "type": "address"
        },
        {
          "internalType": "address",
          "name": "_owner",
          "type": "address"
        }
      ],
      "stateMutability": "payable",
      "type": "constructor"
    },
    {
      "anonymous": false,
      "inputs": [
        {
          "indexed": false,
          "internalType": "address",
          "name": "owner",
          "type": "address"
        },
        {
          "indexed": false,
          "internalType": "string",
          "name": "child",
          "type": "string"
        }
      ],
      "name": "BalanceGot",
      "type": "event"
    },
    {
      "anonymous": false,
      "inputs": [
        {
          "indexed": false,
          "internalType": "address",
          "name": "from",
          "type": "address"
        },
        {
          "indexed": false,
          "internalType": "address",
          "name": "to",
          "type": "address"
        },
        {
          "indexed": false,
          "internalType": "uint256",
          "name": "amount",
          "type": "uint256"
        }
      ],
      "name": "InheritumSent",
      "type": "event"
    },
    {
      "anonymous": false,
      "inputs": [
        {
          "indexed": false,
          "internalType": "address",
          "name": "from",
          "type": "address"
        },
        {
          "indexed": false,
          "internalType": "address",
          "name": "to",
          "type": "address"
        },
        {
          "indexed": false,
          "internalType": "string",
          "name": "childName",
          "type": "string"
        },
        {
          "indexed": false,
          "internalType": "uint256",
          "name": "amount",
          "type": "uint256"
        }
      ],
      "name": "SentMoney",
      "type": "event"
    },
    {
      "anonymous": false,
      "inputs": [
        {
          "indexed": false,
          "internalType": "address",
          "name": "recipient",
          "type": "address"
        },
        {
          "indexed": false,
          "internalType": "uint256",
          "name": "amount",
          "type": "uint256"
        }
      ],
      "name": "allowanceTest",
      "type": "event"
    },
    {
      "inputs": [
        {
          "internalType": "uint256",
          "name": "",
          "type": "uint256"
        }
      ],
      "name": "GeneralTransactions",
      "outputs": [
        {
          "internalType": "uint256",
          "name": "timestamp",
          "type": "uint256"
        },
        {
          "internalType": "address",
          "name": "sender",
          "type": "address"
        },
        {
          "internalType": "address",
          "name": "receiver",
          "type": "address"
        },
        {
          "internalType": "uint256",
          "name": "amount",
          "type": "uint256"
        }
      ],
      "stateMutability": "view",
      "type": "function"
    },
    {
      "inputs": [
        {
          "internalType": "string",
          "name": "_name",
          "type": "string"
        },
        {
          "internalType": "uint256",
          "name": "_age",
          "type": "uint256"
        },
        {
          "internalType": "bool",
          "name": "isLimited",
          "type": "bool"
        }
      ],
      "name": "addPerson",
      "outputs": [
        {
          "components": [
            {
              "internalType": "string",
              "name": "name",
              "type": "string"
            },
            {
              "internalType": "uint256",
              "name": "age",
              "type": "uint256"
            },
            {
              "internalType": "uint256",
              "name": "balance",
              "type": "uint256"
            },
            {
              "internalType": "bool",
              "name": "isLimited",
              "type": "bool"
            },
            {
              "internalType": "address[]",
              "name": "children",
              "type": "address[]"
            },
            {
              "internalType": "address[]",
              "name": "parents",
              "type": "address[]"
            },
            {
              "internalType": "uint256",
              "name": "createdTime",
              "type": "uint256"
            }
          ],
          "internalType": "struct BankingApp.Person",
          "name": "",
          "type": "tuple"
        }
      ],
      "stateMutability": "nonpayable",
      "type": "function"
    },
    {
      "inputs": [
        {
          "internalType": "string",
          "name": "_name",
          "type": "string"
        },
        {
          "internalType": "bool",
          "name": "returnErr",
          "type": "bool"
        }
      ],
      "name": "findTheChild",
      "outputs": [
        {
          "components": [
            {
              "internalType": "string",
              "name": "name",
              "type": "string"
            },
            {
              "internalType": "uint256",
              "name": "age",
              "type": "uint256"
            },
            {
              "internalType": "uint256",
              "name": "balance",
              "type": "uint256"
            },
            {
              "internalType": "bool",
              "name": "isLimited",
              "type": "bool"
            },
            {
              "internalType": "address[]",
              "name": "children",
              "type": "address[]"
            },
            {
              "internalType": "address[]",
              "name": "parents",
              "type": "address[]"
            },
            {
              "internalType": "uint256",
              "name": "createdTime",
              "type": "uint256"
            }
          ],
          "internalType": "struct BankingApp.Person",
          "name": "",
          "type": "tuple"
        },
        {
          "internalType": "uint256",
          "name": "index",
          "type": "uint256"
        }
      ],
      "stateMutability": "view",
      "type": "function"
    },
    {
      "inputs": [
        {
          "internalType": "string",
          "name": "_name",
          "type": "string"
        },
        {
          "internalType": "bool",
          "name": "returnErr",
          "type": "bool"
        }
      ],
      "name": "findThePerson",
      "outputs": [
        {
          "components": [
            {
              "internalType": "string",
              "name": "name",
              "type": "string"
            },
            {
              "internalType": "uint256",
              "name": "age",
              "type": "uint256"
            },
            {
              "internalType": "uint256",
              "name": "balance",
              "type": "uint256"
            },
            {
              "internalType": "bool",
              "name": "isLimited",
              "type": "bool"
            },
            {
              "internalType": "address[]",
              "name": "children",
              "type": "address[]"
            },
            {
              "internalType": "address[]",
              "name": "parents",
              "type": "address[]"
            },
            {
              "internalType": "uint256",
              "name": "createdTime",
              "type": "uint256"
            }
          ],
          "internalType": "struct BankingApp.Person",
          "name": "",
          "type": "tuple"
        },
        {
          "internalType": "uint256",
          "name": "index",
          "type": "uint256"
        }
      ],
      "stateMutability": "view",
      "type": "function"
    },
    {
      "inputs": [],
      "name": "getAllTransactionRecorded",
      "outputs": [
        {
          "components": [
            {
              "internalType": "uint256",
              "name": "timestamp",
              "type": "uint256"
            },
            {
              "internalType": "address",
              "name": "sender",
              "type": "address"
            },
            {
              "internalType": "address",
              "name": "receiver",
              "type": "address"
            },
            {
              "internalType": "uint256",
              "name": "amount",
              "type": "uint256"
            }
          ],
          "internalType": "struct BankingApp.Transaction[]",
          "name": "",
          "type": "tuple[]"
        }
      ],
      "stateMutability": "view",
      "type": "function"
    },
    {
      "inputs": [],
      "name": "getBalanceOfInheritumToken",
      "outputs": [
        {
          "internalType": "uint256",
          "name": "",
          "type": "uint256"
        }
      ],
      "stateMutability": "view",
      "type": "function"
    },
    {
      "inputs": [],
      "name": "getChildren",
      "outputs": [
        {
          "internalType": "address[]",
          "name": "",
          "type": "address[]"
        }
      ],
      "stateMutability": "view",
      "type": "function"
    },
    {
      "inputs": [],
      "name": "getMyBalance",
      "outputs": [
        {
          "internalType": "uint256",
          "name": "",
          "type": "uint256"
        }
      ],
      "stateMutability": "view",
      "type": "function"
    },
    {
      "inputs": [],
      "name": "getMyChild",
      "outputs": [
        {
          "internalType": "address[]",
          "name": "",
          "type": "address[]"
        }
      ],
      "stateMutability": "view",
      "type": "function"
    },
    {
      "inputs": [
        {
          "internalType": "string",
          "name": "_name",
          "type": "string"
        }
      ],
      "name": "getMyChildBalance",
      "outputs": [
        {
          "internalType": "uint256",
          "name": "",
          "type": "uint256"
        }
      ],
      "stateMutability": "nonpayable",
      "type": "function"
    },
    {
      "inputs": [],
      "name": "getPersons",
      "outputs": [
        {
          "components": [
            {
              "internalType": "string",
              "name": "name",
              "type": "string"
            },
            {
              "internalType": "uint256",
              "name": "age",
              "type": "uint256"
            },
            {
              "internalType": "uint256",
              "name": "balance",
              "type": "uint256"
            },
            {
              "internalType": "bool",
              "name": "isLimited",
              "type": "bool"
            },
            {
              "internalType": "address[]",
              "name": "children",
              "type": "address[]"
            },
            {
              "internalType": "address[]",
              "name": "parents",
              "type": "address[]"
            },
            {
              "internalType": "uint256",
              "name": "createdTime",
              "type": "uint256"
            }
          ],
          "internalType": "struct BankingApp.Person[]",
          "name": "",
          "type": "tuple[]"
        }
      ],
      "stateMutability": "view",
      "type": "function"
    },
    {
      "inputs": [],
      "name": "getTranscationHistory",
      "outputs": [
        {
          "components": [
            {
              "internalType": "uint256",
              "name": "timestamp",
              "type": "uint256"
            },
            {
              "internalType": "address",
              "name": "sender",
              "type": "address"
            },
            {
              "internalType": "address",
              "name": "receiver",
              "type": "address"
            },
            {
              "internalType": "uint256",
              "name": "amount",
              "type": "uint256"
            }
          ],
          "internalType": "struct BankingApp.Transaction[]",
          "name": "",
          "type": "tuple[]"
        }
      ],
      "stateMutability": "view",
      "type": "function"
    },
    {
      "inputs": [
        {
          "internalType": "address",
          "name": "addr",
          "type": "address"
        }
      ],
      "name": "getUser",
      "outputs": [
        {
          "components": [
            {
              "internalType": "string",
              "name": "name",
              "type": "string"
            },
            {
              "internalType": "uint256",
              "name": "age",
              "type": "uint256"
            },
            {
              "internalType": "uint256",
              "name": "balance",
              "type": "uint256"
            },
            {
              "internalType": "bool",
              "name": "isLimited",
              "type": "bool"
            },
            {
              "internalType": "address[]",
              "name": "children",
              "type": "address[]"
            },
            {
              "internalType": "address[]",
              "name": "parents",
              "type": "address[]"
            },
            {
              "internalType": "uint256",
              "name": "createdTime",
              "type": "uint256"
            }
          ],
          "internalType": "struct BankingApp.Person",
          "name": "",
          "type": "tuple"
        }
      ],
      "stateMutability": "view",
      "type": "function"
    },
    {
      "inputs": [
        {
          "internalType": "address",
          "name": "childAccount",
          "type": "address"
        },
        {
          "internalType": "string",
          "name": "_name",
          "type": "string"
        },
        {
          "internalType": "uint256",
          "name": "_age",
          "type": "uint256"
        }
      ],
      "name": "linkAccount",
      "outputs": [
        {
          "components": [
            {
              "internalType": "string",
              "name": "name",
              "type": "string"
            },
            {
              "internalType": "uint256",
              "name": "age",
              "type": "uint256"
            },
            {
              "internalType": "uint256",
              "name": "balance",
              "type": "uint256"
            },
            {
              "internalType": "bool",
              "name": "isLimited",
              "type": "bool"
            },
            {
              "internalType": "address[]",
              "name": "children",
              "type": "address[]"
            },
            {
              "internalType": "address[]",
              "name": "parents",
              "type": "address[]"
            },
            {
              "internalType": "uint256",
              "name": "createdTime",
              "type": "uint256"
            }
          ],
          "internalType": "struct BankingApp.Person",
          "name": "",
          "type": "tuple"
        }
      ],
      "stateMutability": "nonpayable",
      "type": "function"
    },
    {
      "inputs": [
        {
          "internalType": "address",
          "name": "linked_account",
          "type": "address"
        }
      ],
      "name": "makeAccountisLimited",
      "outputs": [],
      "stateMutability": "nonpayable",
      "type": "function"
    },
    {
      "inputs": [
        {
          "internalType": "address payable",
          "name": "_to",
          "type": "address"
        },
        {
          "internalType": "uint256",
          "name": "amount",
          "type": "uint256"
        }
      ],
      "name": "sendEther",
      "outputs": [],
      "stateMutability": "payable",
      "type": "function"
    },
    {
      "inputs": [
        {
          "internalType": "address",
          "name": "_to",
          "type": "address"
        },
        {
          "internalType": "uint256",
          "name": "_amount",
          "type": "uint256"
        }
      ],
      "name": "sendTokenToChild",
      "outputs": [],
      "stateMutability": "nonpayable",
      "type": "function"
    },
    {
      "inputs": [],
      "name": "token",
      "outputs": [
        {
          "internalType": "contract IERC20",
          "name": "",
          "type": "address"
        }
      ],
      "stateMutability": "view",
      "type": "function"
    }
  ],
  "bytecode": "0x608060405260405162004deb38038062004deb83398181016040528101906200002991906200011c565b816000806101000a81548173ffffffffffffffffffffffffffffffffffffffff021916908373ffffffffffffffffffffffffffffffffffffffff16021790555080600160006101000a81548173ffffffffffffffffffffffffffffffffffffffff021916908373ffffffffffffffffffffffffffffffffffffffff160217905550505062000163565b600080fd5b600073ffffffffffffffffffffffffffffffffffffffff82169050919050565b6000620000e482620000b7565b9050919050565b620000f681620000d7565b81146200010257600080fd5b50565b6000815190506200011681620000eb565b92915050565b60008060408385031215620001365762000135620000b2565b5b6000620001468582860162000105565b9250506020620001598582860162000105565b9150509250929050565b614c7880620001736000396000f3fe6080604052600436106101095760003560e01c8063a5090f9711610095578063c81cdec911610064578063c81cdec91461039a578063dbc1a22b146103c5578063ee203fe6146103f0578063fbf8574d1461041b578063fc0c546a1461045957610109565b8063a5090f97146102ec578063b42fbdfd1461032c578063c1756a2c14610355578063c1a161771461037157610109565b80634c738909116100dc5780634c738909146101cc57806353a86c94146101f75780635412f1c9146102345780636f77926b146102725780638d6ec214146102af57610109565b8063032ce9aa1461010e5780633a34675d1461014b5780634892e8e8146101765780634c6b6c6f146101a1575b600080fd5b34801561011a57600080fd5b5061013560048036038101906101309190613a05565b610484565b6040516101429190613cb4565b60405180910390f35b34801561015757600080fd5b506101606109ff565b60405161016d9190613dda565b60405180910390f35b34801561018257600080fd5b5061018b610b1e565b6040516101989190613e6b565b60405180910390f35b3480156101ad57600080fd5b506101b6610c17565b6040516101c39190613ff9565b60405180910390f35b3480156101d857600080fd5b506101e1610e5d565b6040516101ee919061402a565b60405180910390f35b34801561020357600080fd5b5061021e60048036038101906102199190614045565b610e7c565b60405161022b919061402a565b60405180910390f35b34801561024057600080fd5b5061025b6004803603810190610256919061408e565b610ed7565b6040516102699291906140ea565b60405180910390f35b34801561027e57600080fd5b5061029960048036038101906102949190614146565b61101c565b6040516102a69190613cb4565b60405180910390f35b3480156102bb57600080fd5b506102d660048036038101906102d19190614173565b61125c565b6040516102e39190613cb4565b60405180910390f35b3480156102f857600080fd5b50610313600480360381019061030e91906141e2565b611e5e565b604051610323949392919061421e565b60405180910390f35b34801561033857600080fd5b50610353600480360381019061034e9190614263565b611ede565b005b61036f600480360381019061036a91906142e1565b6120df565b005b34801561037d57600080fd5b5061039860048036038101906103939190614146565b6122ad565b005b3480156103a657600080fd5b506103af61249a565b6040516103bc919061402a565b60405180910390f35b3480156103d157600080fd5b506103da61254b565b6040516103e79190613dda565b60405180910390f35b3480156103fc57600080fd5b506104056126a7565b6040516104129190613e6b565b60405180910390f35b34801561042757600080fd5b50610442600480360381019061043d919061408e565b612775565b6040516104509291906140ea565b60405180910390f35b34801561046557600080fd5b5061046e612a69565b60405161047b9190614380565b60405180910390f35b61048c6135f2565b6040518060200160405280600081525080519060200120600460003373ffffffffffffffffffffffffffffffffffffffff1673ffffffffffffffffffffffffffffffffffffffff1681526020019081526020016000206000016040516104f2919061449b565b60405180910390201461053a576040517f08c379a00000000000000000000000000000000000000000000000000000000081526004016105319061450f565b60405180910390fd5b600160009054906101000a900473ffffffffffffffffffffffffffffffffffffffff1673ffffffffffffffffffffffffffffffffffffffff163373ffffffffffffffffffffffffffffffffffffffff1614156105cb576040517f08c379a00000000000000000000000000000000000000000000000000000000081526004016105c29061457b565b60405180910390fd5b6000600460003373ffffffffffffffffffffffffffffffffffffffff1673ffffffffffffffffffffffffffffffffffffffff168152602001908152602001600020905084816000019080519060200190610626929190613631565b508381600101819055503373ffffffffffffffffffffffffffffffffffffffff16318160020181905550828160030160006101000a81548160ff021916908315150217905550600067ffffffffffffffff8111156106875761068661386c565b5b6040519080825280602002602001820160405280156106b55781602001602082028036833780820191505090505b508160040190805190602001906106cd9291906136b7565b50600067ffffffffffffffff8111156106e9576106e861386c565b5b6040519080825280602002602001820160405280156107175781602001602082028036833780820191505090505b5081600501908051906020019061072f9291906136b7565b504281600601819055506000816040518060e0016040529081600082018054610757906143ca565b80601f0160208091040260200160405190810160405280929190818152602001828054610783906143ca565b80156107d05780601f106107a5576101008083540402835291602001916107d0565b820191906000526020600020905b8154815290600101906020018083116107b357829003601f168201915b5050505050815260200160018201548152602001600282015481526020016003820160009054906101000a900460ff161515151581526020016004820180548060200260200160405190810160405280929190818152602001828054801561088d57602002820191906000526020600020905b8160009054906101000a900473ffffffffffffffffffffffffffffffffffffffff1673ffffffffffffffffffffffffffffffffffffffff1681526020019060010190808311610843575b505050505081526020016005820180548060200260200160405190810160405280929190818152602001828054801561091b57602002820191906000526020600020905b8160009054906101000a900473ffffffffffffffffffffffffffffffffffffffff1673ffffffffffffffffffffffffffffffffffffffff16815260200190600101908083116108d1575b50505050508152602001600682015481525050905060058190806001815401808255809150506001900390600052602060002090600702016000909190919091506000820151816000019080519060200190610978929190613631565b50602082015181600101556040820151816002015560608201518160030160006101000a81548160ff02191690831515021790555060808201518160040190805190602001906109c99291906136b7565b5060a08201518160050190805190602001906109e69291906136b7565b5060c08201518160060155505080925050509392505050565b60606002805480602002602001604051908101604052809291908181526020016000905b82821015610b155783829060005260206000209060040201604051806080016040529081600082015481526020016001820160009054906101000a900473ffffffffffffffffffffffffffffffffffffffff1673ffffffffffffffffffffffffffffffffffffffff1673ffffffffffffffffffffffffffffffffffffffff1681526020016002820160009054906101000a900473ffffffffffffffffffffffffffffffffffffffff1673ffffffffffffffffffffffffffffffffffffffff1673ffffffffffffffffffffffffffffffffffffffff16815260200160038201548152505081526020019060010190610a23565b50505050905090565b60606000610b2b3361101c565b9050600081608001515167ffffffffffffffff811115610b4e57610b4d61386c565b5b604051908082528060200260200182016040528015610b7c5781602001602082028036833780820191505090505b50905060005b826080015151811015610c0e5782608001518181518110610ba657610ba561459b565b5b6020026020010151828281518110610bc157610bc061459b565b5b602002602001019073ffffffffffffffffffffffffffffffffffffffff16908173ffffffffffffffffffffffffffffffffffffffff16815250508080610c06906145f9565b915050610b82565b50809250505090565b60606005805480602002602001604051908101604052809291908181526020016000905b82821015610e5457838290600052602060002090600702016040518060e0016040529081600082018054610c6e906143ca565b80601f0160208091040260200160405190810160405280929190818152602001828054610c9a906143ca565b8015610ce75780601f10610cbc57610100808354040283529160200191610ce7565b820191906000526020600020905b815481529060010190602001808311610cca57829003601f168201915b5050505050815260200160018201548152602001600282015481526020016003820160009054906101000a900460ff1615151515815260200160048201805480602002602001604051908101604052809291908181526020018280548015610da457602002820191906000526020600020905b8160009054906101000a900473ffffffffffffffffffffffffffffffffffffffff1673ffffffffffffffffffffffffffffffffffffffff1681526020019060010190808311610d5a575b5050505050815260200160058201805480602002602001604051908101604052809291908181526020018280548015610e3257602002820191906000526020600020905b8160009054906101000a900473ffffffffffffffffffffffffffffffffffffffff1673ffffffffffffffffffffffffffffffffffffffff1681526020019060010190808311610de8575b5050505050815260200160068201548152505081526020019060010190610c3b565b50505050905090565b60003373ffffffffffffffffffffffffffffffffffffffff1631905090565b600080610e8a836001610ed7565b5090507f43bffc0f95fb1b5cd921e2fa994fd3abf463eefb09b4b0fffddb4d365c172528338260000151604051610ec292919061467b565b60405180910390a18060400151915050919050565b610edf6135f2565b600080610eeb3361101c565b90506000816080015151905060018110610fda5760005b81811015610f8157600083608001518281518110610f2357610f2261459b565b5b602002602001015190506000610f388261101c565b600001519050888051906020012081805190602001201415610f6c57610f5d8261101c565b83965096505050505050611015565b50508080610f79906145f9565b915050610f02565b508415610fc3576040517f08c379a0000000000000000000000000000000000000000000000000000000008152600401610fba906146f7565b60405180910390fd5b610fcb6135f2565b80600094509450505050611015565b6040517f08c379a000000000000000000000000000000000000000000000000000000000815260040161100c90614763565b60405180910390fd5b9250929050565b6110246135f2565b600460008373ffffffffffffffffffffffffffffffffffffffff1673ffffffffffffffffffffffffffffffffffffffff1681526020019081526020016000206040518060e001604052908160008201805461107e906143ca565b80601f01602080910402602001604051908101604052809291908181526020018280546110aa906143ca565b80156110f75780601f106110cc576101008083540402835291602001916110f7565b820191906000526020600020905b8154815290600101906020018083116110da57829003601f168201915b5050505050815260200160018201548152602001600282015481526020016003820160009054906101000a900460ff16151515158152602001600482018054806020026020016040519081016040528092919081815260200182805480156111b457602002820191906000526020600020905b8160009054906101000a900473ffffffffffffffffffffffffffffffffffffffff1673ffffffffffffffffffffffffffffffffffffffff168152602001906001019080831161116a575b505050505081526020016005820180548060200260200160405190810160405280929190818152602001828054801561124257602002820191906000526020600020905b8160009054906101000a900473ffffffffffffffffffffffffffffffffffffffff1673ffffffffffffffffffffffffffffffffffffffff16815260200190600101908083116111f8575b505050505081526020016006820154815250509050919050565b6112646135f2565b600160009054906101000a900473ffffffffffffffffffffffffffffffffffffffff1673ffffffffffffffffffffffffffffffffffffffff163373ffffffffffffffffffffffffffffffffffffffff1614156112f5576040517f08c379a00000000000000000000000000000000000000000000000000000000081526004016112ec906147cf565b60405180910390fd5b60405180602001604052806000815250805190602001206113153361101c565b60000151805190602001201415611361576040517f08c379a000000000000000000000000000000000000000000000000000000000815260040161135890614861565b60405180910390fd5b6000600460003373ffffffffffffffffffffffffffffffffffffffff1673ffffffffffffffffffffffffffffffffffffffff168152602001908152602001600020905080600401859080600181540180825580915050600190039060005260206000200160009091909190916101000a81548173ffffffffffffffffffffffffffffffffffffffff021916908373ffffffffffffffffffffffffffffffffffffffff16021790555080600460003373ffffffffffffffffffffffffffffffffffffffff1673ffffffffffffffffffffffffffffffffffffffff168152602001908152602001600020600082018160000190805461145d906143ca565b611468929190613741565b5060018201548160010155600282015481600201556003820160009054906101000a900460ff168160030160006101000a81548160ff02191690831515021790555060048201816004019080546114c09291906137ce565b5060058201816005019080546114d79291906137ce565b506006820154816006015590505060008061157f8360000180546114fa906143ca565b80601f0160208091040260200160405190810160405280929190818152602001828054611526906143ca565b80156115735780601f1061154857610100808354040283529160200191611573565b820191906000526020600020905b81548152906001019060200180831161155657829003601f168201915b50505050506000612775565b91509150600581815481106115975761159661459b565b5b9060005260206000209060070201600401879080600181540180825580915050600190039060005260206000200160009091909190916101000a81548173ffffffffffffffffffffffffffffffffffffffff021916908373ffffffffffffffffffffffffffffffffffffffff1602179055506040518060200160405280600081525080519060200120600460008973ffffffffffffffffffffffffffffffffffffffff1673ffffffffffffffffffffffffffffffffffffffff16815260200190815260200160002060000160405161166f919061449b565b6040518091039020146119dc5760006116878861101c565b905060008160a0015151905060008260a0015190506040518060e001604052808a815260200189815260200160008152602001600115158152602001600067ffffffffffffffff8111156116de576116dd61386c565b5b60405190808252806020026020018201604052801561170c5781602001602082028036833780820191505090505b50815260200160018461171f9190614881565b67ffffffffffffffff8111156117385761173761386c565b5b6040519080825280602002602001820160405280156117665781602001602082028036833780820191505090505b50815260200142815250600460008c73ffffffffffffffffffffffffffffffffffffffff1673ffffffffffffffffffffffffffffffffffffffff16815260200190815260200160002060008201518160000190805190602001906117cb929190613631565b50602082015181600101556040820151816002015560608201518160030160006101000a81548160ff021916908315150217905550608082015181600401908051906020019061181c9291906136b7565b5060a08201518160050190805190602001906118399291906136b7565b5060c0820151816006015590505060005b6001836118579190614881565b8110156119d357828114156119085733600460008d73ffffffffffffffffffffffffffffffffffffffff1673ffffffffffffffffffffffffffffffffffffffff16815260200190815260200160002060050182815481106118bb576118ba61459b565b5b9060005260206000200160006101000a81548173ffffffffffffffffffffffffffffffffffffffff021916908373ffffffffffffffffffffffffffffffffffffffff1602179055506119c0565b81818151811061191b5761191a61459b565b5b6020026020010151600460008d73ffffffffffffffffffffffffffffffffffffffff1673ffffffffffffffffffffffffffffffffffffffff16815260200190815260200160002060050182815481106119775761197661459b565b5b9060005260206000200160006101000a81548173ffffffffffffffffffffffffffffffffffffffff021916908373ffffffffffffffffffffffffffffffffffffffff1602179055505b80806119cb906145f9565b91505061184a565b50505050611c1b565b6040518060e0016040528087815260200186815260200160008152602001600115158152602001600067ffffffffffffffff811115611a1e57611a1d61386c565b5b604051908082528060200260200182016040528015611a4c5781602001602082028036833780820191505090505b508152602001600167ffffffffffffffff811115611a6d57611a6c61386c565b5b604051908082528060200260200182016040528015611a9b5781602001602082028036833780820191505090505b50815260200142815250600460008973ffffffffffffffffffffffffffffffffffffffff1673ffffffffffffffffffffffffffffffffffffffff1681526020019081526020016000206000820151816000019080519060200190611b00929190613631565b50602082015181600101556040820151816002015560608201518160030160006101000a81548160ff0219169083151502179055506080820151816004019080519060200190611b519291906136b7565b5060a0820151816005019080519060200190611b6e9291906136b7565b5060c0820151816006015590505033600460008973ffffffffffffffffffffffffffffffffffffffff1673ffffffffffffffffffffffffffffffffffffffff168152602001908152602001600020600501600081548110611bd257611bd161459b565b5b9060005260206000200160006101000a81548173ffffffffffffffffffffffffffffffffffffffff021916908373ffffffffffffffffffffffffffffffffffffffff1602179055505b6000600460003373ffffffffffffffffffffffffffffffffffffffff1673ffffffffffffffffffffffffffffffffffffffff1681526020019081526020016000206040518060e0016040529081600082018054611c77906143ca565b80601f0160208091040260200160405190810160405280929190818152602001828054611ca3906143ca565b8015611cf05780601f10611cc557610100808354040283529160200191611cf0565b820191906000526020600020905b815481529060010190602001808311611cd357829003601f168201915b5050505050815260200160018201548152602001600282015481526020016003820160009054906101000a900460ff1615151515815260200160048201805480602002602001604051908101604052809291908181526020018280548015611dad57602002820191906000526020600020905b8160009054906101000a900473ffffffffffffffffffffffffffffffffffffffff1673ffffffffffffffffffffffffffffffffffffffff1681526020019060010190808311611d63575b5050505050815260200160058201805480602002602001604051908101604052809291908181526020018280548015611e3b57602002820191906000526020600020905b8160009054906101000a900473ffffffffffffffffffffffffffffffffffffffff1673ffffffffffffffffffffffffffffffffffffffff1681526020019060010190808311611df1575b505050505081526020016006820154815250509050809450505050509392505050565b60028181548110611e6e57600080fd5b90600052602060002090600402016000915090508060000154908060010160009054906101000a900473ffffffffffffffffffffffffffffffffffffffff16908060020160009054906101000a900473ffffffffffffffffffffffffffffffffffffffff16908060030154905084565b808060008054906101000a900473ffffffffffffffffffffffffffffffffffffffff1673ffffffffffffffffffffffffffffffffffffffff166370a08231336040518263ffffffff1660e01b8152600401611f3991906148d7565b60206040518083038186803b158015611f5157600080fd5b505afa158015611f65573d6000803e3d6000fd5b505050506040513d601f19601f82011682018060405250810190611f899190614907565b1015611f9457600080fd5b600460003373ffffffffffffffffffffffffffffffffffffffff1673ffffffffffffffffffffffffffffffffffffffff16815260200190815260200160002060030160009054906101000a900460ff16600015158115151461202b576040517f08c379a0000000000000000000000000000000000000000000000000000000008152600401612022906149a6565b60405180910390fd5b60008054906101000a900473ffffffffffffffffffffffffffffffffffffffff1673ffffffffffffffffffffffffffffffffffffffff1663a9059cbb85856040518363ffffffff1660e01b81526004016120869291906149c6565b602060405180830381600087803b1580156120a057600080fd5b505af11580156120b4573d6000803e3d6000fd5b505050506040513d601f19601f820116820180604052508101906120d89190614a04565b5050505050565b600460003373ffffffffffffffffffffffffffffffffffffffff1673ffffffffffffffffffffffffffffffffffffffff16815260200190815260200160002060030160009054906101000a900460ff166000151581151514612176576040517f08c379a000000000000000000000000000000000000000000000000000000000815260040161216d906149a6565b60405180910390fd5b60008373ffffffffffffffffffffffffffffffffffffffff168360405161219c90614a57565b60006040518083038185875af1925050503d80600081146121d9576040519150601f19603f3d011682016040523d82523d6000602084013e6121de565b606091505b5050905080612222576040517f08c379a000000000000000000000000000000000000000000000000000000000815260040161221990614ab8565b60405180910390fd5b61222e84846001612a8d565b60006122398561101c565b9050600115158160600151151514156122a65783600460008773ffffffffffffffffffffffffffffffffffffffff1673ffffffffffffffffffffffffffffffffffffffff168152602001908152602001600020600201600082825461229e9190614881565b925050819055505b5050505050565b80600115156122bb8261101c565b60600151151514612301576040517f08c379a00000000000000000000000000000000000000000000000000000000081526004016122f890614b24565b60405180910390fd5b600160009054906101000a900473ffffffffffffffffffffffffffffffffffffffff1673ffffffffffffffffffffffffffffffffffffffff163373ffffffffffffffffffffffffffffffffffffffff1614612391576040517f08c379a000000000000000000000000000000000000000000000000000000000815260040161238890614bb6565b60405180910390fd5b600061239c8361101c565b905060008160a001516000815181106123b8576123b761459b565b5b6020026020010151905060006123ce85836132a6565b905060058190806001815401808255809150506001900390600052602060002090600702016000909190919091506000820151816000019080519060200190612418929190613631565b50602082015181600101556040820151816002015560608201518160030160006101000a81548160ff02191690831515021790555060808201518160040190805190602001906124699291906136b7565b5060a08201518160050190805190602001906124869291906136b7565b5060c0820151816006015550505050505050565b60008060009054906101000a900473ffffffffffffffffffffffffffffffffffffffff1673ffffffffffffffffffffffffffffffffffffffff166370a08231336040518263ffffffff1660e01b81526004016124f691906148d7565b60206040518083038186803b15801561250e57600080fd5b505afa158015612522573d6000803e3d6000fd5b505050506040513d601f19601f820116820180604052508101906125469190614907565b905090565b6060600360003373ffffffffffffffffffffffffffffffffffffffff1673ffffffffffffffffffffffffffffffffffffffff168152602001908152602001600020805480602002602001604051908101604052809291908181526020016000905b8282101561269e5783829060005260206000209060040201604051806080016040529081600082015481526020016001820160009054906101000a900473ffffffffffffffffffffffffffffffffffffffff1673ffffffffffffffffffffffffffffffffffffffff1673ffffffffffffffffffffffffffffffffffffffff1681526020016002820160009054906101000a900473ffffffffffffffffffffffffffffffffffffffff1673ffffffffffffffffffffffffffffffffffffffff1673ffffffffffffffffffffffffffffffffffffffff168152602001600382015481525050815260200190600101906125ac565b50505050905090565b6060600460003373ffffffffffffffffffffffffffffffffffffffff1673ffffffffffffffffffffffffffffffffffffffff16815260200190815260200160002060040180548060200260200160405190810160405280929190818152602001828054801561276b57602002820191906000526020600020905b8160009054906101000a900473ffffffffffffffffffffffffffffffffffffffff1673ffffffffffffffffffffffffffffffffffffffff1681526020019060010190808311612721575b5050505050905090565b61277d6135f2565b600080600090505b600580549050811015612a0f578480519060200120600582815481106127ae576127ad61459b565b5b90600052602060002090600702016000016040516127cc919061449b565b604051809103902014156129fc57600581815481106127ee576127ed61459b565b5b906000526020600020906007020181816040518060e0016040529081600082018054612819906143ca565b80601f0160208091040260200160405190810160405280929190818152602001828054612845906143ca565b80156128925780601f1061286757610100808354040283529160200191612892565b820191906000526020600020905b81548152906001019060200180831161287557829003601f168201915b5050505050815260200160018201548152602001600282015481526020016003820160009054906101000a900460ff161515151581526020016004820180548060200260200160405190810160405280929190818152602001828054801561294f57602002820191906000526020600020905b8160009054906101000a900473ffffffffffffffffffffffffffffffffffffffff1673ffffffffffffffffffffffffffffffffffffffff1681526020019060010190808311612905575b50505050508152602001600582018054806020026020016040519081016040528092919081815260200182805480156129dd57602002820191906000526020600020905b8160009054906101000a900473ffffffffffffffffffffffffffffffffffffffff1673ffffffffffffffffffffffffffffffffffffffff1681526020019060010190808311612993575b5050505050815260200160068201548152505091509250925050612a62565b8080612a07906145f9565b915050612785565b508215612a51576040517f08c379a0000000000000000000000000000000000000000000000000000000008152600401612a4890614c22565b60405180910390fd5b612a596135f2565b80600092509250505b9250929050565b60008054906101000a900473ffffffffffffffffffffffffffffffffffffffff1681565b6040518060200160405280600081525080519060200120612aad3361101c565b60000151805190602001201415612af9576040517f08c379a0000000000000000000000000000000000000000000000000000000008152600401612af090614861565b60405180910390fd5b8015612ed257600360003373ffffffffffffffffffffffffffffffffffffffff1673ffffffffffffffffffffffffffffffffffffffff16815260200190815260200160002060405180608001604052804281526020013373ffffffffffffffffffffffffffffffffffffffff1681526020018573ffffffffffffffffffffffffffffffffffffffff1681526020018481525090806001815401808255809150506001900390600052602060002090600402016000909190919091506000820151816000015560208201518160010160006101000a81548173ffffffffffffffffffffffffffffffffffffffff021916908373ffffffffffffffffffffffffffffffffffffffff16021790555060408201518160020160006101000a81548173ffffffffffffffffffffffffffffffffffffffff021916908373ffffffffffffffffffffffffffffffffffffffff160217905550606082015181600301555050600260405180608001604052804281526020013373ffffffffffffffffffffffffffffffffffffffff1681526020018573ffffffffffffffffffffffffffffffffffffffff1681526020018481525090806001815401808255809150506001900390600052602060002090600402016000909190919091506000820151816000015560208201518160010160006101000a81548173ffffffffffffffffffffffffffffffffffffffff021916908373ffffffffffffffffffffffffffffffffffffffff16021790555060408201518160020160006101000a81548173ffffffffffffffffffffffffffffffffffffffff021916908373ffffffffffffffffffffffffffffffffffffffff160217905550606082015181600301555050600360008473ffffffffffffffffffffffffffffffffffffffff1673ffffffffffffffffffffffffffffffffffffffff16815260200190815260200160002060405180608001604052804281526020013373ffffffffffffffffffffffffffffffffffffffff1681526020018573ffffffffffffffffffffffffffffffffffffffff1681526020018481525090806001815401808255809150506001900390600052602060002090600402016000909190919091506000820151816000015560208201518160010160006101000a81548173ffffffffffffffffffffffffffffffffffffffff021916908373ffffffffffffffffffffffffffffffffffffffff16021790555060408201518160020160006101000a81548173ffffffffffffffffffffffffffffffffffffffff021916908373ffffffffffffffffffffffffffffffffffffffff1602179055506060820151816003015550506132a1565b600360008473ffffffffffffffffffffffffffffffffffffffff1673ffffffffffffffffffffffffffffffffffffffff16815260200190815260200160002060405180608001604052804281526020018573ffffffffffffffffffffffffffffffffffffffff1681526020013373ffffffffffffffffffffffffffffffffffffffff1681526020018481525090806001815401808255809150506001900390600052602060002090600402016000909190919091506000820151816000015560208201518160010160006101000a81548173ffffffffffffffffffffffffffffffffffffffff021916908373ffffffffffffffffffffffffffffffffffffffff16021790555060408201518160020160006101000a81548173ffffffffffffffffffffffffffffffffffffffff021916908373ffffffffffffffffffffffffffffffffffffffff160217905550606082015181600301555050600360003373ffffffffffffffffffffffffffffffffffffffff1673ffffffffffffffffffffffffffffffffffffffff16815260200190815260200160002060405180608001604052804281526020018573ffffffffffffffffffffffffffffffffffffffff1681526020013373ffffffffffffffffffffffffffffffffffffffff1681526020018481525090806001815401808255809150506001900390600052602060002090600402016000909190919091506000820151816000015560208201518160010160006101000a81548173ffffffffffffffffffffffffffffffffffffffff021916908373ffffffffffffffffffffffffffffffffffffffff16021790555060408201518160020160006101000a81548173ffffffffffffffffffffffffffffffffffffffff021916908373ffffffffffffffffffffffffffffffffffffffff160217905550606082015181600301555050600260405180608001604052804281526020018573ffffffffffffffffffffffffffffffffffffffff1681526020013373ffffffffffffffffffffffffffffffffffffffff1681526020018481525090806001815401808255809150506001900390600052602060002090600402016000909190919091506000820151816000015560208201518160010160006101000a81548173ffffffffffffffffffffffffffffffffffffffff021916908373ffffffffffffffffffffffffffffffffffffffff16021790555060408201518160020160006101000a81548173ffffffffffffffffffffffffffffffffffffffff021916908373ffffffffffffffffffffffffffffffffffffffff1602179055506060820151816003015550505b505050565b6132ae6135f2565b60006132b98361101c565b90506000806132cd83600001516000612775565b9150915060006132dc8761101c565b90506000806132f083600001516000612775565b915091508560800151818151811061330b5761330a61459b565b5b60200260200101600073ffffffffffffffffffffffffffffffffffffffff1681525085600585815481106133425761334161459b565b5b9060005260206000209060070201600082015181600001908051906020019061336c929190613631565b50602082015181600101556040820151816002015560608201518160030160006101000a81548160ff02191690831515021790555060808201518160040190805190602001906133bd9291906136b7565b5060a08201518160050190805190602001906133da9291906136b7565b5060c0820151816006015590505085600460008a73ffffffffffffffffffffffffffffffffffffffff1673ffffffffffffffffffffffffffffffffffffffff1681526020019081526020016000206000820151816000019080519060200190613444929190613631565b50602082015181600101556040820151816002015560608201518160030160006101000a81548160ff02191690831515021790555060808201518160040190805190602001906134959291906136b7565b5060a08201518160050190805190602001906134b29291906136b7565b5060c0820151816006015590505060008360600190151590811515815250508260a001516000815181106134e9576134e861459b565b5b60200260200101600073ffffffffffffffffffffffffffffffffffffffff1681525082600460008b73ffffffffffffffffffffffffffffffffffffffff1673ffffffffffffffffffffffffffffffffffffffff1681526020019081526020016000206000820151816000019080519060200190613567929190613631565b50602082015181600101556040820151816002015560608201518160030160006101000a81548160ff02191690831515021790555060808201518160040190805190602001906135b89291906136b7565b5060a08201518160050190805190602001906135d59291906136b7565b5060c0820151816006015590505082965050505050505092915050565b6040518060e001604052806060815260200160008152602001600081526020016000151581526020016060815260200160608152602001600081525090565b82805461363d906143ca565b90600052602060002090601f01602090048101928261365f57600085556136a6565b82601f1061367857805160ff19168380011785556136a6565b828001600101855582156136a6579182015b828111156136a557825182559160200191906001019061368a565b5b5090506136b39190613820565b5090565b828054828255906000526020600020908101928215613730579160200282015b8281111561372f5782518260006101000a81548173ffffffffffffffffffffffffffffffffffffffff021916908373ffffffffffffffffffffffffffffffffffffffff160217905550916020019190600101906136d7565b5b50905061373d9190613820565b5090565b82805461374d906143ca565b90600052602060002090601f01602090048101928261376f57600085556137bd565b82601f1061378057805485556137bd565b828001600101855582156137bd57600052602060002091601f016020900482015b828111156137bc5782548255916001019190600101906137a1565b5b5090506137ca9190613820565b5090565b82805482825590600052602060002090810192821561380f5760005260206000209182015b8281111561380e5782548255916001019190600101906137f3565b5b50905061381c9190613820565b5090565b5b80821115613839576000816000905550600101613821565b5090565b6000604051905090565b600080fd5b600080fd5b600080fd5b600080fd5b6000601f19601f8301169050919050565b7f4e487b7100000000000000000000000000000000000000000000000000000000600052604160045260246000fd5b6138a48261385b565b810181811067ffffffffffffffff821117156138c3576138c261386c565b5b80604052505050565b60006138d661383d565b90506138e2828261389b565b919050565b600067ffffffffffffffff8211156139025761390161386c565b5b61390b8261385b565b9050602081019050919050565b82818337600083830152505050565b600061393a613935846138e7565b6138cc565b90508281526020810184848401111561395657613955613856565b5b613961848285613918565b509392505050565b600082601f83011261397e5761397d613851565b5b813561398e848260208601613927565b91505092915050565b6000819050919050565b6139aa81613997565b81146139b557600080fd5b50565b6000813590506139c7816139a1565b92915050565b60008115159050919050565b6139e2816139cd565b81146139ed57600080fd5b50565b6000813590506139ff816139d9565b92915050565b600080600060608486031215613a1e57613a1d613847565b5b600084013567ffffffffffffffff811115613a3c57613a3b61384c565b5b613a4886828701613969565b9350506020613a59868287016139b8565b9250506040613a6a868287016139f0565b9150509250925092565b600081519050919050565b600082825260208201905092915050565b60005b83811015613aae578082015181840152602081019050613a93565b83811115613abd576000848401525b50505050565b6000613ace82613a74565b613ad88185613a7f565b9350613ae8818560208601613a90565b613af18161385b565b840191505092915050565b613b0581613997565b82525050565b613b14816139cd565b82525050565b600081519050919050565b600082825260208201905092915050565b6000819050602082019050919050565b600073ffffffffffffffffffffffffffffffffffffffff82169050919050565b6000613b7182613b46565b9050919050565b613b8181613b66565b82525050565b6000613b938383613b78565b60208301905092915050565b6000602082019050919050565b6000613bb782613b1a565b613bc18185613b25565b9350613bcc83613b36565b8060005b83811015613bfd578151613be48882613b87565b9750613bef83613b9f565b925050600181019050613bd0565b5085935050505092915050565b600060e0830160008301518482036000860152613c278282613ac3565b9150506020830151613c3c6020860182613afc565b506040830151613c4f6040860182613afc565b506060830151613c626060860182613b0b565b5060808301518482036080860152613c7a8282613bac565b91505060a083015184820360a0860152613c948282613bac565b91505060c0830151613ca960c0860182613afc565b508091505092915050565b60006020820190508181036000830152613cce8184613c0a565b905092915050565b600081519050919050565b600082825260208201905092915050565b6000819050602082019050919050565b608082016000820151613d186000850182613afc565b506020820151613d2b6020850182613b78565b506040820151613d3e6040850182613b78565b506060820151613d516060850182613afc565b50505050565b6000613d638383613d02565b60808301905092915050565b6000602082019050919050565b6000613d8782613cd6565b613d918185613ce1565b9350613d9c83613cf2565b8060005b83811015613dcd578151613db48882613d57565b9750613dbf83613d6f565b925050600181019050613da0565b5085935050505092915050565b60006020820190508181036000830152613df48184613d7c565b905092915050565b600082825260208201905092915050565b6000613e1882613b1a565b613e228185613dfc565b9350613e2d83613b36565b8060005b83811015613e5e578151613e458882613b87565b9750613e5083613b9f565b925050600181019050613e31565b5085935050505092915050565b60006020820190508181036000830152613e858184613e0d565b905092915050565b600081519050919050565b600082825260208201905092915050565b6000819050602082019050919050565b600060e0830160008301518482036000860152613ed68282613ac3565b9150506020830151613eeb6020860182613afc565b506040830151613efe6040860182613afc565b506060830151613f116060860182613b0b565b5060808301518482036080860152613f298282613bac565b91505060a083015184820360a0860152613f438282613bac565b91505060c0830151613f5860c0860182613afc565b508091505092915050565b6000613f6f8383613eb9565b905092915050565b6000602082019050919050565b6000613f8f82613e8d565b613f998185613e98565b935083602082028501613fab85613ea9565b8060005b85811015613fe75784840389528151613fc88582613f63565b9450613fd383613f77565b925060208a01995050600181019050613faf565b50829750879550505050505092915050565b600060208201905081810360008301526140138184613f84565b905092915050565b61402481613997565b82525050565b600060208201905061403f600083018461401b565b92915050565b60006020828403121561405b5761405a613847565b5b600082013567ffffffffffffffff8111156140795761407861384c565b5b61408584828501613969565b91505092915050565b600080604083850312156140a5576140a4613847565b5b600083013567ffffffffffffffff8111156140c3576140c261384c565b5b6140cf85828601613969565b92505060206140e0858286016139f0565b9150509250929050565b600060408201905081810360008301526141048185613c0a565b9050614113602083018461401b565b9392505050565b61412381613b66565b811461412e57600080fd5b50565b6000813590506141408161411a565b92915050565b60006020828403121561415c5761415b613847565b5b600061416a84828501614131565b91505092915050565b60008060006060848603121561418c5761418b613847565b5b600061419a86828701614131565b935050602084013567ffffffffffffffff8111156141bb576141ba61384c565b5b6141c786828701613969565b92505060406141d8868287016139b8565b9150509250925092565b6000602082840312156141f8576141f7613847565b5b6000614206848285016139b8565b91505092915050565b61421881613b66565b82525050565b6000608082019050614233600083018761401b565b614240602083018661420f565b61424d604083018561420f565b61425a606083018461401b565b95945050505050565b6000806040838503121561427a57614279613847565b5b600061428885828601614131565b9250506020614299858286016139b8565b9150509250929050565b60006142ae82613b46565b9050919050565b6142be816142a3565b81146142c957600080fd5b50565b6000813590506142db816142b5565b92915050565b600080604083850312156142f8576142f7613847565b5b6000614306858286016142cc565b9250506020614317858286016139b8565b9150509250929050565b6000819050919050565b600061434661434161433c84613b46565b614321565b613b46565b9050919050565b60006143588261432b565b9050919050565b600061436a8261434d565b9050919050565b61437a8161435f565b82525050565b60006020820190506143956000830184614371565b92915050565b7f4e487b7100000000000000000000000000000000000000000000000000000000600052602260045260246000fd5b600060028204905060018216806143e257607f821691505b602082108114156143f6576143f561439b565b5b50919050565b600081905092915050565b60008190508160005260206000209050919050565b60008154614429816143ca565b61443381866143fc565b9450600182166000811461444e576001811461445f57614492565b60ff19831686528186019350614492565b61446885614407565b60005b8381101561448a5781548189015260018201915060208101905061446b565b838801955050505b50505092915050565b60006144a7828461441c565b915081905092915050565b600082825260208201905092915050565b7f596f7520616c7265616479206861766520616e206163636f756e740000000000600082015250565b60006144f9601b836144b2565b9150614504826144c3565b602082019050919050565b60006020820190508181036000830152614528816144ec565b9050919050565b7f596f752772652061646d696e2021212100000000000000000000000000000000600082015250565b60006145656010836144b2565b91506145708261452f565b602082019050919050565b6000602082019050818103600083015261459481614558565b9050919050565b7f4e487b7100000000000000000000000000000000000000000000000000000000600052603260045260246000fd5b7f4e487b7100000000000000000000000000000000000000000000000000000000600052601160045260246000fd5b600061460482613997565b91507fffffffffffffffffffffffffffffffffffffffffffffffffffffffffffffffff821415614637576146366145ca565b5b600182019050919050565b600061464d82613a74565b61465781856144b2565b9350614667818560208601613a90565b6146708161385b565b840191505092915050565b6000604082019050614690600083018561420f565b81810360208301526146a28184614642565b90509392505050565b7f546865206368696c6420646964206e6f7420666f756e64000000000000000000600082015250565b60006146e16017836144b2565b91506146ec826146ab565b602082019050919050565b60006020820190508181036000830152614710816146d4565b9050919050565b7f596f752068617665206e6f7420616e79206368696c6400000000000000000000600082015250565b600061474d6016836144b2565b915061475882614717565b602082019050919050565b6000602082019050818103600083015261477c81614740565b9050919050565b7f596f752772652061646d696e0000000000000000000000000000000000000000600082015250565b60006147b9600c836144b2565b91506147c482614783565b602082019050919050565b600060208201905081810360008301526147e8816147ac565b9050919050565b7f596f752063616e206c696e6b206163636f756e74206166746572206c6f67676560008201527f6420696e00000000000000000000000000000000000000000000000000000000602082015250565b600061484b6024836144b2565b9150614856826147ef565b604082019050919050565b6000602082019050818103600083015261487a8161483e565b9050919050565b600061488c82613997565b915061489783613997565b9250827fffffffffffffffffffffffffffffffffffffffffffffffffffffffffffffffff038211156148cc576148cb6145ca565b5b828201905092915050565b60006020820190506148ec600083018461420f565b92915050565b600081519050614901816139a1565b92915050565b60006020828403121561491d5761491c613847565b5b600061492b848285016148f2565b91505092915050565b7f596f752776652061206c696d69746564206163636f756e74202c20796f75277260008201527f65206e6f7420616e206164756c74000000000000000000000000000000000000602082015250565b6000614990602e836144b2565b915061499b82614934565b604082019050919050565b600060208201905081810360008301526149bf81614983565b9050919050565b60006040820190506149db600083018561420f565b6149e8602083018461401b565b9392505050565b6000815190506149fe816139d9565b92915050565b600060208284031215614a1a57614a19613847565b5b6000614a28848285016149ef565b91505092915050565b50565b6000614a416000836143fc565b9150614a4c82614a31565b600082019050919050565b6000614a6282614a34565b9150819050919050565b7f4661696c656420746f2073656e64204574686572000000000000000000000000600082015250565b6000614aa26014836144b2565b9150614aad82614a6c565b602082019050919050565b60006020820190508181036000830152614ad181614a95565b9050919050565b7f54686973206163636f756e74206973206e6f74206c696d697465640000000000600082015250565b6000614b0e601b836144b2565b9150614b1982614ad8565b602082019050919050565b60006020820190508181036000830152614b3d81614b01565b9050919050565b7f596f75206d757374206265206f776e657220746f2072756e2074686973206d6560008201527f74686f6400000000000000000000000000000000000000000000000000000000602082015250565b6000614ba06024836144b2565b9150614bab82614b44565b604082019050919050565b60006020820190508181036000830152614bcf81614b93565b9050919050565b7f54686520706572736f6e20646964206e6f7420666f756e640000000000000000600082015250565b6000614c0c6018836144b2565b9150614c1782614bd6565b602082019050919050565b60006020820190508181036000830152614c3b81614bff565b905091905056fea2646970667358221220aa32a187713459aaf54a7a4c21dc621c64e512a81de4d5925459891b21fcba6f64736f6c63430008090033",
  "linkReferences": {},
  "deployedLinkReferences": {}
}