{
  "_format": "hh-sol-artifact-1",
  "contractName": "BankingApp",
  "sourceName": "contracts/Banking.sol",
  "abi": [
    {
      "inputs": [
        {
          "internalType": "address",
          "name": "_token",
          "type": "address"
        },
        {
          "internalType": "address",
          "name": "_owner",
          "type": "address"
        }
      ],
      "stateMutability": "payable",
      "type": "constructor"
    },
    {
      "anonymous": false,
      "inputs": [
        {
          "indexed": false,
          "internalType": "address",
          "name": "owner",
          "type": "address"
        },
        {
          "indexed": false,
          "internalType": "string",
          "name": "child",
          "type": "string"
        }
      ],
      "name": "BalanceGot",
      "type": "event"
    },
    {
      "anonymous": false,
      "inputs": [
        {
          "indexed": false,
          "internalType": "address",
          "name": "from",
          "type": "address"
        },
        {
          "indexed": false,
          "internalType": "address",
          "name": "to",
          "type": "address"
        },
        {
          "indexed": false,
          "internalType": "uint256",
          "name": "amount",
          "type": "uint256"
        }
      ],
      "name": "InheritumSent",
      "type": "event"
    },
    {
      "anonymous": false,
      "inputs": [
        {
          "indexed": false,
          "internalType": "address",
          "name": "from",
          "type": "address"
        },
        {
          "indexed": false,
          "internalType": "address",
          "name": "to",
          "type": "address"
        },
        {
          "indexed": false,
          "internalType": "string",
          "name": "childName",
          "type": "string"
        },
        {
          "indexed": false,
          "internalType": "uint256",
          "name": "amount",
          "type": "uint256"
        }
      ],
      "name": "SentMoney",
      "type": "event"
    },
    {
      "anonymous": false,
      "inputs": [
        {
          "indexed": false,
          "internalType": "address",
          "name": "recipient",
          "type": "address"
        },
        {
          "indexed": false,
          "internalType": "uint256",
          "name": "amount",
          "type": "uint256"
        }
      ],
      "name": "allowanceTest",
      "type": "event"
    },
    {
      "inputs": [
        {
          "internalType": "string",
          "name": "_name",
          "type": "string"
        },
        {
          "internalType": "uint256",
          "name": "_age",
          "type": "uint256"
        },
        {
          "internalType": "bool",
          "name": "isLimited",
          "type": "bool"
        }
      ],
      "name": "addPerson",
      "outputs": [
        {
          "components": [
            {
              "internalType": "string",
              "name": "name",
              "type": "string"
            },
            {
              "internalType": "uint256",
              "name": "age",
              "type": "uint256"
            },
            {
              "internalType": "uint256",
              "name": "balance",
              "type": "uint256"
            },
            {
              "internalType": "bool",
              "name": "isLimited",
              "type": "bool"
            },
            {
              "internalType": "address[]",
              "name": "children",
              "type": "address[]"
            },
            {
              "internalType": "address[]",
              "name": "parents",
              "type": "address[]"
            },
            {
              "internalType": "uint256",
              "name": "createdTime",
              "type": "uint256"
            }
          ],
          "internalType": "struct BankingApp.Person",
          "name": "",
          "type": "tuple"
        }
      ],
      "stateMutability": "nonpayable",
      "type": "function"
    },
    {
      "inputs": [
        {
          "internalType": "string",
          "name": "_name",
          "type": "string"
        },
        {
          "internalType": "bool",
          "name": "returnErr",
          "type": "bool"
        }
      ],
      "name": "findTheChild",
      "outputs": [
        {
          "components": [
            {
              "internalType": "string",
              "name": "name",
              "type": "string"
            },
            {
              "internalType": "uint256",
              "name": "age",
              "type": "uint256"
            },
            {
              "internalType": "uint256",
              "name": "balance",
              "type": "uint256"
            },
            {
              "internalType": "bool",
              "name": "isLimited",
              "type": "bool"
            },
            {
              "internalType": "address[]",
              "name": "children",
              "type": "address[]"
            },
            {
              "internalType": "address[]",
              "name": "parents",
              "type": "address[]"
            },
            {
              "internalType": "uint256",
              "name": "createdTime",
              "type": "uint256"
            }
          ],
          "internalType": "struct BankingApp.Person",
          "name": "",
          "type": "tuple"
        },
        {
          "internalType": "uint256",
          "name": "index",
          "type": "uint256"
        }
      ],
      "stateMutability": "view",
      "type": "function"
    },
    {
      "inputs": [
        {
          "internalType": "string",
          "name": "_name",
          "type": "string"
        },
        {
          "internalType": "bool",
          "name": "returnErr",
          "type": "bool"
        }
      ],
      "name": "findThePerson",
      "outputs": [
        {
          "components": [
            {
              "internalType": "string",
              "name": "name",
              "type": "string"
            },
            {
              "internalType": "uint256",
              "name": "age",
              "type": "uint256"
            },
            {
              "internalType": "uint256",
              "name": "balance",
              "type": "uint256"
            },
            {
              "internalType": "bool",
              "name": "isLimited",
              "type": "bool"
            },
            {
              "internalType": "address[]",
              "name": "children",
              "type": "address[]"
            },
            {
              "internalType": "address[]",
              "name": "parents",
              "type": "address[]"
            },
            {
              "internalType": "uint256",
              "name": "createdTime",
              "type": "uint256"
            }
          ],
          "internalType": "struct BankingApp.Person",
          "name": "",
          "type": "tuple"
        },
        {
          "internalType": "uint256",
          "name": "index",
          "type": "uint256"
        }
      ],
      "stateMutability": "view",
      "type": "function"
    },
    {
      "inputs": [],
      "name": "getBalanceOfInheritumToken",
      "outputs": [
        {
          "internalType": "uint256",
          "name": "",
          "type": "uint256"
        }
      ],
      "stateMutability": "view",
      "type": "function"
    },
    {
      "inputs": [],
      "name": "getChildren",
      "outputs": [
        {
          "internalType": "address[]",
          "name": "",
          "type": "address[]"
        }
      ],
      "stateMutability": "view",
      "type": "function"
    },
    {
      "inputs": [],
      "name": "getMyBalance",
      "outputs": [
        {
          "internalType": "uint256",
          "name": "",
          "type": "uint256"
        }
      ],
      "stateMutability": "view",
      "type": "function"
    },
    {
      "inputs": [],
      "name": "getMyChild",
      "outputs": [
        {
          "internalType": "address[]",
          "name": "",
          "type": "address[]"
        }
      ],
      "stateMutability": "view",
      "type": "function"
    },
    {
      "inputs": [
        {
          "internalType": "string",
          "name": "_name",
          "type": "string"
        }
      ],
      "name": "getMyChildBalance",
      "outputs": [
        {
          "internalType": "uint256",
          "name": "",
          "type": "uint256"
        }
      ],
      "stateMutability": "nonpayable",
      "type": "function"
    },
    {
      "inputs": [],
      "name": "getPersons",
      "outputs": [
        {
          "components": [
            {
              "internalType": "string",
              "name": "name",
              "type": "string"
            },
            {
              "internalType": "uint256",
              "name": "age",
              "type": "uint256"
            },
            {
              "internalType": "uint256",
              "name": "balance",
              "type": "uint256"
            },
            {
              "internalType": "bool",
              "name": "isLimited",
              "type": "bool"
            },
            {
              "internalType": "address[]",
              "name": "children",
              "type": "address[]"
            },
            {
              "internalType": "address[]",
              "name": "parents",
              "type": "address[]"
            },
            {
              "internalType": "uint256",
              "name": "createdTime",
              "type": "uint256"
            }
          ],
          "internalType": "struct BankingApp.Person[]",
          "name": "",
          "type": "tuple[]"
        }
      ],
      "stateMutability": "view",
      "type": "function"
    },
    {
      "inputs": [],
      "name": "getTranscationHistory",
      "outputs": [
        {
          "components": [
            {
              "internalType": "uint256",
              "name": "timestamp",
              "type": "uint256"
            },
            {
              "internalType": "address",
              "name": "sender",
              "type": "address"
            },
            {
              "internalType": "address",
              "name": "receiver",
              "type": "address"
            },
            {
              "internalType": "uint256",
              "name": "amount",
              "type": "uint256"
            }
          ],
          "internalType": "struct BankingApp.Transaction[]",
          "name": "",
          "type": "tuple[]"
        }
      ],
      "stateMutability": "view",
      "type": "function"
    },
    {
      "inputs": [
        {
          "internalType": "address",
          "name": "addr",
          "type": "address"
        }
      ],
      "name": "getUser",
      "outputs": [
        {
          "components": [
            {
              "internalType": "string",
              "name": "name",
              "type": "string"
            },
            {
              "internalType": "uint256",
              "name": "age",
              "type": "uint256"
            },
            {
              "internalType": "uint256",
              "name": "balance",
              "type": "uint256"
            },
            {
              "internalType": "bool",
              "name": "isLimited",
              "type": "bool"
            },
            {
              "internalType": "address[]",
              "name": "children",
              "type": "address[]"
            },
            {
              "internalType": "address[]",
              "name": "parents",
              "type": "address[]"
            },
            {
              "internalType": "uint256",
              "name": "createdTime",
              "type": "uint256"
            }
          ],
          "internalType": "struct BankingApp.Person",
          "name": "",
          "type": "tuple"
        }
      ],
      "stateMutability": "view",
      "type": "function"
    },
    {
      "inputs": [
        {
          "internalType": "address",
          "name": "childAccount",
          "type": "address"
        },
        {
          "internalType": "string",
          "name": "_name",
          "type": "string"
        },
        {
          "internalType": "uint256",
          "name": "_age",
          "type": "uint256"
        }
      ],
      "name": "linkAccount",
      "outputs": [
        {
          "components": [
            {
              "internalType": "string",
              "name": "name",
              "type": "string"
            },
            {
              "internalType": "uint256",
              "name": "age",
              "type": "uint256"
            },
            {
              "internalType": "uint256",
              "name": "balance",
              "type": "uint256"
            },
            {
              "internalType": "bool",
              "name": "isLimited",
              "type": "bool"
            },
            {
              "internalType": "address[]",
              "name": "children",
              "type": "address[]"
            },
            {
              "internalType": "address[]",
              "name": "parents",
              "type": "address[]"
            },
            {
              "internalType": "uint256",
              "name": "createdTime",
              "type": "uint256"
            }
          ],
          "internalType": "struct BankingApp.Person",
          "name": "",
          "type": "tuple"
        }
      ],
      "stateMutability": "nonpayable",
      "type": "function"
    },
    {
      "inputs": [
        {
          "internalType": "address",
          "name": "linked_account",
          "type": "address"
        }
      ],
      "name": "makeAccountisLimited",
      "outputs": [],
      "stateMutability": "nonpayable",
      "type": "function"
    },
    {
      "inputs": [
        {
          "internalType": "address payable",
          "name": "_to",
          "type": "address"
        },
        {
          "internalType": "uint256",
          "name": "amount",
          "type": "uint256"
        }
      ],
      "name": "sendEther",
      "outputs": [],
      "stateMutability": "payable",
      "type": "function"
    },
    {
      "inputs": [
        {
          "internalType": "address",
          "name": "_to",
          "type": "address"
        },
        {
          "internalType": "uint256",
          "name": "_amount",
          "type": "uint256"
        }
      ],
      "name": "sendTokenToChild",
      "outputs": [],
      "stateMutability": "nonpayable",
      "type": "function"
    },
    {
      "inputs": [],
      "name": "token",
      "outputs": [
        {
          "internalType": "contract IERC20",
          "name": "",
          "type": "address"
        }
      ],
      "stateMutability": "view",
      "type": "function"
    }
  ],
  "bytecode": "0x6080604052604051620049213803806200492183398181016040528101906200002991906200011c565b816000806101000a81548173ffffffffffffffffffffffffffffffffffffffff021916908373ffffffffffffffffffffffffffffffffffffffff16021790555080600160006101000a81548173ffffffffffffffffffffffffffffffffffffffff021916908373ffffffffffffffffffffffffffffffffffffffff160217905550505062000163565b600080fd5b600073ffffffffffffffffffffffffffffffffffffffff82169050919050565b6000620000e482620000b7565b9050919050565b620000f681620000d7565b81146200010257600080fd5b50565b6000815190506200011681620000eb565b92915050565b60008060408385031215620001365762000135620000b2565b5b6000620001468582860162000105565b9250506020620001598582860162000105565b9150509250929050565b6147ae80620001736000396000f3fe6080604052600436106100f35760003560e01c8063b42fbdfd1161008a578063dbc1a22b11610059578063dbc1a22b14610344578063ee203fe61461036f578063fbf8574d1461039a578063fc0c546a146103d8576100f3565b8063b42fbdfd146102ab578063c1756a2c146102d4578063c1a16177146102f0578063c81cdec914610319576100f3565b806353a86c94116100c657806353a86c94146101b65780635412f1c9146101f35780636f77926b146102315780638d6ec2141461026e576100f3565b8063032ce9aa146100f85780634892e8e8146101355780634c6b6c6f146101605780634c7389091461018b575b600080fd5b34801561010457600080fd5b5061011f600480360381019061011a91906135ad565b610403565b60405161012c919061385c565b60405180910390f35b34801561014157600080fd5b5061014a61097e565b60405161015791906138ed565b60405180910390f35b34801561016c57600080fd5b50610175610a77565b6040516101829190613a7b565b60405180910390f35b34801561019757600080fd5b506101a0610cbd565b6040516101ad9190613aac565b60405180910390f35b3480156101c257600080fd5b506101dd60048036038101906101d89190613ac7565b610cdc565b6040516101ea9190613aac565b60405180910390f35b3480156101ff57600080fd5b5061021a60048036038101906102159190613b10565b610d37565b604051610228929190613b6c565b60405180910390f35b34801561023d57600080fd5b5061025860048036038101906102539190613bc8565b610e7c565b604051610265919061385c565b60405180910390f35b34801561027a57600080fd5b5061029560048036038101906102909190613bf5565b6110bc565b6040516102a2919061385c565b60405180910390f35b3480156102b757600080fd5b506102d260048036038101906102cd9190613c64565b611cbe565b005b6102ee60048036038101906102e99190613ce2565b611ebf565b005b3480156102fc57600080fd5b5061031760048036038101906103129190613bc8565b61208d565b005b34801561032557600080fd5b5061032e61227a565b60405161033b9190613aac565b60405180910390f35b34801561035057600080fd5b5061035961232b565b6040516103669190613e26565b60405180910390f35b34801561037b57600080fd5b50610384612487565b60405161039191906138ed565b60405180910390f35b3480156103a657600080fd5b506103c160048036038101906103bc9190613b10565b612555565b6040516103cf929190613b6c565b60405180910390f35b3480156103e457600080fd5b506103ed612849565b6040516103fa9190613ea7565b60405180910390f35b61040b61319a565b6040518060200160405280600081525080519060200120600360003373ffffffffffffffffffffffffffffffffffffffff1673ffffffffffffffffffffffffffffffffffffffff1681526020019081526020016000206000016040516104719190613fc2565b6040518091039020146104b9576040517f08c379a00000000000000000000000000000000000000000000000000000000081526004016104b090614036565b60405180910390fd5b600160009054906101000a900473ffffffffffffffffffffffffffffffffffffffff1673ffffffffffffffffffffffffffffffffffffffff163373ffffffffffffffffffffffffffffffffffffffff16141561054a576040517f08c379a0000000000000000000000000000000000000000000000000000000008152600401610541906140a2565b60405180910390fd5b6000600360003373ffffffffffffffffffffffffffffffffffffffff1673ffffffffffffffffffffffffffffffffffffffff1681526020019081526020016000209050848160000190805190602001906105a59291906131d9565b508381600101819055503373ffffffffffffffffffffffffffffffffffffffff16318160020181905550828160030160006101000a81548160ff021916908315150217905550600067ffffffffffffffff81111561060657610605613414565b5b6040519080825280602002602001820160405280156106345781602001602082028036833780820191505090505b5081600401908051906020019061064c92919061325f565b50600067ffffffffffffffff81111561066857610667613414565b5b6040519080825280602002602001820160405280156106965781602001602082028036833780820191505090505b508160050190805190602001906106ae92919061325f565b504281600601819055506000816040518060e00160405290816000820180546106d690613ef1565b80601f016020809104026020016040519081016040528092919081815260200182805461070290613ef1565b801561074f5780601f106107245761010080835404028352916020019161074f565b820191906000526020600020905b81548152906001019060200180831161073257829003601f168201915b5050505050815260200160018201548152602001600282015481526020016003820160009054906101000a900460ff161515151581526020016004820180548060200260200160405190810160405280929190818152602001828054801561080c57602002820191906000526020600020905b8160009054906101000a900473ffffffffffffffffffffffffffffffffffffffff1673ffffffffffffffffffffffffffffffffffffffff16815260200190600101908083116107c2575b505050505081526020016005820180548060200260200160405190810160405280929190818152602001828054801561089a57602002820191906000526020600020905b8160009054906101000a900473ffffffffffffffffffffffffffffffffffffffff1673ffffffffffffffffffffffffffffffffffffffff1681526020019060010190808311610850575b505050505081526020016006820154815250509050600481908060018154018082558091505060019003906000526020600020906007020160009091909190915060008201518160000190805190602001906108f79291906131d9565b50602082015181600101556040820151816002015560608201518160030160006101000a81548160ff021916908315150217905550608082015181600401908051906020019061094892919061325f565b5060a082015181600501908051906020019061096592919061325f565b5060c08201518160060155505080925050509392505050565b6060600061098b33610e7c565b9050600081608001515167ffffffffffffffff8111156109ae576109ad613414565b5b6040519080825280602002602001820160405280156109dc5781602001602082028036833780820191505090505b50905060005b826080015151811015610a6e5782608001518181518110610a0657610a056140c2565b5b6020026020010151828281518110610a2157610a206140c2565b5b602002602001019073ffffffffffffffffffffffffffffffffffffffff16908173ffffffffffffffffffffffffffffffffffffffff16815250508080610a6690614120565b9150506109e2565b50809250505090565b60606004805480602002602001604051908101604052809291908181526020016000905b82821015610cb457838290600052602060002090600702016040518060e0016040529081600082018054610ace90613ef1565b80601f0160208091040260200160405190810160405280929190818152602001828054610afa90613ef1565b8015610b475780601f10610b1c57610100808354040283529160200191610b47565b820191906000526020600020905b815481529060010190602001808311610b2a57829003601f168201915b5050505050815260200160018201548152602001600282015481526020016003820160009054906101000a900460ff1615151515815260200160048201805480602002602001604051908101604052809291908181526020018280548015610c0457602002820191906000526020600020905b8160009054906101000a900473ffffffffffffffffffffffffffffffffffffffff1673ffffffffffffffffffffffffffffffffffffffff1681526020019060010190808311610bba575b5050505050815260200160058201805480602002602001604051908101604052809291908181526020018280548015610c9257602002820191906000526020600020905b8160009054906101000a900473ffffffffffffffffffffffffffffffffffffffff1673ffffffffffffffffffffffffffffffffffffffff1681526020019060010190808311610c48575b5050505050815260200160068201548152505081526020019060010190610a9b565b50505050905090565b60003373ffffffffffffffffffffffffffffffffffffffff1631905090565b600080610cea836001610d37565b5090507f43bffc0f95fb1b5cd921e2fa994fd3abf463eefb09b4b0fffddb4d365c172528338260000151604051610d229291906141b1565b60405180910390a18060400151915050919050565b610d3f61319a565b600080610d4b33610e7c565b90506000816080015151905060018110610e3a5760005b81811015610de157600083608001518281518110610d8357610d826140c2565b5b602002602001015190506000610d9882610e7c565b600001519050888051906020012081805190602001201415610dcc57610dbd82610e7c565b83965096505050505050610e75565b50508080610dd990614120565b915050610d62565b508415610e23576040517f08c379a0000000000000000000000000000000000000000000000000000000008152600401610e1a9061422d565b60405180910390fd5b610e2b61319a565b80600094509450505050610e75565b6040517f08c379a0000000000000000000000000000000000000000000000000000000008152600401610e6c90614299565b60405180910390fd5b9250929050565b610e8461319a565b600360008373ffffffffffffffffffffffffffffffffffffffff1673ffffffffffffffffffffffffffffffffffffffff1681526020019081526020016000206040518060e0016040529081600082018054610ede90613ef1565b80601f0160208091040260200160405190810160405280929190818152602001828054610f0a90613ef1565b8015610f575780601f10610f2c57610100808354040283529160200191610f57565b820191906000526020600020905b815481529060010190602001808311610f3a57829003601f168201915b5050505050815260200160018201548152602001600282015481526020016003820160009054906101000a900460ff161515151581526020016004820180548060200260200160405190810160405280929190818152602001828054801561101457602002820191906000526020600020905b8160009054906101000a900473ffffffffffffffffffffffffffffffffffffffff1673ffffffffffffffffffffffffffffffffffffffff1681526020019060010190808311610fca575b50505050508152602001600582018054806020026020016040519081016040528092919081815260200182805480156110a257602002820191906000526020600020905b8160009054906101000a900473ffffffffffffffffffffffffffffffffffffffff1673ffffffffffffffffffffffffffffffffffffffff1681526020019060010190808311611058575b505050505081526020016006820154815250509050919050565b6110c461319a565b600160009054906101000a900473ffffffffffffffffffffffffffffffffffffffff1673ffffffffffffffffffffffffffffffffffffffff163373ffffffffffffffffffffffffffffffffffffffff161415611155576040517f08c379a000000000000000000000000000000000000000000000000000000000815260040161114c90614305565b60405180910390fd5b604051806020016040528060008152508051906020012061117533610e7c565b600001518051906020012014156111c1576040517f08c379a00000000000000000000000000000000000000000000000000000000081526004016111b890614397565b60405180910390fd5b6000600360003373ffffffffffffffffffffffffffffffffffffffff1673ffffffffffffffffffffffffffffffffffffffff168152602001908152602001600020905080600401859080600181540180825580915050600190039060005260206000200160009091909190916101000a81548173ffffffffffffffffffffffffffffffffffffffff021916908373ffffffffffffffffffffffffffffffffffffffff16021790555080600360003373ffffffffffffffffffffffffffffffffffffffff1673ffffffffffffffffffffffffffffffffffffffff16815260200190815260200160002060008201816000019080546112bd90613ef1565b6112c89291906132e9565b5060018201548160010155600282015481600201556003820160009054906101000a900460ff168160030160006101000a81548160ff0219169083151502179055506004820181600401908054611320929190613376565b506005820181600501908054611337929190613376565b50600682015481600601559050506000806113df83600001805461135a90613ef1565b80601f016020809104026020016040519081016040528092919081815260200182805461138690613ef1565b80156113d35780601f106113a8576101008083540402835291602001916113d3565b820191906000526020600020905b8154815290600101906020018083116113b657829003601f168201915b50505050506000612555565b91509150600481815481106113f7576113f66140c2565b5b9060005260206000209060070201600401879080600181540180825580915050600190039060005260206000200160009091909190916101000a81548173ffffffffffffffffffffffffffffffffffffffff021916908373ffffffffffffffffffffffffffffffffffffffff1602179055506040518060200160405280600081525080519060200120600360008973ffffffffffffffffffffffffffffffffffffffff1673ffffffffffffffffffffffffffffffffffffffff1681526020019081526020016000206000016040516114cf9190613fc2565b60405180910390201461183c5760006114e788610e7c565b905060008160a0015151905060008260a0015190506040518060e001604052808a815260200189815260200160008152602001600115158152602001600067ffffffffffffffff81111561153e5761153d613414565b5b60405190808252806020026020018201604052801561156c5781602001602082028036833780820191505090505b50815260200160018461157f91906143b7565b67ffffffffffffffff81111561159857611597613414565b5b6040519080825280602002602001820160405280156115c65781602001602082028036833780820191505090505b50815260200142815250600360008c73ffffffffffffffffffffffffffffffffffffffff1673ffffffffffffffffffffffffffffffffffffffff168152602001908152602001600020600082015181600001908051906020019061162b9291906131d9565b50602082015181600101556040820151816002015560608201518160030160006101000a81548160ff021916908315150217905550608082015181600401908051906020019061167c92919061325f565b5060a082015181600501908051906020019061169992919061325f565b5060c0820151816006015590505060005b6001836116b791906143b7565b81101561183357828114156117685733600360008d73ffffffffffffffffffffffffffffffffffffffff1673ffffffffffffffffffffffffffffffffffffffff168152602001908152602001600020600501828154811061171b5761171a6140c2565b5b9060005260206000200160006101000a81548173ffffffffffffffffffffffffffffffffffffffff021916908373ffffffffffffffffffffffffffffffffffffffff160217905550611820565b81818151811061177b5761177a6140c2565b5b6020026020010151600360008d73ffffffffffffffffffffffffffffffffffffffff1673ffffffffffffffffffffffffffffffffffffffff16815260200190815260200160002060050182815481106117d7576117d66140c2565b5b9060005260206000200160006101000a81548173ffffffffffffffffffffffffffffffffffffffff021916908373ffffffffffffffffffffffffffffffffffffffff1602179055505b808061182b90614120565b9150506116aa565b50505050611a7b565b6040518060e0016040528087815260200186815260200160008152602001600115158152602001600067ffffffffffffffff81111561187e5761187d613414565b5b6040519080825280602002602001820160405280156118ac5781602001602082028036833780820191505090505b508152602001600167ffffffffffffffff8111156118cd576118cc613414565b5b6040519080825280602002602001820160405280156118fb5781602001602082028036833780820191505090505b50815260200142815250600360008973ffffffffffffffffffffffffffffffffffffffff1673ffffffffffffffffffffffffffffffffffffffff16815260200190815260200160002060008201518160000190805190602001906119609291906131d9565b50602082015181600101556040820151816002015560608201518160030160006101000a81548160ff02191690831515021790555060808201518160040190805190602001906119b192919061325f565b5060a08201518160050190805190602001906119ce92919061325f565b5060c0820151816006015590505033600360008973ffffffffffffffffffffffffffffffffffffffff1673ffffffffffffffffffffffffffffffffffffffff168152602001908152602001600020600501600081548110611a3257611a316140c2565b5b9060005260206000200160006101000a81548173ffffffffffffffffffffffffffffffffffffffff021916908373ffffffffffffffffffffffffffffffffffffffff1602179055505b6000600360003373ffffffffffffffffffffffffffffffffffffffff1673ffffffffffffffffffffffffffffffffffffffff1681526020019081526020016000206040518060e0016040529081600082018054611ad790613ef1565b80601f0160208091040260200160405190810160405280929190818152602001828054611b0390613ef1565b8015611b505780601f10611b2557610100808354040283529160200191611b50565b820191906000526020600020905b815481529060010190602001808311611b3357829003601f168201915b5050505050815260200160018201548152602001600282015481526020016003820160009054906101000a900460ff1615151515815260200160048201805480602002602001604051908101604052809291908181526020018280548015611c0d57602002820191906000526020600020905b8160009054906101000a900473ffffffffffffffffffffffffffffffffffffffff1673ffffffffffffffffffffffffffffffffffffffff1681526020019060010190808311611bc3575b5050505050815260200160058201805480602002602001604051908101604052809291908181526020018280548015611c9b57602002820191906000526020600020905b8160009054906101000a900473ffffffffffffffffffffffffffffffffffffffff1673ffffffffffffffffffffffffffffffffffffffff1681526020019060010190808311611c51575b505050505081526020016006820154815250509050809450505050509392505050565b808060008054906101000a900473ffffffffffffffffffffffffffffffffffffffff1673ffffffffffffffffffffffffffffffffffffffff166370a08231336040518263ffffffff1660e01b8152600401611d19919061440d565b60206040518083038186803b158015611d3157600080fd5b505afa158015611d45573d6000803e3d6000fd5b505050506040513d601f19601f82011682018060405250810190611d69919061443d565b1015611d7457600080fd5b600360003373ffffffffffffffffffffffffffffffffffffffff1673ffffffffffffffffffffffffffffffffffffffff16815260200190815260200160002060030160009054906101000a900460ff166000151581151514611e0b576040517f08c379a0000000000000000000000000000000000000000000000000000000008152600401611e02906144dc565b60405180910390fd5b60008054906101000a900473ffffffffffffffffffffffffffffffffffffffff1673ffffffffffffffffffffffffffffffffffffffff1663a9059cbb85856040518363ffffffff1660e01b8152600401611e669291906144fc565b602060405180830381600087803b158015611e8057600080fd5b505af1158015611e94573d6000803e3d6000fd5b505050506040513d601f19601f82011682018060405250810190611eb8919061453a565b5050505050565b600360003373ffffffffffffffffffffffffffffffffffffffff1673ffffffffffffffffffffffffffffffffffffffff16815260200190815260200160002060030160009054906101000a900460ff166000151581151514611f56576040517f08c379a0000000000000000000000000000000000000000000000000000000008152600401611f4d906144dc565b60405180910390fd5b60008373ffffffffffffffffffffffffffffffffffffffff1683604051611f7c9061458d565b60006040518083038185875af1925050503d8060008114611fb9576040519150601f19603f3d011682016040523d82523d6000602084013e611fbe565b606091505b5050905080612002576040517f08c379a0000000000000000000000000000000000000000000000000000000008152600401611ff9906145ee565b60405180910390fd5b61200e8484600161286d565b600061201985610e7c565b9050600115158160600151151514156120865783600360008773ffffffffffffffffffffffffffffffffffffffff1673ffffffffffffffffffffffffffffffffffffffff168152602001908152602001600020600201600082825461207e91906143b7565b925050819055505b5050505050565b806001151561209b82610e7c565b606001511515146120e1576040517f08c379a00000000000000000000000000000000000000000000000000000000081526004016120d89061465a565b60405180910390fd5b600160009054906101000a900473ffffffffffffffffffffffffffffffffffffffff1673ffffffffffffffffffffffffffffffffffffffff163373ffffffffffffffffffffffffffffffffffffffff1614612171576040517f08c379a0000000000000000000000000000000000000000000000000000000008152600401612168906146ec565b60405180910390fd5b600061217c83610e7c565b905060008160a00151600081518110612198576121976140c2565b5b6020026020010151905060006121ae8583612e4e565b9050600481908060018154018082558091505060019003906000526020600020906007020160009091909190915060008201518160000190805190602001906121f89291906131d9565b50602082015181600101556040820151816002015560608201518160030160006101000a81548160ff021916908315150217905550608082015181600401908051906020019061224992919061325f565b5060a082015181600501908051906020019061226692919061325f565b5060c0820151816006015550505050505050565b60008060009054906101000a900473ffffffffffffffffffffffffffffffffffffffff1673ffffffffffffffffffffffffffffffffffffffff166370a08231336040518263ffffffff1660e01b81526004016122d6919061440d565b60206040518083038186803b1580156122ee57600080fd5b505afa158015612302573d6000803e3d6000fd5b505050506040513d601f19601f82011682018060405250810190612326919061443d565b905090565b6060600260003373ffffffffffffffffffffffffffffffffffffffff1673ffffffffffffffffffffffffffffffffffffffff168152602001908152602001600020805480602002602001604051908101604052809291908181526020016000905b8282101561247e5783829060005260206000209060040201604051806080016040529081600082015481526020016001820160009054906101000a900473ffffffffffffffffffffffffffffffffffffffff1673ffffffffffffffffffffffffffffffffffffffff1673ffffffffffffffffffffffffffffffffffffffff1681526020016002820160009054906101000a900473ffffffffffffffffffffffffffffffffffffffff1673ffffffffffffffffffffffffffffffffffffffff1673ffffffffffffffffffffffffffffffffffffffff1681526020016003820154815250508152602001906001019061238c565b50505050905090565b6060600360003373ffffffffffffffffffffffffffffffffffffffff1673ffffffffffffffffffffffffffffffffffffffff16815260200190815260200160002060040180548060200260200160405190810160405280929190818152602001828054801561254b57602002820191906000526020600020905b8160009054906101000a900473ffffffffffffffffffffffffffffffffffffffff1673ffffffffffffffffffffffffffffffffffffffff1681526020019060010190808311612501575b5050505050905090565b61255d61319a565b600080600090505b6004805490508110156127ef5784805190602001206004828154811061258e5761258d6140c2565b5b90600052602060002090600702016000016040516125ac9190613fc2565b604051809103902014156127dc57600481815481106125ce576125cd6140c2565b5b906000526020600020906007020181816040518060e00160405290816000820180546125f990613ef1565b80601f016020809104026020016040519081016040528092919081815260200182805461262590613ef1565b80156126725780601f1061264757610100808354040283529160200191612672565b820191906000526020600020905b81548152906001019060200180831161265557829003601f168201915b5050505050815260200160018201548152602001600282015481526020016003820160009054906101000a900460ff161515151581526020016004820180548060200260200160405190810160405280929190818152602001828054801561272f57602002820191906000526020600020905b8160009054906101000a900473ffffffffffffffffffffffffffffffffffffffff1673ffffffffffffffffffffffffffffffffffffffff16815260200190600101908083116126e5575b50505050508152602001600582018054806020026020016040519081016040528092919081815260200182805480156127bd57602002820191906000526020600020905b8160009054906101000a900473ffffffffffffffffffffffffffffffffffffffff1673ffffffffffffffffffffffffffffffffffffffff1681526020019060010190808311612773575b5050505050815260200160068201548152505091509250925050612842565b80806127e790614120565b915050612565565b508215612831576040517f08c379a000000000000000000000000000000000000000000000000000000000815260040161282890614758565b60405180910390fd5b61283961319a565b80600092509250505b9250929050565b60008054906101000a900473ffffffffffffffffffffffffffffffffffffffff1681565b604051806020016040528060008152508051906020012061288d33610e7c565b600001518051906020012014156128d9576040517f08c379a00000000000000000000000000000000000000000000000000000000081526004016128d090614397565b60405180910390fd5b8015612b9657600260003373ffffffffffffffffffffffffffffffffffffffff1673ffffffffffffffffffffffffffffffffffffffff16815260200190815260200160002060405180608001604052804281526020013373ffffffffffffffffffffffffffffffffffffffff1681526020018573ffffffffffffffffffffffffffffffffffffffff1681526020018481525090806001815401808255809150506001900390600052602060002090600402016000909190919091506000820151816000015560208201518160010160006101000a81548173ffffffffffffffffffffffffffffffffffffffff021916908373ffffffffffffffffffffffffffffffffffffffff16021790555060408201518160020160006101000a81548173ffffffffffffffffffffffffffffffffffffffff021916908373ffffffffffffffffffffffffffffffffffffffff160217905550606082015181600301555050600260008473ffffffffffffffffffffffffffffffffffffffff1673ffffffffffffffffffffffffffffffffffffffff16815260200190815260200160002060405180608001604052804281526020013373ffffffffffffffffffffffffffffffffffffffff1681526020018573ffffffffffffffffffffffffffffffffffffffff1681526020018481525090806001815401808255809150506001900390600052602060002090600402016000909190919091506000820151816000015560208201518160010160006101000a81548173ffffffffffffffffffffffffffffffffffffffff021916908373ffffffffffffffffffffffffffffffffffffffff16021790555060408201518160020160006101000a81548173ffffffffffffffffffffffffffffffffffffffff021916908373ffffffffffffffffffffffffffffffffffffffff160217905550606082015181600301555050612e49565b600260008473ffffffffffffffffffffffffffffffffffffffff1673ffffffffffffffffffffffffffffffffffffffff16815260200190815260200160002060405180608001604052804281526020018573ffffffffffffffffffffffffffffffffffffffff1681526020013373ffffffffffffffffffffffffffffffffffffffff1681526020018481525090806001815401808255809150506001900390600052602060002090600402016000909190919091506000820151816000015560208201518160010160006101000a81548173ffffffffffffffffffffffffffffffffffffffff021916908373ffffffffffffffffffffffffffffffffffffffff16021790555060408201518160020160006101000a81548173ffffffffffffffffffffffffffffffffffffffff021916908373ffffffffffffffffffffffffffffffffffffffff160217905550606082015181600301555050600260003373ffffffffffffffffffffffffffffffffffffffff1673ffffffffffffffffffffffffffffffffffffffff16815260200190815260200160002060405180608001604052804281526020018573ffffffffffffffffffffffffffffffffffffffff1681526020013373ffffffffffffffffffffffffffffffffffffffff1681526020018481525090806001815401808255809150506001900390600052602060002090600402016000909190919091506000820151816000015560208201518160010160006101000a81548173ffffffffffffffffffffffffffffffffffffffff021916908373ffffffffffffffffffffffffffffffffffffffff16021790555060408201518160020160006101000a81548173ffffffffffffffffffffffffffffffffffffffff021916908373ffffffffffffffffffffffffffffffffffffffff1602179055506060820151816003015550505b505050565b612e5661319a565b6000612e6183610e7c565b9050600080612e7583600001516000612555565b915091506000612e8487610e7c565b9050600080612e9883600001516000612555565b9150915085608001518181518110612eb357612eb26140c2565b5b60200260200101600073ffffffffffffffffffffffffffffffffffffffff168152508560048581548110612eea57612ee96140c2565b5b90600052602060002090600702016000820151816000019080519060200190612f149291906131d9565b50602082015181600101556040820151816002015560608201518160030160006101000a81548160ff0219169083151502179055506080820151816004019080519060200190612f6592919061325f565b5060a0820151816005019080519060200190612f8292919061325f565b5060c0820151816006015590505085600360008a73ffffffffffffffffffffffffffffffffffffffff1673ffffffffffffffffffffffffffffffffffffffff1681526020019081526020016000206000820151816000019080519060200190612fec9291906131d9565b50602082015181600101556040820151816002015560608201518160030160006101000a81548160ff021916908315150217905550608082015181600401908051906020019061303d92919061325f565b5060a082015181600501908051906020019061305a92919061325f565b5060c0820151816006015590505060008360600190151590811515815250508260a00151600081518110613091576130906140c2565b5b60200260200101600073ffffffffffffffffffffffffffffffffffffffff1681525082600360008b73ffffffffffffffffffffffffffffffffffffffff1673ffffffffffffffffffffffffffffffffffffffff168152602001908152602001600020600082015181600001908051906020019061310f9291906131d9565b50602082015181600101556040820151816002015560608201518160030160006101000a81548160ff021916908315150217905550608082015181600401908051906020019061316092919061325f565b5060a082015181600501908051906020019061317d92919061325f565b5060c0820151816006015590505082965050505050505092915050565b6040518060e001604052806060815260200160008152602001600081526020016000151581526020016060815260200160608152602001600081525090565b8280546131e590613ef1565b90600052602060002090601f016020900481019282613207576000855561324e565b82601f1061322057805160ff191683800117855561324e565b8280016001018555821561324e579182015b8281111561324d578251825591602001919060010190613232565b5b50905061325b91906133c8565b5090565b8280548282559060005260206000209081019282156132d8579160200282015b828111156132d75782518260006101000a81548173ffffffffffffffffffffffffffffffffffffffff021916908373ffffffffffffffffffffffffffffffffffffffff1602179055509160200191906001019061327f565b5b5090506132e591906133c8565b5090565b8280546132f590613ef1565b90600052602060002090601f0160209004810192826133175760008555613365565b82601f106133285780548555613365565b8280016001018555821561336557600052602060002091601f016020900482015b82811115613364578254825591600101919060010190613349565b5b50905061337291906133c8565b5090565b8280548282559060005260206000209081019282156133b75760005260206000209182015b828111156133b657825482559160010191906001019061339b565b5b5090506133c491906133c8565b5090565b5b808211156133e15760008160009055506001016133c9565b5090565b6000604051905090565b600080fd5b600080fd5b600080fd5b600080fd5b6000601f19601f8301169050919050565b7f4e487b7100000000000000000000000000000000000000000000000000000000600052604160045260246000fd5b61344c82613403565b810181811067ffffffffffffffff8211171561346b5761346a613414565b5b80604052505050565b600061347e6133e5565b905061348a8282613443565b919050565b600067ffffffffffffffff8211156134aa576134a9613414565b5b6134b382613403565b9050602081019050919050565b82818337600083830152505050565b60006134e26134dd8461348f565b613474565b9050828152602081018484840111156134fe576134fd6133fe565b5b6135098482856134c0565b509392505050565b600082601f830112613526576135256133f9565b5b81356135368482602086016134cf565b91505092915050565b6000819050919050565b6135528161353f565b811461355d57600080fd5b50565b60008135905061356f81613549565b92915050565b60008115159050919050565b61358a81613575565b811461359557600080fd5b50565b6000813590506135a781613581565b92915050565b6000806000606084860312156135c6576135c56133ef565b5b600084013567ffffffffffffffff8111156135e4576135e36133f4565b5b6135f086828701613511565b935050602061360186828701613560565b925050604061361286828701613598565b9150509250925092565b600081519050919050565b600082825260208201905092915050565b60005b8381101561365657808201518184015260208101905061363b565b83811115613665576000848401525b50505050565b60006136768261361c565b6136808185613627565b9350613690818560208601613638565b61369981613403565b840191505092915050565b6136ad8161353f565b82525050565b6136bc81613575565b82525050565b600081519050919050565b600082825260208201905092915050565b6000819050602082019050919050565b600073ffffffffffffffffffffffffffffffffffffffff82169050919050565b6000613719826136ee565b9050919050565b6137298161370e565b82525050565b600061373b8383613720565b60208301905092915050565b6000602082019050919050565b600061375f826136c2565b61376981856136cd565b9350613774836136de565b8060005b838110156137a557815161378c888261372f565b975061379783613747565b925050600181019050613778565b5085935050505092915050565b600060e08301600083015184820360008601526137cf828261366b565b91505060208301516137e460208601826136a4565b5060408301516137f760408601826136a4565b50606083015161380a60608601826136b3565b50608083015184820360808601526138228282613754565b91505060a083015184820360a086015261383c8282613754565b91505060c083015161385160c08601826136a4565b508091505092915050565b6000602082019050818103600083015261387681846137b2565b905092915050565b600082825260208201905092915050565b600061389a826136c2565b6138a4818561387e565b93506138af836136de565b8060005b838110156138e05781516138c7888261372f565b97506138d283613747565b9250506001810190506138b3565b5085935050505092915050565b60006020820190508181036000830152613907818461388f565b905092915050565b600081519050919050565b600082825260208201905092915050565b6000819050602082019050919050565b600060e0830160008301518482036000860152613958828261366b565b915050602083015161396d60208601826136a4565b50604083015161398060408601826136a4565b50606083015161399360608601826136b3565b50608083015184820360808601526139ab8282613754565b91505060a083015184820360a08601526139c58282613754565b91505060c08301516139da60c08601826136a4565b508091505092915050565b60006139f1838361393b565b905092915050565b6000602082019050919050565b6000613a118261390f565b613a1b818561391a565b935083602082028501613a2d8561392b565b8060005b85811015613a695784840389528151613a4a85826139e5565b9450613a55836139f9565b925060208a01995050600181019050613a31565b50829750879550505050505092915050565b60006020820190508181036000830152613a958184613a06565b905092915050565b613aa68161353f565b82525050565b6000602082019050613ac16000830184613a9d565b92915050565b600060208284031215613add57613adc6133ef565b5b600082013567ffffffffffffffff811115613afb57613afa6133f4565b5b613b0784828501613511565b91505092915050565b60008060408385031215613b2757613b266133ef565b5b600083013567ffffffffffffffff811115613b4557613b446133f4565b5b613b5185828601613511565b9250506020613b6285828601613598565b9150509250929050565b60006040820190508181036000830152613b8681856137b2565b9050613b956020830184613a9d565b9392505050565b613ba58161370e565b8114613bb057600080fd5b50565b600081359050613bc281613b9c565b92915050565b600060208284031215613bde57613bdd6133ef565b5b6000613bec84828501613bb3565b91505092915050565b600080600060608486031215613c0e57613c0d6133ef565b5b6000613c1c86828701613bb3565b935050602084013567ffffffffffffffff811115613c3d57613c3c6133f4565b5b613c4986828701613511565b9250506040613c5a86828701613560565b9150509250925092565b60008060408385031215613c7b57613c7a6133ef565b5b6000613c8985828601613bb3565b9250506020613c9a85828601613560565b9150509250929050565b6000613caf826136ee565b9050919050565b613cbf81613ca4565b8114613cca57600080fd5b50565b600081359050613cdc81613cb6565b92915050565b60008060408385031215613cf957613cf86133ef565b5b6000613d0785828601613ccd565b9250506020613d1885828601613560565b9150509250929050565b600081519050919050565b600082825260208201905092915050565b6000819050602082019050919050565b608082016000820151613d6460008501826136a4565b506020820151613d776020850182613720565b506040820151613d8a6040850182613720565b506060820151613d9d60608501826136a4565b50505050565b6000613daf8383613d4e565b60808301905092915050565b6000602082019050919050565b6000613dd382613d22565b613ddd8185613d2d565b9350613de883613d3e565b8060005b83811015613e19578151613e008882613da3565b9750613e0b83613dbb565b925050600181019050613dec565b5085935050505092915050565b60006020820190508181036000830152613e408184613dc8565b905092915050565b6000819050919050565b6000613e6d613e68613e63846136ee565b613e48565b6136ee565b9050919050565b6000613e7f82613e52565b9050919050565b6000613e9182613e74565b9050919050565b613ea181613e86565b82525050565b6000602082019050613ebc6000830184613e98565b92915050565b7f4e487b7100000000000000000000000000000000000000000000000000000000600052602260045260246000fd5b60006002820490506001821680613f0957607f821691505b60208210811415613f1d57613f1c613ec2565b5b50919050565b600081905092915050565b60008190508160005260206000209050919050565b60008154613f5081613ef1565b613f5a8186613f23565b94506001821660008114613f755760018114613f8657613fb9565b60ff19831686528186019350613fb9565b613f8f85613f2e565b60005b83811015613fb157815481890152600182019150602081019050613f92565b838801955050505b50505092915050565b6000613fce8284613f43565b915081905092915050565b600082825260208201905092915050565b7f596f7520616c7265616479206861766520616e206163636f756e740000000000600082015250565b6000614020601b83613fd9565b915061402b82613fea565b602082019050919050565b6000602082019050818103600083015261404f81614013565b9050919050565b7f596f752772652061646d696e2021212100000000000000000000000000000000600082015250565b600061408c601083613fd9565b915061409782614056565b602082019050919050565b600060208201905081810360008301526140bb8161407f565b9050919050565b7f4e487b7100000000000000000000000000000000000000000000000000000000600052603260045260246000fd5b7f4e487b7100000000000000000000000000000000000000000000000000000000600052601160045260246000fd5b600061412b8261353f565b91507fffffffffffffffffffffffffffffffffffffffffffffffffffffffffffffffff82141561415e5761415d6140f1565b5b600182019050919050565b6141728161370e565b82525050565b60006141838261361c565b61418d8185613fd9565b935061419d818560208601613638565b6141a681613403565b840191505092915050565b60006040820190506141c66000830185614169565b81810360208301526141d88184614178565b90509392505050565b7f546865206368696c6420646964206e6f7420666f756e64000000000000000000600082015250565b6000614217601783613fd9565b9150614222826141e1565b602082019050919050565b600060208201905081810360008301526142468161420a565b9050919050565b7f596f752068617665206e6f7420616e79206368696c6400000000000000000000600082015250565b6000614283601683613fd9565b915061428e8261424d565b602082019050919050565b600060208201905081810360008301526142b281614276565b9050919050565b7f596f752772652061646d696e0000000000000000000000000000000000000000600082015250565b60006142ef600c83613fd9565b91506142fa826142b9565b602082019050919050565b6000602082019050818103600083015261431e816142e2565b9050919050565b7f596f752063616e206c696e6b206163636f756e74206166746572206c6f67676560008201527f6420696e00000000000000000000000000000000000000000000000000000000602082015250565b6000614381602483613fd9565b915061438c82614325565b604082019050919050565b600060208201905081810360008301526143b081614374565b9050919050565b60006143c28261353f565b91506143cd8361353f565b9250827fffffffffffffffffffffffffffffffffffffffffffffffffffffffffffffffff03821115614402576144016140f1565b5b828201905092915050565b60006020820190506144226000830184614169565b92915050565b60008151905061443781613549565b92915050565b600060208284031215614453576144526133ef565b5b600061446184828501614428565b91505092915050565b7f596f752776652061206c696d69746564206163636f756e74202c20796f75277260008201527f65206e6f7420616e206164756c74000000000000000000000000000000000000602082015250565b60006144c6602e83613fd9565b91506144d18261446a565b604082019050919050565b600060208201905081810360008301526144f5816144b9565b9050919050565b60006040820190506145116000830185614169565b61451e6020830184613a9d565b9392505050565b60008151905061453481613581565b92915050565b6000602082840312156145505761454f6133ef565b5b600061455e84828501614525565b91505092915050565b50565b6000614577600083613f23565b915061458282614567565b600082019050919050565b60006145988261456a565b9150819050919050565b7f4661696c656420746f2073656e64204574686572000000000000000000000000600082015250565b60006145d8601483613fd9565b91506145e3826145a2565b602082019050919050565b60006020820190508181036000830152614607816145cb565b9050919050565b7f54686973206163636f756e74206973206e6f74206c696d697465640000000000600082015250565b6000614644601b83613fd9565b915061464f8261460e565b602082019050919050565b6000602082019050818103600083015261467381614637565b9050919050565b7f596f75206d757374206265206f776e657220746f2072756e2074686973206d6560008201527f74686f6400000000000000000000000000000000000000000000000000000000602082015250565b60006146d6602483613fd9565b91506146e18261467a565b604082019050919050565b60006020820190508181036000830152614705816146c9565b9050919050565b7f54686520706572736f6e20646964206e6f7420666f756e640000000000000000600082015250565b6000614742601883613fd9565b915061474d8261470c565b602082019050919050565b6000602082019050818103600083015261477181614735565b905091905056fea2646970667358221220e73be1f88c52d42429ba765ea0738c03dc04cbf021f6be3b6fc61c3c56bb4b0864736f6c63430008090033",
  "linkReferences": {},
  "deployedLinkReferences": {}
}