{
  "_format": "hh-sol-artifact-1",
  "contractName": "BankingApp",
  "sourceName": "contracts/Banking.sol",
  "abi": [
    {
      "inputs": [
        {
          "internalType": "address",
          "name": "_token",
          "type": "address"
        },
        {
          "internalType": "address",
          "name": "_owner",
          "type": "address"
        }
      ],
      "stateMutability": "payable",
      "type": "constructor"
    },
    {
      "anonymous": false,
      "inputs": [
        {
          "indexed": false,
          "internalType": "address",
          "name": "owner",
          "type": "address"
        },
        {
          "indexed": false,
          "internalType": "string",
          "name": "child",
          "type": "string"
        }
      ],
      "name": "BalanceGot",
      "type": "event"
    },
    {
      "anonymous": false,
      "inputs": [
        {
          "indexed": false,
          "internalType": "address",
          "name": "from",
          "type": "address"
        },
        {
          "indexed": false,
          "internalType": "address",
          "name": "to",
          "type": "address"
        },
        {
          "indexed": false,
          "internalType": "uint256",
          "name": "amount",
          "type": "uint256"
        }
      ],
      "name": "InheritumSent",
      "type": "event"
    },
    {
      "anonymous": false,
      "inputs": [
        {
          "indexed": false,
          "internalType": "address",
          "name": "from",
          "type": "address"
        },
        {
          "indexed": false,
          "internalType": "address",
          "name": "to",
          "type": "address"
        },
        {
          "indexed": false,
          "internalType": "string",
          "name": "childName",
          "type": "string"
        },
        {
          "indexed": false,
          "internalType": "uint256",
          "name": "amount",
          "type": "uint256"
        }
      ],
      "name": "SentMoney",
      "type": "event"
    },
    {
      "anonymous": false,
      "inputs": [
        {
          "indexed": false,
          "internalType": "address",
          "name": "recipient",
          "type": "address"
        },
        {
          "indexed": false,
          "internalType": "uint256",
          "name": "amount",
          "type": "uint256"
        }
      ],
      "name": "allowanceTest",
      "type": "event"
    },
    {
      "inputs": [
        {
          "internalType": "uint256",
          "name": "",
          "type": "uint256"
        }
      ],
      "name": "GeneralTransactions",
      "outputs": [
        {
          "internalType": "uint256",
          "name": "timestamp",
          "type": "uint256"
        },
        {
          "internalType": "address",
          "name": "sender",
          "type": "address"
        },
        {
          "internalType": "address",
          "name": "receiver",
          "type": "address"
        },
        {
          "internalType": "uint256",
          "name": "amount",
          "type": "uint256"
        }
      ],
      "stateMutability": "view",
      "type": "function"
    },
    {
      "inputs": [
        {
          "internalType": "string",
          "name": "_name",
          "type": "string"
        },
        {
          "internalType": "string",
          "name": "_age",
          "type": "string"
        },
        {
          "internalType": "bool",
          "name": "isLimited",
          "type": "bool"
        }
      ],
      "name": "addPerson",
      "outputs": [
        {
          "components": [
            {
              "internalType": "string",
              "name": "name",
              "type": "string"
            },
            {
              "internalType": "string",
              "name": "agestring",
              "type": "string"
            },
            {
              "internalType": "uint256",
              "name": "balance",
              "type": "uint256"
            },
            {
              "internalType": "bool",
              "name": "isLimited",
              "type": "bool"
            },
            {
              "internalType": "address[]",
              "name": "children",
              "type": "address[]"
            },
            {
              "internalType": "address[]",
              "name": "parents",
              "type": "address[]"
            },
            {
              "internalType": "uint256",
              "name": "createdTime",
              "type": "uint256"
            }
          ],
          "internalType": "struct BankingApp.Person",
          "name": "",
          "type": "tuple"
        }
      ],
      "stateMutability": "nonpayable",
      "type": "function"
    },
    {
      "inputs": [],
      "name": "balancePool",
      "outputs": [
        {
          "internalType": "uint256",
          "name": "",
          "type": "uint256"
        }
      ],
      "stateMutability": "view",
      "type": "function"
    },
    {
      "inputs": [
        {
          "internalType": "address",
          "name": "to",
          "type": "address"
        }
      ],
      "name": "deposit",
      "outputs": [],
      "stateMutability": "payable",
      "type": "function"
    },
    {
      "inputs": [
        {
          "internalType": "string",
          "name": "_name",
          "type": "string"
        },
        {
          "internalType": "bool",
          "name": "returnErr",
          "type": "bool"
        }
      ],
      "name": "findTheChild",
      "outputs": [
        {
          "components": [
            {
              "internalType": "string",
              "name": "name",
              "type": "string"
            },
            {
              "internalType": "string",
              "name": "agestring",
              "type": "string"
            },
            {
              "internalType": "uint256",
              "name": "balance",
              "type": "uint256"
            },
            {
              "internalType": "bool",
              "name": "isLimited",
              "type": "bool"
            },
            {
              "internalType": "address[]",
              "name": "children",
              "type": "address[]"
            },
            {
              "internalType": "address[]",
              "name": "parents",
              "type": "address[]"
            },
            {
              "internalType": "uint256",
              "name": "createdTime",
              "type": "uint256"
            }
          ],
          "internalType": "struct BankingApp.Person",
          "name": "",
          "type": "tuple"
        },
        {
          "internalType": "uint256",
          "name": "index",
          "type": "uint256"
        }
      ],
      "stateMutability": "view",
      "type": "function"
    },
    {
      "inputs": [
        {
          "internalType": "string",
          "name": "_name",
          "type": "string"
        },
        {
          "internalType": "bool",
          "name": "returnErr",
          "type": "bool"
        }
      ],
      "name": "findThePerson",
      "outputs": [
        {
          "components": [
            {
              "internalType": "string",
              "name": "name",
              "type": "string"
            },
            {
              "internalType": "string",
              "name": "agestring",
              "type": "string"
            },
            {
              "internalType": "uint256",
              "name": "balance",
              "type": "uint256"
            },
            {
              "internalType": "bool",
              "name": "isLimited",
              "type": "bool"
            },
            {
              "internalType": "address[]",
              "name": "children",
              "type": "address[]"
            },
            {
              "internalType": "address[]",
              "name": "parents",
              "type": "address[]"
            },
            {
              "internalType": "uint256",
              "name": "createdTime",
              "type": "uint256"
            }
          ],
          "internalType": "struct BankingApp.Person",
          "name": "",
          "type": "tuple"
        },
        {
          "internalType": "uint256",
          "name": "index",
          "type": "uint256"
        }
      ],
      "stateMutability": "view",
      "type": "function"
    },
    {
      "inputs": [],
      "name": "getAllTransactionRecorded",
      "outputs": [
        {
          "components": [
            {
              "internalType": "uint256",
              "name": "timestamp",
              "type": "uint256"
            },
            {
              "internalType": "address",
              "name": "sender",
              "type": "address"
            },
            {
              "internalType": "address",
              "name": "receiver",
              "type": "address"
            },
            {
              "internalType": "uint256",
              "name": "amount",
              "type": "uint256"
            }
          ],
          "internalType": "struct BankingApp.Transaction[]",
          "name": "",
          "type": "tuple[]"
        }
      ],
      "stateMutability": "view",
      "type": "function"
    },
    {
      "inputs": [],
      "name": "getBalanceOfInheritumToken",
      "outputs": [
        {
          "internalType": "uint256",
          "name": "",
          "type": "uint256"
        }
      ],
      "stateMutability": "view",
      "type": "function"
    },
    {
      "inputs": [],
      "name": "getChildren",
      "outputs": [
        {
          "internalType": "address[]",
          "name": "",
          "type": "address[]"
        }
      ],
      "stateMutability": "view",
      "type": "function"
    },
    {
      "inputs": [],
      "name": "getMyBalance",
      "outputs": [
        {
          "internalType": "uint256",
          "name": "",
          "type": "uint256"
        }
      ],
      "stateMutability": "view",
      "type": "function"
    },
    {
      "inputs": [],
      "name": "getMyChild",
      "outputs": [
        {
          "internalType": "address[]",
          "name": "",
          "type": "address[]"
        }
      ],
      "stateMutability": "view",
      "type": "function"
    },
    {
      "inputs": [
        {
          "internalType": "string",
          "name": "_name",
          "type": "string"
        }
      ],
      "name": "getMyChildBalance",
      "outputs": [
        {
          "internalType": "uint256",
          "name": "",
          "type": "uint256"
        }
      ],
      "stateMutability": "nonpayable",
      "type": "function"
    },
    {
      "inputs": [
        {
          "internalType": "address",
          "name": "user_address",
          "type": "address"
        }
      ],
      "name": "getPending",
      "outputs": [
        {
          "internalType": "uint256",
          "name": "",
          "type": "uint256"
        }
      ],
      "stateMutability": "view",
      "type": "function"
    },
    {
      "inputs": [],
      "name": "getPersons",
      "outputs": [
        {
          "components": [
            {
              "internalType": "string",
              "name": "name",
              "type": "string"
            },
            {
              "internalType": "string",
              "name": "agestring",
              "type": "string"
            },
            {
              "internalType": "uint256",
              "name": "balance",
              "type": "uint256"
            },
            {
              "internalType": "bool",
              "name": "isLimited",
              "type": "bool"
            },
            {
              "internalType": "address[]",
              "name": "children",
              "type": "address[]"
            },
            {
              "internalType": "address[]",
              "name": "parents",
              "type": "address[]"
            },
            {
              "internalType": "uint256",
              "name": "createdTime",
              "type": "uint256"
            }
          ],
          "internalType": "struct BankingApp.Person[]",
          "name": "",
          "type": "tuple[]"
        }
      ],
      "stateMutability": "view",
      "type": "function"
    },
    {
      "inputs": [],
      "name": "getTranscationHistory",
      "outputs": [
        {
          "components": [
            {
              "internalType": "uint256",
              "name": "timestamp",
              "type": "uint256"
            },
            {
              "internalType": "address",
              "name": "sender",
              "type": "address"
            },
            {
              "internalType": "address",
              "name": "receiver",
              "type": "address"
            },
            {
              "internalType": "uint256",
              "name": "amount",
              "type": "uint256"
            }
          ],
          "internalType": "struct BankingApp.Transaction[]",
          "name": "",
          "type": "tuple[]"
        }
      ],
      "stateMutability": "view",
      "type": "function"
    },
    {
      "inputs": [
        {
          "internalType": "address",
          "name": "addr",
          "type": "address"
        }
      ],
      "name": "getUser",
      "outputs": [
        {
          "components": [
            {
              "internalType": "string",
              "name": "name",
              "type": "string"
            },
            {
              "internalType": "string",
              "name": "agestring",
              "type": "string"
            },
            {
              "internalType": "uint256",
              "name": "balance",
              "type": "uint256"
            },
            {
              "internalType": "bool",
              "name": "isLimited",
              "type": "bool"
            },
            {
              "internalType": "address[]",
              "name": "children",
              "type": "address[]"
            },
            {
              "internalType": "address[]",
              "name": "parents",
              "type": "address[]"
            },
            {
              "internalType": "uint256",
              "name": "createdTime",
              "type": "uint256"
            }
          ],
          "internalType": "struct BankingApp.Person",
          "name": "",
          "type": "tuple"
        }
      ],
      "stateMutability": "view",
      "type": "function"
    },
    {
      "inputs": [],
      "name": "getUsersAddressByOwner",
      "outputs": [
        {
          "internalType": "address[]",
          "name": "",
          "type": "address[]"
        }
      ],
      "stateMutability": "view",
      "type": "function"
    },
    {
      "inputs": [
        {
          "internalType": "address",
          "name": "childAccount",
          "type": "address"
        },
        {
          "internalType": "string",
          "name": "_name",
          "type": "string"
        },
        {
          "internalType": "string",
          "name": "ageString",
          "type": "string"
        }
      ],
      "name": "linkAccount",
      "outputs": [
        {
          "components": [
            {
              "internalType": "string",
              "name": "name",
              "type": "string"
            },
            {
              "internalType": "string",
              "name": "agestring",
              "type": "string"
            },
            {
              "internalType": "uint256",
              "name": "balance",
              "type": "uint256"
            },
            {
              "internalType": "bool",
              "name": "isLimited",
              "type": "bool"
            },
            {
              "internalType": "address[]",
              "name": "children",
              "type": "address[]"
            },
            {
              "internalType": "address[]",
              "name": "parents",
              "type": "address[]"
            },
            {
              "internalType": "uint256",
              "name": "createdTime",
              "type": "uint256"
            }
          ],
          "internalType": "struct BankingApp.Person",
          "name": "",
          "type": "tuple"
        }
      ],
      "stateMutability": "nonpayable",
      "type": "function"
    },
    {
      "inputs": [
        {
          "internalType": "address",
          "name": "linked_account",
          "type": "address"
        }
      ],
      "name": "makeAccountisLimited",
      "outputs": [],
      "stateMutability": "nonpayable",
      "type": "function"
    },
    {
      "inputs": [
        {
          "internalType": "address payable",
          "name": "_to",
          "type": "address"
        },
        {
          "internalType": "uint256",
          "name": "amount",
          "type": "uint256"
        }
      ],
      "name": "sendEther",
      "outputs": [],
      "stateMutability": "payable",
      "type": "function"
    },
    {
      "inputs": [
        {
          "internalType": "address",
          "name": "_to",
          "type": "address"
        },
        {
          "internalType": "uint256",
          "name": "_amount",
          "type": "uint256"
        }
      ],
      "name": "sendTokenToChild",
      "outputs": [],
      "stateMutability": "nonpayable",
      "type": "function"
    },
    {
      "inputs": [],
      "name": "token",
      "outputs": [
        {
          "internalType": "contract IERC20",
          "name": "",
          "type": "address"
        }
      ],
      "stateMutability": "view",
      "type": "function"
    },
    {
      "inputs": [
        {
          "internalType": "uint256",
          "name": "",
          "type": "uint256"
        }
      ],
      "name": "user_address",
      "outputs": [
        {
          "internalType": "address",
          "name": "",
          "type": "address"
        }
      ],
      "stateMutability": "view",
      "type": "function"
    },
    {
      "inputs": [],
      "name": "withdraw",
      "outputs": [],
      "stateMutability": "payable",
      "type": "function"
    },
    {
      "inputs": [
        {
          "internalType": "address",
          "name": "to",
          "type": "address"
        }
      ],
      "name": "withdrawBack",
      "outputs": [],
      "stateMutability": "payable",
      "type": "function"
    }
  ],
  "bytecode": "0x6080604052604051620057a7380380620057a783398181016040528101906200002991906200011c565b816000806101000a81548173ffffffffffffffffffffffffffffffffffffffff021916908373ffffffffffffffffffffffffffffffffffffffff16021790555080600160006101000a81548173ffffffffffffffffffffffffffffffffffffffff021916908373ffffffffffffffffffffffffffffffffffffffff160217905550505062000163565b600080fd5b600073ffffffffffffffffffffffffffffffffffffffff82169050919050565b6000620000e482620000b7565b9050919050565b620000f681620000d7565b81146200010257600080fd5b50565b6000815190506200011681620000eb565b92915050565b60008060408385031215620001365762000135620000b2565b5b6000620001468582860162000105565b9250506020620001598582860162000105565b9150509250929050565b61563480620001736000396000f3fe6080604052600436106101665760003560e01c806370eb843b116100d1578063d086c2541161008a578063ee203fe611610064578063ee203fe614610543578063f340fa011461056e578063fbf8574d1461058a578063fc0c546a146105c857610166565b8063d086c254146104bf578063dbc1a22b146104fc578063e2a5a17b1461052757610166565b806370eb843b146103bb578063a5090f97146103e6578063b42fbdfd14610426578063c1756a2c1461044f578063c1a161771461046b578063c81cdec91461049457610166565b80634c6b6c6f116101235780634c6b6c6f146102705780634c7389091461029b57806353a86c94146102c65780635412f1c9146103035780635a86bfd9146103415780636f77926b1461037e57610166565b806327d86db71461016b5780632b9d6b1e146101a85780633a34675d146101d35780633ccfd60b146101fe5780634892e8e8146102085780634b696dc914610233575b600080fd5b34801561017757600080fd5b50610192600480360381019061018d9190614311565b6105f3565b60405161019f91906145ed565b60405180910390f35b3480156101b457600080fd5b506101bd610c7c565b6040516101ca919061467e565b60405180910390f35b3480156101df57600080fd5b506101e8610d0a565b6040516101f591906147a4565b60405180910390f35b610206610e29565b005b34801561021457600080fd5b5061021d610efc565b60405161022a919061467e565b60405180910390f35b34801561023f57600080fd5b5061025a600480360381019061025591906147f2565b610ff5565b604051610267919061482e565b60405180910390f35b34801561027c57600080fd5b50610285611034565b60405161029291906149bc565b60405180910390f35b3480156102a757600080fd5b506102b0611302565b6040516102bd91906149ed565b60405180910390f35b3480156102d257600080fd5b506102ed60048036038101906102e89190614a08565b611321565b6040516102fa91906149ed565b60405180910390f35b34801561030f57600080fd5b5061032a60048036038101906103259190614a51565b61137c565b604051610338929190614aad565b60405180910390f35b34801561034d57600080fd5b5061036860048036038101906103639190614b09565b6114c1565b60405161037591906145ed565b60405180910390f35b34801561038a57600080fd5b506103a560048036038101906103a09190614b94565b612187565b6040516103b291906145ed565b60405180910390f35b3480156103c757600080fd5b506103d061244f565b6040516103dd91906149ed565b60405180910390f35b3480156103f257600080fd5b5061040d600480360381019061040891906147f2565b612455565b60405161041d9493929190614bc1565b60405180910390f35b34801561043257600080fd5b5061044d60048036038101906104489190614c06565b6124d5565b005b61046960048036038101906104649190614c84565b6126d6565b005b34801561047757600080fd5b50610492600480360381019061048d9190614b94565b6128a4565b005b3480156104a057600080fd5b506104a9612aa4565b6040516104b691906149ed565b60405180910390f35b3480156104cb57600080fd5b506104e660048036038101906104e19190614b94565b612b55565b6040516104f391906149ed565b60405180910390f35b34801561050857600080fd5b50610511612b9e565b60405161051e91906147a4565b60405180910390f35b610541600480360381019061053c9190614b94565b612cfa565b005b34801561054f57600080fd5b50610558612e35565b604051610565919061467e565b60405180910390f35b61058860048036038101906105839190614b94565b612f03565b005b34801561059657600080fd5b506105b160048036038101906105ac9190614a51565b612ff6565b6040516105bf929190614aad565b60405180910390f35b3480156105d457600080fd5b506105dd613372565b6040516105ea9190614d23565b60405180910390f35b6105fb613f34565b6040518060200160405280600081525080519060200120600560003373ffffffffffffffffffffffffffffffffffffffff1673ffffffffffffffffffffffffffffffffffffffff1681526020019081526020016000206000016040516106619190614e3e565b6040518091039020146106a9576040517f08c379a00000000000000000000000000000000000000000000000000000000081526004016106a090614eb2565b60405180910390fd5b600160009054906101000a900473ffffffffffffffffffffffffffffffffffffffff1673ffffffffffffffffffffffffffffffffffffffff163373ffffffffffffffffffffffffffffffffffffffff16141561073a576040517f08c379a000000000000000000000000000000000000000000000000000000000815260040161073190614f1e565b60405180910390fd5b6000600560003373ffffffffffffffffffffffffffffffffffffffff1673ffffffffffffffffffffffffffffffffffffffff168152602001908152602001600020905084816000019080519060200190610795929190613f73565b50838160010190805190602001906107ae929190613f73565b503373ffffffffffffffffffffffffffffffffffffffff16318160020181905550828160030160006101000a81548160ff021916908315150217905550600067ffffffffffffffff811115610806576108056141ae565b5b6040519080825280602002602001820160405280156108345781602001602082028036833780820191505090505b5081600401908051906020019061084c929190613ff9565b50600067ffffffffffffffff811115610868576108676141ae565b5b6040519080825280602002602001820160405280156108965781602001602082028036833780820191505090505b508160050190805190602001906108ae929190613ff9565b504281600601819055506000816040518060e00160405290816000820180546108d690614d6d565b80601f016020809104026020016040519081016040528092919081815260200182805461090290614d6d565b801561094f5780601f106109245761010080835404028352916020019161094f565b820191906000526020600020905b81548152906001019060200180831161093257829003601f168201915b5050505050815260200160018201805461096890614d6d565b80601f016020809104026020016040519081016040528092919081815260200182805461099490614d6d565b80156109e15780601f106109b6576101008083540402835291602001916109e1565b820191906000526020600020905b8154815290600101906020018083116109c457829003601f168201915b50505050508152602001600282015481526020016003820160009054906101000a900460ff1615151515815260200160048201805480602002602001604051908101604052809291908181526020018280548015610a9457602002820191906000526020600020905b8160009054906101000a900473ffffffffffffffffffffffffffffffffffffffff1673ffffffffffffffffffffffffffffffffffffffff1681526020019060010190808311610a4a575b5050505050815260200160058201805480602002602001604051908101604052809291908181526020018280548015610b2257602002820191906000526020600020905b8160009054906101000a900473ffffffffffffffffffffffffffffffffffffffff1673ffffffffffffffffffffffffffffffffffffffff1681526020019060010190808311610ad8575b50505050508152602001600682015481525050905060068190806001815401808255809150506001900390600052602060002090600702016000909190919091506000820151816000019080519060200190610b7f929190613f73565b506020820151816001019080519060200190610b9c929190613f73565b506040820151816002015560608201518160030160006101000a81548160ff0219169083151502179055506080820151816004019080519060200190610be3929190613ff9565b5060a0820151816005019080519060200190610c00929190613ff9565b5060c0820151816006015550506003339080600181540180825580915050600190039060005260206000200160009091909190916101000a81548173ffffffffffffffffffffffffffffffffffffffff021916908373ffffffffffffffffffffffffffffffffffffffff16021790555080925050509392505050565b60606003805480602002602001604051908101604052809291908181526020018280548015610d0057602002820191906000526020600020905b8160009054906101000a900473ffffffffffffffffffffffffffffffffffffffff1673ffffffffffffffffffffffffffffffffffffffff1681526020019060010190808311610cb6575b5050505050905090565b60606002805480602002602001604051908101604052809291908181526020016000905b82821015610e205783829060005260206000209060040201604051806080016040529081600082015481526020016001820160009054906101000a900473ffffffffffffffffffffffffffffffffffffffff1673ffffffffffffffffffffffffffffffffffffffff1673ffffffffffffffffffffffffffffffffffffffff1681526020016002820160009054906101000a900473ffffffffffffffffffffffffffffffffffffffff1673ffffffffffffffffffffffffffffffffffffffff1673ffffffffffffffffffffffffffffffffffffffff16815260200160038201548152505081526020019060010190610d2e565b50505050905090565b6000600860003373ffffffffffffffffffffffffffffffffffffffff1673ffffffffffffffffffffffffffffffffffffffff1681526020019081526020016000205490506000600860003373ffffffffffffffffffffffffffffffffffffffff1673ffffffffffffffffffffffffffffffffffffffff168152602001908152602001600020819055503373ffffffffffffffffffffffffffffffffffffffff166108fc829081150290604051600060405180830381858888f19350505050158015610ef8573d6000803e3d6000fd5b5050565b60606000610f0933612187565b9050600081608001515167ffffffffffffffff811115610f2c57610f2b6141ae565b5b604051908082528060200260200182016040528015610f5a5781602001602082028036833780820191505090505b50905060005b826080015151811015610fec5782608001518181518110610f8457610f83614f3e565b5b6020026020010151828281518110610f9f57610f9e614f3e565b5b602002602001019073ffffffffffffffffffffffffffffffffffffffff16908173ffffffffffffffffffffffffffffffffffffffff16815250508080610fe490614f9c565b915050610f60565b50809250505090565b6003818154811061100557600080fd5b906000526020600020016000915054906101000a900473ffffffffffffffffffffffffffffffffffffffff1681565b60606006805480602002602001604051908101604052809291908181526020016000905b828210156112f957838290600052602060002090600702016040518060e001604052908160008201805461108b90614d6d565b80601f01602080910402602001604051908101604052809291908181526020018280546110b790614d6d565b80156111045780601f106110d957610100808354040283529160200191611104565b820191906000526020600020905b8154815290600101906020018083116110e757829003601f168201915b5050505050815260200160018201805461111d90614d6d565b80601f016020809104026020016040519081016040528092919081815260200182805461114990614d6d565b80156111965780601f1061116b57610100808354040283529160200191611196565b820191906000526020600020905b81548152906001019060200180831161117957829003601f168201915b50505050508152602001600282015481526020016003820160009054906101000a900460ff161515151581526020016004820180548060200260200160405190810160405280929190818152602001828054801561124957602002820191906000526020600020905b8160009054906101000a900473ffffffffffffffffffffffffffffffffffffffff1673ffffffffffffffffffffffffffffffffffffffff16815260200190600101908083116111ff575b50505050508152602001600582018054806020026020016040519081016040528092919081815260200182805480156112d757602002820191906000526020600020905b8160009054906101000a900473ffffffffffffffffffffffffffffffffffffffff1673ffffffffffffffffffffffffffffffffffffffff168152602001906001019080831161128d575b5050505050815260200160068201548152505081526020019060010190611058565b50505050905090565b60003373ffffffffffffffffffffffffffffffffffffffff1631905090565b60008061132f83600161137c565b5090507f43bffc0f95fb1b5cd921e2fa994fd3abf463eefb09b4b0fffddb4d365c17252833826000015160405161136792919061501e565b60405180910390a18060400151915050919050565b611384613f34565b60008061139033612187565b9050600081608001515190506001811061147f5760005b81811015611426576000836080015182815181106113c8576113c7614f3e565b5b6020026020010151905060006113dd82612187565b6000015190508880519060200120818051906020012014156114115761140282612187565b839650965050505050506114ba565b5050808061141e90614f9c565b9150506113a7565b508415611468576040517f08c379a000000000000000000000000000000000000000000000000000000000815260040161145f9061509a565b60405180910390fd5b611470613f34565b806000945094505050506114ba565b6040517f08c379a00000000000000000000000000000000000000000000000000000000081526004016114b190615106565b60405180910390fd5b9250929050565b6114c9613f34565b600160009054906101000a900473ffffffffffffffffffffffffffffffffffffffff1673ffffffffffffffffffffffffffffffffffffffff163373ffffffffffffffffffffffffffffffffffffffff16141561155a576040517f08c379a000000000000000000000000000000000000000000000000000000000815260040161155190615172565b60405180910390fd5b604051806020016040528060008152508051906020012061157a33612187565b600001518051906020012014156115c6576040517f08c379a00000000000000000000000000000000000000000000000000000000081526004016115bd90615204565b60405180910390fd5b6000600560003373ffffffffffffffffffffffffffffffffffffffff1673ffffffffffffffffffffffffffffffffffffffff168152602001908152602001600020905080600401859080600181540180825580915050600190039060005260206000200160009091909190916101000a81548173ffffffffffffffffffffffffffffffffffffffff021916908373ffffffffffffffffffffffffffffffffffffffff16021790555080600560003373ffffffffffffffffffffffffffffffffffffffff1673ffffffffffffffffffffffffffffffffffffffff16815260200190815260200160002060008201816000019080546116c290614d6d565b6116cd929190614083565b5060018201816001019080546116e290614d6d565b6116ed929190614083565b50600282015481600201556003820160009054906101000a900460ff168160030160006101000a81548160ff021916908315150217905550600482018160040190805461173b929190614110565b506005820181600501908054611752929190614110565b50600682015481600601559050506000806117fa83600001805461177590614d6d565b80601f01602080910402602001604051908101604052809291908181526020018280546117a190614d6d565b80156117ee5780601f106117c3576101008083540402835291602001916117ee565b820191906000526020600020905b8154815290600101906020018083116117d157829003601f168201915b50505050506000612ff6565b915091506006818154811061181257611811614f3e565b5b9060005260206000209060070201600401879080600181540180825580915050600190039060005260206000200160009091909190916101000a81548173ffffffffffffffffffffffffffffffffffffffff021916908373ffffffffffffffffffffffffffffffffffffffff1602179055506040518060200160405280600081525080519060200120600560008973ffffffffffffffffffffffffffffffffffffffff1673ffffffffffffffffffffffffffffffffffffffff1681526020019081526020016000206000016040516118ea9190614e3e565b604051809103902014611c6a57600061190288612187565b905060008160a0015151905060008260a0015190506040518060e001604052808a815260200189815260200160008152602001600115158152602001600067ffffffffffffffff811115611959576119586141ae565b5b6040519080825280602002602001820160405280156119875781602001602082028036833780820191505090505b50815260200160018461199a9190615224565b67ffffffffffffffff8111156119b3576119b26141ae565b5b6040519080825280602002602001820160405280156119e15781602001602082028036833780820191505090505b50815260200142815250600560008c73ffffffffffffffffffffffffffffffffffffffff1673ffffffffffffffffffffffffffffffffffffffff1681526020019081526020016000206000820151816000019080519060200190611a46929190613f73565b506020820151816001019080519060200190611a63929190613f73565b506040820151816002015560608201518160030160006101000a81548160ff0219169083151502179055506080820151816004019080519060200190611aaa929190613ff9565b5060a0820151816005019080519060200190611ac7929190613ff9565b5060c0820151816006015590505060005b600183611ae59190615224565b811015611c615782811415611b965733600560008d73ffffffffffffffffffffffffffffffffffffffff1673ffffffffffffffffffffffffffffffffffffffff1681526020019081526020016000206005018281548110611b4957611b48614f3e565b5b9060005260206000200160006101000a81548173ffffffffffffffffffffffffffffffffffffffff021916908373ffffffffffffffffffffffffffffffffffffffff160217905550611c4e565b818181518110611ba957611ba8614f3e565b5b6020026020010151600560008d73ffffffffffffffffffffffffffffffffffffffff1673ffffffffffffffffffffffffffffffffffffffff1681526020019081526020016000206005018281548110611c0557611c04614f3e565b5b9060005260206000200160006101000a81548173ffffffffffffffffffffffffffffffffffffffff021916908373ffffffffffffffffffffffffffffffffffffffff1602179055505b8080611c5990614f9c565b915050611ad8565b50505050611ebc565b6040518060e0016040528087815260200186815260200160008152602001600115158152602001600067ffffffffffffffff811115611cac57611cab6141ae565b5b604051908082528060200260200182016040528015611cda5781602001602082028036833780820191505090505b508152602001600167ffffffffffffffff811115611cfb57611cfa6141ae565b5b604051908082528060200260200182016040528015611d295781602001602082028036833780820191505090505b50815260200142815250600560008973ffffffffffffffffffffffffffffffffffffffff1673ffffffffffffffffffffffffffffffffffffffff1681526020019081526020016000206000820151816000019080519060200190611d8e929190613f73565b506020820151816001019080519060200190611dab929190613f73565b506040820151816002015560608201518160030160006101000a81548160ff0219169083151502179055506080820151816004019080519060200190611df2929190613ff9565b5060a0820151816005019080519060200190611e0f929190613ff9565b5060c0820151816006015590505033600560008973ffffffffffffffffffffffffffffffffffffffff1673ffffffffffffffffffffffffffffffffffffffff168152602001908152602001600020600501600081548110611e7357611e72614f3e565b5b9060005260206000200160006101000a81548173ffffffffffffffffffffffffffffffffffffffff021916908373ffffffffffffffffffffffffffffffffffffffff1602179055505b6000600560003373ffffffffffffffffffffffffffffffffffffffff1673ffffffffffffffffffffffffffffffffffffffff1681526020019081526020016000206040518060e0016040529081600082018054611f1890614d6d565b80601f0160208091040260200160405190810160405280929190818152602001828054611f4490614d6d565b8015611f915780601f10611f6657610100808354040283529160200191611f91565b820191906000526020600020905b815481529060010190602001808311611f7457829003601f168201915b50505050508152602001600182018054611faa90614d6d565b80601f0160208091040260200160405190810160405280929190818152602001828054611fd690614d6d565b80156120235780601f10611ff857610100808354040283529160200191612023565b820191906000526020600020905b81548152906001019060200180831161200657829003601f168201915b50505050508152602001600282015481526020016003820160009054906101000a900460ff16151515158152602001600482018054806020026020016040519081016040528092919081815260200182805480156120d657602002820191906000526020600020905b8160009054906101000a900473ffffffffffffffffffffffffffffffffffffffff1673ffffffffffffffffffffffffffffffffffffffff168152602001906001019080831161208c575b505050505081526020016005820180548060200260200160405190810160405280929190818152602001828054801561216457602002820191906000526020600020905b8160009054906101000a900473ffffffffffffffffffffffffffffffffffffffff1673ffffffffffffffffffffffffffffffffffffffff168152602001906001019080831161211a575b505050505081526020016006820154815250509050809450505050509392505050565b61218f613f34565b600560008373ffffffffffffffffffffffffffffffffffffffff1673ffffffffffffffffffffffffffffffffffffffff1681526020019081526020016000206040518060e00160405290816000820180546121e990614d6d565b80601f016020809104026020016040519081016040528092919081815260200182805461221590614d6d565b80156122625780601f1061223757610100808354040283529160200191612262565b820191906000526020600020905b81548152906001019060200180831161224557829003601f168201915b5050505050815260200160018201805461227b90614d6d565b80601f01602080910402602001604051908101604052809291908181526020018280546122a790614d6d565b80156122f45780601f106122c9576101008083540402835291602001916122f4565b820191906000526020600020905b8154815290600101906020018083116122d757829003601f168201915b50505050508152602001600282015481526020016003820160009054906101000a900460ff16151515158152602001600482018054806020026020016040519081016040528092919081815260200182805480156123a757602002820191906000526020600020905b8160009054906101000a900473ffffffffffffffffffffffffffffffffffffffff1673ffffffffffffffffffffffffffffffffffffffff168152602001906001019080831161235d575b505050505081526020016005820180548060200260200160405190810160405280929190818152602001828054801561243557602002820191906000526020600020905b8160009054906101000a900473ffffffffffffffffffffffffffffffffffffffff1673ffffffffffffffffffffffffffffffffffffffff16815260200190600101908083116123eb575b505050505081526020016006820154815250509050919050565b60075481565b6002818154811061246557600080fd5b90600052602060002090600402016000915090508060000154908060010160009054906101000a900473ffffffffffffffffffffffffffffffffffffffff16908060020160009054906101000a900473ffffffffffffffffffffffffffffffffffffffff16908060030154905084565b808060008054906101000a900473ffffffffffffffffffffffffffffffffffffffff1673ffffffffffffffffffffffffffffffffffffffff166370a08231336040518263ffffffff1660e01b8152600401612530919061482e565b60206040518083038186803b15801561254857600080fd5b505afa15801561255c573d6000803e3d6000fd5b505050506040513d601f19601f82011682018060405250810190612580919061528f565b101561258b57600080fd5b600560003373ffffffffffffffffffffffffffffffffffffffff1673ffffffffffffffffffffffffffffffffffffffff16815260200190815260200160002060030160009054906101000a900460ff166000151581151514612622576040517f08c379a00000000000000000000000000000000000000000000000000000000081526004016126199061532e565b60405180910390fd5b60008054906101000a900473ffffffffffffffffffffffffffffffffffffffff1673ffffffffffffffffffffffffffffffffffffffff1663a9059cbb85856040518363ffffffff1660e01b815260040161267d92919061534e565b602060405180830381600087803b15801561269757600080fd5b505af11580156126ab573d6000803e3d6000fd5b505050506040513d601f19601f820116820180604052508101906126cf919061538c565b5050505050565b600560003373ffffffffffffffffffffffffffffffffffffffff1673ffffffffffffffffffffffffffffffffffffffff16815260200190815260200160002060030160009054906101000a900460ff16600015158115151461276d576040517f08c379a00000000000000000000000000000000000000000000000000000000081526004016127649061532e565b60405180910390fd5b60008373ffffffffffffffffffffffffffffffffffffffff1683604051612793906153df565b60006040518083038185875af1925050503d80600081146127d0576040519150601f19603f3d011682016040523d82523d6000602084013e6127d5565b606091505b5050905080612819576040517f08c379a000000000000000000000000000000000000000000000000000000000815260040161281090615440565b60405180910390fd5b61282584846001613396565b600061283085612187565b90506001151581606001511515141561289d5783600560008773ffffffffffffffffffffffffffffffffffffffff1673ffffffffffffffffffffffffffffffffffffffff16815260200190815260200160002060020160008282546128959190615224565b925050819055505b5050505050565b80600115156128b282612187565b606001511515146128f8576040517f08c379a00000000000000000000000000000000000000000000000000000000081526004016128ef906154ac565b60405180910390fd5b600160009054906101000a900473ffffffffffffffffffffffffffffffffffffffff1673ffffffffffffffffffffffffffffffffffffffff163373ffffffffffffffffffffffffffffffffffffffff1614612988576040517f08c379a000000000000000000000000000000000000000000000000000000000815260040161297f9061553e565b60405180910390fd5b600061299383612187565b905060008160a001516000815181106129af576129ae614f3e565b5b6020026020010151905060006129c58583613baf565b905060068190806001815401808255809150506001900390600052602060002090600702016000909190919091506000820151816000019080519060200190612a0f929190613f73565b506020820151816001019080519060200190612a2c929190613f73565b506040820151816002015560608201518160030160006101000a81548160ff0219169083151502179055506080820151816004019080519060200190612a73929190613ff9565b5060a0820151816005019080519060200190612a90929190613ff9565b5060c0820151816006015550505050505050565b60008060009054906101000a900473ffffffffffffffffffffffffffffffffffffffff1673ffffffffffffffffffffffffffffffffffffffff166370a08231336040518263ffffffff1660e01b8152600401612b00919061482e565b60206040518083038186803b158015612b1857600080fd5b505afa158015612b2c573d6000803e3d6000fd5b505050506040513d601f19601f82011682018060405250810190612b50919061528f565b905090565b6000600860008373ffffffffffffffffffffffffffffffffffffffff1673ffffffffffffffffffffffffffffffffffffffff168152602001908152602001600020549050919050565b6060600460003373ffffffffffffffffffffffffffffffffffffffff1673ffffffffffffffffffffffffffffffffffffffff168152602001908152602001600020805480602002602001604051908101604052809291908181526020016000905b82821015612cf15783829060005260206000209060040201604051806080016040529081600082015481526020016001820160009054906101000a900473ffffffffffffffffffffffffffffffffffffffff1673ffffffffffffffffffffffffffffffffffffffff1673ffffffffffffffffffffffffffffffffffffffff1681526020016002820160009054906101000a900473ffffffffffffffffffffffffffffffffffffffff1673ffffffffffffffffffffffffffffffffffffffff1673ffffffffffffffffffffffffffffffffffffffff16815260200160038201548152505081526020019060010190612bff565b50505050905090565b6000600960003373ffffffffffffffffffffffffffffffffffffffff1673ffffffffffffffffffffffffffffffffffffffff16815260200190815260200160002060008373ffffffffffffffffffffffffffffffffffffffff1673ffffffffffffffffffffffffffffffffffffffff1681526020019081526020016000205490508060076000828254612d8d919061555e565b9250508190555080600860008473ffffffffffffffffffffffffffffffffffffffff1673ffffffffffffffffffffffffffffffffffffffff1681526020019081526020016000206000828254612de3919061555e565b925050819055503373ffffffffffffffffffffffffffffffffffffffff166108fc829081150290604051600060405180830381858888f19350505050158015612e30573d6000803e3d6000fd5b505050565b6060600560003373ffffffffffffffffffffffffffffffffffffffff1673ffffffffffffffffffffffffffffffffffffffff168152602001908152602001600020600401805480602002602001604051908101604052809291908181526020018280548015612ef957602002820191906000526020600020905b8160009054906101000a900473ffffffffffffffffffffffffffffffffffffffff1673ffffffffffffffffffffffffffffffffffffffff1681526020019060010190808311612eaf575b5050505050905090565b3460076000828254612f159190615224565b9250508190555034600860008373ffffffffffffffffffffffffffffffffffffffff1673ffffffffffffffffffffffffffffffffffffffff1681526020019081526020016000206000828254612f6b9190615224565b9250508190555034600960003373ffffffffffffffffffffffffffffffffffffffff1673ffffffffffffffffffffffffffffffffffffffff16815260200190815260200160002060008373ffffffffffffffffffffffffffffffffffffffff1673ffffffffffffffffffffffffffffffffffffffff1681526020019081526020016000208190555050565b612ffe613f34565b600080600090505b6006805490508110156133185784805190602001206006828154811061302f5761302e614f3e565b5b906000526020600020906007020160000160405161304d9190614e3e565b60405180910390201415613305576006818154811061306f5761306e614f3e565b5b906000526020600020906007020181816040518060e001604052908160008201805461309a90614d6d565b80601f01602080910402602001604051908101604052809291908181526020018280546130c690614d6d565b80156131135780601f106130e857610100808354040283529160200191613113565b820191906000526020600020905b8154815290600101906020018083116130f657829003601f168201915b5050505050815260200160018201805461312c90614d6d565b80601f016020809104026020016040519081016040528092919081815260200182805461315890614d6d565b80156131a55780601f1061317a576101008083540402835291602001916131a5565b820191906000526020600020905b81548152906001019060200180831161318857829003601f168201915b50505050508152602001600282015481526020016003820160009054906101000a900460ff161515151581526020016004820180548060200260200160405190810160405280929190818152602001828054801561325857602002820191906000526020600020905b8160009054906101000a900473ffffffffffffffffffffffffffffffffffffffff1673ffffffffffffffffffffffffffffffffffffffff168152602001906001019080831161320e575b50505050508152602001600582018054806020026020016040519081016040528092919081815260200182805480156132e657602002820191906000526020600020905b8160009054906101000a900473ffffffffffffffffffffffffffffffffffffffff1673ffffffffffffffffffffffffffffffffffffffff168152602001906001019080831161329c575b505050505081526020016006820154815250509150925092505061336b565b808061331090614f9c565b915050613006565b50821561335a576040517f08c379a0000000000000000000000000000000000000000000000000000000008152600401613351906155de565b60405180910390fd5b613362613f34565b80600092509250505b9250929050565b60008054906101000a900473ffffffffffffffffffffffffffffffffffffffff1681565b60405180602001604052806000815250805190602001206133b633612187565b60000151805190602001201415613402576040517f08c379a00000000000000000000000000000000000000000000000000000000081526004016133f990615204565b60405180910390fd5b80156137db57600460003373ffffffffffffffffffffffffffffffffffffffff1673ffffffffffffffffffffffffffffffffffffffff16815260200190815260200160002060405180608001604052804281526020013373ffffffffffffffffffffffffffffffffffffffff1681526020018573ffffffffffffffffffffffffffffffffffffffff1681526020018481525090806001815401808255809150506001900390600052602060002090600402016000909190919091506000820151816000015560208201518160010160006101000a81548173ffffffffffffffffffffffffffffffffffffffff021916908373ffffffffffffffffffffffffffffffffffffffff16021790555060408201518160020160006101000a81548173ffffffffffffffffffffffffffffffffffffffff021916908373ffffffffffffffffffffffffffffffffffffffff160217905550606082015181600301555050600260405180608001604052804281526020013373ffffffffffffffffffffffffffffffffffffffff1681526020018573ffffffffffffffffffffffffffffffffffffffff1681526020018481525090806001815401808255809150506001900390600052602060002090600402016000909190919091506000820151816000015560208201518160010160006101000a81548173ffffffffffffffffffffffffffffffffffffffff021916908373ffffffffffffffffffffffffffffffffffffffff16021790555060408201518160020160006101000a81548173ffffffffffffffffffffffffffffffffffffffff021916908373ffffffffffffffffffffffffffffffffffffffff160217905550606082015181600301555050600460008473ffffffffffffffffffffffffffffffffffffffff1673ffffffffffffffffffffffffffffffffffffffff16815260200190815260200160002060405180608001604052804281526020013373ffffffffffffffffffffffffffffffffffffffff1681526020018573ffffffffffffffffffffffffffffffffffffffff1681526020018481525090806001815401808255809150506001900390600052602060002090600402016000909190919091506000820151816000015560208201518160010160006101000a81548173ffffffffffffffffffffffffffffffffffffffff021916908373ffffffffffffffffffffffffffffffffffffffff16021790555060408201518160020160006101000a81548173ffffffffffffffffffffffffffffffffffffffff021916908373ffffffffffffffffffffffffffffffffffffffff160217905550606082015181600301555050613baa565b600460008473ffffffffffffffffffffffffffffffffffffffff1673ffffffffffffffffffffffffffffffffffffffff16815260200190815260200160002060405180608001604052804281526020018573ffffffffffffffffffffffffffffffffffffffff1681526020013373ffffffffffffffffffffffffffffffffffffffff1681526020018481525090806001815401808255809150506001900390600052602060002090600402016000909190919091506000820151816000015560208201518160010160006101000a81548173ffffffffffffffffffffffffffffffffffffffff021916908373ffffffffffffffffffffffffffffffffffffffff16021790555060408201518160020160006101000a81548173ffffffffffffffffffffffffffffffffffffffff021916908373ffffffffffffffffffffffffffffffffffffffff160217905550606082015181600301555050600460003373ffffffffffffffffffffffffffffffffffffffff1673ffffffffffffffffffffffffffffffffffffffff16815260200190815260200160002060405180608001604052804281526020018573ffffffffffffffffffffffffffffffffffffffff1681526020013373ffffffffffffffffffffffffffffffffffffffff1681526020018481525090806001815401808255809150506001900390600052602060002090600402016000909190919091506000820151816000015560208201518160010160006101000a81548173ffffffffffffffffffffffffffffffffffffffff021916908373ffffffffffffffffffffffffffffffffffffffff16021790555060408201518160020160006101000a81548173ffffffffffffffffffffffffffffffffffffffff021916908373ffffffffffffffffffffffffffffffffffffffff160217905550606082015181600301555050600260405180608001604052804281526020018573ffffffffffffffffffffffffffffffffffffffff1681526020013373ffffffffffffffffffffffffffffffffffffffff1681526020018481525090806001815401808255809150506001900390600052602060002090600402016000909190919091506000820151816000015560208201518160010160006101000a81548173ffffffffffffffffffffffffffffffffffffffff021916908373ffffffffffffffffffffffffffffffffffffffff16021790555060408201518160020160006101000a81548173ffffffffffffffffffffffffffffffffffffffff021916908373ffffffffffffffffffffffffffffffffffffffff1602179055506060820151816003015550505b505050565b613bb7613f34565b6000613bc283612187565b9050600080613bd683600001516000612ff6565b915091506000613be587612187565b9050600080613bf983600001516000612ff6565b9150915085608001518181518110613c1457613c13614f3e565b5b60200260200101600073ffffffffffffffffffffffffffffffffffffffff168152508560068581548110613c4b57613c4a614f3e565b5b90600052602060002090600702016000820151816000019080519060200190613c75929190613f73565b506020820151816001019080519060200190613c92929190613f73565b506040820151816002015560608201518160030160006101000a81548160ff0219169083151502179055506080820151816004019080519060200190613cd9929190613ff9565b5060a0820151816005019080519060200190613cf6929190613ff9565b5060c0820151816006015590505085600560008a73ffffffffffffffffffffffffffffffffffffffff1673ffffffffffffffffffffffffffffffffffffffff1681526020019081526020016000206000820151816000019080519060200190613d60929190613f73565b506020820151816001019080519060200190613d7d929190613f73565b506040820151816002015560608201518160030160006101000a81548160ff0219169083151502179055506080820151816004019080519060200190613dc4929190613ff9565b5060a0820151816005019080519060200190613de1929190613ff9565b5060c0820151816006015590505060008360600190151590811515815250508260a00151600081518110613e1857613e17614f3e565b5b60200260200101600073ffffffffffffffffffffffffffffffffffffffff1681525082600560008b73ffffffffffffffffffffffffffffffffffffffff1673ffffffffffffffffffffffffffffffffffffffff1681526020019081526020016000206000820151816000019080519060200190613e96929190613f73565b506020820151816001019080519060200190613eb3929190613f73565b506040820151816002015560608201518160030160006101000a81548160ff0219169083151502179055506080820151816004019080519060200190613efa929190613ff9565b5060a0820151816005019080519060200190613f17929190613ff9565b5060c0820151816006015590505082965050505050505092915050565b6040518060e001604052806060815260200160608152602001600081526020016000151581526020016060815260200160608152602001600081525090565b828054613f7f90614d6d565b90600052602060002090601f016020900481019282613fa15760008555613fe8565b82601f10613fba57805160ff1916838001178555613fe8565b82800160010185558215613fe8579182015b82811115613fe7578251825591602001919060010190613fcc565b5b509050613ff59190614162565b5090565b828054828255906000526020600020908101928215614072579160200282015b828111156140715782518260006101000a81548173ffffffffffffffffffffffffffffffffffffffff021916908373ffffffffffffffffffffffffffffffffffffffff16021790555091602001919060010190614019565b5b50905061407f9190614162565b5090565b82805461408f90614d6d565b90600052602060002090601f0160209004810192826140b157600085556140ff565b82601f106140c257805485556140ff565b828001600101855582156140ff57600052602060002091601f016020900482015b828111156140fe5782548255916001019190600101906140e3565b5b50905061410c9190614162565b5090565b8280548282559060005260206000209081019282156141515760005260206000209182015b82811115614150578254825591600101919060010190614135565b5b50905061415e9190614162565b5090565b5b8082111561417b576000816000905550600101614163565b5090565b6000604051905090565b600080fd5b600080fd5b600080fd5b600080fd5b6000601f19601f8301169050919050565b7f4e487b7100000000000000000000000000000000000000000000000000000000600052604160045260246000fd5b6141e68261419d565b810181811067ffffffffffffffff82111715614205576142046141ae565b5b80604052505050565b600061421861417f565b905061422482826141dd565b919050565b600067ffffffffffffffff821115614244576142436141ae565b5b61424d8261419d565b9050602081019050919050565b82818337600083830152505050565b600061427c61427784614229565b61420e565b90508281526020810184848401111561429857614297614198565b5b6142a384828561425a565b509392505050565b600082601f8301126142c0576142bf614193565b5b81356142d0848260208601614269565b91505092915050565b60008115159050919050565b6142ee816142d9565b81146142f957600080fd5b50565b60008135905061430b816142e5565b92915050565b60008060006060848603121561432a57614329614189565b5b600084013567ffffffffffffffff8111156143485761434761418e565b5b614354868287016142ab565b935050602084013567ffffffffffffffff8111156143755761437461418e565b5b614381868287016142ab565b9250506040614392868287016142fc565b9150509250925092565b600081519050919050565b600082825260208201905092915050565b60005b838110156143d65780820151818401526020810190506143bb565b838111156143e5576000848401525b50505050565b60006143f68261439c565b61440081856143a7565b93506144108185602086016143b8565b6144198161419d565b840191505092915050565b6000819050919050565b61443781614424565b82525050565b614446816142d9565b82525050565b600081519050919050565b600082825260208201905092915050565b6000819050602082019050919050565b600073ffffffffffffffffffffffffffffffffffffffff82169050919050565b60006144a382614478565b9050919050565b6144b381614498565b82525050565b60006144c583836144aa565b60208301905092915050565b6000602082019050919050565b60006144e98261444c565b6144f38185614457565b93506144fe83614468565b8060005b8381101561452f57815161451688826144b9565b9750614521836144d1565b925050600181019050614502565b5085935050505092915050565b600060e083016000830151848203600086015261455982826143eb565b9150506020830151848203602086015261457382826143eb565b9150506040830151614588604086018261442e565b50606083015161459b606086018261443d565b50608083015184820360808601526145b382826144de565b91505060a083015184820360a08601526145cd82826144de565b91505060c08301516145e260c086018261442e565b508091505092915050565b60006020820190508181036000830152614607818461453c565b905092915050565b600082825260208201905092915050565b600061462b8261444c565b614635818561460f565b935061464083614468565b8060005b8381101561467157815161465888826144b9565b9750614663836144d1565b925050600181019050614644565b5085935050505092915050565b600060208201905081810360008301526146988184614620565b905092915050565b600081519050919050565b600082825260208201905092915050565b6000819050602082019050919050565b6080820160008201516146e2600085018261442e565b5060208201516146f560208501826144aa565b50604082015161470860408501826144aa565b50606082015161471b606085018261442e565b50505050565b600061472d83836146cc565b60808301905092915050565b6000602082019050919050565b6000614751826146a0565b61475b81856146ab565b9350614766836146bc565b8060005b8381101561479757815161477e8882614721565b975061478983614739565b92505060018101905061476a565b5085935050505092915050565b600060208201905081810360008301526147be8184614746565b905092915050565b6147cf81614424565b81146147da57600080fd5b50565b6000813590506147ec816147c6565b92915050565b60006020828403121561480857614807614189565b5b6000614816848285016147dd565b91505092915050565b61482881614498565b82525050565b6000602082019050614843600083018461481f565b92915050565b600081519050919050565b600082825260208201905092915050565b6000819050602082019050919050565b600060e083016000830151848203600086015261489282826143eb565b915050602083015184820360208601526148ac82826143eb565b91505060408301516148c1604086018261442e565b5060608301516148d4606086018261443d565b50608083015184820360808601526148ec82826144de565b91505060a083015184820360a086015261490682826144de565b91505060c083015161491b60c086018261442e565b508091505092915050565b60006149328383614875565b905092915050565b6000602082019050919050565b600061495282614849565b61495c8185614854565b93508360208202850161496e85614865565b8060005b858110156149aa578484038952815161498b8582614926565b94506149968361493a565b925060208a01995050600181019050614972565b50829750879550505050505092915050565b600060208201905081810360008301526149d68184614947565b905092915050565b6149e781614424565b82525050565b6000602082019050614a0260008301846149de565b92915050565b600060208284031215614a1e57614a1d614189565b5b600082013567ffffffffffffffff811115614a3c57614a3b61418e565b5b614a48848285016142ab565b91505092915050565b60008060408385031215614a6857614a67614189565b5b600083013567ffffffffffffffff811115614a8657614a8561418e565b5b614a92858286016142ab565b9250506020614aa3858286016142fc565b9150509250929050565b60006040820190508181036000830152614ac7818561453c565b9050614ad660208301846149de565b9392505050565b614ae681614498565b8114614af157600080fd5b50565b600081359050614b0381614add565b92915050565b600080600060608486031215614b2257614b21614189565b5b6000614b3086828701614af4565b935050602084013567ffffffffffffffff811115614b5157614b5061418e565b5b614b5d868287016142ab565b925050604084013567ffffffffffffffff811115614b7e57614b7d61418e565b5b614b8a868287016142ab565b9150509250925092565b600060208284031215614baa57614ba9614189565b5b6000614bb884828501614af4565b91505092915050565b6000608082019050614bd660008301876149de565b614be3602083018661481f565b614bf0604083018561481f565b614bfd60608301846149de565b95945050505050565b60008060408385031215614c1d57614c1c614189565b5b6000614c2b85828601614af4565b9250506020614c3c858286016147dd565b9150509250929050565b6000614c5182614478565b9050919050565b614c6181614c46565b8114614c6c57600080fd5b50565b600081359050614c7e81614c58565b92915050565b60008060408385031215614c9b57614c9a614189565b5b6000614ca985828601614c6f565b9250506020614cba858286016147dd565b9150509250929050565b6000819050919050565b6000614ce9614ce4614cdf84614478565b614cc4565b614478565b9050919050565b6000614cfb82614cce565b9050919050565b6000614d0d82614cf0565b9050919050565b614d1d81614d02565b82525050565b6000602082019050614d386000830184614d14565b92915050565b7f4e487b7100000000000000000000000000000000000000000000000000000000600052602260045260246000fd5b60006002820490506001821680614d8557607f821691505b60208210811415614d9957614d98614d3e565b5b50919050565b600081905092915050565b60008190508160005260206000209050919050565b60008154614dcc81614d6d565b614dd68186614d9f565b94506001821660008114614df15760018114614e0257614e35565b60ff19831686528186019350614e35565b614e0b85614daa565b60005b83811015614e2d57815481890152600182019150602081019050614e0e565b838801955050505b50505092915050565b6000614e4a8284614dbf565b915081905092915050565b600082825260208201905092915050565b7f596f7520616c7265616479206861766520616e206163636f756e740000000000600082015250565b6000614e9c601b83614e55565b9150614ea782614e66565b602082019050919050565b60006020820190508181036000830152614ecb81614e8f565b9050919050565b7f596f752772652061646d696e2021212100000000000000000000000000000000600082015250565b6000614f08601083614e55565b9150614f1382614ed2565b602082019050919050565b60006020820190508181036000830152614f3781614efb565b9050919050565b7f4e487b7100000000000000000000000000000000000000000000000000000000600052603260045260246000fd5b7f4e487b7100000000000000000000000000000000000000000000000000000000600052601160045260246000fd5b6000614fa782614424565b91507fffffffffffffffffffffffffffffffffffffffffffffffffffffffffffffffff821415614fda57614fd9614f6d565b5b600182019050919050565b6000614ff08261439c565b614ffa8185614e55565b935061500a8185602086016143b8565b6150138161419d565b840191505092915050565b6000604082019050615033600083018561481f565b81810360208301526150458184614fe5565b90509392505050565b7f546865206368696c6420646964206e6f7420666f756e64000000000000000000600082015250565b6000615084601783614e55565b915061508f8261504e565b602082019050919050565b600060208201905081810360008301526150b381615077565b9050919050565b7f596f752068617665206e6f7420616e79206368696c6400000000000000000000600082015250565b60006150f0601683614e55565b91506150fb826150ba565b602082019050919050565b6000602082019050818103600083015261511f816150e3565b9050919050565b7f596f752772652061646d696e0000000000000000000000000000000000000000600082015250565b600061515c600c83614e55565b915061516782615126565b602082019050919050565b6000602082019050818103600083015261518b8161514f565b9050919050565b7f596f752063616e206c696e6b206163636f756e74206166746572206c6f67676560008201527f6420696e00000000000000000000000000000000000000000000000000000000602082015250565b60006151ee602483614e55565b91506151f982615192565b604082019050919050565b6000602082019050818103600083015261521d816151e1565b9050919050565b600061522f82614424565b915061523a83614424565b9250827fffffffffffffffffffffffffffffffffffffffffffffffffffffffffffffffff0382111561526f5761526e614f6d565b5b828201905092915050565b600081519050615289816147c6565b92915050565b6000602082840312156152a5576152a4614189565b5b60006152b38482850161527a565b91505092915050565b7f596f752776652061206c696d69746564206163636f756e74202c20796f75277260008201527f65206e6f7420616e206164756c74000000000000000000000000000000000000602082015250565b6000615318602e83614e55565b9150615323826152bc565b604082019050919050565b600060208201905081810360008301526153478161530b565b9050919050565b6000604082019050615363600083018561481f565b61537060208301846149de565b9392505050565b600081519050615386816142e5565b92915050565b6000602082840312156153a2576153a1614189565b5b60006153b084828501615377565b91505092915050565b50565b60006153c9600083614d9f565b91506153d4826153b9565b600082019050919050565b60006153ea826153bc565b9150819050919050565b7f4661696c656420746f2073656e64204574686572000000000000000000000000600082015250565b600061542a601483614e55565b9150615435826153f4565b602082019050919050565b600060208201905081810360008301526154598161541d565b9050919050565b7f54686973206163636f756e74206973206e6f74206c696d697465640000000000600082015250565b6000615496601b83614e55565b91506154a182615460565b602082019050919050565b600060208201905081810360008301526154c581615489565b9050919050565b7f596f75206d757374206265206f776e657220746f2072756e2074686973206d6560008201527f74686f6400000000000000000000000000000000000000000000000000000000602082015250565b6000615528602483614e55565b9150615533826154cc565b604082019050919050565b600060208201905081810360008301526155578161551b565b9050919050565b600061556982614424565b915061557483614424565b92508282101561558757615586614f6d565b5b828203905092915050565b7f54686520706572736f6e20646964206e6f7420666f756e640000000000000000600082015250565b60006155c8601883614e55565b91506155d382615592565b602082019050919050565b600060208201905081810360008301526155f7816155bb565b905091905056fea2646970667358221220bcd3898041e2921c71acdae9d026515fa909c615d25d31c1c0bc76fee2b789b064736f6c63430008090033",
  "linkReferences": {},
  "deployedLinkReferences": {}
}