{
  "_format": "hh-sol-artifact-1",
  "contractName": "BankingApp",
  "sourceName": "contracts/Banking.sol",
  "abi": [
    {
      "inputs": [
        {
          "internalType": "address",
          "name": "_token",
          "type": "address"
        },
        {
          "internalType": "address",
          "name": "_owner",
          "type": "address"
        }
      ],
      "stateMutability": "payable",
      "type": "constructor"
    },
    {
      "anonymous": false,
      "inputs": [
        {
          "indexed": false,
          "internalType": "string",
          "name": "inheritor_name",
          "type": "string"
        },
        {
          "indexed": false,
          "internalType": "uint256",
          "name": "inheritor_age",
          "type": "uint256"
        },
        {
          "indexed": false,
          "internalType": "address",
          "name": "child_address",
          "type": "address"
        },
        {
          "indexed": false,
          "internalType": "address",
          "name": "parent_address",
          "type": "address"
        }
      ],
      "name": "AccountLinkedToParent",
      "type": "event"
    },
    {
      "anonymous": false,
      "inputs": [
        {
          "indexed": false,
          "internalType": "address",
          "name": "childAddress",
          "type": "address"
        },
        {
          "indexed": false,
          "internalType": "address",
          "name": "parentAddress",
          "type": "address"
        },
        {
          "indexed": false,
          "internalType": "uint256",
          "name": "time",
          "type": "uint256"
        }
      ],
      "name": "LinkedAccountMadeUnLimited",
      "type": "event"
    },
    {
      "anonymous": false,
      "inputs": [
        {
          "indexed": false,
          "internalType": "string",
          "name": "name",
          "type": "string"
        },
        {
          "indexed": false,
          "internalType": "uint256",
          "name": "age",
          "type": "uint256"
        },
        {
          "indexed": false,
          "internalType": "bool",
          "name": "isLimited",
          "type": "bool"
        },
        {
          "indexed": false,
          "internalType": "address",
          "name": "user_address",
          "type": "address"
        }
      ],
      "name": "PersonAdded",
      "type": "event"
    },
    {
      "anonymous": false,
      "inputs": [
        {
          "indexed": false,
          "internalType": "address",
          "name": "from",
          "type": "address"
        },
        {
          "indexed": false,
          "internalType": "address",
          "name": "to",
          "type": "address"
        },
        {
          "indexed": false,
          "internalType": "uint256",
          "name": "amount",
          "type": "uint256"
        }
      ],
      "name": "TokenSent",
      "type": "event"
    },
    {
      "anonymous": false,
      "inputs": [
        {
          "indexed": false,
          "internalType": "address",
          "name": "from",
          "type": "address"
        },
        {
          "indexed": false,
          "internalType": "address",
          "name": "to",
          "type": "address"
        },
        {
          "indexed": false,
          "internalType": "uint256",
          "name": "amount",
          "type": "uint256"
        }
      ],
      "name": "TransactionAdded",
      "type": "event"
    },
    {
      "inputs": [
        {
          "internalType": "string",
          "name": "_name",
          "type": "string"
        },
        {
          "internalType": "uint256",
          "name": "_age",
          "type": "uint256"
        },
        {
          "internalType": "bool",
          "name": "isLimited",
          "type": "bool"
        }
      ],
      "name": "addPerson",
      "outputs": [
        {
          "components": [
            {
              "internalType": "string",
              "name": "name",
              "type": "string"
            },
            {
              "internalType": "uint256",
              "name": "age",
              "type": "uint256"
            },
            {
              "internalType": "uint256",
              "name": "balance",
              "type": "uint256"
            },
            {
              "internalType": "bool",
              "name": "isLimited",
              "type": "bool"
            },
            {
              "internalType": "address[]",
              "name": "children",
              "type": "address[]"
            },
            {
              "internalType": "address[]",
              "name": "parents",
              "type": "address[]"
            },
            {
              "internalType": "uint256",
              "name": "createdTime",
              "type": "uint256"
            }
          ],
          "internalType": "struct BankingApp.Person",
          "name": "",
          "type": "tuple"
        }
      ],
      "stateMutability": "nonpayable",
      "type": "function"
    },
    {
      "inputs": [
        {
          "internalType": "string",
          "name": "_name",
          "type": "string"
        },
        {
          "internalType": "bool",
          "name": "returnErr",
          "type": "bool"
        }
      ],
      "name": "findTheChild",
      "outputs": [
        {
          "components": [
            {
              "internalType": "string",
              "name": "name",
              "type": "string"
            },
            {
              "internalType": "uint256",
              "name": "age",
              "type": "uint256"
            },
            {
              "internalType": "uint256",
              "name": "balance",
              "type": "uint256"
            },
            {
              "internalType": "bool",
              "name": "isLimited",
              "type": "bool"
            },
            {
              "internalType": "address[]",
              "name": "children",
              "type": "address[]"
            },
            {
              "internalType": "address[]",
              "name": "parents",
              "type": "address[]"
            },
            {
              "internalType": "uint256",
              "name": "createdTime",
              "type": "uint256"
            }
          ],
          "internalType": "struct BankingApp.Person",
          "name": "",
          "type": "tuple"
        },
        {
          "internalType": "uint256",
          "name": "index",
          "type": "uint256"
        }
      ],
      "stateMutability": "view",
      "type": "function"
    },
    {
      "inputs": [
        {
          "internalType": "string",
          "name": "_name",
          "type": "string"
        },
        {
          "internalType": "bool",
          "name": "returnErr",
          "type": "bool"
        }
      ],
      "name": "findThePerson",
      "outputs": [
        {
          "components": [
            {
              "internalType": "string",
              "name": "name",
              "type": "string"
            },
            {
              "internalType": "uint256",
              "name": "age",
              "type": "uint256"
            },
            {
              "internalType": "uint256",
              "name": "balance",
              "type": "uint256"
            },
            {
              "internalType": "bool",
              "name": "isLimited",
              "type": "bool"
            },
            {
              "internalType": "address[]",
              "name": "children",
              "type": "address[]"
            },
            {
              "internalType": "address[]",
              "name": "parents",
              "type": "address[]"
            },
            {
              "internalType": "uint256",
              "name": "createdTime",
              "type": "uint256"
            }
          ],
          "internalType": "struct BankingApp.Person",
          "name": "",
          "type": "tuple"
        },
        {
          "internalType": "uint256",
          "name": "index",
          "type": "uint256"
        }
      ],
      "stateMutability": "view",
      "type": "function"
    },
    {
      "inputs": [],
      "name": "getBalanceOfInheritumToken",
      "outputs": [
        {
          "internalType": "uint256",
          "name": "",
          "type": "uint256"
        }
      ],
      "stateMutability": "view",
      "type": "function"
    },
    {
      "inputs": [],
      "name": "getChildren",
      "outputs": [
        {
          "internalType": "address[]",
          "name": "",
          "type": "address[]"
        }
      ],
      "stateMutability": "view",
      "type": "function"
    },
    {
      "inputs": [],
      "name": "getMyBalance",
      "outputs": [
        {
          "internalType": "uint256",
          "name": "",
          "type": "uint256"
        }
      ],
      "stateMutability": "view",
      "type": "function"
    },
    {
      "inputs": [],
      "name": "getMyChild",
      "outputs": [
        {
          "internalType": "address[]",
          "name": "",
          "type": "address[]"
        }
      ],
      "stateMutability": "view",
      "type": "function"
    },
    {
      "inputs": [
        {
          "internalType": "string",
          "name": "_name",
          "type": "string"
        }
      ],
      "name": "getMyChildBalance",
      "outputs": [
        {
          "internalType": "uint256",
          "name": "",
          "type": "uint256"
        }
      ],
      "stateMutability": "nonpayable",
      "type": "function"
    },
    {
      "inputs": [],
      "name": "getPersons",
      "outputs": [
        {
          "components": [
            {
              "internalType": "string",
              "name": "name",
              "type": "string"
            },
            {
              "internalType": "uint256",
              "name": "age",
              "type": "uint256"
            },
            {
              "internalType": "uint256",
              "name": "balance",
              "type": "uint256"
            },
            {
              "internalType": "bool",
              "name": "isLimited",
              "type": "bool"
            },
            {
              "internalType": "address[]",
              "name": "children",
              "type": "address[]"
            },
            {
              "internalType": "address[]",
              "name": "parents",
              "type": "address[]"
            },
            {
              "internalType": "uint256",
              "name": "createdTime",
              "type": "uint256"
            }
          ],
          "internalType": "struct BankingApp.Person[]",
          "name": "",
          "type": "tuple[]"
        }
      ],
      "stateMutability": "view",
      "type": "function"
    },
    {
      "inputs": [],
      "name": "getTranscationHistory",
      "outputs": [
        {
          "components": [
            {
              "internalType": "uint256",
              "name": "timestamp",
              "type": "uint256"
            },
            {
              "internalType": "address",
              "name": "sender",
              "type": "address"
            },
            {
              "internalType": "address",
              "name": "receiver",
              "type": "address"
            },
            {
              "internalType": "uint256",
              "name": "amount",
              "type": "uint256"
            }
          ],
          "internalType": "struct BankingApp.Transaction[]",
          "name": "",
          "type": "tuple[]"
        }
      ],
      "stateMutability": "view",
      "type": "function"
    },
    {
      "inputs": [
        {
          "internalType": "address",
          "name": "addr",
          "type": "address"
        }
      ],
      "name": "getUser",
      "outputs": [
        {
          "components": [
            {
              "internalType": "string",
              "name": "name",
              "type": "string"
            },
            {
              "internalType": "uint256",
              "name": "age",
              "type": "uint256"
            },
            {
              "internalType": "uint256",
              "name": "balance",
              "type": "uint256"
            },
            {
              "internalType": "bool",
              "name": "isLimited",
              "type": "bool"
            },
            {
              "internalType": "address[]",
              "name": "children",
              "type": "address[]"
            },
            {
              "internalType": "address[]",
              "name": "parents",
              "type": "address[]"
            },
            {
              "internalType": "uint256",
              "name": "createdTime",
              "type": "uint256"
            }
          ],
          "internalType": "struct BankingApp.Person",
          "name": "",
          "type": "tuple"
        }
      ],
      "stateMutability": "view",
      "type": "function"
    },
    {
      "inputs": [
        {
          "internalType": "address",
          "name": "childAccount",
          "type": "address"
        },
        {
          "internalType": "string",
          "name": "_name",
          "type": "string"
        },
        {
          "internalType": "uint256",
          "name": "_age",
          "type": "uint256"
        }
      ],
      "name": "linkAccount",
      "outputs": [
        {
          "components": [
            {
              "internalType": "string",
              "name": "name",
              "type": "string"
            },
            {
              "internalType": "uint256",
              "name": "age",
              "type": "uint256"
            },
            {
              "internalType": "uint256",
              "name": "balance",
              "type": "uint256"
            },
            {
              "internalType": "bool",
              "name": "isLimited",
              "type": "bool"
            },
            {
              "internalType": "address[]",
              "name": "children",
              "type": "address[]"
            },
            {
              "internalType": "address[]",
              "name": "parents",
              "type": "address[]"
            },
            {
              "internalType": "uint256",
              "name": "createdTime",
              "type": "uint256"
            }
          ],
          "internalType": "struct BankingApp.Person",
          "name": "",
          "type": "tuple"
        }
      ],
      "stateMutability": "nonpayable",
      "type": "function"
    },
    {
      "inputs": [
        {
          "internalType": "address",
          "name": "linked_account",
          "type": "address"
        }
      ],
      "name": "makeAccountisLimited",
      "outputs": [],
      "stateMutability": "nonpayable",
      "type": "function"
    },
    {
      "inputs": [
        {
          "internalType": "address payable",
          "name": "_to",
          "type": "address"
        },
        {
          "internalType": "uint256",
          "name": "amount",
          "type": "uint256"
        }
      ],
      "name": "sendEther",
      "outputs": [],
      "stateMutability": "payable",
      "type": "function"
    },
    {
      "inputs": [
        {
          "internalType": "address",
          "name": "_to",
          "type": "address"
        },
        {
          "internalType": "uint256",
          "name": "_amount",
          "type": "uint256"
        }
      ],
      "name": "sendTokenToChild",
      "outputs": [],
      "stateMutability": "nonpayable",
      "type": "function"
    },
    {
      "inputs": [],
      "name": "token",
      "outputs": [
        {
          "internalType": "contract IERC20",
          "name": "",
          "type": "address"
        }
      ],
      "stateMutability": "view",
      "type": "function"
    },
    {
      "inputs": [
        {
          "internalType": "address",
          "name": "_to",
          "type": "address"
        },
        {
          "internalType": "uint256",
          "name": "_amount",
          "type": "uint256"
        }
      ],
      "name": "tokenSendEventFired",
      "outputs": [],
      "stateMutability": "nonpayable",
      "type": "function"
    },
    {
      "inputs": [
        {
          "internalType": "address",
          "name": "",
          "type": "address"
        },
        {
          "internalType": "uint256",
          "name": "",
          "type": "uint256"
        }
      ],
      "name": "transactions",
      "outputs": [
        {
          "internalType": "uint256",
          "name": "timestamp",
          "type": "uint256"
        },
        {
          "internalType": "address",
          "name": "sender",
          "type": "address"
        },
        {
          "internalType": "address",
          "name": "receiver",
          "type": "address"
        },
        {
          "internalType": "uint256",
          "name": "amount",
          "type": "uint256"
        }
      ],
      "stateMutability": "view",
      "type": "function"
    }
  ],
  "bytecode": "0x6080604052604051620049283803806200492883398181016040528101906200002991906200011c565b816000806101000a81548173ffffffffffffffffffffffffffffffffffffffff021916908373ffffffffffffffffffffffffffffffffffffffff16021790555080600160006101000a81548173ffffffffffffffffffffffffffffffffffffffff021916908373ffffffffffffffffffffffffffffffffffffffff160217905550505062000163565b600080fd5b600073ffffffffffffffffffffffffffffffffffffffff82169050919050565b6000620000e482620000b7565b9050919050565b620000f681620000d7565b81146200010257600080fd5b50565b6000815190506200011681620000eb565b92915050565b60008060408385031215620001365762000135620000b2565b5b6000620001468582860162000105565b9250506020620001598582860162000105565b9150509250929050565b6147b580620001736000396000f3fe6080604052600436106101095760003560e01c80638d6ec21411610095578063c81cdec911610064578063c81cdec914610398578063dbc1a22b146103c3578063ee203fe6146103ee578063fbf8574d14610419578063fc0c546a1461045757610109565b80638d6ec214146102ed578063b42fbdfd1461032a578063c1756a2c14610353578063c1a161771461036f57610109565b80634c738909116100dc5780634c738909146101e157806353a86c941461020c5780635412f1c914610249578063556173be146102875780636f77926b146102b057610109565b8063032ce9aa1461010e578063145381281461014b5780634892e8e81461018b5780634c6b6c6f146101b6575b600080fd5b34801561011a57600080fd5b5061013560048036038101906101309190613485565b610482565b6040516101429190613734565b60405180910390f35b34801561015757600080fd5b50610172600480360381019061016d9190613782565b610a3b565b60405161018294939291906137e0565b60405180910390f35b34801561019757600080fd5b506101a0610ac8565b6040516101ad9190613894565b60405180910390f35b3480156101c257600080fd5b506101cb610bc1565b6040516101d89190613a22565b60405180910390f35b3480156101ed57600080fd5b506101f6610e07565b6040516102039190613a44565b60405180910390f35b34801561021857600080fd5b50610233600480360381019061022e9190613a5f565b610e26565b6040516102409190613a44565b60405180910390f35b34801561025557600080fd5b50610270600480360381019061026b9190613aa8565b610e44565b60405161027e929190613b04565b60405180910390f35b34801561029357600080fd5b506102ae60048036038101906102a99190613782565b610f89565b005b3480156102bc57600080fd5b506102d760048036038101906102d29190613b34565b610fc8565b6040516102e49190613734565b60405180910390f35b3480156102f957600080fd5b50610314600480360381019061030f9190613b61565b611208565b6040516103219190613734565b60405180910390f35b34801561033657600080fd5b50610351600480360381019061034c9190613782565b611b23565b005b61036d60048036038101906103689190613c0e565b611d5f565b005b34801561037b57600080fd5b5061039660048036038101906103919190613b34565b611eb4565b005b3480156103a457600080fd5b506103ad6120dc565b6040516103ba9190613a44565b60405180910390f35b3480156103cf57600080fd5b506103d861218d565b6040516103e59190613d52565b60405180910390f35b3480156103fa57600080fd5b506104036122e9565b6040516104109190613894565b60405180910390f35b34801561042557600080fd5b50610440600480360381019061043b9190613aa8565b6123b7565b60405161044e929190613b04565b60405180910390f35b34801561046357600080fd5b5061046c6126ab565b6040516104799190613dd3565b60405180910390f35b61048a613072565b6040518060200160405280600081525080519060200120600360003373ffffffffffffffffffffffffffffffffffffffff1673ffffffffffffffffffffffffffffffffffffffff1681526020019081526020016000206000016040516104f09190613eee565b604051809103902014610538576040517f08c379a000000000000000000000000000000000000000000000000000000000815260040161052f90613f62565b60405180910390fd5b600160009054906101000a900473ffffffffffffffffffffffffffffffffffffffff1673ffffffffffffffffffffffffffffffffffffffff163373ffffffffffffffffffffffffffffffffffffffff1614156105c9576040517f08c379a00000000000000000000000000000000000000000000000000000000081526004016105c090613fce565b60405180910390fd5b6000600360003373ffffffffffffffffffffffffffffffffffffffff1673ffffffffffffffffffffffffffffffffffffffff1681526020019081526020016000209050848160000190805190602001906106249291906130b1565b508381600101819055503373ffffffffffffffffffffffffffffffffffffffff16318160020181905550828160030160006101000a81548160ff021916908315150217905550600067ffffffffffffffff811115610685576106846132ec565b5b6040519080825280602002602001820160405280156106b35781602001602082028036833780820191505090505b508160040190805190602001906106cb929190613137565b50600067ffffffffffffffff8111156106e7576106e66132ec565b5b6040519080825280602002602001820160405280156107155781602001602082028036833780820191505090505b5081600501908051906020019061072d929190613137565b504281600601819055506000816040518060e001604052908160008201805461075590613e1d565b80601f016020809104026020016040519081016040528092919081815260200182805461078190613e1d565b80156107ce5780601f106107a3576101008083540402835291602001916107ce565b820191906000526020600020905b8154815290600101906020018083116107b157829003601f168201915b5050505050815260200160018201548152602001600282015481526020016003820160009054906101000a900460ff161515151581526020016004820180548060200260200160405190810160405280929190818152602001828054801561088b57602002820191906000526020600020905b8160009054906101000a900473ffffffffffffffffffffffffffffffffffffffff1673ffffffffffffffffffffffffffffffffffffffff1681526020019060010190808311610841575b505050505081526020016005820180548060200260200160405190810160405280929190818152602001828054801561091957602002820191906000526020600020905b8160009054906101000a900473ffffffffffffffffffffffffffffffffffffffff1673ffffffffffffffffffffffffffffffffffffffff16815260200190600101908083116108cf575b505050505081526020016006820154815250509050600481908060018154018082558091505060019003906000526020600020906007020160009091909190915060008201518160000190805190602001906109769291906130b1565b50602082015181600101556040820151816002015560608201518160030160006101000a81548160ff02191690831515021790555060808201518160040190805190602001906109c7929190613137565b5060a08201518160050190805190602001906109e4929190613137565b5060c0820151816006015550507fb5c5986c1e1f436c794482a595013f25496c614c10a9ec074cd5380bf4cb99718686600033604051610a279493929190614036565b60405180910390a180925050509392505050565b60026020528160005260406000208181548110610a5757600080fd5b9060005260206000209060040201600091509150508060000154908060010160009054906101000a900473ffffffffffffffffffffffffffffffffffffffff16908060020160009054906101000a900473ffffffffffffffffffffffffffffffffffffffff16908060030154905084565b60606000610ad533610fc8565b9050600081608001515167ffffffffffffffff811115610af857610af76132ec565b5b604051908082528060200260200182016040528015610b265781602001602082028036833780820191505090505b50905060005b826080015151811015610bb85782608001518181518110610b5057610b4f614082565b5b6020026020010151828281518110610b6b57610b6a614082565b5b602002602001019073ffffffffffffffffffffffffffffffffffffffff16908173ffffffffffffffffffffffffffffffffffffffff16815250508080610bb0906140e0565b915050610b2c565b50809250505090565b60606004805480602002602001604051908101604052809291908181526020016000905b82821015610dfe57838290600052602060002090600702016040518060e0016040529081600082018054610c1890613e1d565b80601f0160208091040260200160405190810160405280929190818152602001828054610c4490613e1d565b8015610c915780601f10610c6657610100808354040283529160200191610c91565b820191906000526020600020905b815481529060010190602001808311610c7457829003601f168201915b5050505050815260200160018201548152602001600282015481526020016003820160009054906101000a900460ff1615151515815260200160048201805480602002602001604051908101604052809291908181526020018280548015610d4e57602002820191906000526020600020905b8160009054906101000a900473ffffffffffffffffffffffffffffffffffffffff1673ffffffffffffffffffffffffffffffffffffffff1681526020019060010190808311610d04575b5050505050815260200160058201805480602002602001604051908101604052809291908181526020018280548015610ddc57602002820191906000526020600020905b8160009054906101000a900473ffffffffffffffffffffffffffffffffffffffff1673ffffffffffffffffffffffffffffffffffffffff1681526020019060010190808311610d92575b5050505050815260200160068201548152505081526020019060010190610be5565b50505050905090565b60003373ffffffffffffffffffffffffffffffffffffffff1631905090565b600080610e34836001610e44565b5090508060400151915050919050565b610e4c613072565b600080610e5833610fc8565b90506000816080015151905060018110610f475760005b81811015610eee57600083608001518281518110610e9057610e8f614082565b5b602002602001015190506000610ea582610fc8565b600001519050888051906020012081805190602001201415610ed957610eca82610fc8565b83965096505050505050610f82565b50508080610ee6906140e0565b915050610e6f565b508415610f30576040517f08c379a0000000000000000000000000000000000000000000000000000000008152600401610f2790614175565b60405180910390fd5b610f38613072565b80600094509450505050610f82565b6040517f08c379a0000000000000000000000000000000000000000000000000000000008152600401610f79906141e1565b60405180910390fd5b9250929050565b7f3ddb739c68dd901671f09fbe0bc2344c179ed55f8e8110a7c7a3c5665bd9518d338383604051610fbc93929190614201565b60405180910390a15050565b610fd0613072565b600360008373ffffffffffffffffffffffffffffffffffffffff1673ffffffffffffffffffffffffffffffffffffffff1681526020019081526020016000206040518060e001604052908160008201805461102a90613e1d565b80601f016020809104026020016040519081016040528092919081815260200182805461105690613e1d565b80156110a35780601f10611078576101008083540402835291602001916110a3565b820191906000526020600020905b81548152906001019060200180831161108657829003601f168201915b5050505050815260200160018201548152602001600282015481526020016003820160009054906101000a900460ff161515151581526020016004820180548060200260200160405190810160405280929190818152602001828054801561116057602002820191906000526020600020905b8160009054906101000a900473ffffffffffffffffffffffffffffffffffffffff1673ffffffffffffffffffffffffffffffffffffffff1681526020019060010190808311611116575b50505050508152602001600582018054806020026020016040519081016040528092919081815260200182805480156111ee57602002820191906000526020600020905b8160009054906101000a900473ffffffffffffffffffffffffffffffffffffffff1673ffffffffffffffffffffffffffffffffffffffff16815260200190600101908083116111a4575b505050505081526020016006820154815250509050919050565b611210613072565b836040518060200160405280600081525080519060200120600360008373ffffffffffffffffffffffffffffffffffffffff1673ffffffffffffffffffffffffffffffffffffffff1681526020019081526020016000206000016040516112779190613eee565b6040518091039020146112bf576040517f08c379a00000000000000000000000000000000000000000000000000000000081526004016112b6906142aa565b60405180910390fd5b600160009054906101000a900473ffffffffffffffffffffffffffffffffffffffff1673ffffffffffffffffffffffffffffffffffffffff163373ffffffffffffffffffffffffffffffffffffffff161415611350576040517f08c379a000000000000000000000000000000000000000000000000000000000815260040161134790614316565b60405180910390fd5b604051806020016040528060008152508051906020012061137033610fc8565b600001518051906020012014156113bc576040517f08c379a00000000000000000000000000000000000000000000000000000000081526004016113b3906143a8565b60405180910390fd5b6000600360003373ffffffffffffffffffffffffffffffffffffffff1673ffffffffffffffffffffffffffffffffffffffff168152602001908152602001600020905080600401869080600181540180825580915050600190039060005260206000200160009091909190916101000a81548173ffffffffffffffffffffffffffffffffffffffff021916908373ffffffffffffffffffffffffffffffffffffffff16021790555080600360003373ffffffffffffffffffffffffffffffffffffffff1673ffffffffffffffffffffffffffffffffffffffff16815260200190815260200160002060008201816000019080546114b890613e1d565b6114c39291906131c1565b5060018201548160010155600282015481600201556003820160009054906101000a900460ff168160030160006101000a81548160ff021916908315150217905550600482018160040190805461151b92919061324e565b50600582018160050190805461153292919061324e565b50600682015481600601559050506000806115da83600001805461155590613e1d565b80601f016020809104026020016040519081016040528092919081815260200182805461158190613e1d565b80156115ce5780601f106115a3576101008083540402835291602001916115ce565b820191906000526020600020905b8154815290600101906020018083116115b157829003601f168201915b505050505060006123b7565b91509150600481815481106115f2576115f1614082565b5b9060005260206000209060070201600401889080600181540180825580915050600190039060005260206000200160009091909190916101000a81548173ffffffffffffffffffffffffffffffffffffffff021916908373ffffffffffffffffffffffffffffffffffffffff1602179055506040518060e0016040528088815260200187815260200160008152602001600115158152602001600067ffffffffffffffff8111156116a6576116a56132ec565b5b6040519080825280602002602001820160405280156116d45781602001602082028036833780820191505090505b508152602001600167ffffffffffffffff8111156116f5576116f46132ec565b5b6040519080825280602002602001820160405280156117235781602001602082028036833780820191505090505b50815260200142815250600360008a73ffffffffffffffffffffffffffffffffffffffff1673ffffffffffffffffffffffffffffffffffffffff16815260200190815260200160002060008201518160000190805190602001906117889291906130b1565b50602082015181600101556040820151816002015560608201518160030160006101000a81548160ff02191690831515021790555060808201518160040190805190602001906117d9929190613137565b5060a08201518160050190805190602001906117f6929190613137565b5060c0820151816006015590505033600360008a73ffffffffffffffffffffffffffffffffffffffff1673ffffffffffffffffffffffffffffffffffffffff16815260200190815260200160002060050160008154811061185a57611859614082565b5b9060005260206000200160006101000a81548173ffffffffffffffffffffffffffffffffffffffff021916908373ffffffffffffffffffffffffffffffffffffffff1602179055507f861d9e4591753d79613d783a5a5593c5945d1f5c0302902ae4d4051a32fa2e4387878a336040516118d794939291906143c8565b60405180910390a16000600360003373ffffffffffffffffffffffffffffffffffffffff1673ffffffffffffffffffffffffffffffffffffffff1681526020019081526020016000206040518060e001604052908160008201805461193b90613e1d565b80601f016020809104026020016040519081016040528092919081815260200182805461196790613e1d565b80156119b45780601f10611989576101008083540402835291602001916119b4565b820191906000526020600020905b81548152906001019060200180831161199757829003601f168201915b5050505050815260200160018201548152602001600282015481526020016003820160009054906101000a900460ff1615151515815260200160048201805480602002602001604051908101604052809291908181526020018280548015611a7157602002820191906000526020600020905b8160009054906101000a900473ffffffffffffffffffffffffffffffffffffffff1673ffffffffffffffffffffffffffffffffffffffff1681526020019060010190808311611a27575b5050505050815260200160058201805480602002602001604051908101604052809291908181526020018280548015611aff57602002820191906000526020600020905b8160009054906101000a900473ffffffffffffffffffffffffffffffffffffffff1673ffffffffffffffffffffffffffffffffffffffff1681526020019060010190808311611ab5575b50505050508152602001600682015481525050905080955050505050509392505050565b808060008054906101000a900473ffffffffffffffffffffffffffffffffffffffff1673ffffffffffffffffffffffffffffffffffffffff166370a08231336040518263ffffffff1660e01b8152600401611b7e9190614414565b60206040518083038186803b158015611b9657600080fd5b505afa158015611baa573d6000803e3d6000fd5b505050506040513d601f19601f82011682018060405250810190611bce9190614444565b1015611bd957600080fd5b600360003373ffffffffffffffffffffffffffffffffffffffff1673ffffffffffffffffffffffffffffffffffffffff16815260200190815260200160002060030160009054906101000a900460ff166000151581151514611c70576040517f08c379a0000000000000000000000000000000000000000000000000000000008152600401611c67906144e3565b60405180910390fd5b60008054906101000a900473ffffffffffffffffffffffffffffffffffffffff1673ffffffffffffffffffffffffffffffffffffffff1663a9059cbb85856040518363ffffffff1660e01b8152600401611ccb929190614503565b602060405180830381600087803b158015611ce557600080fd5b505af1158015611cf9573d6000803e3d6000fd5b505050506040513d601f19601f82011682018060405250810190611d1d9190614541565b507f3ddb739c68dd901671f09fbe0bc2344c179ed55f8e8110a7c7a3c5665bd9518d338585604051611d5193929190614201565b60405180910390a150505050565b600360003373ffffffffffffffffffffffffffffffffffffffff1673ffffffffffffffffffffffffffffffffffffffff16815260200190815260200160002060030160009054906101000a900460ff166000151581151514611df6576040517f08c379a0000000000000000000000000000000000000000000000000000000008152600401611ded906144e3565b60405180910390fd5b60008373ffffffffffffffffffffffffffffffffffffffff1683604051611e1c90614594565b60006040518083038185875af1925050503d8060008114611e59576040519150601f19603f3d011682016040523d82523d6000602084013e611e5e565b606091505b5050905080611ea2576040517f08c379a0000000000000000000000000000000000000000000000000000000008152600401611e99906145f5565b60405180910390fd5b611eae848460016126cf565b50505050565b8060011515611ec282610fc8565b60600151151514611f08576040517f08c379a0000000000000000000000000000000000000000000000000000000008152600401611eff90614661565b60405180910390fd5b600160009054906101000a900473ffffffffffffffffffffffffffffffffffffffff1673ffffffffffffffffffffffffffffffffffffffff163373ffffffffffffffffffffffffffffffffffffffff1614611f98576040517f08c379a0000000000000000000000000000000000000000000000000000000008152600401611f8f906146f3565b60405180910390fd5b6000611fa383610fc8565b905060008160a00151600081518110611fbf57611fbe614082565b5b602002602001015190506000611fd58583612d26565b90506004819080600181540180825580915050600190039060005260206000209060070201600090919091909150600082015181600001908051906020019061201f9291906130b1565b50602082015181600101556040820151816002015560608201518160030160006101000a81548160ff0219169083151502179055506080820151816004019080519060200190612070929190613137565b5060a082015181600501908051906020019061208d929190613137565b5060c0820151816006015550507f04a419d74ae13e4cc88d2952d62e66f9a6f13504980d882555a57e410135a9128583426040516120cd93929190614201565b60405180910390a15050505050565b60008060009054906101000a900473ffffffffffffffffffffffffffffffffffffffff1673ffffffffffffffffffffffffffffffffffffffff166370a08231336040518263ffffffff1660e01b81526004016121389190614414565b60206040518083038186803b15801561215057600080fd5b505afa158015612164573d6000803e3d6000fd5b505050506040513d601f19601f820116820180604052508101906121889190614444565b905090565b6060600260003373ffffffffffffffffffffffffffffffffffffffff1673ffffffffffffffffffffffffffffffffffffffff168152602001908152602001600020805480602002602001604051908101604052809291908181526020016000905b828210156122e05783829060005260206000209060040201604051806080016040529081600082015481526020016001820160009054906101000a900473ffffffffffffffffffffffffffffffffffffffff1673ffffffffffffffffffffffffffffffffffffffff1673ffffffffffffffffffffffffffffffffffffffff1681526020016002820160009054906101000a900473ffffffffffffffffffffffffffffffffffffffff1673ffffffffffffffffffffffffffffffffffffffff1673ffffffffffffffffffffffffffffffffffffffff168152602001600382015481525050815260200190600101906121ee565b50505050905090565b6060600360003373ffffffffffffffffffffffffffffffffffffffff1673ffffffffffffffffffffffffffffffffffffffff1681526020019081526020016000206004018054806020026020016040519081016040528092919081815260200182805480156123ad57602002820191906000526020600020905b8160009054906101000a900473ffffffffffffffffffffffffffffffffffffffff1673ffffffffffffffffffffffffffffffffffffffff1681526020019060010190808311612363575b5050505050905090565b6123bf613072565b600080600090505b600480549050811015612651578480519060200120600482815481106123f0576123ef614082565b5b906000526020600020906007020160000160405161240e9190613eee565b6040518091039020141561263e57600481815481106124305761242f614082565b5b906000526020600020906007020181816040518060e001604052908160008201805461245b90613e1d565b80601f016020809104026020016040519081016040528092919081815260200182805461248790613e1d565b80156124d45780601f106124a9576101008083540402835291602001916124d4565b820191906000526020600020905b8154815290600101906020018083116124b757829003601f168201915b5050505050815260200160018201548152602001600282015481526020016003820160009054906101000a900460ff161515151581526020016004820180548060200260200160405190810160405280929190818152602001828054801561259157602002820191906000526020600020905b8160009054906101000a900473ffffffffffffffffffffffffffffffffffffffff1673ffffffffffffffffffffffffffffffffffffffff1681526020019060010190808311612547575b505050505081526020016005820180548060200260200160405190810160405280929190818152602001828054801561261f57602002820191906000526020600020905b8160009054906101000a900473ffffffffffffffffffffffffffffffffffffffff1673ffffffffffffffffffffffffffffffffffffffff16815260200190600101908083116125d5575b50505050508152602001600682015481525050915092509250506126a4565b8080612649906140e0565b9150506123c7565b508215612693576040517f08c379a000000000000000000000000000000000000000000000000000000000815260040161268a9061475f565b60405180910390fd5b61269b613072565b80600092509250505b9250929050565b60008054906101000a900473ffffffffffffffffffffffffffffffffffffffff1681565b60405180602001604052806000815250805190602001206126ef33610fc8565b6000015180519060200120141561273b576040517f08c379a0000000000000000000000000000000000000000000000000000000008152600401612732906143a8565b60405180910390fd5b8015612a3357600260003373ffffffffffffffffffffffffffffffffffffffff1673ffffffffffffffffffffffffffffffffffffffff16815260200190815260200160002060405180608001604052804281526020013373ffffffffffffffffffffffffffffffffffffffff1681526020018573ffffffffffffffffffffffffffffffffffffffff1681526020018481525090806001815401808255809150506001900390600052602060002090600402016000909190919091506000820151816000015560208201518160010160006101000a81548173ffffffffffffffffffffffffffffffffffffffff021916908373ffffffffffffffffffffffffffffffffffffffff16021790555060408201518160020160006101000a81548173ffffffffffffffffffffffffffffffffffffffff021916908373ffffffffffffffffffffffffffffffffffffffff160217905550606082015181600301555050600260008473ffffffffffffffffffffffffffffffffffffffff1673ffffffffffffffffffffffffffffffffffffffff16815260200190815260200160002060405180608001604052804281526020013373ffffffffffffffffffffffffffffffffffffffff1681526020018573ffffffffffffffffffffffffffffffffffffffff1681526020018481525090806001815401808255809150506001900390600052602060002090600402016000909190919091506000820151816000015560208201518160010160006101000a81548173ffffffffffffffffffffffffffffffffffffffff021916908373ffffffffffffffffffffffffffffffffffffffff16021790555060408201518160020160006101000a81548173ffffffffffffffffffffffffffffffffffffffff021916908373ffffffffffffffffffffffffffffffffffffffff1602179055506060820151816003015550507fa3f77c7251c1c7e67c7f892afa5ca0a98096c9119e947663f4a96852c743f430338484604051612a2693929190614201565b60405180910390a1612d21565b600260008473ffffffffffffffffffffffffffffffffffffffff1673ffffffffffffffffffffffffffffffffffffffff16815260200190815260200160002060405180608001604052804281526020018573ffffffffffffffffffffffffffffffffffffffff1681526020013373ffffffffffffffffffffffffffffffffffffffff1681526020018481525090806001815401808255809150506001900390600052602060002090600402016000909190919091506000820151816000015560208201518160010160006101000a81548173ffffffffffffffffffffffffffffffffffffffff021916908373ffffffffffffffffffffffffffffffffffffffff16021790555060408201518160020160006101000a81548173ffffffffffffffffffffffffffffffffffffffff021916908373ffffffffffffffffffffffffffffffffffffffff160217905550606082015181600301555050600260003373ffffffffffffffffffffffffffffffffffffffff1673ffffffffffffffffffffffffffffffffffffffff16815260200190815260200160002060405180608001604052804281526020018573ffffffffffffffffffffffffffffffffffffffff1681526020013373ffffffffffffffffffffffffffffffffffffffff1681526020018481525090806001815401808255809150506001900390600052602060002090600402016000909190919091506000820151816000015560208201518160010160006101000a81548173ffffffffffffffffffffffffffffffffffffffff021916908373ffffffffffffffffffffffffffffffffffffffff16021790555060408201518160020160006101000a81548173ffffffffffffffffffffffffffffffffffffffff021916908373ffffffffffffffffffffffffffffffffffffffff1602179055506060820151816003015550507fa3f77c7251c1c7e67c7f892afa5ca0a98096c9119e947663f4a96852c743f430833384604051612d1893929190614201565b60405180910390a15b505050565b612d2e613072565b6000612d3983610fc8565b9050600080612d4d836000015160006123b7565b915091506000612d5c87610fc8565b9050600080612d70836000015160006123b7565b9150915085608001518181518110612d8b57612d8a614082565b5b60200260200101600073ffffffffffffffffffffffffffffffffffffffff168152508560048581548110612dc257612dc1614082565b5b90600052602060002090600702016000820151816000019080519060200190612dec9291906130b1565b50602082015181600101556040820151816002015560608201518160030160006101000a81548160ff0219169083151502179055506080820151816004019080519060200190612e3d929190613137565b5060a0820151816005019080519060200190612e5a929190613137565b5060c0820151816006015590505085600360008a73ffffffffffffffffffffffffffffffffffffffff1673ffffffffffffffffffffffffffffffffffffffff1681526020019081526020016000206000820151816000019080519060200190612ec49291906130b1565b50602082015181600101556040820151816002015560608201518160030160006101000a81548160ff0219169083151502179055506080820151816004019080519060200190612f15929190613137565b5060a0820151816005019080519060200190612f32929190613137565b5060c0820151816006015590505060008360600190151590811515815250508260a00151600081518110612f6957612f68614082565b5b60200260200101600073ffffffffffffffffffffffffffffffffffffffff1681525082600360008b73ffffffffffffffffffffffffffffffffffffffff1673ffffffffffffffffffffffffffffffffffffffff1681526020019081526020016000206000820151816000019080519060200190612fe79291906130b1565b50602082015181600101556040820151816002015560608201518160030160006101000a81548160ff0219169083151502179055506080820151816004019080519060200190613038929190613137565b5060a0820151816005019080519060200190613055929190613137565b5060c0820151816006015590505082965050505050505092915050565b6040518060e001604052806060815260200160008152602001600081526020016000151581526020016060815260200160608152602001600081525090565b8280546130bd90613e1d565b90600052602060002090601f0160209004810192826130df5760008555613126565b82601f106130f857805160ff1916838001178555613126565b82800160010185558215613126579182015b8281111561312557825182559160200191906001019061310a565b5b50905061313391906132a0565b5090565b8280548282559060005260206000209081019282156131b0579160200282015b828111156131af5782518260006101000a81548173ffffffffffffffffffffffffffffffffffffffff021916908373ffffffffffffffffffffffffffffffffffffffff16021790555091602001919060010190613157565b5b5090506131bd91906132a0565b5090565b8280546131cd90613e1d565b90600052602060002090601f0160209004810192826131ef576000855561323d565b82601f10613200578054855561323d565b8280016001018555821561323d57600052602060002091601f016020900482015b8281111561323c578254825591600101919060010190613221565b5b50905061324a91906132a0565b5090565b82805482825590600052602060002090810192821561328f5760005260206000209182015b8281111561328e578254825591600101919060010190613273565b5b50905061329c91906132a0565b5090565b5b808211156132b95760008160009055506001016132a1565b5090565b6000604051905090565b600080fd5b600080fd5b600080fd5b600080fd5b6000601f19601f8301169050919050565b7f4e487b7100000000000000000000000000000000000000000000000000000000600052604160045260246000fd5b613324826132db565b810181811067ffffffffffffffff82111715613343576133426132ec565b5b80604052505050565b60006133566132bd565b9050613362828261331b565b919050565b600067ffffffffffffffff821115613382576133816132ec565b5b61338b826132db565b9050602081019050919050565b82818337600083830152505050565b60006133ba6133b584613367565b61334c565b9050828152602081018484840111156133d6576133d56132d6565b5b6133e1848285613398565b509392505050565b600082601f8301126133fe576133fd6132d1565b5b813561340e8482602086016133a7565b91505092915050565b6000819050919050565b61342a81613417565b811461343557600080fd5b50565b60008135905061344781613421565b92915050565b60008115159050919050565b6134628161344d565b811461346d57600080fd5b50565b60008135905061347f81613459565b92915050565b60008060006060848603121561349e5761349d6132c7565b5b600084013567ffffffffffffffff8111156134bc576134bb6132cc565b5b6134c8868287016133e9565b93505060206134d986828701613438565b92505060406134ea86828701613470565b9150509250925092565b600081519050919050565b600082825260208201905092915050565b60005b8381101561352e578082015181840152602081019050613513565b8381111561353d576000848401525b50505050565b600061354e826134f4565b61355881856134ff565b9350613568818560208601613510565b613571816132db565b840191505092915050565b61358581613417565b82525050565b6135948161344d565b82525050565b600081519050919050565b600082825260208201905092915050565b6000819050602082019050919050565b600073ffffffffffffffffffffffffffffffffffffffff82169050919050565b60006135f1826135c6565b9050919050565b613601816135e6565b82525050565b600061361383836135f8565b60208301905092915050565b6000602082019050919050565b60006136378261359a565b61364181856135a5565b935061364c836135b6565b8060005b8381101561367d5781516136648882613607565b975061366f8361361f565b925050600181019050613650565b5085935050505092915050565b600060e08301600083015184820360008601526136a78282613543565b91505060208301516136bc602086018261357c565b5060408301516136cf604086018261357c565b5060608301516136e2606086018261358b565b50608083015184820360808601526136fa828261362c565b91505060a083015184820360a0860152613714828261362c565b91505060c083015161372960c086018261357c565b508091505092915050565b6000602082019050818103600083015261374e818461368a565b905092915050565b61375f816135e6565b811461376a57600080fd5b50565b60008135905061377c81613756565b92915050565b60008060408385031215613799576137986132c7565b5b60006137a78582860161376d565b92505060206137b885828601613438565b9150509250929050565b6137cb81613417565b82525050565b6137da816135e6565b82525050565b60006080820190506137f560008301876137c2565b61380260208301866137d1565b61380f60408301856137d1565b61381c60608301846137c2565b95945050505050565b600082825260208201905092915050565b60006138418261359a565b61384b8185613825565b9350613856836135b6565b8060005b8381101561388757815161386e8882613607565b97506138798361361f565b92505060018101905061385a565b5085935050505092915050565b600060208201905081810360008301526138ae8184613836565b905092915050565b600081519050919050565b600082825260208201905092915050565b6000819050602082019050919050565b600060e08301600083015184820360008601526138ff8282613543565b9150506020830151613914602086018261357c565b506040830151613927604086018261357c565b50606083015161393a606086018261358b565b5060808301518482036080860152613952828261362c565b91505060a083015184820360a086015261396c828261362c565b91505060c083015161398160c086018261357c565b508091505092915050565b600061399883836138e2565b905092915050565b6000602082019050919050565b60006139b8826138b6565b6139c281856138c1565b9350836020820285016139d4856138d2565b8060005b85811015613a1057848403895281516139f1858261398c565b94506139fc836139a0565b925060208a019950506001810190506139d8565b50829750879550505050505092915050565b60006020820190508181036000830152613a3c81846139ad565b905092915050565b6000602082019050613a5960008301846137c2565b92915050565b600060208284031215613a7557613a746132c7565b5b600082013567ffffffffffffffff811115613a9357613a926132cc565b5b613a9f848285016133e9565b91505092915050565b60008060408385031215613abf57613abe6132c7565b5b600083013567ffffffffffffffff811115613add57613adc6132cc565b5b613ae9858286016133e9565b9250506020613afa85828601613470565b9150509250929050565b60006040820190508181036000830152613b1e818561368a565b9050613b2d60208301846137c2565b9392505050565b600060208284031215613b4a57613b496132c7565b5b6000613b588482850161376d565b91505092915050565b600080600060608486031215613b7a57613b796132c7565b5b6000613b888682870161376d565b935050602084013567ffffffffffffffff811115613ba957613ba86132cc565b5b613bb5868287016133e9565b9250506040613bc686828701613438565b9150509250925092565b6000613bdb826135c6565b9050919050565b613beb81613bd0565b8114613bf657600080fd5b50565b600081359050613c0881613be2565b92915050565b60008060408385031215613c2557613c246132c7565b5b6000613c3385828601613bf9565b9250506020613c4485828601613438565b9150509250929050565b600081519050919050565b600082825260208201905092915050565b6000819050602082019050919050565b608082016000820151613c90600085018261357c565b506020820151613ca360208501826135f8565b506040820151613cb660408501826135f8565b506060820151613cc9606085018261357c565b50505050565b6000613cdb8383613c7a565b60808301905092915050565b6000602082019050919050565b6000613cff82613c4e565b613d098185613c59565b9350613d1483613c6a565b8060005b83811015613d45578151613d2c8882613ccf565b9750613d3783613ce7565b925050600181019050613d18565b5085935050505092915050565b60006020820190508181036000830152613d6c8184613cf4565b905092915050565b6000819050919050565b6000613d99613d94613d8f846135c6565b613d74565b6135c6565b9050919050565b6000613dab82613d7e565b9050919050565b6000613dbd82613da0565b9050919050565b613dcd81613db2565b82525050565b6000602082019050613de86000830184613dc4565b92915050565b7f4e487b7100000000000000000000000000000000000000000000000000000000600052602260045260246000fd5b60006002820490506001821680613e3557607f821691505b60208210811415613e4957613e48613dee565b5b50919050565b600081905092915050565b60008190508160005260206000209050919050565b60008154613e7c81613e1d565b613e868186613e4f565b94506001821660008114613ea15760018114613eb257613ee5565b60ff19831686528186019350613ee5565b613ebb85613e5a565b60005b83811015613edd57815481890152600182019150602081019050613ebe565b838801955050505b50505092915050565b6000613efa8284613e6f565b915081905092915050565b600082825260208201905092915050565b7f596f7520616c7265616479206861766520616e206163636f756e740000000000600082015250565b6000613f4c601b83613f05565b9150613f5782613f16565b602082019050919050565b60006020820190508181036000830152613f7b81613f3f565b9050919050565b7f596f752772652061646d696e2021212100000000000000000000000000000000600082015250565b6000613fb8601083613f05565b9150613fc382613f82565b602082019050919050565b60006020820190508181036000830152613fe781613fab565b9050919050565b6000613ff9826134f4565b6140038185613f05565b9350614013818560208601613510565b61401c816132db565b840191505092915050565b6140308161344d565b82525050565b600060808201905081810360008301526140508187613fee565b905061405f60208301866137c2565b61406c6040830185614027565b61407960608301846137d1565b95945050505050565b7f4e487b7100000000000000000000000000000000000000000000000000000000600052603260045260246000fd5b7f4e487b7100000000000000000000000000000000000000000000000000000000600052601160045260246000fd5b60006140eb82613417565b91507fffffffffffffffffffffffffffffffffffffffffffffffffffffffffffffffff82141561411e5761411d6140b1565b5b600182019050919050565b7f546865206368696c6420646964206e6f7420666f756e64000000000000000000600082015250565b600061415f601783613f05565b915061416a82614129565b602082019050919050565b6000602082019050818103600083015261418e81614152565b9050919050565b7f596f752068617665206e6f7420616e79206368696c6400000000000000000000600082015250565b60006141cb601683613f05565b91506141d682614195565b602082019050919050565b600060208201905081810360008301526141fa816141be565b9050919050565b600060608201905061421660008301866137d1565b61422360208301856137d1565b61423060408301846137c2565b949350505050565b7f596f7520616c7265616479206861766520616e206163636f756e74202863686960008201527f6c64290000000000000000000000000000000000000000000000000000000000602082015250565b6000614294602383613f05565b915061429f82614238565b604082019050919050565b600060208201905081810360008301526142c381614287565b9050919050565b7f596f752772652061646d696e0000000000000000000000000000000000000000600082015250565b6000614300600c83613f05565b915061430b826142ca565b602082019050919050565b6000602082019050818103600083015261432f816142f3565b9050919050565b7f596f752063616e206c696e6b206163636f756e74206166746572206c6f67676560008201527f6420696e00000000000000000000000000000000000000000000000000000000602082015250565b6000614392602483613f05565b915061439d82614336565b604082019050919050565b600060208201905081810360008301526143c181614385565b9050919050565b600060808201905081810360008301526143e28187613fee565b90506143f160208301866137c2565b6143fe60408301856137d1565b61440b60608301846137d1565b95945050505050565b600060208201905061442960008301846137d1565b92915050565b60008151905061443e81613421565b92915050565b60006020828403121561445a576144596132c7565b5b60006144688482850161442f565b91505092915050565b7f596f752776652061206c696d69746564206163636f756e74202c20796f75277260008201527f65206e6f7420616e206164756c74000000000000000000000000000000000000602082015250565b60006144cd602e83613f05565b91506144d882614471565b604082019050919050565b600060208201905081810360008301526144fc816144c0565b9050919050565b600060408201905061451860008301856137d1565b61452560208301846137c2565b9392505050565b60008151905061453b81613459565b92915050565b600060208284031215614557576145566132c7565b5b60006145658482850161452c565b91505092915050565b50565b600061457e600083613e4f565b91506145898261456e565b600082019050919050565b600061459f82614571565b9150819050919050565b7f4661696c656420746f2073656e64204574686572000000000000000000000000600082015250565b60006145df601483613f05565b91506145ea826145a9565b602082019050919050565b6000602082019050818103600083015261460e816145d2565b9050919050565b7f54686973206163636f756e74206973206e6f74206c696d697465640000000000600082015250565b600061464b601b83613f05565b915061465682614615565b602082019050919050565b6000602082019050818103600083015261467a8161463e565b9050919050565b7f596f75206d757374206265206f776e657220746f2072756e2074686973206d6560008201527f74686f6400000000000000000000000000000000000000000000000000000000602082015250565b60006146dd602483613f05565b91506146e882614681565b604082019050919050565b6000602082019050818103600083015261470c816146d0565b9050919050565b7f54686520706572736f6e20646964206e6f7420666f756e640000000000000000600082015250565b6000614749601883613f05565b915061475482614713565b602082019050919050565b600060208201905081810360008301526147788161473c565b905091905056fea2646970667358221220c687e936f9b341f28ba0e81561406541a1d97b20a9a64497d8ae340ba6517b1064736f6c63430008090033",
  "linkReferences": {},
  "deployedLinkReferences": {}
}