{
  "_format": "hh-sol-artifact-1",
  "contractName": "BankingApp",
  "sourceName": "contracts/Banking.sol",
  "abi": [
    {
      "inputs": [
        {
          "internalType": "address",
          "name": "_token",
          "type": "address"
        },
        {
          "internalType": "address",
          "name": "_owner",
          "type": "address"
        }
      ],
      "stateMutability": "payable",
      "type": "constructor"
    },
    {
      "anonymous": false,
      "inputs": [
        {
          "indexed": false,
          "internalType": "string",
          "name": "inheritor_name",
          "type": "string"
        },
        {
          "indexed": false,
          "internalType": "uint256",
          "name": "inheritor_age",
          "type": "uint256"
        },
        {
          "indexed": false,
          "internalType": "address",
          "name": "child_address",
          "type": "address"
        },
        {
          "indexed": false,
          "internalType": "address",
          "name": "parent_address",
          "type": "address"
        }
      ],
      "name": "AccountLinkedToParent",
      "type": "event"
    },
    {
      "anonymous": false,
      "inputs": [
        {
          "indexed": false,
          "internalType": "address",
          "name": "childAddress",
          "type": "address"
        },
        {
          "indexed": false,
          "internalType": "address",
          "name": "parentAddress",
          "type": "address"
        },
        {
          "indexed": false,
          "internalType": "uint256",
          "name": "time",
          "type": "uint256"
        }
      ],
      "name": "LinkedAccountMadeUnLimited",
      "type": "event"
    },
    {
      "anonymous": false,
      "inputs": [
        {
          "indexed": false,
          "internalType": "string",
          "name": "name",
          "type": "string"
        },
        {
          "indexed": false,
          "internalType": "uint256",
          "name": "age",
          "type": "uint256"
        },
        {
          "indexed": false,
          "internalType": "bool",
          "name": "isLimited",
          "type": "bool"
        },
        {
          "indexed": false,
          "internalType": "address",
          "name": "user_address",
          "type": "address"
        }
      ],
      "name": "PersonAdded",
      "type": "event"
    },
    {
      "anonymous": false,
      "inputs": [
        {
          "indexed": false,
          "internalType": "address",
          "name": "from",
          "type": "address"
        },
        {
          "indexed": false,
          "internalType": "address",
          "name": "to",
          "type": "address"
        },
        {
          "indexed": false,
          "internalType": "uint256",
          "name": "amount",
          "type": "uint256"
        }
      ],
      "name": "TokenSent",
      "type": "event"
    },
    {
      "anonymous": false,
      "inputs": [
        {
          "indexed": false,
          "internalType": "address",
          "name": "from",
          "type": "address"
        },
        {
          "indexed": false,
          "internalType": "address",
          "name": "to",
          "type": "address"
        },
        {
          "indexed": false,
          "internalType": "uint256",
          "name": "amount",
          "type": "uint256"
        }
      ],
      "name": "TransactionAdded",
      "type": "event"
    },
    {
      "inputs": [
        {
          "internalType": "string",
          "name": "_name",
          "type": "string"
        },
        {
          "internalType": "uint256",
          "name": "_age",
          "type": "uint256"
        },
        {
          "internalType": "bool",
          "name": "isLimited",
          "type": "bool"
        }
      ],
      "name": "addPerson",
      "outputs": [
        {
          "components": [
            {
              "internalType": "string",
              "name": "name",
              "type": "string"
            },
            {
              "internalType": "uint256",
              "name": "age",
              "type": "uint256"
            },
            {
              "internalType": "uint256",
              "name": "balance",
              "type": "uint256"
            },
            {
              "internalType": "bool",
              "name": "isLimited",
              "type": "bool"
            },
            {
              "internalType": "address[]",
              "name": "children",
              "type": "address[]"
            },
            {
              "internalType": "address[]",
              "name": "parents",
              "type": "address[]"
            },
            {
              "internalType": "uint256",
              "name": "createdTime",
              "type": "uint256"
            }
          ],
          "internalType": "struct BankingApp.Person",
          "name": "",
          "type": "tuple"
        }
      ],
      "stateMutability": "nonpayable",
      "type": "function"
    },
    {
      "inputs": [
        {
          "internalType": "string",
          "name": "_name",
          "type": "string"
        },
        {
          "internalType": "bool",
          "name": "returnErr",
          "type": "bool"
        }
      ],
      "name": "findTheChild",
      "outputs": [
        {
          "components": [
            {
              "internalType": "string",
              "name": "name",
              "type": "string"
            },
            {
              "internalType": "uint256",
              "name": "age",
              "type": "uint256"
            },
            {
              "internalType": "uint256",
              "name": "balance",
              "type": "uint256"
            },
            {
              "internalType": "bool",
              "name": "isLimited",
              "type": "bool"
            },
            {
              "internalType": "address[]",
              "name": "children",
              "type": "address[]"
            },
            {
              "internalType": "address[]",
              "name": "parents",
              "type": "address[]"
            },
            {
              "internalType": "uint256",
              "name": "createdTime",
              "type": "uint256"
            }
          ],
          "internalType": "struct BankingApp.Person",
          "name": "",
          "type": "tuple"
        },
        {
          "internalType": "uint256",
          "name": "index",
          "type": "uint256"
        }
      ],
      "stateMutability": "view",
      "type": "function"
    },
    {
      "inputs": [
        {
          "internalType": "string",
          "name": "_name",
          "type": "string"
        },
        {
          "internalType": "bool",
          "name": "returnErr",
          "type": "bool"
        }
      ],
      "name": "findThePerson",
      "outputs": [
        {
          "components": [
            {
              "internalType": "string",
              "name": "name",
              "type": "string"
            },
            {
              "internalType": "uint256",
              "name": "age",
              "type": "uint256"
            },
            {
              "internalType": "uint256",
              "name": "balance",
              "type": "uint256"
            },
            {
              "internalType": "bool",
              "name": "isLimited",
              "type": "bool"
            },
            {
              "internalType": "address[]",
              "name": "children",
              "type": "address[]"
            },
            {
              "internalType": "address[]",
              "name": "parents",
              "type": "address[]"
            },
            {
              "internalType": "uint256",
              "name": "createdTime",
              "type": "uint256"
            }
          ],
          "internalType": "struct BankingApp.Person",
          "name": "",
          "type": "tuple"
        },
        {
          "internalType": "uint256",
          "name": "index",
          "type": "uint256"
        }
      ],
      "stateMutability": "view",
      "type": "function"
    },
    {
      "inputs": [],
      "name": "getBalanceOfInheritumToken",
      "outputs": [
        {
          "internalType": "uint256",
          "name": "",
          "type": "uint256"
        }
      ],
      "stateMutability": "view",
      "type": "function"
    },
    {
      "inputs": [],
      "name": "getChildren",
      "outputs": [
        {
          "internalType": "address[]",
          "name": "",
          "type": "address[]"
        }
      ],
      "stateMutability": "view",
      "type": "function"
    },
    {
      "inputs": [],
      "name": "getMyBalance",
      "outputs": [
        {
          "internalType": "uint256",
          "name": "",
          "type": "uint256"
        }
      ],
      "stateMutability": "view",
      "type": "function"
    },
    {
      "inputs": [],
      "name": "getMyChild",
      "outputs": [
        {
          "internalType": "address[]",
          "name": "",
          "type": "address[]"
        }
      ],
      "stateMutability": "view",
      "type": "function"
    },
    {
      "inputs": [
        {
          "internalType": "string",
          "name": "_name",
          "type": "string"
        }
      ],
      "name": "getMyChildBalance",
      "outputs": [
        {
          "internalType": "uint256",
          "name": "",
          "type": "uint256"
        }
      ],
      "stateMutability": "nonpayable",
      "type": "function"
    },
    {
      "inputs": [],
      "name": "getPersons",
      "outputs": [
        {
          "components": [
            {
              "internalType": "string",
              "name": "name",
              "type": "string"
            },
            {
              "internalType": "uint256",
              "name": "age",
              "type": "uint256"
            },
            {
              "internalType": "uint256",
              "name": "balance",
              "type": "uint256"
            },
            {
              "internalType": "bool",
              "name": "isLimited",
              "type": "bool"
            },
            {
              "internalType": "address[]",
              "name": "children",
              "type": "address[]"
            },
            {
              "internalType": "address[]",
              "name": "parents",
              "type": "address[]"
            },
            {
              "internalType": "uint256",
              "name": "createdTime",
              "type": "uint256"
            }
          ],
          "internalType": "struct BankingApp.Person[]",
          "name": "",
          "type": "tuple[]"
        }
      ],
      "stateMutability": "view",
      "type": "function"
    },
    {
      "inputs": [],
      "name": "getTranscationHistory",
      "outputs": [
        {
          "components": [
            {
              "internalType": "uint256",
              "name": "timestamp",
              "type": "uint256"
            },
            {
              "internalType": "address",
              "name": "sender",
              "type": "address"
            },
            {
              "internalType": "address",
              "name": "receiver",
              "type": "address"
            },
            {
              "internalType": "uint256",
              "name": "amount",
              "type": "uint256"
            }
          ],
          "internalType": "struct BankingApp.Transaction[]",
          "name": "",
          "type": "tuple[]"
        }
      ],
      "stateMutability": "view",
      "type": "function"
    },
    {
      "inputs": [
        {
          "internalType": "address",
          "name": "addr",
          "type": "address"
        }
      ],
      "name": "getUser",
      "outputs": [
        {
          "components": [
            {
              "internalType": "string",
              "name": "name",
              "type": "string"
            },
            {
              "internalType": "uint256",
              "name": "age",
              "type": "uint256"
            },
            {
              "internalType": "uint256",
              "name": "balance",
              "type": "uint256"
            },
            {
              "internalType": "bool",
              "name": "isLimited",
              "type": "bool"
            },
            {
              "internalType": "address[]",
              "name": "children",
              "type": "address[]"
            },
            {
              "internalType": "address[]",
              "name": "parents",
              "type": "address[]"
            },
            {
              "internalType": "uint256",
              "name": "createdTime",
              "type": "uint256"
            }
          ],
          "internalType": "struct BankingApp.Person",
          "name": "",
          "type": "tuple"
        }
      ],
      "stateMutability": "view",
      "type": "function"
    },
    {
      "inputs": [
        {
          "internalType": "address",
          "name": "childAccount",
          "type": "address"
        },
        {
          "internalType": "string",
          "name": "_name",
          "type": "string"
        },
        {
          "internalType": "uint256",
          "name": "_age",
          "type": "uint256"
        }
      ],
      "name": "linkAccount",
      "outputs": [
        {
          "components": [
            {
              "internalType": "string",
              "name": "name",
              "type": "string"
            },
            {
              "internalType": "uint256",
              "name": "age",
              "type": "uint256"
            },
            {
              "internalType": "uint256",
              "name": "balance",
              "type": "uint256"
            },
            {
              "internalType": "bool",
              "name": "isLimited",
              "type": "bool"
            },
            {
              "internalType": "address[]",
              "name": "children",
              "type": "address[]"
            },
            {
              "internalType": "address[]",
              "name": "parents",
              "type": "address[]"
            },
            {
              "internalType": "uint256",
              "name": "createdTime",
              "type": "uint256"
            }
          ],
          "internalType": "struct BankingApp.Person",
          "name": "",
          "type": "tuple"
        }
      ],
      "stateMutability": "nonpayable",
      "type": "function"
    },
    {
      "inputs": [
        {
          "internalType": "address",
          "name": "linked_account",
          "type": "address"
        }
      ],
      "name": "makeAccountisLimited",
      "outputs": [],
      "stateMutability": "nonpayable",
      "type": "function"
    },
    {
      "inputs": [
        {
          "internalType": "address payable",
          "name": "_to",
          "type": "address"
        },
        {
          "internalType": "uint256",
          "name": "amount",
          "type": "uint256"
        }
      ],
      "name": "sendEther",
      "outputs": [],
      "stateMutability": "payable",
      "type": "function"
    },
    {
      "inputs": [
        {
          "internalType": "address",
          "name": "_to",
          "type": "address"
        },
        {
          "internalType": "uint256",
          "name": "_amount",
          "type": "uint256"
        }
      ],
      "name": "sendTokenToChild",
      "outputs": [],
      "stateMutability": "nonpayable",
      "type": "function"
    },
    {
      "inputs": [],
      "name": "token",
      "outputs": [
        {
          "internalType": "contract IERC20",
          "name": "",
          "type": "address"
        }
      ],
      "stateMutability": "view",
      "type": "function"
    },
    {
      "inputs": [
        {
          "internalType": "address",
          "name": "_to",
          "type": "address"
        },
        {
          "internalType": "uint256",
          "name": "_amount",
          "type": "uint256"
        }
      ],
      "name": "tokenSendEventFired",
      "outputs": [],
      "stateMutability": "nonpayable",
      "type": "function"
    }
  ],
  "bytecode": "0x608060405260405162004a6138038062004a6183398181016040528101906200002991906200011c565b816000806101000a81548173ffffffffffffffffffffffffffffffffffffffff021916908373ffffffffffffffffffffffffffffffffffffffff16021790555080600160006101000a81548173ffffffffffffffffffffffffffffffffffffffff021916908373ffffffffffffffffffffffffffffffffffffffff160217905550505062000163565b600080fd5b600073ffffffffffffffffffffffffffffffffffffffff82169050919050565b6000620000e482620000b7565b9050919050565b620000f681620000d7565b81146200010257600080fd5b50565b6000815190506200011681620000eb565b92915050565b60008060408385031215620001365762000135620000b2565b5b6000620001468582860162000105565b9250506020620001598582860162000105565b9150509250929050565b6148ee80620001736000396000f3fe6080604052600436106100fe5760003560e01c80638d6ec21411610095578063c81cdec911610064578063c81cdec91461034d578063dbc1a22b14610378578063ee203fe6146103a3578063fbf8574d146103ce578063fc0c546a1461040c576100fe565b80638d6ec214146102a2578063b42fbdfd146102df578063c1756a2c14610308578063c1a1617714610324576100fe565b806353a86c94116100d157806353a86c94146101c15780635412f1c9146101fe578063556173be1461023c5780636f77926b14610265576100fe565b8063032ce9aa146101035780634892e8e8146101405780634c6b6c6f1461016b5780634c73890914610196575b600080fd5b34801561010f57600080fd5b5061012a60048036038101906101259190613548565b610437565b60405161013791906137f7565b60405180910390f35b34801561014c57600080fd5b506101556109da565b6040516101629190613888565b60405180910390f35b34801561017757600080fd5b50610180610ad3565b60405161018d9190613a16565b60405180910390f35b3480156101a257600080fd5b506101ab610d19565b6040516101b89190613a47565b60405180910390f35b3480156101cd57600080fd5b506101e860048036038101906101e39190613a62565b610d38565b6040516101f59190613a47565b60405180910390f35b34801561020a57600080fd5b5061022560048036038101906102209190613aab565b610d56565b604051610233929190613b07565b60405180910390f35b34801561024857600080fd5b50610263600480360381019061025e9190613b63565b610e9b565b005b34801561027157600080fd5b5061028c60048036038101906102879190613ba3565b610eda565b60405161029991906137f7565b60405180910390f35b3480156102ae57600080fd5b506102c960048036038101906102c49190613bd0565b61111a565b6040516102d691906137f7565b60405180910390f35b3480156102eb57600080fd5b5061030660048036038101906103019190613b63565b611a35565b005b610322600480360381019061031d9190613c7d565b611c71565b005b34801561033057600080fd5b5061034b60048036038101906103469190613ba3565b611f77565b005b34801561035957600080fd5b5061036261219f565b60405161036f9190613a47565b60405180910390f35b34801561038457600080fd5b5061038d612250565b60405161039a9190613dc1565b60405180910390f35b3480156103af57600080fd5b506103b86123ac565b6040516103c59190613888565b60405180910390f35b3480156103da57600080fd5b506103f560048036038101906103f09190613aab565b61247a565b604051610403929190613b07565b60405180910390f35b34801561041857600080fd5b5061042161276e565b60405161042e9190613e42565b60405180910390f35b61043f613135565b6040518060200160405280600081525080519060200120600360003373ffffffffffffffffffffffffffffffffffffffff1673ffffffffffffffffffffffffffffffffffffffff1681526020019081526020016000206000016040516104a59190613f5d565b6040518091039020146104ed576040517f08c379a00000000000000000000000000000000000000000000000000000000081526004016104e490613fd1565b60405180910390fd5b600160009054906101000a900473ffffffffffffffffffffffffffffffffffffffff1673ffffffffffffffffffffffffffffffffffffffff163373ffffffffffffffffffffffffffffffffffffffff16141561057e576040517f08c379a00000000000000000000000000000000000000000000000000000000081526004016105759061403d565b60405180910390fd5b6000600360003373ffffffffffffffffffffffffffffffffffffffff1673ffffffffffffffffffffffffffffffffffffffff1681526020019081526020016000209050848160000190805190602001906105d9929190613174565b5083816001018190555060008160020181905550828160030160006101000a81548160ff021916908315150217905550600067ffffffffffffffff811115610624576106236133af565b5b6040519080825280602002602001820160405280156106525781602001602082028036833780820191505090505b5081600401908051906020019061066a9291906131fa565b50600067ffffffffffffffff811115610686576106856133af565b5b6040519080825280602002602001820160405280156106b45781602001602082028036833780820191505090505b508160050190805190602001906106cc9291906131fa565b504281600601819055506000816040518060e00160405290816000820180546106f490613e8c565b80601f016020809104026020016040519081016040528092919081815260200182805461072090613e8c565b801561076d5780601f106107425761010080835404028352916020019161076d565b820191906000526020600020905b81548152906001019060200180831161075057829003601f168201915b5050505050815260200160018201548152602001600282015481526020016003820160009054906101000a900460ff161515151581526020016004820180548060200260200160405190810160405280929190818152602001828054801561082a57602002820191906000526020600020905b8160009054906101000a900473ffffffffffffffffffffffffffffffffffffffff1673ffffffffffffffffffffffffffffffffffffffff16815260200190600101908083116107e0575b50505050508152602001600582018054806020026020016040519081016040528092919081815260200182805480156108b857602002820191906000526020600020905b8160009054906101000a900473ffffffffffffffffffffffffffffffffffffffff1673ffffffffffffffffffffffffffffffffffffffff168152602001906001019080831161086e575b50505050508152602001600682015481525050905060048190806001815401808255809150506001900390600052602060002090600702016000909190919091506000820151816000019080519060200190610915929190613174565b50602082015181600101556040820151816002015560608201518160030160006101000a81548160ff02191690831515021790555060808201518160040190805190602001906109669291906131fa565b5060a08201518160050190805190602001906109839291906131fa565b5060c0820151816006015550507fb5c5986c1e1f436c794482a595013f25496c614c10a9ec074cd5380bf4cb997186866000336040516109c694939291906140b4565b60405180910390a180925050509392505050565b606060006109e733610eda565b9050600081608001515167ffffffffffffffff811115610a0a57610a096133af565b5b604051908082528060200260200182016040528015610a385781602001602082028036833780820191505090505b50905060005b826080015151811015610aca5782608001518181518110610a6257610a61614100565b5b6020026020010151828281518110610a7d57610a7c614100565b5b602002602001019073ffffffffffffffffffffffffffffffffffffffff16908173ffffffffffffffffffffffffffffffffffffffff16815250508080610ac29061415e565b915050610a3e565b50809250505090565b60606004805480602002602001604051908101604052809291908181526020016000905b82821015610d1057838290600052602060002090600702016040518060e0016040529081600082018054610b2a90613e8c565b80601f0160208091040260200160405190810160405280929190818152602001828054610b5690613e8c565b8015610ba35780601f10610b7857610100808354040283529160200191610ba3565b820191906000526020600020905b815481529060010190602001808311610b8657829003601f168201915b5050505050815260200160018201548152602001600282015481526020016003820160009054906101000a900460ff1615151515815260200160048201805480602002602001604051908101604052809291908181526020018280548015610c6057602002820191906000526020600020905b8160009054906101000a900473ffffffffffffffffffffffffffffffffffffffff1673ffffffffffffffffffffffffffffffffffffffff1681526020019060010190808311610c16575b5050505050815260200160058201805480602002602001604051908101604052809291908181526020018280548015610cee57602002820191906000526020600020905b8160009054906101000a900473ffffffffffffffffffffffffffffffffffffffff1673ffffffffffffffffffffffffffffffffffffffff1681526020019060010190808311610ca4575b5050505050815260200160068201548152505081526020019060010190610af7565b50505050905090565b60003373ffffffffffffffffffffffffffffffffffffffff1631905090565b600080610d46836001610d56565b5090508060400151915050919050565b610d5e613135565b600080610d6a33610eda565b90506000816080015151905060018110610e595760005b81811015610e0057600083608001518281518110610da257610da1614100565b5b602002602001015190506000610db782610eda565b600001519050888051906020012081805190602001201415610deb57610ddc82610eda565b83965096505050505050610e94565b50508080610df89061415e565b915050610d81565b508415610e42576040517f08c379a0000000000000000000000000000000000000000000000000000000008152600401610e39906141f3565b60405180910390fd5b610e4a613135565b80600094509450505050610e94565b6040517f08c379a0000000000000000000000000000000000000000000000000000000008152600401610e8b9061425f565b60405180910390fd5b9250929050565b7f3ddb739c68dd901671f09fbe0bc2344c179ed55f8e8110a7c7a3c5665bd9518d338383604051610ece9392919061427f565b60405180910390a15050565b610ee2613135565b600360008373ffffffffffffffffffffffffffffffffffffffff1673ffffffffffffffffffffffffffffffffffffffff1681526020019081526020016000206040518060e0016040529081600082018054610f3c90613e8c565b80601f0160208091040260200160405190810160405280929190818152602001828054610f6890613e8c565b8015610fb55780601f10610f8a57610100808354040283529160200191610fb5565b820191906000526020600020905b815481529060010190602001808311610f9857829003601f168201915b5050505050815260200160018201548152602001600282015481526020016003820160009054906101000a900460ff161515151581526020016004820180548060200260200160405190810160405280929190818152602001828054801561107257602002820191906000526020600020905b8160009054906101000a900473ffffffffffffffffffffffffffffffffffffffff1673ffffffffffffffffffffffffffffffffffffffff1681526020019060010190808311611028575b505050505081526020016005820180548060200260200160405190810160405280929190818152602001828054801561110057602002820191906000526020600020905b8160009054906101000a900473ffffffffffffffffffffffffffffffffffffffff1673ffffffffffffffffffffffffffffffffffffffff16815260200190600101908083116110b6575b505050505081526020016006820154815250509050919050565b611122613135565b836040518060200160405280600081525080519060200120600360008373ffffffffffffffffffffffffffffffffffffffff1673ffffffffffffffffffffffffffffffffffffffff1681526020019081526020016000206000016040516111899190613f5d565b6040518091039020146111d1576040517f08c379a00000000000000000000000000000000000000000000000000000000081526004016111c890614328565b60405180910390fd5b600160009054906101000a900473ffffffffffffffffffffffffffffffffffffffff1673ffffffffffffffffffffffffffffffffffffffff163373ffffffffffffffffffffffffffffffffffffffff161415611262576040517f08c379a000000000000000000000000000000000000000000000000000000000815260040161125990614394565b60405180910390fd5b604051806020016040528060008152508051906020012061128233610eda565b600001518051906020012014156112ce576040517f08c379a00000000000000000000000000000000000000000000000000000000081526004016112c590614426565b60405180910390fd5b6000600360003373ffffffffffffffffffffffffffffffffffffffff1673ffffffffffffffffffffffffffffffffffffffff168152602001908152602001600020905080600401869080600181540180825580915050600190039060005260206000200160009091909190916101000a81548173ffffffffffffffffffffffffffffffffffffffff021916908373ffffffffffffffffffffffffffffffffffffffff16021790555080600360003373ffffffffffffffffffffffffffffffffffffffff1673ffffffffffffffffffffffffffffffffffffffff16815260200190815260200160002060008201816000019080546113ca90613e8c565b6113d5929190613284565b5060018201548160010155600282015481600201556003820160009054906101000a900460ff168160030160006101000a81548160ff021916908315150217905550600482018160040190805461142d929190613311565b506005820181600501908054611444929190613311565b50600682015481600601559050506000806114ec83600001805461146790613e8c565b80601f016020809104026020016040519081016040528092919081815260200182805461149390613e8c565b80156114e05780601f106114b5576101008083540402835291602001916114e0565b820191906000526020600020905b8154815290600101906020018083116114c357829003601f168201915b5050505050600061247a565b915091506004818154811061150457611503614100565b5b9060005260206000209060070201600401889080600181540180825580915050600190039060005260206000200160009091909190916101000a81548173ffffffffffffffffffffffffffffffffffffffff021916908373ffffffffffffffffffffffffffffffffffffffff1602179055506040518060e0016040528088815260200187815260200160008152602001600115158152602001600067ffffffffffffffff8111156115b8576115b76133af565b5b6040519080825280602002602001820160405280156115e65781602001602082028036833780820191505090505b508152602001600167ffffffffffffffff811115611607576116066133af565b5b6040519080825280602002602001820160405280156116355781602001602082028036833780820191505090505b50815260200142815250600360008a73ffffffffffffffffffffffffffffffffffffffff1673ffffffffffffffffffffffffffffffffffffffff168152602001908152602001600020600082015181600001908051906020019061169a929190613174565b50602082015181600101556040820151816002015560608201518160030160006101000a81548160ff02191690831515021790555060808201518160040190805190602001906116eb9291906131fa565b5060a08201518160050190805190602001906117089291906131fa565b5060c0820151816006015590505033600360008a73ffffffffffffffffffffffffffffffffffffffff1673ffffffffffffffffffffffffffffffffffffffff16815260200190815260200160002060050160008154811061176c5761176b614100565b5b9060005260206000200160006101000a81548173ffffffffffffffffffffffffffffffffffffffff021916908373ffffffffffffffffffffffffffffffffffffffff1602179055507f861d9e4591753d79613d783a5a5593c5945d1f5c0302902ae4d4051a32fa2e4387878a336040516117e99493929190614446565b60405180910390a16000600360003373ffffffffffffffffffffffffffffffffffffffff1673ffffffffffffffffffffffffffffffffffffffff1681526020019081526020016000206040518060e001604052908160008201805461184d90613e8c565b80601f016020809104026020016040519081016040528092919081815260200182805461187990613e8c565b80156118c65780601f1061189b576101008083540402835291602001916118c6565b820191906000526020600020905b8154815290600101906020018083116118a957829003601f168201915b5050505050815260200160018201548152602001600282015481526020016003820160009054906101000a900460ff161515151581526020016004820180548060200260200160405190810160405280929190818152602001828054801561198357602002820191906000526020600020905b8160009054906101000a900473ffffffffffffffffffffffffffffffffffffffff1673ffffffffffffffffffffffffffffffffffffffff1681526020019060010190808311611939575b5050505050815260200160058201805480602002602001604051908101604052809291908181526020018280548015611a1157602002820191906000526020600020905b8160009054906101000a900473ffffffffffffffffffffffffffffffffffffffff1673ffffffffffffffffffffffffffffffffffffffff16815260200190600101908083116119c7575b50505050508152602001600682015481525050905080955050505050509392505050565b808060008054906101000a900473ffffffffffffffffffffffffffffffffffffffff1673ffffffffffffffffffffffffffffffffffffffff166370a08231336040518263ffffffff1660e01b8152600401611a909190614492565b60206040518083038186803b158015611aa857600080fd5b505afa158015611abc573d6000803e3d6000fd5b505050506040513d601f19601f82011682018060405250810190611ae091906144c2565b1015611aeb57600080fd5b600360003373ffffffffffffffffffffffffffffffffffffffff1673ffffffffffffffffffffffffffffffffffffffff16815260200190815260200160002060030160009054906101000a900460ff166000151581151514611b82576040517f08c379a0000000000000000000000000000000000000000000000000000000008152600401611b7990614561565b60405180910390fd5b60008054906101000a900473ffffffffffffffffffffffffffffffffffffffff1673ffffffffffffffffffffffffffffffffffffffff1663a9059cbb85856040518363ffffffff1660e01b8152600401611bdd929190614581565b602060405180830381600087803b158015611bf757600080fd5b505af1158015611c0b573d6000803e3d6000fd5b505050506040513d601f19601f82011682018060405250810190611c2f91906145bf565b507f3ddb739c68dd901671f09fbe0bc2344c179ed55f8e8110a7c7a3c5665bd9518d338585604051611c639392919061427f565b60405180910390a150505050565b600360003373ffffffffffffffffffffffffffffffffffffffff1673ffffffffffffffffffffffffffffffffffffffff16815260200190815260200160002060030160009054906101000a900460ff166000151581151514611d08576040517f08c379a0000000000000000000000000000000000000000000000000000000008152600401611cff90614561565b60405180910390fd5b818060008054906101000a900473ffffffffffffffffffffffffffffffffffffffff1673ffffffffffffffffffffffffffffffffffffffff1663dd62ed3e600160009054906101000a900473ffffffffffffffffffffffffffffffffffffffff16336040518363ffffffff1660e01b8152600401611d879291906145ec565b60206040518083038186803b158015611d9f57600080fd5b505afa158015611db3573d6000803e3d6000fd5b505050506040513d601f19601f82011682018060405250810190611dd791906144c2565b1015611e18576040517f08c379a0000000000000000000000000000000000000000000000000000000008152600401611e0f90614687565b60405180910390fd5b60008473ffffffffffffffffffffffffffffffffffffffff1684604051611e3e906146cd565b60006040518083038185875af1925050503d8060008114611e7b576040519150601f19603f3d011682016040523d82523d6000602084013e611e80565b606091505b5050905080611ec4576040517f08c379a0000000000000000000000000000000000000000000000000000000008152600401611ebb9061472e565b60405180910390fd5b6000611ecf33610eda565b608001515114158015611f365750600073ffffffffffffffffffffffffffffffffffffffff16611efe33610eda565b60800151600081518110611f1557611f14614100565b5b602002602001015173ffffffffffffffffffffffffffffffffffffffff1614155b15611f4c57611f4785856001612792565b611f70565b6000611f5733610eda565b60800151511415611f6f57611f6e85856000612792565b5b5b5050505050565b8060011515611f8582610eda565b60600151151514611fcb576040517f08c379a0000000000000000000000000000000000000000000000000000000008152600401611fc29061479a565b60405180910390fd5b600160009054906101000a900473ffffffffffffffffffffffffffffffffffffffff1673ffffffffffffffffffffffffffffffffffffffff163373ffffffffffffffffffffffffffffffffffffffff161461205b576040517f08c379a00000000000000000000000000000000000000000000000000000000081526004016120529061482c565b60405180910390fd5b600061206683610eda565b905060008160a0015160008151811061208257612081614100565b5b6020026020010151905060006120988583612de9565b9050600481908060018154018082558091505060019003906000526020600020906007020160009091909190915060008201518160000190805190602001906120e2929190613174565b50602082015181600101556040820151816002015560608201518160030160006101000a81548160ff02191690831515021790555060808201518160040190805190602001906121339291906131fa565b5060a08201518160050190805190602001906121509291906131fa565b5060c0820151816006015550507f04a419d74ae13e4cc88d2952d62e66f9a6f13504980d882555a57e410135a9128583426040516121909392919061427f565b60405180910390a15050505050565b60008060009054906101000a900473ffffffffffffffffffffffffffffffffffffffff1673ffffffffffffffffffffffffffffffffffffffff166370a08231336040518263ffffffff1660e01b81526004016121fb9190614492565b60206040518083038186803b15801561221357600080fd5b505afa158015612227573d6000803e3d6000fd5b505050506040513d601f19601f8201168201806040525081019061224b91906144c2565b905090565b6060600260003373ffffffffffffffffffffffffffffffffffffffff1673ffffffffffffffffffffffffffffffffffffffff168152602001908152602001600020805480602002602001604051908101604052809291908181526020016000905b828210156123a35783829060005260206000209060040201604051806080016040529081600082015481526020016001820160009054906101000a900473ffffffffffffffffffffffffffffffffffffffff1673ffffffffffffffffffffffffffffffffffffffff1673ffffffffffffffffffffffffffffffffffffffff1681526020016002820160009054906101000a900473ffffffffffffffffffffffffffffffffffffffff1673ffffffffffffffffffffffffffffffffffffffff1673ffffffffffffffffffffffffffffffffffffffff168152602001600382015481525050815260200190600101906122b1565b50505050905090565b6060600360003373ffffffffffffffffffffffffffffffffffffffff1673ffffffffffffffffffffffffffffffffffffffff16815260200190815260200160002060040180548060200260200160405190810160405280929190818152602001828054801561247057602002820191906000526020600020905b8160009054906101000a900473ffffffffffffffffffffffffffffffffffffffff1673ffffffffffffffffffffffffffffffffffffffff1681526020019060010190808311612426575b5050505050905090565b612482613135565b600080600090505b600480549050811015612714578480519060200120600482815481106124b3576124b2614100565b5b90600052602060002090600702016000016040516124d19190613f5d565b6040518091039020141561270157600481815481106124f3576124f2614100565b5b906000526020600020906007020181816040518060e001604052908160008201805461251e90613e8c565b80601f016020809104026020016040519081016040528092919081815260200182805461254a90613e8c565b80156125975780601f1061256c57610100808354040283529160200191612597565b820191906000526020600020905b81548152906001019060200180831161257a57829003601f168201915b5050505050815260200160018201548152602001600282015481526020016003820160009054906101000a900460ff161515151581526020016004820180548060200260200160405190810160405280929190818152602001828054801561265457602002820191906000526020600020905b8160009054906101000a900473ffffffffffffffffffffffffffffffffffffffff1673ffffffffffffffffffffffffffffffffffffffff168152602001906001019080831161260a575b50505050508152602001600582018054806020026020016040519081016040528092919081815260200182805480156126e257602002820191906000526020600020905b8160009054906101000a900473ffffffffffffffffffffffffffffffffffffffff1673ffffffffffffffffffffffffffffffffffffffff1681526020019060010190808311612698575b5050505050815260200160068201548152505091509250925050612767565b808061270c9061415e565b91505061248a565b508215612756576040517f08c379a000000000000000000000000000000000000000000000000000000000815260040161274d90614898565b60405180910390fd5b61275e613135565b80600092509250505b9250929050565b60008054906101000a900473ffffffffffffffffffffffffffffffffffffffff1681565b60405180602001604052806000815250805190602001206127b233610eda565b600001518051906020012014156127fe576040517f08c379a00000000000000000000000000000000000000000000000000000000081526004016127f590614426565b60405180910390fd5b8015612af657600260003373ffffffffffffffffffffffffffffffffffffffff1673ffffffffffffffffffffffffffffffffffffffff16815260200190815260200160002060405180608001604052804281526020013373ffffffffffffffffffffffffffffffffffffffff1681526020018573ffffffffffffffffffffffffffffffffffffffff1681526020018481525090806001815401808255809150506001900390600052602060002090600402016000909190919091506000820151816000015560208201518160010160006101000a81548173ffffffffffffffffffffffffffffffffffffffff021916908373ffffffffffffffffffffffffffffffffffffffff16021790555060408201518160020160006101000a81548173ffffffffffffffffffffffffffffffffffffffff021916908373ffffffffffffffffffffffffffffffffffffffff160217905550606082015181600301555050600260008473ffffffffffffffffffffffffffffffffffffffff1673ffffffffffffffffffffffffffffffffffffffff16815260200190815260200160002060405180608001604052804281526020013373ffffffffffffffffffffffffffffffffffffffff1681526020018573ffffffffffffffffffffffffffffffffffffffff1681526020018481525090806001815401808255809150506001900390600052602060002090600402016000909190919091506000820151816000015560208201518160010160006101000a81548173ffffffffffffffffffffffffffffffffffffffff021916908373ffffffffffffffffffffffffffffffffffffffff16021790555060408201518160020160006101000a81548173ffffffffffffffffffffffffffffffffffffffff021916908373ffffffffffffffffffffffffffffffffffffffff1602179055506060820151816003015550507fa3f77c7251c1c7e67c7f892afa5ca0a98096c9119e947663f4a96852c743f430338484604051612ae99392919061427f565b60405180910390a1612de4565b600260008473ffffffffffffffffffffffffffffffffffffffff1673ffffffffffffffffffffffffffffffffffffffff16815260200190815260200160002060405180608001604052804281526020018573ffffffffffffffffffffffffffffffffffffffff1681526020013373ffffffffffffffffffffffffffffffffffffffff1681526020018481525090806001815401808255809150506001900390600052602060002090600402016000909190919091506000820151816000015560208201518160010160006101000a81548173ffffffffffffffffffffffffffffffffffffffff021916908373ffffffffffffffffffffffffffffffffffffffff16021790555060408201518160020160006101000a81548173ffffffffffffffffffffffffffffffffffffffff021916908373ffffffffffffffffffffffffffffffffffffffff160217905550606082015181600301555050600260003373ffffffffffffffffffffffffffffffffffffffff1673ffffffffffffffffffffffffffffffffffffffff16815260200190815260200160002060405180608001604052804281526020018573ffffffffffffffffffffffffffffffffffffffff1681526020013373ffffffffffffffffffffffffffffffffffffffff1681526020018481525090806001815401808255809150506001900390600052602060002090600402016000909190919091506000820151816000015560208201518160010160006101000a81548173ffffffffffffffffffffffffffffffffffffffff021916908373ffffffffffffffffffffffffffffffffffffffff16021790555060408201518160020160006101000a81548173ffffffffffffffffffffffffffffffffffffffff021916908373ffffffffffffffffffffffffffffffffffffffff1602179055506060820151816003015550507fa3f77c7251c1c7e67c7f892afa5ca0a98096c9119e947663f4a96852c743f430833384604051612ddb9392919061427f565b60405180910390a15b505050565b612df1613135565b6000612dfc83610eda565b9050600080612e108360000151600061247a565b915091506000612e1f87610eda565b9050600080612e338360000151600061247a565b9150915085608001518181518110612e4e57612e4d614100565b5b60200260200101600073ffffffffffffffffffffffffffffffffffffffff168152508560048581548110612e8557612e84614100565b5b90600052602060002090600702016000820151816000019080519060200190612eaf929190613174565b50602082015181600101556040820151816002015560608201518160030160006101000a81548160ff0219169083151502179055506080820151816004019080519060200190612f009291906131fa565b5060a0820151816005019080519060200190612f1d9291906131fa565b5060c0820151816006015590505085600360008a73ffffffffffffffffffffffffffffffffffffffff1673ffffffffffffffffffffffffffffffffffffffff1681526020019081526020016000206000820151816000019080519060200190612f87929190613174565b50602082015181600101556040820151816002015560608201518160030160006101000a81548160ff0219169083151502179055506080820151816004019080519060200190612fd89291906131fa565b5060a0820151816005019080519060200190612ff59291906131fa565b5060c0820151816006015590505060008360600190151590811515815250508260a0015160008151811061302c5761302b614100565b5b60200260200101600073ffffffffffffffffffffffffffffffffffffffff1681525082600360008b73ffffffffffffffffffffffffffffffffffffffff1673ffffffffffffffffffffffffffffffffffffffff16815260200190815260200160002060008201518160000190805190602001906130aa929190613174565b50602082015181600101556040820151816002015560608201518160030160006101000a81548160ff02191690831515021790555060808201518160040190805190602001906130fb9291906131fa565b5060a08201518160050190805190602001906131189291906131fa565b5060c0820151816006015590505082965050505050505092915050565b6040518060e001604052806060815260200160008152602001600081526020016000151581526020016060815260200160608152602001600081525090565b82805461318090613e8c565b90600052602060002090601f0160209004810192826131a257600085556131e9565b82601f106131bb57805160ff19168380011785556131e9565b828001600101855582156131e9579182015b828111156131e85782518255916020019190600101906131cd565b5b5090506131f69190613363565b5090565b828054828255906000526020600020908101928215613273579160200282015b828111156132725782518260006101000a81548173ffffffffffffffffffffffffffffffffffffffff021916908373ffffffffffffffffffffffffffffffffffffffff1602179055509160200191906001019061321a565b5b5090506132809190613363565b5090565b82805461329090613e8c565b90600052602060002090601f0160209004810192826132b25760008555613300565b82601f106132c35780548555613300565b8280016001018555821561330057600052602060002091601f016020900482015b828111156132ff5782548255916001019190600101906132e4565b5b50905061330d9190613363565b5090565b8280548282559060005260206000209081019282156133525760005260206000209182015b82811115613351578254825591600101919060010190613336565b5b50905061335f9190613363565b5090565b5b8082111561337c576000816000905550600101613364565b5090565b6000604051905090565b600080fd5b600080fd5b600080fd5b600080fd5b6000601f19601f8301169050919050565b7f4e487b7100000000000000000000000000000000000000000000000000000000600052604160045260246000fd5b6133e78261339e565b810181811067ffffffffffffffff82111715613406576134056133af565b5b80604052505050565b6000613419613380565b905061342582826133de565b919050565b600067ffffffffffffffff821115613445576134446133af565b5b61344e8261339e565b9050602081019050919050565b82818337600083830152505050565b600061347d6134788461342a565b61340f565b90508281526020810184848401111561349957613498613399565b5b6134a484828561345b565b509392505050565b600082601f8301126134c1576134c0613394565b5b81356134d184826020860161346a565b91505092915050565b6000819050919050565b6134ed816134da565b81146134f857600080fd5b50565b60008135905061350a816134e4565b92915050565b60008115159050919050565b61352581613510565b811461353057600080fd5b50565b6000813590506135428161351c565b92915050565b6000806000606084860312156135615761356061338a565b5b600084013567ffffffffffffffff81111561357f5761357e61338f565b5b61358b868287016134ac565b935050602061359c868287016134fb565b92505060406135ad86828701613533565b9150509250925092565b600081519050919050565b600082825260208201905092915050565b60005b838110156135f15780820151818401526020810190506135d6565b83811115613600576000848401525b50505050565b6000613611826135b7565b61361b81856135c2565b935061362b8185602086016135d3565b6136348161339e565b840191505092915050565b613648816134da565b82525050565b61365781613510565b82525050565b600081519050919050565b600082825260208201905092915050565b6000819050602082019050919050565b600073ffffffffffffffffffffffffffffffffffffffff82169050919050565b60006136b482613689565b9050919050565b6136c4816136a9565b82525050565b60006136d683836136bb565b60208301905092915050565b6000602082019050919050565b60006136fa8261365d565b6137048185613668565b935061370f83613679565b8060005b8381101561374057815161372788826136ca565b9750613732836136e2565b925050600181019050613713565b5085935050505092915050565b600060e083016000830151848203600086015261376a8282613606565b915050602083015161377f602086018261363f565b506040830151613792604086018261363f565b5060608301516137a5606086018261364e565b50608083015184820360808601526137bd82826136ef565b91505060a083015184820360a08601526137d782826136ef565b91505060c08301516137ec60c086018261363f565b508091505092915050565b60006020820190508181036000830152613811818461374d565b905092915050565b600082825260208201905092915050565b60006138358261365d565b61383f8185613819565b935061384a83613679565b8060005b8381101561387b57815161386288826136ca565b975061386d836136e2565b92505060018101905061384e565b5085935050505092915050565b600060208201905081810360008301526138a2818461382a565b905092915050565b600081519050919050565b600082825260208201905092915050565b6000819050602082019050919050565b600060e08301600083015184820360008601526138f38282613606565b9150506020830151613908602086018261363f565b50604083015161391b604086018261363f565b50606083015161392e606086018261364e565b506080830151848203608086015261394682826136ef565b91505060a083015184820360a086015261396082826136ef565b91505060c083015161397560c086018261363f565b508091505092915050565b600061398c83836138d6565b905092915050565b6000602082019050919050565b60006139ac826138aa565b6139b681856138b5565b9350836020820285016139c8856138c6565b8060005b85811015613a0457848403895281516139e58582613980565b94506139f083613994565b925060208a019950506001810190506139cc565b50829750879550505050505092915050565b60006020820190508181036000830152613a3081846139a1565b905092915050565b613a41816134da565b82525050565b6000602082019050613a5c6000830184613a38565b92915050565b600060208284031215613a7857613a7761338a565b5b600082013567ffffffffffffffff811115613a9657613a9561338f565b5b613aa2848285016134ac565b91505092915050565b60008060408385031215613ac257613ac161338a565b5b600083013567ffffffffffffffff811115613ae057613adf61338f565b5b613aec858286016134ac565b9250506020613afd85828601613533565b9150509250929050565b60006040820190508181036000830152613b21818561374d565b9050613b306020830184613a38565b9392505050565b613b40816136a9565b8114613b4b57600080fd5b50565b600081359050613b5d81613b37565b92915050565b60008060408385031215613b7a57613b7961338a565b5b6000613b8885828601613b4e565b9250506020613b99858286016134fb565b9150509250929050565b600060208284031215613bb957613bb861338a565b5b6000613bc784828501613b4e565b91505092915050565b600080600060608486031215613be957613be861338a565b5b6000613bf786828701613b4e565b935050602084013567ffffffffffffffff811115613c1857613c1761338f565b5b613c24868287016134ac565b9250506040613c35868287016134fb565b9150509250925092565b6000613c4a82613689565b9050919050565b613c5a81613c3f565b8114613c6557600080fd5b50565b600081359050613c7781613c51565b92915050565b60008060408385031215613c9457613c9361338a565b5b6000613ca285828601613c68565b9250506020613cb3858286016134fb565b9150509250929050565b600081519050919050565b600082825260208201905092915050565b6000819050602082019050919050565b608082016000820151613cff600085018261363f565b506020820151613d1260208501826136bb565b506040820151613d2560408501826136bb565b506060820151613d38606085018261363f565b50505050565b6000613d4a8383613ce9565b60808301905092915050565b6000602082019050919050565b6000613d6e82613cbd565b613d788185613cc8565b9350613d8383613cd9565b8060005b83811015613db4578151613d9b8882613d3e565b9750613da683613d56565b925050600181019050613d87565b5085935050505092915050565b60006020820190508181036000830152613ddb8184613d63565b905092915050565b6000819050919050565b6000613e08613e03613dfe84613689565b613de3565b613689565b9050919050565b6000613e1a82613ded565b9050919050565b6000613e2c82613e0f565b9050919050565b613e3c81613e21565b82525050565b6000602082019050613e576000830184613e33565b92915050565b7f4e487b7100000000000000000000000000000000000000000000000000000000600052602260045260246000fd5b60006002820490506001821680613ea457607f821691505b60208210811415613eb857613eb7613e5d565b5b50919050565b600081905092915050565b60008190508160005260206000209050919050565b60008154613eeb81613e8c565b613ef58186613ebe565b94506001821660008114613f105760018114613f2157613f54565b60ff19831686528186019350613f54565b613f2a85613ec9565b60005b83811015613f4c57815481890152600182019150602081019050613f2d565b838801955050505b50505092915050565b6000613f698284613ede565b915081905092915050565b600082825260208201905092915050565b7f596f7520616c7265616479206861766520616e206163636f756e740000000000600082015250565b6000613fbb601b83613f74565b9150613fc682613f85565b602082019050919050565b60006020820190508181036000830152613fea81613fae565b9050919050565b7f596f752772652061646d696e2021212100000000000000000000000000000000600082015250565b6000614027601083613f74565b915061403282613ff1565b602082019050919050565b600060208201905081810360008301526140568161401a565b9050919050565b6000614068826135b7565b6140728185613f74565b93506140828185602086016135d3565b61408b8161339e565b840191505092915050565b61409f81613510565b82525050565b6140ae816136a9565b82525050565b600060808201905081810360008301526140ce818761405d565b90506140dd6020830186613a38565b6140ea6040830185614096565b6140f760608301846140a5565b95945050505050565b7f4e487b7100000000000000000000000000000000000000000000000000000000600052603260045260246000fd5b7f4e487b7100000000000000000000000000000000000000000000000000000000600052601160045260246000fd5b6000614169826134da565b91507fffffffffffffffffffffffffffffffffffffffffffffffffffffffffffffffff82141561419c5761419b61412f565b5b600182019050919050565b7f546865206368696c6420646964206e6f7420666f756e64000000000000000000600082015250565b60006141dd601783613f74565b91506141e8826141a7565b602082019050919050565b6000602082019050818103600083015261420c816141d0565b9050919050565b7f596f752068617665206e6f7420616e79206368696c6400000000000000000000600082015250565b6000614249601683613f74565b915061425482614213565b602082019050919050565b600060208201905081810360008301526142788161423c565b9050919050565b600060608201905061429460008301866140a5565b6142a160208301856140a5565b6142ae6040830184613a38565b949350505050565b7f596f7520616c7265616479206861766520616e206163636f756e74202863686960008201527f6c64290000000000000000000000000000000000000000000000000000000000602082015250565b6000614312602383613f74565b915061431d826142b6565b604082019050919050565b6000602082019050818103600083015261434181614305565b9050919050565b7f596f752772652061646d696e0000000000000000000000000000000000000000600082015250565b600061437e600c83613f74565b915061438982614348565b602082019050919050565b600060208201905081810360008301526143ad81614371565b9050919050565b7f596f752063616e206c696e6b206163636f756e74206166746572206c6f67676560008201527f6420696e00000000000000000000000000000000000000000000000000000000602082015250565b6000614410602483613f74565b915061441b826143b4565b604082019050919050565b6000602082019050818103600083015261443f81614403565b9050919050565b60006080820190508181036000830152614460818761405d565b905061446f6020830186613a38565b61447c60408301856140a5565b61448960608301846140a5565b95945050505050565b60006020820190506144a760008301846140a5565b92915050565b6000815190506144bc816134e4565b92915050565b6000602082840312156144d8576144d761338a565b5b60006144e6848285016144ad565b91505092915050565b7f596f752776652061206c696d69746564206163636f756e74202c20796f75277260008201527f65206e6f7420616e206164756c74000000000000000000000000000000000000602082015250565b600061454b602e83613f74565b9150614556826144ef565b604082019050919050565b6000602082019050818103600083015261457a8161453e565b9050919050565b600060408201905061459660008301856140a5565b6145a36020830184613a38565b9392505050565b6000815190506145b98161351c565b92915050565b6000602082840312156145d5576145d461338a565b5b60006145e3848285016145aa565b91505092915050565b600060408201905061460160008301856140a5565b61460e60208301846140a5565b9392505050565b7f616c6c6f77616e6365206572726f72202c206f776e65722073686f756c64206960008201527f6e63726561736520796f757220616c6c6f77616e636500000000000000000000602082015250565b6000614671603683613f74565b915061467c82614615565b604082019050919050565b600060208201905081810360008301526146a081614664565b9050919050565b50565b60006146b7600083613ebe565b91506146c2826146a7565b600082019050919050565b60006146d8826146aa565b9150819050919050565b7f4661696c656420746f2073656e64204574686572000000000000000000000000600082015250565b6000614718601483613f74565b9150614723826146e2565b602082019050919050565b600060208201905081810360008301526147478161470b565b9050919050565b7f54686973206163636f756e74206973206e6f74206c696d697465640000000000600082015250565b6000614784601b83613f74565b915061478f8261474e565b602082019050919050565b600060208201905081810360008301526147b381614777565b9050919050565b7f596f75206d757374206265206f776e657220746f2072756e2074686973206d6560008201527f74686f6400000000000000000000000000000000000000000000000000000000602082015250565b6000614816602483613f74565b9150614821826147ba565b604082019050919050565b6000602082019050818103600083015261484581614809565b9050919050565b7f54686520706572736f6e20646964206e6f7420666f756e640000000000000000600082015250565b6000614882601883613f74565b915061488d8261484c565b602082019050919050565b600060208201905081810360008301526148b181614875565b905091905056fea264697066735822122039177e463d530a3ec1dff59d8a4d09cbc24b84e6563e7a243a25c2877d0db19964736f6c63430008090033",
  "linkReferences": {},
  "deployedLinkReferences": {}
}