{
  "_format": "hh-sol-artifact-1",
  "contractName": "BankingApp",
  "sourceName": "contracts/Banking.sol",
  "abi": [
    {
      "inputs": [
        {
          "internalType": "address",
          "name": "_token",
          "type": "address"
        },
        {
          "internalType": "address",
          "name": "_owner",
          "type": "address"
        }
      ],
      "stateMutability": "payable",
      "type": "constructor"
    },
    {
      "anonymous": false,
      "inputs": [
        {
          "indexed": false,
          "internalType": "address",
          "name": "owner",
          "type": "address"
        },
        {
          "indexed": false,
          "internalType": "string",
          "name": "child",
          "type": "string"
        }
      ],
      "name": "BalanceGot",
      "type": "event"
    },
    {
      "anonymous": false,
      "inputs": [
        {
          "indexed": false,
          "internalType": "address",
          "name": "from",
          "type": "address"
        },
        {
          "indexed": false,
          "internalType": "address",
          "name": "to",
          "type": "address"
        },
        {
          "indexed": false,
          "internalType": "uint256",
          "name": "amount",
          "type": "uint256"
        }
      ],
      "name": "InheritumSent",
      "type": "event"
    },
    {
      "anonymous": false,
      "inputs": [
        {
          "indexed": false,
          "internalType": "address",
          "name": "from",
          "type": "address"
        },
        {
          "indexed": false,
          "internalType": "address",
          "name": "to",
          "type": "address"
        },
        {
          "indexed": false,
          "internalType": "string",
          "name": "childName",
          "type": "string"
        },
        {
          "indexed": false,
          "internalType": "uint256",
          "name": "amount",
          "type": "uint256"
        }
      ],
      "name": "SentMoney",
      "type": "event"
    },
    {
      "anonymous": false,
      "inputs": [
        {
          "indexed": false,
          "internalType": "address",
          "name": "recipient",
          "type": "address"
        },
        {
          "indexed": false,
          "internalType": "uint256",
          "name": "amount",
          "type": "uint256"
        }
      ],
      "name": "allowanceTest",
      "type": "event"
    },
    {
      "inputs": [
        {
          "internalType": "uint256",
          "name": "",
          "type": "uint256"
        }
      ],
      "name": "GeneralTransactions",
      "outputs": [
        {
          "internalType": "uint256",
          "name": "timestamp",
          "type": "uint256"
        },
        {
          "internalType": "address",
          "name": "sender",
          "type": "address"
        },
        {
          "internalType": "address",
          "name": "receiver",
          "type": "address"
        },
        {
          "internalType": "uint256",
          "name": "amount",
          "type": "uint256"
        }
      ],
      "stateMutability": "view",
      "type": "function"
    },
    {
      "inputs": [
        {
          "internalType": "string",
          "name": "_name",
          "type": "string"
        },
        {
          "internalType": "uint256",
          "name": "_age",
          "type": "uint256"
        },
        {
          "internalType": "bool",
          "name": "isLimited",
          "type": "bool"
        }
      ],
      "name": "addPerson",
      "outputs": [
        {
          "components": [
            {
              "internalType": "string",
              "name": "name",
              "type": "string"
            },
            {
              "internalType": "uint256",
              "name": "age",
              "type": "uint256"
            },
            {
              "internalType": "uint256",
              "name": "balance",
              "type": "uint256"
            },
            {
              "internalType": "bool",
              "name": "isLimited",
              "type": "bool"
            },
            {
              "internalType": "address[]",
              "name": "children",
              "type": "address[]"
            },
            {
              "internalType": "address[]",
              "name": "parents",
              "type": "address[]"
            },
            {
              "internalType": "uint256",
              "name": "createdTime",
              "type": "uint256"
            }
          ],
          "internalType": "struct BankingApp.Person",
          "name": "",
          "type": "tuple"
        }
      ],
      "stateMutability": "nonpayable",
      "type": "function"
    },
    {
      "inputs": [],
      "name": "balancePool",
      "outputs": [
        {
          "internalType": "uint256",
          "name": "",
          "type": "uint256"
        }
      ],
      "stateMutability": "view",
      "type": "function"
    },
    {
      "inputs": [
        {
          "internalType": "address",
          "name": "to",
          "type": "address"
        }
      ],
      "name": "deposit",
      "outputs": [],
      "stateMutability": "payable",
      "type": "function"
    },
    {
      "inputs": [
        {
          "internalType": "string",
          "name": "_name",
          "type": "string"
        },
        {
          "internalType": "bool",
          "name": "returnErr",
          "type": "bool"
        }
      ],
      "name": "findTheChild",
      "outputs": [
        {
          "components": [
            {
              "internalType": "string",
              "name": "name",
              "type": "string"
            },
            {
              "internalType": "uint256",
              "name": "age",
              "type": "uint256"
            },
            {
              "internalType": "uint256",
              "name": "balance",
              "type": "uint256"
            },
            {
              "internalType": "bool",
              "name": "isLimited",
              "type": "bool"
            },
            {
              "internalType": "address[]",
              "name": "children",
              "type": "address[]"
            },
            {
              "internalType": "address[]",
              "name": "parents",
              "type": "address[]"
            },
            {
              "internalType": "uint256",
              "name": "createdTime",
              "type": "uint256"
            }
          ],
          "internalType": "struct BankingApp.Person",
          "name": "",
          "type": "tuple"
        },
        {
          "internalType": "uint256",
          "name": "index",
          "type": "uint256"
        }
      ],
      "stateMutability": "view",
      "type": "function"
    },
    {
      "inputs": [
        {
          "internalType": "string",
          "name": "_name",
          "type": "string"
        },
        {
          "internalType": "bool",
          "name": "returnErr",
          "type": "bool"
        }
      ],
      "name": "findThePerson",
      "outputs": [
        {
          "components": [
            {
              "internalType": "string",
              "name": "name",
              "type": "string"
            },
            {
              "internalType": "uint256",
              "name": "age",
              "type": "uint256"
            },
            {
              "internalType": "uint256",
              "name": "balance",
              "type": "uint256"
            },
            {
              "internalType": "bool",
              "name": "isLimited",
              "type": "bool"
            },
            {
              "internalType": "address[]",
              "name": "children",
              "type": "address[]"
            },
            {
              "internalType": "address[]",
              "name": "parents",
              "type": "address[]"
            },
            {
              "internalType": "uint256",
              "name": "createdTime",
              "type": "uint256"
            }
          ],
          "internalType": "struct BankingApp.Person",
          "name": "",
          "type": "tuple"
        },
        {
          "internalType": "uint256",
          "name": "index",
          "type": "uint256"
        }
      ],
      "stateMutability": "view",
      "type": "function"
    },
    {
      "inputs": [],
      "name": "getAllTransactionRecorded",
      "outputs": [
        {
          "components": [
            {
              "internalType": "uint256",
              "name": "timestamp",
              "type": "uint256"
            },
            {
              "internalType": "address",
              "name": "sender",
              "type": "address"
            },
            {
              "internalType": "address",
              "name": "receiver",
              "type": "address"
            },
            {
              "internalType": "uint256",
              "name": "amount",
              "type": "uint256"
            }
          ],
          "internalType": "struct BankingApp.Transaction[]",
          "name": "",
          "type": "tuple[]"
        }
      ],
      "stateMutability": "view",
      "type": "function"
    },
    {
      "inputs": [],
      "name": "getBalanceOfInheritumToken",
      "outputs": [
        {
          "internalType": "uint256",
          "name": "",
          "type": "uint256"
        }
      ],
      "stateMutability": "view",
      "type": "function"
    },
    {
      "inputs": [],
      "name": "getChildren",
      "outputs": [
        {
          "internalType": "address[]",
          "name": "",
          "type": "address[]"
        }
      ],
      "stateMutability": "view",
      "type": "function"
    },
    {
      "inputs": [],
      "name": "getMyBalance",
      "outputs": [
        {
          "internalType": "uint256",
          "name": "",
          "type": "uint256"
        }
      ],
      "stateMutability": "view",
      "type": "function"
    },
    {
      "inputs": [],
      "name": "getMyChild",
      "outputs": [
        {
          "internalType": "address[]",
          "name": "",
          "type": "address[]"
        }
      ],
      "stateMutability": "view",
      "type": "function"
    },
    {
      "inputs": [
        {
          "internalType": "string",
          "name": "_name",
          "type": "string"
        }
      ],
      "name": "getMyChildBalance",
      "outputs": [
        {
          "internalType": "uint256",
          "name": "",
          "type": "uint256"
        }
      ],
      "stateMutability": "nonpayable",
      "type": "function"
    },
    {
      "inputs": [],
      "name": "getPersons",
      "outputs": [
        {
          "components": [
            {
              "internalType": "string",
              "name": "name",
              "type": "string"
            },
            {
              "internalType": "uint256",
              "name": "age",
              "type": "uint256"
            },
            {
              "internalType": "uint256",
              "name": "balance",
              "type": "uint256"
            },
            {
              "internalType": "bool",
              "name": "isLimited",
              "type": "bool"
            },
            {
              "internalType": "address[]",
              "name": "children",
              "type": "address[]"
            },
            {
              "internalType": "address[]",
              "name": "parents",
              "type": "address[]"
            },
            {
              "internalType": "uint256",
              "name": "createdTime",
              "type": "uint256"
            }
          ],
          "internalType": "struct BankingApp.Person[]",
          "name": "",
          "type": "tuple[]"
        }
      ],
      "stateMutability": "view",
      "type": "function"
    },
    {
      "inputs": [],
      "name": "getTranscationHistory",
      "outputs": [
        {
          "components": [
            {
              "internalType": "uint256",
              "name": "timestamp",
              "type": "uint256"
            },
            {
              "internalType": "address",
              "name": "sender",
              "type": "address"
            },
            {
              "internalType": "address",
              "name": "receiver",
              "type": "address"
            },
            {
              "internalType": "uint256",
              "name": "amount",
              "type": "uint256"
            }
          ],
          "internalType": "struct BankingApp.Transaction[]",
          "name": "",
          "type": "tuple[]"
        }
      ],
      "stateMutability": "view",
      "type": "function"
    },
    {
      "inputs": [
        {
          "internalType": "address",
          "name": "addr",
          "type": "address"
        }
      ],
      "name": "getUser",
      "outputs": [
        {
          "components": [
            {
              "internalType": "string",
              "name": "name",
              "type": "string"
            },
            {
              "internalType": "uint256",
              "name": "age",
              "type": "uint256"
            },
            {
              "internalType": "uint256",
              "name": "balance",
              "type": "uint256"
            },
            {
              "internalType": "bool",
              "name": "isLimited",
              "type": "bool"
            },
            {
              "internalType": "address[]",
              "name": "children",
              "type": "address[]"
            },
            {
              "internalType": "address[]",
              "name": "parents",
              "type": "address[]"
            },
            {
              "internalType": "uint256",
              "name": "createdTime",
              "type": "uint256"
            }
          ],
          "internalType": "struct BankingApp.Person",
          "name": "",
          "type": "tuple"
        }
      ],
      "stateMutability": "view",
      "type": "function"
    },
    {
      "inputs": [],
      "name": "getUsersAddressByOwner",
      "outputs": [
        {
          "internalType": "address[]",
          "name": "",
          "type": "address[]"
        }
      ],
      "stateMutability": "view",
      "type": "function"
    },
    {
      "inputs": [
        {
          "internalType": "address",
          "name": "childAccount",
          "type": "address"
        },
        {
          "internalType": "string",
          "name": "_name",
          "type": "string"
        },
        {
          "internalType": "uint256",
          "name": "_age",
          "type": "uint256"
        }
      ],
      "name": "linkAccount",
      "outputs": [
        {
          "components": [
            {
              "internalType": "string",
              "name": "name",
              "type": "string"
            },
            {
              "internalType": "uint256",
              "name": "age",
              "type": "uint256"
            },
            {
              "internalType": "uint256",
              "name": "balance",
              "type": "uint256"
            },
            {
              "internalType": "bool",
              "name": "isLimited",
              "type": "bool"
            },
            {
              "internalType": "address[]",
              "name": "children",
              "type": "address[]"
            },
            {
              "internalType": "address[]",
              "name": "parents",
              "type": "address[]"
            },
            {
              "internalType": "uint256",
              "name": "createdTime",
              "type": "uint256"
            }
          ],
          "internalType": "struct BankingApp.Person",
          "name": "",
          "type": "tuple"
        }
      ],
      "stateMutability": "nonpayable",
      "type": "function"
    },
    {
      "inputs": [
        {
          "internalType": "address",
          "name": "linked_account",
          "type": "address"
        }
      ],
      "name": "makeAccountisLimited",
      "outputs": [],
      "stateMutability": "nonpayable",
      "type": "function"
    },
    {
      "inputs": [],
      "name": "myPending",
      "outputs": [
        {
          "internalType": "uint256",
          "name": "",
          "type": "uint256"
        }
      ],
      "stateMutability": "view",
      "type": "function"
    },
    {
      "inputs": [
        {
          "internalType": "address payable",
          "name": "_to",
          "type": "address"
        },
        {
          "internalType": "uint256",
          "name": "amount",
          "type": "uint256"
        }
      ],
      "name": "sendEther",
      "outputs": [],
      "stateMutability": "payable",
      "type": "function"
    },
    {
      "inputs": [
        {
          "internalType": "address",
          "name": "_to",
          "type": "address"
        },
        {
          "internalType": "uint256",
          "name": "_amount",
          "type": "uint256"
        }
      ],
      "name": "sendTokenToChild",
      "outputs": [],
      "stateMutability": "nonpayable",
      "type": "function"
    },
    {
      "inputs": [],
      "name": "token",
      "outputs": [
        {
          "internalType": "contract IERC20",
          "name": "",
          "type": "address"
        }
      ],
      "stateMutability": "view",
      "type": "function"
    },
    {
      "inputs": [
        {
          "internalType": "uint256",
          "name": "",
          "type": "uint256"
        }
      ],
      "name": "user_address",
      "outputs": [
        {
          "internalType": "address",
          "name": "",
          "type": "address"
        }
      ],
      "stateMutability": "view",
      "type": "function"
    },
    {
      "inputs": [],
      "name": "withdraw",
      "outputs": [],
      "stateMutability": "payable",
      "type": "function"
    },
    {
      "inputs": [
        {
          "internalType": "address",
          "name": "to",
          "type": "address"
        }
      ],
      "name": "withdrawBack",
      "outputs": [],
      "stateMutability": "payable",
      "type": "function"
    }
  ],
  "bytecode": "0x6080604052604051620053fa380380620053fa83398181016040528101906200002991906200011c565b816000806101000a81548173ffffffffffffffffffffffffffffffffffffffff021916908373ffffffffffffffffffffffffffffffffffffffff16021790555080600160006101000a81548173ffffffffffffffffffffffffffffffffffffffff021916908373ffffffffffffffffffffffffffffffffffffffff160217905550505062000163565b600080fd5b600073ffffffffffffffffffffffffffffffffffffffff82169050919050565b6000620000e482620000b7565b9050919050565b620000f681620000d7565b81146200010257600080fd5b50565b6000815190506200011681620000eb565b92915050565b60008060408385031215620001365762000135620000b2565b5b6000620001468582860162000105565b9250506020620001598582860162000105565b9150509250929050565b61528780620001736000396000f3fe6080604052600436106101665760003560e01c80638d6ec214116100d1578063dbc1a22b1161008a578063f340fa0111610064578063f340fa0114610531578063f7854f401461054d578063fbf8574d14610578578063fc0c546a146105b657610166565b8063dbc1a22b146104bf578063e2a5a17b146104ea578063ee203fe61461050657610166565b80638d6ec214146103a9578063a5090f97146103e6578063b42fbdfd14610426578063c1756a2c1461044f578063c1a161771461046b578063c81cdec91461049457610166565b80634c6b6c6f116101235780634c6b6c6f146102705780634c7389091461029b57806353a86c94146102c65780635412f1c9146103035780636f77926b1461034157806370eb843b1461037e57610166565b8063032ce9aa1461016b5780632b9d6b1e146101a85780633a34675d146101d35780633ccfd60b146101fe5780634892e8e8146102085780634b696dc914610233575b600080fd5b34801561017757600080fd5b50610192600480360381019061018d9190613fe0565b6105e1565b60405161019f919061428f565b60405180910390f35b3480156101b457600080fd5b506101bd610bbf565b6040516101ca9190614320565b60405180910390f35b3480156101df57600080fd5b506101e8610c4d565b6040516101f59190614446565b60405180910390f35b610206610d6c565b005b34801561021457600080fd5b5061021d610e3f565b60405161022a9190614320565b60405180910390f35b34801561023f57600080fd5b5061025a60048036038101906102559190614468565b610f38565b60405161026791906144a4565b60405180910390f35b34801561027c57600080fd5b50610285610f77565b604051610292919061462b565b60405180910390f35b3480156102a757600080fd5b506102b06111bd565b6040516102bd919061465c565b60405180910390f35b3480156102d257600080fd5b506102ed60048036038101906102e89190614677565b6111dc565b6040516102fa919061465c565b60405180910390f35b34801561030f57600080fd5b5061032a600480360381019061032591906146c0565b611237565b60405161033892919061471c565b60405180910390f35b34801561034d57600080fd5b5061036860048036038101906103639190614778565b61137c565b604051610375919061428f565b60405180910390f35b34801561038a57600080fd5b506103936115bc565b6040516103a0919061465c565b60405180910390f35b3480156103b557600080fd5b506103d060048036038101906103cb91906147a5565b6115c2565b6040516103dd919061428f565b60405180910390f35b3480156103f257600080fd5b5061040d60048036038101906104089190614468565b6121c4565b60405161041d9493929190614814565b60405180910390f35b34801561043257600080fd5b5061044d60048036038101906104489190614859565b612244565b005b610469600480360381019061046491906148d7565b612445565b005b34801561047757600080fd5b50610492600480360381019061048d9190614778565b612613565b005b3480156104a057600080fd5b506104a9612800565b6040516104b6919061465c565b60405180910390f35b3480156104cb57600080fd5b506104d46128b1565b6040516104e19190614446565b60405180910390f35b61050460048036038101906104ff9190614778565b612a0d565b005b34801561051257600080fd5b5061051b612b48565b6040516105289190614320565b60405180910390f35b61054b60048036038101906105469190614778565b612c16565b005b34801561055957600080fd5b50610562612d09565b60405161056f919061465c565b60405180910390f35b34801561058457600080fd5b5061059f600480360381019061059a91906146c0565b612d50565b6040516105ad92919061471c565b60405180910390f35b3480156105c257600080fd5b506105cb613044565b6040516105d89190614976565b60405180910390f35b6105e9613bcd565b6040518060200160405280600081525080519060200120600560003373ffffffffffffffffffffffffffffffffffffffff1673ffffffffffffffffffffffffffffffffffffffff16815260200190815260200160002060000160405161064f9190614a91565b604051809103902014610697576040517f08c379a000000000000000000000000000000000000000000000000000000000815260040161068e90614b05565b60405180910390fd5b600160009054906101000a900473ffffffffffffffffffffffffffffffffffffffff1673ffffffffffffffffffffffffffffffffffffffff163373ffffffffffffffffffffffffffffffffffffffff161415610728576040517f08c379a000000000000000000000000000000000000000000000000000000000815260040161071f90614b71565b60405180910390fd5b6000600560003373ffffffffffffffffffffffffffffffffffffffff1673ffffffffffffffffffffffffffffffffffffffff168152602001908152602001600020905084816000019080519060200190610783929190613c0c565b508381600101819055503373ffffffffffffffffffffffffffffffffffffffff16318160020181905550828160030160006101000a81548160ff021916908315150217905550600067ffffffffffffffff8111156107e4576107e3613e47565b5b6040519080825280602002602001820160405280156108125781602001602082028036833780820191505090505b5081600401908051906020019061082a929190613c92565b50600067ffffffffffffffff81111561084657610845613e47565b5b6040519080825280602002602001820160405280156108745781602001602082028036833780820191505090505b5081600501908051906020019061088c929190613c92565b504281600601819055506000816040518060e00160405290816000820180546108b4906149c0565b80601f01602080910402602001604051908101604052809291908181526020018280546108e0906149c0565b801561092d5780601f106109025761010080835404028352916020019161092d565b820191906000526020600020905b81548152906001019060200180831161091057829003601f168201915b5050505050815260200160018201548152602001600282015481526020016003820160009054906101000a900460ff16151515158152602001600482018054806020026020016040519081016040528092919081815260200182805480156109ea57602002820191906000526020600020905b8160009054906101000a900473ffffffffffffffffffffffffffffffffffffffff1673ffffffffffffffffffffffffffffffffffffffff16815260200190600101908083116109a0575b5050505050815260200160058201805480602002602001604051908101604052809291908181526020018280548015610a7857602002820191906000526020600020905b8160009054906101000a900473ffffffffffffffffffffffffffffffffffffffff1673ffffffffffffffffffffffffffffffffffffffff1681526020019060010190808311610a2e575b50505050508152602001600682015481525050905060068190806001815401808255809150506001900390600052602060002090600702016000909190919091506000820151816000019080519060200190610ad5929190613c0c565b50602082015181600101556040820151816002015560608201518160030160006101000a81548160ff0219169083151502179055506080820151816004019080519060200190610b26929190613c92565b5060a0820151816005019080519060200190610b43929190613c92565b5060c0820151816006015550506003339080600181540180825580915050600190039060005260206000200160009091909190916101000a81548173ffffffffffffffffffffffffffffffffffffffff021916908373ffffffffffffffffffffffffffffffffffffffff16021790555080925050509392505050565b60606003805480602002602001604051908101604052809291908181526020018280548015610c4357602002820191906000526020600020905b8160009054906101000a900473ffffffffffffffffffffffffffffffffffffffff1673ffffffffffffffffffffffffffffffffffffffff1681526020019060010190808311610bf9575b5050505050905090565b60606002805480602002602001604051908101604052809291908181526020016000905b82821015610d635783829060005260206000209060040201604051806080016040529081600082015481526020016001820160009054906101000a900473ffffffffffffffffffffffffffffffffffffffff1673ffffffffffffffffffffffffffffffffffffffff1673ffffffffffffffffffffffffffffffffffffffff1681526020016002820160009054906101000a900473ffffffffffffffffffffffffffffffffffffffff1673ffffffffffffffffffffffffffffffffffffffff1673ffffffffffffffffffffffffffffffffffffffff16815260200160038201548152505081526020019060010190610c71565b50505050905090565b6000600860003373ffffffffffffffffffffffffffffffffffffffff1673ffffffffffffffffffffffffffffffffffffffff1681526020019081526020016000205490506000600860003373ffffffffffffffffffffffffffffffffffffffff1673ffffffffffffffffffffffffffffffffffffffff168152602001908152602001600020819055503373ffffffffffffffffffffffffffffffffffffffff166108fc829081150290604051600060405180830381858888f19350505050158015610e3b573d6000803e3d6000fd5b5050565b60606000610e4c3361137c565b9050600081608001515167ffffffffffffffff811115610e6f57610e6e613e47565b5b604051908082528060200260200182016040528015610e9d5781602001602082028036833780820191505090505b50905060005b826080015151811015610f2f5782608001518181518110610ec757610ec6614b91565b5b6020026020010151828281518110610ee257610ee1614b91565b5b602002602001019073ffffffffffffffffffffffffffffffffffffffff16908173ffffffffffffffffffffffffffffffffffffffff16815250508080610f2790614bef565b915050610ea3565b50809250505090565b60038181548110610f4857600080fd5b906000526020600020016000915054906101000a900473ffffffffffffffffffffffffffffffffffffffff1681565b60606006805480602002602001604051908101604052809291908181526020016000905b828210156111b457838290600052602060002090600702016040518060e0016040529081600082018054610fce906149c0565b80601f0160208091040260200160405190810160405280929190818152602001828054610ffa906149c0565b80156110475780601f1061101c57610100808354040283529160200191611047565b820191906000526020600020905b81548152906001019060200180831161102a57829003601f168201915b5050505050815260200160018201548152602001600282015481526020016003820160009054906101000a900460ff161515151581526020016004820180548060200260200160405190810160405280929190818152602001828054801561110457602002820191906000526020600020905b8160009054906101000a900473ffffffffffffffffffffffffffffffffffffffff1673ffffffffffffffffffffffffffffffffffffffff16815260200190600101908083116110ba575b505050505081526020016005820180548060200260200160405190810160405280929190818152602001828054801561119257602002820191906000526020600020905b8160009054906101000a900473ffffffffffffffffffffffffffffffffffffffff1673ffffffffffffffffffffffffffffffffffffffff1681526020019060010190808311611148575b5050505050815260200160068201548152505081526020019060010190610f9b565b50505050905090565b60003373ffffffffffffffffffffffffffffffffffffffff1631905090565b6000806111ea836001611237565b5090507f43bffc0f95fb1b5cd921e2fa994fd3abf463eefb09b4b0fffddb4d365c172528338260000151604051611222929190614c71565b60405180910390a18060400151915050919050565b61123f613bcd565b60008061124b3361137c565b9050600081608001515190506001811061133a5760005b818110156112e15760008360800151828151811061128357611282614b91565b5b6020026020010151905060006112988261137c565b6000015190508880519060200120818051906020012014156112cc576112bd8261137c565b83965096505050505050611375565b505080806112d990614bef565b915050611262565b508415611323576040517f08c379a000000000000000000000000000000000000000000000000000000000815260040161131a90614ced565b60405180910390fd5b61132b613bcd565b80600094509450505050611375565b6040517f08c379a000000000000000000000000000000000000000000000000000000000815260040161136c90614d59565b60405180910390fd5b9250929050565b611384613bcd565b600560008373ffffffffffffffffffffffffffffffffffffffff1673ffffffffffffffffffffffffffffffffffffffff1681526020019081526020016000206040518060e00160405290816000820180546113de906149c0565b80601f016020809104026020016040519081016040528092919081815260200182805461140a906149c0565b80156114575780601f1061142c57610100808354040283529160200191611457565b820191906000526020600020905b81548152906001019060200180831161143a57829003601f168201915b5050505050815260200160018201548152602001600282015481526020016003820160009054906101000a900460ff161515151581526020016004820180548060200260200160405190810160405280929190818152602001828054801561151457602002820191906000526020600020905b8160009054906101000a900473ffffffffffffffffffffffffffffffffffffffff1673ffffffffffffffffffffffffffffffffffffffff16815260200190600101908083116114ca575b50505050508152602001600582018054806020026020016040519081016040528092919081815260200182805480156115a257602002820191906000526020600020905b8160009054906101000a900473ffffffffffffffffffffffffffffffffffffffff1673ffffffffffffffffffffffffffffffffffffffff1681526020019060010190808311611558575b505050505081526020016006820154815250509050919050565b60075481565b6115ca613bcd565b600160009054906101000a900473ffffffffffffffffffffffffffffffffffffffff1673ffffffffffffffffffffffffffffffffffffffff163373ffffffffffffffffffffffffffffffffffffffff16141561165b576040517f08c379a000000000000000000000000000000000000000000000000000000000815260040161165290614dc5565b60405180910390fd5b604051806020016040528060008152508051906020012061167b3361137c565b600001518051906020012014156116c7576040517f08c379a00000000000000000000000000000000000000000000000000000000081526004016116be90614e57565b60405180910390fd5b6000600560003373ffffffffffffffffffffffffffffffffffffffff1673ffffffffffffffffffffffffffffffffffffffff168152602001908152602001600020905080600401859080600181540180825580915050600190039060005260206000200160009091909190916101000a81548173ffffffffffffffffffffffffffffffffffffffff021916908373ffffffffffffffffffffffffffffffffffffffff16021790555080600560003373ffffffffffffffffffffffffffffffffffffffff1673ffffffffffffffffffffffffffffffffffffffff16815260200190815260200160002060008201816000019080546117c3906149c0565b6117ce929190613d1c565b5060018201548160010155600282015481600201556003820160009054906101000a900460ff168160030160006101000a81548160ff0219169083151502179055506004820181600401908054611826929190613da9565b50600582018160050190805461183d929190613da9565b50600682015481600601559050506000806118e5836000018054611860906149c0565b80601f016020809104026020016040519081016040528092919081815260200182805461188c906149c0565b80156118d95780601f106118ae576101008083540402835291602001916118d9565b820191906000526020600020905b8154815290600101906020018083116118bc57829003601f168201915b50505050506000612d50565b91509150600681815481106118fd576118fc614b91565b5b9060005260206000209060070201600401879080600181540180825580915050600190039060005260206000200160009091909190916101000a81548173ffffffffffffffffffffffffffffffffffffffff021916908373ffffffffffffffffffffffffffffffffffffffff1602179055506040518060200160405280600081525080519060200120600560008973ffffffffffffffffffffffffffffffffffffffff1673ffffffffffffffffffffffffffffffffffffffff1681526020019081526020016000206000016040516119d59190614a91565b604051809103902014611d425760006119ed8861137c565b905060008160a0015151905060008260a0015190506040518060e001604052808a815260200189815260200160008152602001600115158152602001600067ffffffffffffffff811115611a4457611a43613e47565b5b604051908082528060200260200182016040528015611a725781602001602082028036833780820191505090505b508152602001600184611a859190614e77565b67ffffffffffffffff811115611a9e57611a9d613e47565b5b604051908082528060200260200182016040528015611acc5781602001602082028036833780820191505090505b50815260200142815250600560008c73ffffffffffffffffffffffffffffffffffffffff1673ffffffffffffffffffffffffffffffffffffffff1681526020019081526020016000206000820151816000019080519060200190611b31929190613c0c565b50602082015181600101556040820151816002015560608201518160030160006101000a81548160ff0219169083151502179055506080820151816004019080519060200190611b82929190613c92565b5060a0820151816005019080519060200190611b9f929190613c92565b5060c0820151816006015590505060005b600183611bbd9190614e77565b811015611d395782811415611c6e5733600560008d73ffffffffffffffffffffffffffffffffffffffff1673ffffffffffffffffffffffffffffffffffffffff1681526020019081526020016000206005018281548110611c2157611c20614b91565b5b9060005260206000200160006101000a81548173ffffffffffffffffffffffffffffffffffffffff021916908373ffffffffffffffffffffffffffffffffffffffff160217905550611d26565b818181518110611c8157611c80614b91565b5b6020026020010151600560008d73ffffffffffffffffffffffffffffffffffffffff1673ffffffffffffffffffffffffffffffffffffffff1681526020019081526020016000206005018281548110611cdd57611cdc614b91565b5b9060005260206000200160006101000a81548173ffffffffffffffffffffffffffffffffffffffff021916908373ffffffffffffffffffffffffffffffffffffffff1602179055505b8080611d3190614bef565b915050611bb0565b50505050611f81565b6040518060e0016040528087815260200186815260200160008152602001600115158152602001600067ffffffffffffffff811115611d8457611d83613e47565b5b604051908082528060200260200182016040528015611db25781602001602082028036833780820191505090505b508152602001600167ffffffffffffffff811115611dd357611dd2613e47565b5b604051908082528060200260200182016040528015611e015781602001602082028036833780820191505090505b50815260200142815250600560008973ffffffffffffffffffffffffffffffffffffffff1673ffffffffffffffffffffffffffffffffffffffff1681526020019081526020016000206000820151816000019080519060200190611e66929190613c0c565b50602082015181600101556040820151816002015560608201518160030160006101000a81548160ff0219169083151502179055506080820151816004019080519060200190611eb7929190613c92565b5060a0820151816005019080519060200190611ed4929190613c92565b5060c0820151816006015590505033600560008973ffffffffffffffffffffffffffffffffffffffff1673ffffffffffffffffffffffffffffffffffffffff168152602001908152602001600020600501600081548110611f3857611f37614b91565b5b9060005260206000200160006101000a81548173ffffffffffffffffffffffffffffffffffffffff021916908373ffffffffffffffffffffffffffffffffffffffff1602179055505b6000600560003373ffffffffffffffffffffffffffffffffffffffff1673ffffffffffffffffffffffffffffffffffffffff1681526020019081526020016000206040518060e0016040529081600082018054611fdd906149c0565b80601f0160208091040260200160405190810160405280929190818152602001828054612009906149c0565b80156120565780601f1061202b57610100808354040283529160200191612056565b820191906000526020600020905b81548152906001019060200180831161203957829003601f168201915b5050505050815260200160018201548152602001600282015481526020016003820160009054906101000a900460ff161515151581526020016004820180548060200260200160405190810160405280929190818152602001828054801561211357602002820191906000526020600020905b8160009054906101000a900473ffffffffffffffffffffffffffffffffffffffff1673ffffffffffffffffffffffffffffffffffffffff16815260200190600101908083116120c9575b50505050508152602001600582018054806020026020016040519081016040528092919081815260200182805480156121a157602002820191906000526020600020905b8160009054906101000a900473ffffffffffffffffffffffffffffffffffffffff1673ffffffffffffffffffffffffffffffffffffffff1681526020019060010190808311612157575b505050505081526020016006820154815250509050809450505050509392505050565b600281815481106121d457600080fd5b90600052602060002090600402016000915090508060000154908060010160009054906101000a900473ffffffffffffffffffffffffffffffffffffffff16908060020160009054906101000a900473ffffffffffffffffffffffffffffffffffffffff16908060030154905084565b808060008054906101000a900473ffffffffffffffffffffffffffffffffffffffff1673ffffffffffffffffffffffffffffffffffffffff166370a08231336040518263ffffffff1660e01b815260040161229f91906144a4565b60206040518083038186803b1580156122b757600080fd5b505afa1580156122cb573d6000803e3d6000fd5b505050506040513d601f19601f820116820180604052508101906122ef9190614ee2565b10156122fa57600080fd5b600560003373ffffffffffffffffffffffffffffffffffffffff1673ffffffffffffffffffffffffffffffffffffffff16815260200190815260200160002060030160009054906101000a900460ff166000151581151514612391576040517f08c379a000000000000000000000000000000000000000000000000000000000815260040161238890614f81565b60405180910390fd5b60008054906101000a900473ffffffffffffffffffffffffffffffffffffffff1673ffffffffffffffffffffffffffffffffffffffff1663a9059cbb85856040518363ffffffff1660e01b81526004016123ec929190614fa1565b602060405180830381600087803b15801561240657600080fd5b505af115801561241a573d6000803e3d6000fd5b505050506040513d601f19601f8201168201806040525081019061243e9190614fdf565b5050505050565b600560003373ffffffffffffffffffffffffffffffffffffffff1673ffffffffffffffffffffffffffffffffffffffff16815260200190815260200160002060030160009054906101000a900460ff1660001515811515146124dc576040517f08c379a00000000000000000000000000000000000000000000000000000000081526004016124d390614f81565b60405180910390fd5b60008373ffffffffffffffffffffffffffffffffffffffff168360405161250290615032565b60006040518083038185875af1925050503d806000811461253f576040519150601f19603f3d011682016040523d82523d6000602084013e612544565b606091505b5050905080612588576040517f08c379a000000000000000000000000000000000000000000000000000000000815260040161257f90615093565b60405180910390fd5b61259484846001613068565b600061259f8561137c565b90506001151581606001511515141561260c5783600560008773ffffffffffffffffffffffffffffffffffffffff1673ffffffffffffffffffffffffffffffffffffffff16815260200190815260200160002060020160008282546126049190614e77565b925050819055505b5050505050565b80600115156126218261137c565b60600151151514612667576040517f08c379a000000000000000000000000000000000000000000000000000000000815260040161265e906150ff565b60405180910390fd5b600160009054906101000a900473ffffffffffffffffffffffffffffffffffffffff1673ffffffffffffffffffffffffffffffffffffffff163373ffffffffffffffffffffffffffffffffffffffff16146126f7576040517f08c379a00000000000000000000000000000000000000000000000000000000081526004016126ee90615191565b60405180910390fd5b60006127028361137c565b905060008160a0015160008151811061271e5761271d614b91565b5b6020026020010151905060006127348583613881565b90506006819080600181540180825580915050600190039060005260206000209060070201600090919091909150600082015181600001908051906020019061277e929190613c0c565b50602082015181600101556040820151816002015560608201518160030160006101000a81548160ff02191690831515021790555060808201518160040190805190602001906127cf929190613c92565b5060a08201518160050190805190602001906127ec929190613c92565b5060c0820151816006015550505050505050565b60008060009054906101000a900473ffffffffffffffffffffffffffffffffffffffff1673ffffffffffffffffffffffffffffffffffffffff166370a08231336040518263ffffffff1660e01b815260040161285c91906144a4565b60206040518083038186803b15801561287457600080fd5b505afa158015612888573d6000803e3d6000fd5b505050506040513d601f19601f820116820180604052508101906128ac9190614ee2565b905090565b6060600460003373ffffffffffffffffffffffffffffffffffffffff1673ffffffffffffffffffffffffffffffffffffffff168152602001908152602001600020805480602002602001604051908101604052809291908181526020016000905b82821015612a045783829060005260206000209060040201604051806080016040529081600082015481526020016001820160009054906101000a900473ffffffffffffffffffffffffffffffffffffffff1673ffffffffffffffffffffffffffffffffffffffff1673ffffffffffffffffffffffffffffffffffffffff1681526020016002820160009054906101000a900473ffffffffffffffffffffffffffffffffffffffff1673ffffffffffffffffffffffffffffffffffffffff1673ffffffffffffffffffffffffffffffffffffffff16815260200160038201548152505081526020019060010190612912565b50505050905090565b6000600960003373ffffffffffffffffffffffffffffffffffffffff1673ffffffffffffffffffffffffffffffffffffffff16815260200190815260200160002060008373ffffffffffffffffffffffffffffffffffffffff1673ffffffffffffffffffffffffffffffffffffffff1681526020019081526020016000205490508060076000828254612aa091906151b1565b9250508190555080600860008473ffffffffffffffffffffffffffffffffffffffff1673ffffffffffffffffffffffffffffffffffffffff1681526020019081526020016000206000828254612af691906151b1565b925050819055503373ffffffffffffffffffffffffffffffffffffffff166108fc829081150290604051600060405180830381858888f19350505050158015612b43573d6000803e3d6000fd5b505050565b6060600560003373ffffffffffffffffffffffffffffffffffffffff1673ffffffffffffffffffffffffffffffffffffffff168152602001908152602001600020600401805480602002602001604051908101604052809291908181526020018280548015612c0c57602002820191906000526020600020905b8160009054906101000a900473ffffffffffffffffffffffffffffffffffffffff1673ffffffffffffffffffffffffffffffffffffffff1681526020019060010190808311612bc2575b5050505050905090565b3460076000828254612c289190614e77565b9250508190555034600860008373ffffffffffffffffffffffffffffffffffffffff1673ffffffffffffffffffffffffffffffffffffffff1681526020019081526020016000206000828254612c7e9190614e77565b9250508190555034600960003373ffffffffffffffffffffffffffffffffffffffff1673ffffffffffffffffffffffffffffffffffffffff16815260200190815260200160002060008373ffffffffffffffffffffffffffffffffffffffff1673ffffffffffffffffffffffffffffffffffffffff1681526020019081526020016000208190555050565b6000600860003373ffffffffffffffffffffffffffffffffffffffff1673ffffffffffffffffffffffffffffffffffffffff16815260200190815260200160002054905090565b612d58613bcd565b600080600090505b600680549050811015612fea57848051906020012060068281548110612d8957612d88614b91565b5b9060005260206000209060070201600001604051612da79190614a91565b60405180910390201415612fd75760068181548110612dc957612dc8614b91565b5b906000526020600020906007020181816040518060e0016040529081600082018054612df4906149c0565b80601f0160208091040260200160405190810160405280929190818152602001828054612e20906149c0565b8015612e6d5780601f10612e4257610100808354040283529160200191612e6d565b820191906000526020600020905b815481529060010190602001808311612e5057829003601f168201915b5050505050815260200160018201548152602001600282015481526020016003820160009054906101000a900460ff1615151515815260200160048201805480602002602001604051908101604052809291908181526020018280548015612f2a57602002820191906000526020600020905b8160009054906101000a900473ffffffffffffffffffffffffffffffffffffffff1673ffffffffffffffffffffffffffffffffffffffff1681526020019060010190808311612ee0575b5050505050815260200160058201805480602002602001604051908101604052809291908181526020018280548015612fb857602002820191906000526020600020905b8160009054906101000a900473ffffffffffffffffffffffffffffffffffffffff1673ffffffffffffffffffffffffffffffffffffffff1681526020019060010190808311612f6e575b505050505081526020016006820154815250509150925092505061303d565b8080612fe290614bef565b915050612d60565b50821561302c576040517f08c379a000000000000000000000000000000000000000000000000000000000815260040161302390615231565b60405180910390fd5b613034613bcd565b80600092509250505b9250929050565b60008054906101000a900473ffffffffffffffffffffffffffffffffffffffff1681565b60405180602001604052806000815250805190602001206130883361137c565b600001518051906020012014156130d4576040517f08c379a00000000000000000000000000000000000000000000000000000000081526004016130cb90614e57565b60405180910390fd5b80156134ad57600460003373ffffffffffffffffffffffffffffffffffffffff1673ffffffffffffffffffffffffffffffffffffffff16815260200190815260200160002060405180608001604052804281526020013373ffffffffffffffffffffffffffffffffffffffff1681526020018573ffffffffffffffffffffffffffffffffffffffff1681526020018481525090806001815401808255809150506001900390600052602060002090600402016000909190919091506000820151816000015560208201518160010160006101000a81548173ffffffffffffffffffffffffffffffffffffffff021916908373ffffffffffffffffffffffffffffffffffffffff16021790555060408201518160020160006101000a81548173ffffffffffffffffffffffffffffffffffffffff021916908373ffffffffffffffffffffffffffffffffffffffff160217905550606082015181600301555050600260405180608001604052804281526020013373ffffffffffffffffffffffffffffffffffffffff1681526020018573ffffffffffffffffffffffffffffffffffffffff1681526020018481525090806001815401808255809150506001900390600052602060002090600402016000909190919091506000820151816000015560208201518160010160006101000a81548173ffffffffffffffffffffffffffffffffffffffff021916908373ffffffffffffffffffffffffffffffffffffffff16021790555060408201518160020160006101000a81548173ffffffffffffffffffffffffffffffffffffffff021916908373ffffffffffffffffffffffffffffffffffffffff160217905550606082015181600301555050600460008473ffffffffffffffffffffffffffffffffffffffff1673ffffffffffffffffffffffffffffffffffffffff16815260200190815260200160002060405180608001604052804281526020013373ffffffffffffffffffffffffffffffffffffffff1681526020018573ffffffffffffffffffffffffffffffffffffffff1681526020018481525090806001815401808255809150506001900390600052602060002090600402016000909190919091506000820151816000015560208201518160010160006101000a81548173ffffffffffffffffffffffffffffffffffffffff021916908373ffffffffffffffffffffffffffffffffffffffff16021790555060408201518160020160006101000a81548173ffffffffffffffffffffffffffffffffffffffff021916908373ffffffffffffffffffffffffffffffffffffffff16021790555060608201518160030155505061387c565b600460008473ffffffffffffffffffffffffffffffffffffffff1673ffffffffffffffffffffffffffffffffffffffff16815260200190815260200160002060405180608001604052804281526020018573ffffffffffffffffffffffffffffffffffffffff1681526020013373ffffffffffffffffffffffffffffffffffffffff1681526020018481525090806001815401808255809150506001900390600052602060002090600402016000909190919091506000820151816000015560208201518160010160006101000a81548173ffffffffffffffffffffffffffffffffffffffff021916908373ffffffffffffffffffffffffffffffffffffffff16021790555060408201518160020160006101000a81548173ffffffffffffffffffffffffffffffffffffffff021916908373ffffffffffffffffffffffffffffffffffffffff160217905550606082015181600301555050600460003373ffffffffffffffffffffffffffffffffffffffff1673ffffffffffffffffffffffffffffffffffffffff16815260200190815260200160002060405180608001604052804281526020018573ffffffffffffffffffffffffffffffffffffffff1681526020013373ffffffffffffffffffffffffffffffffffffffff1681526020018481525090806001815401808255809150506001900390600052602060002090600402016000909190919091506000820151816000015560208201518160010160006101000a81548173ffffffffffffffffffffffffffffffffffffffff021916908373ffffffffffffffffffffffffffffffffffffffff16021790555060408201518160020160006101000a81548173ffffffffffffffffffffffffffffffffffffffff021916908373ffffffffffffffffffffffffffffffffffffffff160217905550606082015181600301555050600260405180608001604052804281526020018573ffffffffffffffffffffffffffffffffffffffff1681526020013373ffffffffffffffffffffffffffffffffffffffff1681526020018481525090806001815401808255809150506001900390600052602060002090600402016000909190919091506000820151816000015560208201518160010160006101000a81548173ffffffffffffffffffffffffffffffffffffffff021916908373ffffffffffffffffffffffffffffffffffffffff16021790555060408201518160020160006101000a81548173ffffffffffffffffffffffffffffffffffffffff021916908373ffffffffffffffffffffffffffffffffffffffff1602179055506060820151816003015550505b505050565b613889613bcd565b60006138948361137c565b90506000806138a883600001516000612d50565b9150915060006138b78761137c565b90506000806138cb83600001516000612d50565b91509150856080015181815181106138e6576138e5614b91565b5b60200260200101600073ffffffffffffffffffffffffffffffffffffffff16815250856006858154811061391d5761391c614b91565b5b90600052602060002090600702016000820151816000019080519060200190613947929190613c0c565b50602082015181600101556040820151816002015560608201518160030160006101000a81548160ff0219169083151502179055506080820151816004019080519060200190613998929190613c92565b5060a08201518160050190805190602001906139b5929190613c92565b5060c0820151816006015590505085600560008a73ffffffffffffffffffffffffffffffffffffffff1673ffffffffffffffffffffffffffffffffffffffff1681526020019081526020016000206000820151816000019080519060200190613a1f929190613c0c565b50602082015181600101556040820151816002015560608201518160030160006101000a81548160ff0219169083151502179055506080820151816004019080519060200190613a70929190613c92565b5060a0820151816005019080519060200190613a8d929190613c92565b5060c0820151816006015590505060008360600190151590811515815250508260a00151600081518110613ac457613ac3614b91565b5b60200260200101600073ffffffffffffffffffffffffffffffffffffffff1681525082600560008b73ffffffffffffffffffffffffffffffffffffffff1673ffffffffffffffffffffffffffffffffffffffff1681526020019081526020016000206000820151816000019080519060200190613b42929190613c0c565b50602082015181600101556040820151816002015560608201518160030160006101000a81548160ff0219169083151502179055506080820151816004019080519060200190613b93929190613c92565b5060a0820151816005019080519060200190613bb0929190613c92565b5060c0820151816006015590505082965050505050505092915050565b6040518060e001604052806060815260200160008152602001600081526020016000151581526020016060815260200160608152602001600081525090565b828054613c18906149c0565b90600052602060002090601f016020900481019282613c3a5760008555613c81565b82601f10613c5357805160ff1916838001178555613c81565b82800160010185558215613c81579182015b82811115613c80578251825591602001919060010190613c65565b5b509050613c8e9190613dfb565b5090565b828054828255906000526020600020908101928215613d0b579160200282015b82811115613d0a5782518260006101000a81548173ffffffffffffffffffffffffffffffffffffffff021916908373ffffffffffffffffffffffffffffffffffffffff16021790555091602001919060010190613cb2565b5b509050613d189190613dfb565b5090565b828054613d28906149c0565b90600052602060002090601f016020900481019282613d4a5760008555613d98565b82601f10613d5b5780548555613d98565b82800160010185558215613d9857600052602060002091601f016020900482015b82811115613d97578254825591600101919060010190613d7c565b5b509050613da59190613dfb565b5090565b828054828255906000526020600020908101928215613dea5760005260206000209182015b82811115613de9578254825591600101919060010190613dce565b5b509050613df79190613dfb565b5090565b5b80821115613e14576000816000905550600101613dfc565b5090565b6000604051905090565b600080fd5b600080fd5b600080fd5b600080fd5b6000601f19601f8301169050919050565b7f4e487b7100000000000000000000000000000000000000000000000000000000600052604160045260246000fd5b613e7f82613e36565b810181811067ffffffffffffffff82111715613e9e57613e9d613e47565b5b80604052505050565b6000613eb1613e18565b9050613ebd8282613e76565b919050565b600067ffffffffffffffff821115613edd57613edc613e47565b5b613ee682613e36565b9050602081019050919050565b82818337600083830152505050565b6000613f15613f1084613ec2565b613ea7565b905082815260208101848484011115613f3157613f30613e31565b5b613f3c848285613ef3565b509392505050565b600082601f830112613f5957613f58613e2c565b5b8135613f69848260208601613f02565b91505092915050565b6000819050919050565b613f8581613f72565b8114613f9057600080fd5b50565b600081359050613fa281613f7c565b92915050565b60008115159050919050565b613fbd81613fa8565b8114613fc857600080fd5b50565b600081359050613fda81613fb4565b92915050565b600080600060608486031215613ff957613ff8613e22565b5b600084013567ffffffffffffffff81111561401757614016613e27565b5b61402386828701613f44565b935050602061403486828701613f93565b925050604061404586828701613fcb565b9150509250925092565b600081519050919050565b600082825260208201905092915050565b60005b8381101561408957808201518184015260208101905061406e565b83811115614098576000848401525b50505050565b60006140a98261404f565b6140b3818561405a565b93506140c381856020860161406b565b6140cc81613e36565b840191505092915050565b6140e081613f72565b82525050565b6140ef81613fa8565b82525050565b600081519050919050565b600082825260208201905092915050565b6000819050602082019050919050565b600073ffffffffffffffffffffffffffffffffffffffff82169050919050565b600061414c82614121565b9050919050565b61415c81614141565b82525050565b600061416e8383614153565b60208301905092915050565b6000602082019050919050565b6000614192826140f5565b61419c8185614100565b93506141a783614111565b8060005b838110156141d85781516141bf8882614162565b97506141ca8361417a565b9250506001810190506141ab565b5085935050505092915050565b600060e0830160008301518482036000860152614202828261409e565b915050602083015161421760208601826140d7565b50604083015161422a60408601826140d7565b50606083015161423d60608601826140e6565b50608083015184820360808601526142558282614187565b91505060a083015184820360a086015261426f8282614187565b91505060c083015161428460c08601826140d7565b508091505092915050565b600060208201905081810360008301526142a981846141e5565b905092915050565b600082825260208201905092915050565b60006142cd826140f5565b6142d781856142b1565b93506142e283614111565b8060005b838110156143135781516142fa8882614162565b97506143058361417a565b9250506001810190506142e6565b5085935050505092915050565b6000602082019050818103600083015261433a81846142c2565b905092915050565b600081519050919050565b600082825260208201905092915050565b6000819050602082019050919050565b60808201600082015161438460008501826140d7565b5060208201516143976020850182614153565b5060408201516143aa6040850182614153565b5060608201516143bd60608501826140d7565b50505050565b60006143cf838361436e565b60808301905092915050565b6000602082019050919050565b60006143f382614342565b6143fd818561434d565b93506144088361435e565b8060005b8381101561443957815161442088826143c3565b975061442b836143db565b92505060018101905061440c565b5085935050505092915050565b6000602082019050818103600083015261446081846143e8565b905092915050565b60006020828403121561447e5761447d613e22565b5b600061448c84828501613f93565b91505092915050565b61449e81614141565b82525050565b60006020820190506144b96000830184614495565b92915050565b600081519050919050565b600082825260208201905092915050565b6000819050602082019050919050565b600060e0830160008301518482036000860152614508828261409e565b915050602083015161451d60208601826140d7565b50604083015161453060408601826140d7565b50606083015161454360608601826140e6565b506080830151848203608086015261455b8282614187565b91505060a083015184820360a08601526145758282614187565b91505060c083015161458a60c08601826140d7565b508091505092915050565b60006145a183836144eb565b905092915050565b6000602082019050919050565b60006145c1826144bf565b6145cb81856144ca565b9350836020820285016145dd856144db565b8060005b8581101561461957848403895281516145fa8582614595565b9450614605836145a9565b925060208a019950506001810190506145e1565b50829750879550505050505092915050565b6000602082019050818103600083015261464581846145b6565b905092915050565b61465681613f72565b82525050565b6000602082019050614671600083018461464d565b92915050565b60006020828403121561468d5761468c613e22565b5b600082013567ffffffffffffffff8111156146ab576146aa613e27565b5b6146b784828501613f44565b91505092915050565b600080604083850312156146d7576146d6613e22565b5b600083013567ffffffffffffffff8111156146f5576146f4613e27565b5b61470185828601613f44565b925050602061471285828601613fcb565b9150509250929050565b6000604082019050818103600083015261473681856141e5565b9050614745602083018461464d565b9392505050565b61475581614141565b811461476057600080fd5b50565b6000813590506147728161474c565b92915050565b60006020828403121561478e5761478d613e22565b5b600061479c84828501614763565b91505092915050565b6000806000606084860312156147be576147bd613e22565b5b60006147cc86828701614763565b935050602084013567ffffffffffffffff8111156147ed576147ec613e27565b5b6147f986828701613f44565b925050604061480a86828701613f93565b9150509250925092565b6000608082019050614829600083018761464d565b6148366020830186614495565b6148436040830185614495565b614850606083018461464d565b95945050505050565b600080604083850312156148705761486f613e22565b5b600061487e85828601614763565b925050602061488f85828601613f93565b9150509250929050565b60006148a482614121565b9050919050565b6148b481614899565b81146148bf57600080fd5b50565b6000813590506148d1816148ab565b92915050565b600080604083850312156148ee576148ed613e22565b5b60006148fc858286016148c2565b925050602061490d85828601613f93565b9150509250929050565b6000819050919050565b600061493c61493761493284614121565b614917565b614121565b9050919050565b600061494e82614921565b9050919050565b600061496082614943565b9050919050565b61497081614955565b82525050565b600060208201905061498b6000830184614967565b92915050565b7f4e487b7100000000000000000000000000000000000000000000000000000000600052602260045260246000fd5b600060028204905060018216806149d857607f821691505b602082108114156149ec576149eb614991565b5b50919050565b600081905092915050565b60008190508160005260206000209050919050565b60008154614a1f816149c0565b614a2981866149f2565b94506001821660008114614a445760018114614a5557614a88565b60ff19831686528186019350614a88565b614a5e856149fd565b60005b83811015614a8057815481890152600182019150602081019050614a61565b838801955050505b50505092915050565b6000614a9d8284614a12565b915081905092915050565b600082825260208201905092915050565b7f596f7520616c7265616479206861766520616e206163636f756e740000000000600082015250565b6000614aef601b83614aa8565b9150614afa82614ab9565b602082019050919050565b60006020820190508181036000830152614b1e81614ae2565b9050919050565b7f596f752772652061646d696e2021212100000000000000000000000000000000600082015250565b6000614b5b601083614aa8565b9150614b6682614b25565b602082019050919050565b60006020820190508181036000830152614b8a81614b4e565b9050919050565b7f4e487b7100000000000000000000000000000000000000000000000000000000600052603260045260246000fd5b7f4e487b7100000000000000000000000000000000000000000000000000000000600052601160045260246000fd5b6000614bfa82613f72565b91507fffffffffffffffffffffffffffffffffffffffffffffffffffffffffffffffff821415614c2d57614c2c614bc0565b5b600182019050919050565b6000614c438261404f565b614c4d8185614aa8565b9350614c5d81856020860161406b565b614c6681613e36565b840191505092915050565b6000604082019050614c866000830185614495565b8181036020830152614c988184614c38565b90509392505050565b7f546865206368696c6420646964206e6f7420666f756e64000000000000000000600082015250565b6000614cd7601783614aa8565b9150614ce282614ca1565b602082019050919050565b60006020820190508181036000830152614d0681614cca565b9050919050565b7f596f752068617665206e6f7420616e79206368696c6400000000000000000000600082015250565b6000614d43601683614aa8565b9150614d4e82614d0d565b602082019050919050565b60006020820190508181036000830152614d7281614d36565b9050919050565b7f596f752772652061646d696e0000000000000000000000000000000000000000600082015250565b6000614daf600c83614aa8565b9150614dba82614d79565b602082019050919050565b60006020820190508181036000830152614dde81614da2565b9050919050565b7f596f752063616e206c696e6b206163636f756e74206166746572206c6f67676560008201527f6420696e00000000000000000000000000000000000000000000000000000000602082015250565b6000614e41602483614aa8565b9150614e4c82614de5565b604082019050919050565b60006020820190508181036000830152614e7081614e34565b9050919050565b6000614e8282613f72565b9150614e8d83613f72565b9250827fffffffffffffffffffffffffffffffffffffffffffffffffffffffffffffffff03821115614ec257614ec1614bc0565b5b828201905092915050565b600081519050614edc81613f7c565b92915050565b600060208284031215614ef857614ef7613e22565b5b6000614f0684828501614ecd565b91505092915050565b7f596f752776652061206c696d69746564206163636f756e74202c20796f75277260008201527f65206e6f7420616e206164756c74000000000000000000000000000000000000602082015250565b6000614f6b602e83614aa8565b9150614f7682614f0f565b604082019050919050565b60006020820190508181036000830152614f9a81614f5e565b9050919050565b6000604082019050614fb66000830185614495565b614fc3602083018461464d565b9392505050565b600081519050614fd981613fb4565b92915050565b600060208284031215614ff557614ff4613e22565b5b600061500384828501614fca565b91505092915050565b50565b600061501c6000836149f2565b91506150278261500c565b600082019050919050565b600061503d8261500f565b9150819050919050565b7f4661696c656420746f2073656e64204574686572000000000000000000000000600082015250565b600061507d601483614aa8565b915061508882615047565b602082019050919050565b600060208201905081810360008301526150ac81615070565b9050919050565b7f54686973206163636f756e74206973206e6f74206c696d697465640000000000600082015250565b60006150e9601b83614aa8565b91506150f4826150b3565b602082019050919050565b60006020820190508181036000830152615118816150dc565b9050919050565b7f596f75206d757374206265206f776e657220746f2072756e2074686973206d6560008201527f74686f6400000000000000000000000000000000000000000000000000000000602082015250565b600061517b602483614aa8565b91506151868261511f565b604082019050919050565b600060208201905081810360008301526151aa8161516e565b9050919050565b60006151bc82613f72565b91506151c783613f72565b9250828210156151da576151d9614bc0565b5b828203905092915050565b7f54686520706572736f6e20646964206e6f7420666f756e640000000000000000600082015250565b600061521b601883614aa8565b9150615226826151e5565b602082019050919050565b6000602082019050818103600083015261524a8161520e565b905091905056fea26469706673582212203de30b79444a1c74b7ea02afdc8b549e5001d22ceb511dea467c97e93d000d3564736f6c63430008090033",
  "linkReferences": {},
  "deployedLinkReferences": {}
}