{
  "_format": "hh-sol-artifact-1",
  "contractName": "BankingApp",
  "sourceName": "contracts/Banking.sol",
  "abi": [
    {
      "inputs": [
        {
          "internalType": "address",
          "name": "_token",
          "type": "address"
        },
        {
          "internalType": "address",
          "name": "_owner",
          "type": "address"
        }
      ],
      "stateMutability": "payable",
      "type": "constructor"
    },
    {
      "anonymous": false,
      "inputs": [
        {
          "indexed": false,
          "internalType": "address",
          "name": "owner",
          "type": "address"
        },
        {
          "indexed": false,
          "internalType": "string",
          "name": "child",
          "type": "string"
        }
      ],
      "name": "BalanceGot",
      "type": "event"
    },
    {
      "anonymous": false,
      "inputs": [
        {
          "indexed": false,
          "internalType": "address",
          "name": "from",
          "type": "address"
        },
        {
          "indexed": false,
          "internalType": "address",
          "name": "to",
          "type": "address"
        },
        {
          "indexed": false,
          "internalType": "uint256",
          "name": "amount",
          "type": "uint256"
        }
      ],
      "name": "InheritumSent",
      "type": "event"
    },
    {
      "anonymous": false,
      "inputs": [
        {
          "indexed": false,
          "internalType": "address",
          "name": "from",
          "type": "address"
        },
        {
          "indexed": false,
          "internalType": "address",
          "name": "to",
          "type": "address"
        },
        {
          "indexed": false,
          "internalType": "string",
          "name": "childName",
          "type": "string"
        },
        {
          "indexed": false,
          "internalType": "uint256",
          "name": "amount",
          "type": "uint256"
        }
      ],
      "name": "SentMoney",
      "type": "event"
    },
    {
      "anonymous": false,
      "inputs": [
        {
          "indexed": false,
          "internalType": "address",
          "name": "recipient",
          "type": "address"
        },
        {
          "indexed": false,
          "internalType": "uint256",
          "name": "amount",
          "type": "uint256"
        }
      ],
      "name": "allowanceTest",
      "type": "event"
    },
    {
      "inputs": [
        {
          "internalType": "uint256",
          "name": "",
          "type": "uint256"
        }
      ],
      "name": "GeneralTransactions",
      "outputs": [
        {
          "internalType": "uint256",
          "name": "timestamp",
          "type": "uint256"
        },
        {
          "internalType": "address",
          "name": "sender",
          "type": "address"
        },
        {
          "internalType": "address",
          "name": "receiver",
          "type": "address"
        },
        {
          "internalType": "uint256",
          "name": "amount",
          "type": "uint256"
        }
      ],
      "stateMutability": "view",
      "type": "function"
    },
    {
      "inputs": [
        {
          "internalType": "string",
          "name": "_name",
          "type": "string"
        },
        {
          "internalType": "string",
          "name": "_age",
          "type": "string"
        },
        {
          "internalType": "bool",
          "name": "isLimited",
          "type": "bool"
        }
      ],
      "name": "addPerson",
      "outputs": [
        {
          "components": [
            {
              "internalType": "string",
              "name": "name",
              "type": "string"
            },
            {
              "internalType": "string",
              "name": "agestring",
              "type": "string"
            },
            {
              "internalType": "uint256",
              "name": "balance",
              "type": "uint256"
            },
            {
              "internalType": "bool",
              "name": "isLimited",
              "type": "bool"
            },
            {
              "internalType": "address[]",
              "name": "children",
              "type": "address[]"
            },
            {
              "internalType": "address[]",
              "name": "parents",
              "type": "address[]"
            },
            {
              "internalType": "uint256",
              "name": "createdTime",
              "type": "uint256"
            }
          ],
          "internalType": "struct BankingApp.Person",
          "name": "",
          "type": "tuple"
        }
      ],
      "stateMutability": "nonpayable",
      "type": "function"
    },
    {
      "inputs": [],
      "name": "balancePool",
      "outputs": [
        {
          "internalType": "uint256",
          "name": "",
          "type": "uint256"
        }
      ],
      "stateMutability": "view",
      "type": "function"
    },
    {
      "inputs": [
        {
          "internalType": "address",
          "name": "to",
          "type": "address"
        }
      ],
      "name": "deposit",
      "outputs": [],
      "stateMutability": "payable",
      "type": "function"
    },
    {
      "inputs": [
        {
          "internalType": "string",
          "name": "_name",
          "type": "string"
        },
        {
          "internalType": "bool",
          "name": "returnErr",
          "type": "bool"
        }
      ],
      "name": "findTheChild",
      "outputs": [
        {
          "components": [
            {
              "internalType": "string",
              "name": "name",
              "type": "string"
            },
            {
              "internalType": "string",
              "name": "agestring",
              "type": "string"
            },
            {
              "internalType": "uint256",
              "name": "balance",
              "type": "uint256"
            },
            {
              "internalType": "bool",
              "name": "isLimited",
              "type": "bool"
            },
            {
              "internalType": "address[]",
              "name": "children",
              "type": "address[]"
            },
            {
              "internalType": "address[]",
              "name": "parents",
              "type": "address[]"
            },
            {
              "internalType": "uint256",
              "name": "createdTime",
              "type": "uint256"
            }
          ],
          "internalType": "struct BankingApp.Person",
          "name": "",
          "type": "tuple"
        },
        {
          "internalType": "uint256",
          "name": "index",
          "type": "uint256"
        }
      ],
      "stateMutability": "view",
      "type": "function"
    },
    {
      "inputs": [
        {
          "internalType": "string",
          "name": "_name",
          "type": "string"
        },
        {
          "internalType": "bool",
          "name": "returnErr",
          "type": "bool"
        }
      ],
      "name": "findThePerson",
      "outputs": [
        {
          "components": [
            {
              "internalType": "string",
              "name": "name",
              "type": "string"
            },
            {
              "internalType": "string",
              "name": "agestring",
              "type": "string"
            },
            {
              "internalType": "uint256",
              "name": "balance",
              "type": "uint256"
            },
            {
              "internalType": "bool",
              "name": "isLimited",
              "type": "bool"
            },
            {
              "internalType": "address[]",
              "name": "children",
              "type": "address[]"
            },
            {
              "internalType": "address[]",
              "name": "parents",
              "type": "address[]"
            },
            {
              "internalType": "uint256",
              "name": "createdTime",
              "type": "uint256"
            }
          ],
          "internalType": "struct BankingApp.Person",
          "name": "",
          "type": "tuple"
        },
        {
          "internalType": "uint256",
          "name": "index",
          "type": "uint256"
        }
      ],
      "stateMutability": "view",
      "type": "function"
    },
    {
      "inputs": [],
      "name": "getAllTransactionRecorded",
      "outputs": [
        {
          "components": [
            {
              "internalType": "uint256",
              "name": "timestamp",
              "type": "uint256"
            },
            {
              "internalType": "address",
              "name": "sender",
              "type": "address"
            },
            {
              "internalType": "address",
              "name": "receiver",
              "type": "address"
            },
            {
              "internalType": "uint256",
              "name": "amount",
              "type": "uint256"
            }
          ],
          "internalType": "struct BankingApp.Transaction[]",
          "name": "",
          "type": "tuple[]"
        }
      ],
      "stateMutability": "view",
      "type": "function"
    },
    {
      "inputs": [],
      "name": "getBalanceOfInheritumToken",
      "outputs": [
        {
          "internalType": "uint256",
          "name": "",
          "type": "uint256"
        }
      ],
      "stateMutability": "view",
      "type": "function"
    },
    {
      "inputs": [],
      "name": "getChildren",
      "outputs": [
        {
          "internalType": "address[]",
          "name": "",
          "type": "address[]"
        }
      ],
      "stateMutability": "view",
      "type": "function"
    },
    {
      "inputs": [],
      "name": "getMyBalance",
      "outputs": [
        {
          "internalType": "uint256",
          "name": "",
          "type": "uint256"
        }
      ],
      "stateMutability": "view",
      "type": "function"
    },
    {
      "inputs": [],
      "name": "getMyChild",
      "outputs": [
        {
          "internalType": "address[]",
          "name": "",
          "type": "address[]"
        }
      ],
      "stateMutability": "view",
      "type": "function"
    },
    {
      "inputs": [
        {
          "internalType": "string",
          "name": "_name",
          "type": "string"
        }
      ],
      "name": "getMyChildBalance",
      "outputs": [
        {
          "internalType": "uint256",
          "name": "",
          "type": "uint256"
        }
      ],
      "stateMutability": "nonpayable",
      "type": "function"
    },
    {
      "inputs": [
        {
          "internalType": "address",
          "name": "user_address",
          "type": "address"
        }
      ],
      "name": "getPending",
      "outputs": [
        {
          "internalType": "uint256",
          "name": "",
          "type": "uint256"
        }
      ],
      "stateMutability": "view",
      "type": "function"
    },
    {
      "inputs": [],
      "name": "getPersons",
      "outputs": [
        {
          "components": [
            {
              "internalType": "string",
              "name": "name",
              "type": "string"
            },
            {
              "internalType": "string",
              "name": "agestring",
              "type": "string"
            },
            {
              "internalType": "uint256",
              "name": "balance",
              "type": "uint256"
            },
            {
              "internalType": "bool",
              "name": "isLimited",
              "type": "bool"
            },
            {
              "internalType": "address[]",
              "name": "children",
              "type": "address[]"
            },
            {
              "internalType": "address[]",
              "name": "parents",
              "type": "address[]"
            },
            {
              "internalType": "uint256",
              "name": "createdTime",
              "type": "uint256"
            }
          ],
          "internalType": "struct BankingApp.Person[]",
          "name": "",
          "type": "tuple[]"
        }
      ],
      "stateMutability": "view",
      "type": "function"
    },
    {
      "inputs": [],
      "name": "getTranscationHistory",
      "outputs": [
        {
          "components": [
            {
              "internalType": "uint256",
              "name": "timestamp",
              "type": "uint256"
            },
            {
              "internalType": "address",
              "name": "sender",
              "type": "address"
            },
            {
              "internalType": "address",
              "name": "receiver",
              "type": "address"
            },
            {
              "internalType": "uint256",
              "name": "amount",
              "type": "uint256"
            }
          ],
          "internalType": "struct BankingApp.Transaction[]",
          "name": "",
          "type": "tuple[]"
        }
      ],
      "stateMutability": "view",
      "type": "function"
    },
    {
      "inputs": [
        {
          "internalType": "address",
          "name": "addr",
          "type": "address"
        }
      ],
      "name": "getUser",
      "outputs": [
        {
          "components": [
            {
              "internalType": "string",
              "name": "name",
              "type": "string"
            },
            {
              "internalType": "string",
              "name": "agestring",
              "type": "string"
            },
            {
              "internalType": "uint256",
              "name": "balance",
              "type": "uint256"
            },
            {
              "internalType": "bool",
              "name": "isLimited",
              "type": "bool"
            },
            {
              "internalType": "address[]",
              "name": "children",
              "type": "address[]"
            },
            {
              "internalType": "address[]",
              "name": "parents",
              "type": "address[]"
            },
            {
              "internalType": "uint256",
              "name": "createdTime",
              "type": "uint256"
            }
          ],
          "internalType": "struct BankingApp.Person",
          "name": "",
          "type": "tuple"
        }
      ],
      "stateMutability": "view",
      "type": "function"
    },
    {
      "inputs": [],
      "name": "getUsersAddressByOwner",
      "outputs": [
        {
          "internalType": "address[]",
          "name": "",
          "type": "address[]"
        }
      ],
      "stateMutability": "view",
      "type": "function"
    },
    {
      "inputs": [
        {
          "internalType": "address",
          "name": "childAccount",
          "type": "address"
        },
        {
          "internalType": "string",
          "name": "_name",
          "type": "string"
        },
        {
          "internalType": "string",
          "name": "ageString",
          "type": "string"
        }
      ],
      "name": "linkAccount",
      "outputs": [
        {
          "components": [
            {
              "internalType": "string",
              "name": "name",
              "type": "string"
            },
            {
              "internalType": "string",
              "name": "agestring",
              "type": "string"
            },
            {
              "internalType": "uint256",
              "name": "balance",
              "type": "uint256"
            },
            {
              "internalType": "bool",
              "name": "isLimited",
              "type": "bool"
            },
            {
              "internalType": "address[]",
              "name": "children",
              "type": "address[]"
            },
            {
              "internalType": "address[]",
              "name": "parents",
              "type": "address[]"
            },
            {
              "internalType": "uint256",
              "name": "createdTime",
              "type": "uint256"
            }
          ],
          "internalType": "struct BankingApp.Person",
          "name": "",
          "type": "tuple"
        }
      ],
      "stateMutability": "nonpayable",
      "type": "function"
    },
    {
      "inputs": [],
      "name": "makeAccountisLimited",
      "outputs": [],
      "stateMutability": "nonpayable",
      "type": "function"
    },
    {
      "inputs": [
        {
          "internalType": "address payable",
          "name": "_to",
          "type": "address"
        },
        {
          "internalType": "uint256",
          "name": "amount",
          "type": "uint256"
        }
      ],
      "name": "sendEther",
      "outputs": [],
      "stateMutability": "payable",
      "type": "function"
    },
    {
      "inputs": [
        {
          "internalType": "address",
          "name": "_to",
          "type": "address"
        },
        {
          "internalType": "uint256",
          "name": "_amount",
          "type": "uint256"
        }
      ],
      "name": "sendTokenToChild",
      "outputs": [],
      "stateMutability": "nonpayable",
      "type": "function"
    },
    {
      "inputs": [],
      "name": "token",
      "outputs": [
        {
          "internalType": "contract IERC20",
          "name": "",
          "type": "address"
        }
      ],
      "stateMutability": "view",
      "type": "function"
    },
    {
      "inputs": [
        {
          "internalType": "uint256",
          "name": "",
          "type": "uint256"
        }
      ],
      "name": "user_address",
      "outputs": [
        {
          "internalType": "address",
          "name": "",
          "type": "address"
        }
      ],
      "stateMutability": "view",
      "type": "function"
    },
    {
      "inputs": [],
      "name": "withdraw",
      "outputs": [],
      "stateMutability": "payable",
      "type": "function"
    },
    {
      "inputs": [
        {
          "internalType": "address",
          "name": "to",
          "type": "address"
        }
      ],
      "name": "withdrawBack",
      "outputs": [],
      "stateMutability": "payable",
      "type": "function"
    }
  ],
  "bytecode": "0x6080604052604051620056b7380380620056b783398181016040528101906200002991906200011c565b816000806101000a81548173ffffffffffffffffffffffffffffffffffffffff021916908373ffffffffffffffffffffffffffffffffffffffff16021790555080600160006101000a81548173ffffffffffffffffffffffffffffffffffffffff021916908373ffffffffffffffffffffffffffffffffffffffff160217905550505062000163565b600080fd5b600073ffffffffffffffffffffffffffffffffffffffff82169050919050565b6000620000e482620000b7565b9050919050565b620000f681620000d7565b81146200010257600080fd5b50565b6000815190506200011681620000eb565b92915050565b60008060408385031215620001365762000135620000b2565b5b6000620001468582860162000105565b9250506020620001598582860162000105565b9150509250929050565b61554480620001736000396000f3fe6080604052600436106101665760003560e01c806370eb843b116100d1578063d086c2541161008a578063ee203fe611610064578063ee203fe614610531578063f340fa011461055c578063fbf8574d14610578578063fc0c546a146105b657610166565b8063d086c254146104ad578063dbc1a22b146104ea578063e2a5a17b1461051557610166565b806370eb843b146103bb578063a5090f97146103e6578063a8b3ba0214610426578063b42fbdfd1461043d578063c1756a2c14610466578063c81cdec91461048257610166565b80634c6b6c6f116101235780634c6b6c6f146102705780634c7389091461029b57806353a86c94146102c65780635412f1c9146103035780635a86bfd9146103415780636f77926b1461037e57610166565b806327d86db71461016b5780632b9d6b1e146101a85780633a34675d146101d35780633ccfd60b146101fe5780634892e8e8146102085780634b696dc914610233575b600080fd5b34801561017757600080fd5b50610192600480360381019061018d91906142b3565b6105e1565b60405161019f919061458f565b60405180910390f35b3480156101b457600080fd5b506101bd610c6a565b6040516101ca9190614620565b60405180910390f35b3480156101df57600080fd5b506101e8610cf8565b6040516101f59190614746565b60405180910390f35b610206610e17565b005b34801561021457600080fd5b5061021d610eea565b60405161022a9190614620565b60405180910390f35b34801561023f57600080fd5b5061025a60048036038101906102559190614794565b610fe3565b60405161026791906147d0565b60405180910390f35b34801561027c57600080fd5b50610285611022565b604051610292919061495e565b60405180910390f35b3480156102a757600080fd5b506102b06112f0565b6040516102bd919061498f565b60405180910390f35b3480156102d257600080fd5b506102ed60048036038101906102e891906149aa565b61130f565b6040516102fa919061498f565b60405180910390f35b34801561030f57600080fd5b5061032a600480360381019061032591906149f3565b61136a565b604051610338929190614a4f565b60405180910390f35b34801561034d57600080fd5b5061036860048036038101906103639190614aab565b6114af565b604051610375919061458f565b60405180910390f35b34801561038a57600080fd5b506103a560048036038101906103a09190614b36565b612175565b6040516103b2919061458f565b60405180910390f35b3480156103c757600080fd5b506103d061243d565b6040516103dd919061498f565b60405180910390f35b3480156103f257600080fd5b5061040d60048036038101906104089190614794565b612443565b60405161041d9493929190614b63565b60405180910390f35b34801561043257600080fd5b5061043b6124c3565b005b34801561044957600080fd5b50610464600480360381019061045f9190614ba8565b612616565b005b610480600480360381019061047b9190614c26565b612817565b005b34801561048e57600080fd5b506104976129e5565b6040516104a4919061498f565b60405180910390f35b3480156104b957600080fd5b506104d460048036038101906104cf9190614b36565b612a96565b6040516104e1919061498f565b60405180910390f35b3480156104f657600080fd5b506104ff612adf565b60405161050c9190614746565b60405180910390f35b61052f600480360381019061052a9190614b36565b612c3b565b005b34801561053d57600080fd5b50610546612d76565b6040516105539190614620565b60405180910390f35b61057660048036038101906105719190614b36565b612e44565b005b34801561058457600080fd5b5061059f600480360381019061059a91906149f3565b612f37565b6040516105ad929190614a4f565b60405180910390f35b3480156105c257600080fd5b506105cb6132b3565b6040516105d89190614cc5565b60405180910390f35b6105e9613ed6565b6040518060200160405280600081525080519060200120600560003373ffffffffffffffffffffffffffffffffffffffff1673ffffffffffffffffffffffffffffffffffffffff16815260200190815260200160002060000160405161064f9190614de0565b604051809103902014610697576040517f08c379a000000000000000000000000000000000000000000000000000000000815260040161068e90614e54565b60405180910390fd5b600160009054906101000a900473ffffffffffffffffffffffffffffffffffffffff1673ffffffffffffffffffffffffffffffffffffffff163373ffffffffffffffffffffffffffffffffffffffff161415610728576040517f08c379a000000000000000000000000000000000000000000000000000000000815260040161071f90614ec0565b60405180910390fd5b6000600560003373ffffffffffffffffffffffffffffffffffffffff1673ffffffffffffffffffffffffffffffffffffffff168152602001908152602001600020905084816000019080519060200190610783929190613f15565b508381600101908051906020019061079c929190613f15565b503373ffffffffffffffffffffffffffffffffffffffff16318160020181905550828160030160006101000a81548160ff021916908315150217905550600067ffffffffffffffff8111156107f4576107f3614150565b5b6040519080825280602002602001820160405280156108225781602001602082028036833780820191505090505b5081600401908051906020019061083a929190613f9b565b50600067ffffffffffffffff81111561085657610855614150565b5b6040519080825280602002602001820160405280156108845781602001602082028036833780820191505090505b5081600501908051906020019061089c929190613f9b565b504281600601819055506000816040518060e00160405290816000820180546108c490614d0f565b80601f01602080910402602001604051908101604052809291908181526020018280546108f090614d0f565b801561093d5780601f106109125761010080835404028352916020019161093d565b820191906000526020600020905b81548152906001019060200180831161092057829003601f168201915b5050505050815260200160018201805461095690614d0f565b80601f016020809104026020016040519081016040528092919081815260200182805461098290614d0f565b80156109cf5780601f106109a4576101008083540402835291602001916109cf565b820191906000526020600020905b8154815290600101906020018083116109b257829003601f168201915b50505050508152602001600282015481526020016003820160009054906101000a900460ff1615151515815260200160048201805480602002602001604051908101604052809291908181526020018280548015610a8257602002820191906000526020600020905b8160009054906101000a900473ffffffffffffffffffffffffffffffffffffffff1673ffffffffffffffffffffffffffffffffffffffff1681526020019060010190808311610a38575b5050505050815260200160058201805480602002602001604051908101604052809291908181526020018280548015610b1057602002820191906000526020600020905b8160009054906101000a900473ffffffffffffffffffffffffffffffffffffffff1673ffffffffffffffffffffffffffffffffffffffff1681526020019060010190808311610ac6575b50505050508152602001600682015481525050905060068190806001815401808255809150506001900390600052602060002090600702016000909190919091506000820151816000019080519060200190610b6d929190613f15565b506020820151816001019080519060200190610b8a929190613f15565b506040820151816002015560608201518160030160006101000a81548160ff0219169083151502179055506080820151816004019080519060200190610bd1929190613f9b565b5060a0820151816005019080519060200190610bee929190613f9b565b5060c0820151816006015550506003339080600181540180825580915050600190039060005260206000200160009091909190916101000a81548173ffffffffffffffffffffffffffffffffffffffff021916908373ffffffffffffffffffffffffffffffffffffffff16021790555080925050509392505050565b60606003805480602002602001604051908101604052809291908181526020018280548015610cee57602002820191906000526020600020905b8160009054906101000a900473ffffffffffffffffffffffffffffffffffffffff1673ffffffffffffffffffffffffffffffffffffffff1681526020019060010190808311610ca4575b5050505050905090565b60606002805480602002602001604051908101604052809291908181526020016000905b82821015610e0e5783829060005260206000209060040201604051806080016040529081600082015481526020016001820160009054906101000a900473ffffffffffffffffffffffffffffffffffffffff1673ffffffffffffffffffffffffffffffffffffffff1673ffffffffffffffffffffffffffffffffffffffff1681526020016002820160009054906101000a900473ffffffffffffffffffffffffffffffffffffffff1673ffffffffffffffffffffffffffffffffffffffff1673ffffffffffffffffffffffffffffffffffffffff16815260200160038201548152505081526020019060010190610d1c565b50505050905090565b6000600860003373ffffffffffffffffffffffffffffffffffffffff1673ffffffffffffffffffffffffffffffffffffffff1681526020019081526020016000205490506000600860003373ffffffffffffffffffffffffffffffffffffffff1673ffffffffffffffffffffffffffffffffffffffff168152602001908152602001600020819055503373ffffffffffffffffffffffffffffffffffffffff166108fc829081150290604051600060405180830381858888f19350505050158015610ee6573d6000803e3d6000fd5b5050565b60606000610ef733612175565b9050600081608001515167ffffffffffffffff811115610f1a57610f19614150565b5b604051908082528060200260200182016040528015610f485781602001602082028036833780820191505090505b50905060005b826080015151811015610fda5782608001518181518110610f7257610f71614ee0565b5b6020026020010151828281518110610f8d57610f8c614ee0565b5b602002602001019073ffffffffffffffffffffffffffffffffffffffff16908173ffffffffffffffffffffffffffffffffffffffff16815250508080610fd290614f3e565b915050610f4e565b50809250505090565b60038181548110610ff357600080fd5b906000526020600020016000915054906101000a900473ffffffffffffffffffffffffffffffffffffffff1681565b60606006805480602002602001604051908101604052809291908181526020016000905b828210156112e757838290600052602060002090600702016040518060e001604052908160008201805461107990614d0f565b80601f01602080910402602001604051908101604052809291908181526020018280546110a590614d0f565b80156110f25780601f106110c7576101008083540402835291602001916110f2565b820191906000526020600020905b8154815290600101906020018083116110d557829003601f168201915b5050505050815260200160018201805461110b90614d0f565b80601f016020809104026020016040519081016040528092919081815260200182805461113790614d0f565b80156111845780601f1061115957610100808354040283529160200191611184565b820191906000526020600020905b81548152906001019060200180831161116757829003601f168201915b50505050508152602001600282015481526020016003820160009054906101000a900460ff161515151581526020016004820180548060200260200160405190810160405280929190818152602001828054801561123757602002820191906000526020600020905b8160009054906101000a900473ffffffffffffffffffffffffffffffffffffffff1673ffffffffffffffffffffffffffffffffffffffff16815260200190600101908083116111ed575b50505050508152602001600582018054806020026020016040519081016040528092919081815260200182805480156112c557602002820191906000526020600020905b8160009054906101000a900473ffffffffffffffffffffffffffffffffffffffff1673ffffffffffffffffffffffffffffffffffffffff168152602001906001019080831161127b575b5050505050815260200160068201548152505081526020019060010190611046565b50505050905090565b60003373ffffffffffffffffffffffffffffffffffffffff1631905090565b60008061131d83600161136a565b5090507f43bffc0f95fb1b5cd921e2fa994fd3abf463eefb09b4b0fffddb4d365c172528338260000151604051611355929190614fc0565b60405180910390a18060400151915050919050565b611372613ed6565b60008061137e33612175565b9050600081608001515190506001811061146d5760005b81811015611414576000836080015182815181106113b6576113b5614ee0565b5b6020026020010151905060006113cb82612175565b6000015190508880519060200120818051906020012014156113ff576113f082612175565b839650965050505050506114a8565b5050808061140c90614f3e565b915050611395565b508415611456576040517f08c379a000000000000000000000000000000000000000000000000000000000815260040161144d9061503c565b60405180910390fd5b61145e613ed6565b806000945094505050506114a8565b6040517f08c379a000000000000000000000000000000000000000000000000000000000815260040161149f906150a8565b60405180910390fd5b9250929050565b6114b7613ed6565b600160009054906101000a900473ffffffffffffffffffffffffffffffffffffffff1673ffffffffffffffffffffffffffffffffffffffff163373ffffffffffffffffffffffffffffffffffffffff161415611548576040517f08c379a000000000000000000000000000000000000000000000000000000000815260040161153f90615114565b60405180910390fd5b604051806020016040528060008152508051906020012061156833612175565b600001518051906020012014156115b4576040517f08c379a00000000000000000000000000000000000000000000000000000000081526004016115ab906151a6565b60405180910390fd5b6000600560003373ffffffffffffffffffffffffffffffffffffffff1673ffffffffffffffffffffffffffffffffffffffff168152602001908152602001600020905080600401859080600181540180825580915050600190039060005260206000200160009091909190916101000a81548173ffffffffffffffffffffffffffffffffffffffff021916908373ffffffffffffffffffffffffffffffffffffffff16021790555080600560003373ffffffffffffffffffffffffffffffffffffffff1673ffffffffffffffffffffffffffffffffffffffff16815260200190815260200160002060008201816000019080546116b090614d0f565b6116bb929190614025565b5060018201816001019080546116d090614d0f565b6116db929190614025565b50600282015481600201556003820160009054906101000a900460ff168160030160006101000a81548160ff02191690831515021790555060048201816004019080546117299291906140b2565b5060058201816005019080546117409291906140b2565b50600682015481600601559050506000806117e883600001805461176390614d0f565b80601f016020809104026020016040519081016040528092919081815260200182805461178f90614d0f565b80156117dc5780601f106117b1576101008083540402835291602001916117dc565b820191906000526020600020905b8154815290600101906020018083116117bf57829003601f168201915b50505050506000612f37565b9150915060068181548110611800576117ff614ee0565b5b9060005260206000209060070201600401879080600181540180825580915050600190039060005260206000200160009091909190916101000a81548173ffffffffffffffffffffffffffffffffffffffff021916908373ffffffffffffffffffffffffffffffffffffffff1602179055506040518060200160405280600081525080519060200120600560008973ffffffffffffffffffffffffffffffffffffffff1673ffffffffffffffffffffffffffffffffffffffff1681526020019081526020016000206000016040516118d89190614de0565b604051809103902014611c585760006118f088612175565b905060008160a0015151905060008260a0015190506040518060e001604052808a815260200189815260200160008152602001600115158152602001600067ffffffffffffffff81111561194757611946614150565b5b6040519080825280602002602001820160405280156119755781602001602082028036833780820191505090505b50815260200160018461198891906151c6565b67ffffffffffffffff8111156119a1576119a0614150565b5b6040519080825280602002602001820160405280156119cf5781602001602082028036833780820191505090505b50815260200142815250600560008c73ffffffffffffffffffffffffffffffffffffffff1673ffffffffffffffffffffffffffffffffffffffff1681526020019081526020016000206000820151816000019080519060200190611a34929190613f15565b506020820151816001019080519060200190611a51929190613f15565b506040820151816002015560608201518160030160006101000a81548160ff0219169083151502179055506080820151816004019080519060200190611a98929190613f9b565b5060a0820151816005019080519060200190611ab5929190613f9b565b5060c0820151816006015590505060005b600183611ad391906151c6565b811015611c4f5782811415611b845733600560008d73ffffffffffffffffffffffffffffffffffffffff1673ffffffffffffffffffffffffffffffffffffffff1681526020019081526020016000206005018281548110611b3757611b36614ee0565b5b9060005260206000200160006101000a81548173ffffffffffffffffffffffffffffffffffffffff021916908373ffffffffffffffffffffffffffffffffffffffff160217905550611c3c565b818181518110611b9757611b96614ee0565b5b6020026020010151600560008d73ffffffffffffffffffffffffffffffffffffffff1673ffffffffffffffffffffffffffffffffffffffff1681526020019081526020016000206005018281548110611bf357611bf2614ee0565b5b9060005260206000200160006101000a81548173ffffffffffffffffffffffffffffffffffffffff021916908373ffffffffffffffffffffffffffffffffffffffff1602179055505b8080611c4790614f3e565b915050611ac6565b50505050611eaa565b6040518060e0016040528087815260200186815260200160008152602001600115158152602001600067ffffffffffffffff811115611c9a57611c99614150565b5b604051908082528060200260200182016040528015611cc85781602001602082028036833780820191505090505b508152602001600167ffffffffffffffff811115611ce957611ce8614150565b5b604051908082528060200260200182016040528015611d175781602001602082028036833780820191505090505b50815260200142815250600560008973ffffffffffffffffffffffffffffffffffffffff1673ffffffffffffffffffffffffffffffffffffffff1681526020019081526020016000206000820151816000019080519060200190611d7c929190613f15565b506020820151816001019080519060200190611d99929190613f15565b506040820151816002015560608201518160030160006101000a81548160ff0219169083151502179055506080820151816004019080519060200190611de0929190613f9b565b5060a0820151816005019080519060200190611dfd929190613f9b565b5060c0820151816006015590505033600560008973ffffffffffffffffffffffffffffffffffffffff1673ffffffffffffffffffffffffffffffffffffffff168152602001908152602001600020600501600081548110611e6157611e60614ee0565b5b9060005260206000200160006101000a81548173ffffffffffffffffffffffffffffffffffffffff021916908373ffffffffffffffffffffffffffffffffffffffff1602179055505b6000600560003373ffffffffffffffffffffffffffffffffffffffff1673ffffffffffffffffffffffffffffffffffffffff1681526020019081526020016000206040518060e0016040529081600082018054611f0690614d0f565b80601f0160208091040260200160405190810160405280929190818152602001828054611f3290614d0f565b8015611f7f5780601f10611f5457610100808354040283529160200191611f7f565b820191906000526020600020905b815481529060010190602001808311611f6257829003601f168201915b50505050508152602001600182018054611f9890614d0f565b80601f0160208091040260200160405190810160405280929190818152602001828054611fc490614d0f565b80156120115780601f10611fe657610100808354040283529160200191612011565b820191906000526020600020905b815481529060010190602001808311611ff457829003601f168201915b50505050508152602001600282015481526020016003820160009054906101000a900460ff16151515158152602001600482018054806020026020016040519081016040528092919081815260200182805480156120c457602002820191906000526020600020905b8160009054906101000a900473ffffffffffffffffffffffffffffffffffffffff1673ffffffffffffffffffffffffffffffffffffffff168152602001906001019080831161207a575b505050505081526020016005820180548060200260200160405190810160405280929190818152602001828054801561215257602002820191906000526020600020905b8160009054906101000a900473ffffffffffffffffffffffffffffffffffffffff1673ffffffffffffffffffffffffffffffffffffffff1681526020019060010190808311612108575b505050505081526020016006820154815250509050809450505050509392505050565b61217d613ed6565b600560008373ffffffffffffffffffffffffffffffffffffffff1673ffffffffffffffffffffffffffffffffffffffff1681526020019081526020016000206040518060e00160405290816000820180546121d790614d0f565b80601f016020809104026020016040519081016040528092919081815260200182805461220390614d0f565b80156122505780601f1061222557610100808354040283529160200191612250565b820191906000526020600020905b81548152906001019060200180831161223357829003601f168201915b5050505050815260200160018201805461226990614d0f565b80601f016020809104026020016040519081016040528092919081815260200182805461229590614d0f565b80156122e25780601f106122b7576101008083540402835291602001916122e2565b820191906000526020600020905b8154815290600101906020018083116122c557829003601f168201915b50505050508152602001600282015481526020016003820160009054906101000a900460ff161515151581526020016004820180548060200260200160405190810160405280929190818152602001828054801561239557602002820191906000526020600020905b8160009054906101000a900473ffffffffffffffffffffffffffffffffffffffff1673ffffffffffffffffffffffffffffffffffffffff168152602001906001019080831161234b575b505050505081526020016005820180548060200260200160405190810160405280929190818152602001828054801561242357602002820191906000526020600020905b8160009054906101000a900473ffffffffffffffffffffffffffffffffffffffff1673ffffffffffffffffffffffffffffffffffffffff16815260200190600101908083116123d9575b505050505081526020016006820154815250509050919050565b60075481565b6002818154811061245357600080fd5b90600052602060002090600402016000915090508060000154908060010160009054906101000a900473ffffffffffffffffffffffffffffffffffffffff16908060020160009054906101000a900473ffffffffffffffffffffffffffffffffffffffff16908060030154905084565b33600115156124d182612175565b60600151151514612517576040517f08c379a000000000000000000000000000000000000000000000000000000000815260040161250e90615268565b60405180910390fd5b600061252233612175565b905060008160a0015190506000612538826132d7565b905060068190806001815401808255809150506001900390600052602060002090600702016000909190919091506000820151816000019080519060200190612582929190613f15565b50602082015181600101908051906020019061259f929190613f15565b506040820151816002015560608201518160030160006101000a81548160ff02191690831515021790555060808201518160040190805190602001906125e6929190613f9b565b5060a0820151816005019080519060200190612603929190613f9b565b5060c08201518160060155505050505050565b808060008054906101000a900473ffffffffffffffffffffffffffffffffffffffff1673ffffffffffffffffffffffffffffffffffffffff166370a08231336040518263ffffffff1660e01b815260040161267191906147d0565b60206040518083038186803b15801561268957600080fd5b505afa15801561269d573d6000803e3d6000fd5b505050506040513d601f19601f820116820180604052508101906126c1919061529d565b10156126cc57600080fd5b600560003373ffffffffffffffffffffffffffffffffffffffff1673ffffffffffffffffffffffffffffffffffffffff16815260200190815260200160002060030160009054906101000a900460ff166000151581151514612763576040517f08c379a000000000000000000000000000000000000000000000000000000000815260040161275a9061533c565b60405180910390fd5b60008054906101000a900473ffffffffffffffffffffffffffffffffffffffff1673ffffffffffffffffffffffffffffffffffffffff1663a9059cbb85856040518363ffffffff1660e01b81526004016127be92919061535c565b602060405180830381600087803b1580156127d857600080fd5b505af11580156127ec573d6000803e3d6000fd5b505050506040513d601f19601f82011682018060405250810190612810919061539a565b5050505050565b600560003373ffffffffffffffffffffffffffffffffffffffff1673ffffffffffffffffffffffffffffffffffffffff16815260200190815260200160002060030160009054906101000a900460ff1660001515811515146128ae576040517f08c379a00000000000000000000000000000000000000000000000000000000081526004016128a59061533c565b60405180910390fd5b60008373ffffffffffffffffffffffffffffffffffffffff16836040516128d4906153ed565b60006040518083038185875af1925050503d8060008114612911576040519150601f19603f3d011682016040523d82523d6000602084013e612916565b606091505b505090508061295a576040517f08c379a00000000000000000000000000000000000000000000000000000000081526004016129519061544e565b60405180910390fd5b612966848460016136bd565b600061297185612175565b9050600115158160600151151514156129de5783600560008773ffffffffffffffffffffffffffffffffffffffff1673ffffffffffffffffffffffffffffffffffffffff16815260200190815260200160002060020160008282546129d691906151c6565b925050819055505b5050505050565b60008060009054906101000a900473ffffffffffffffffffffffffffffffffffffffff1673ffffffffffffffffffffffffffffffffffffffff166370a08231336040518263ffffffff1660e01b8152600401612a4191906147d0565b60206040518083038186803b158015612a5957600080fd5b505afa158015612a6d573d6000803e3d6000fd5b505050506040513d601f19601f82011682018060405250810190612a91919061529d565b905090565b6000600860008373ffffffffffffffffffffffffffffffffffffffff1673ffffffffffffffffffffffffffffffffffffffff168152602001908152602001600020549050919050565b6060600460003373ffffffffffffffffffffffffffffffffffffffff1673ffffffffffffffffffffffffffffffffffffffff168152602001908152602001600020805480602002602001604051908101604052809291908181526020016000905b82821015612c325783829060005260206000209060040201604051806080016040529081600082015481526020016001820160009054906101000a900473ffffffffffffffffffffffffffffffffffffffff1673ffffffffffffffffffffffffffffffffffffffff1673ffffffffffffffffffffffffffffffffffffffff1681526020016002820160009054906101000a900473ffffffffffffffffffffffffffffffffffffffff1673ffffffffffffffffffffffffffffffffffffffff1673ffffffffffffffffffffffffffffffffffffffff16815260200160038201548152505081526020019060010190612b40565b50505050905090565b6000600960003373ffffffffffffffffffffffffffffffffffffffff1673ffffffffffffffffffffffffffffffffffffffff16815260200190815260200160002060008373ffffffffffffffffffffffffffffffffffffffff1673ffffffffffffffffffffffffffffffffffffffff1681526020019081526020016000205490508060076000828254612cce919061546e565b9250508190555080600860008473ffffffffffffffffffffffffffffffffffffffff1673ffffffffffffffffffffffffffffffffffffffff1681526020019081526020016000206000828254612d24919061546e565b925050819055503373ffffffffffffffffffffffffffffffffffffffff166108fc829081150290604051600060405180830381858888f19350505050158015612d71573d6000803e3d6000fd5b505050565b6060600560003373ffffffffffffffffffffffffffffffffffffffff1673ffffffffffffffffffffffffffffffffffffffff168152602001908152602001600020600401805480602002602001604051908101604052809291908181526020018280548015612e3a57602002820191906000526020600020905b8160009054906101000a900473ffffffffffffffffffffffffffffffffffffffff1673ffffffffffffffffffffffffffffffffffffffff1681526020019060010190808311612df0575b5050505050905090565b3460076000828254612e5691906151c6565b9250508190555034600860008373ffffffffffffffffffffffffffffffffffffffff1673ffffffffffffffffffffffffffffffffffffffff1681526020019081526020016000206000828254612eac91906151c6565b9250508190555034600960003373ffffffffffffffffffffffffffffffffffffffff1673ffffffffffffffffffffffffffffffffffffffff16815260200190815260200160002060008373ffffffffffffffffffffffffffffffffffffffff1673ffffffffffffffffffffffffffffffffffffffff1681526020019081526020016000208190555050565b612f3f613ed6565b600080600090505b60068054905081101561325957848051906020012060068281548110612f7057612f6f614ee0565b5b9060005260206000209060070201600001604051612f8e9190614de0565b604051809103902014156132465760068181548110612fb057612faf614ee0565b5b906000526020600020906007020181816040518060e0016040529081600082018054612fdb90614d0f565b80601f016020809104026020016040519081016040528092919081815260200182805461300790614d0f565b80156130545780601f1061302957610100808354040283529160200191613054565b820191906000526020600020905b81548152906001019060200180831161303757829003601f168201915b5050505050815260200160018201805461306d90614d0f565b80601f016020809104026020016040519081016040528092919081815260200182805461309990614d0f565b80156130e65780601f106130bb576101008083540402835291602001916130e6565b820191906000526020600020905b8154815290600101906020018083116130c957829003601f168201915b50505050508152602001600282015481526020016003820160009054906101000a900460ff161515151581526020016004820180548060200260200160405190810160405280929190818152602001828054801561319957602002820191906000526020600020905b8160009054906101000a900473ffffffffffffffffffffffffffffffffffffffff1673ffffffffffffffffffffffffffffffffffffffff168152602001906001019080831161314f575b505050505081526020016005820180548060200260200160405190810160405280929190818152602001828054801561322757602002820191906000526020600020905b8160009054906101000a900473ffffffffffffffffffffffffffffffffffffffff1673ffffffffffffffffffffffffffffffffffffffff16815260200190600101908083116131dd575b50505050508152602001600682015481525050915092509250506132ac565b808061325190614f3e565b915050612f47565b50821561329b576040517f08c379a0000000000000000000000000000000000000000000000000000000008152600401613292906154ee565b60405180910390fd5b6132a3613ed6565b80600092509250505b9250929050565b60008054906101000a900473ffffffffffffffffffffffffffffffffffffffff1681565b6132df613ed6565b60005b825181101561357057600061331084838151811061330357613302614ee0565b5b6020026020010151612175565b905060008061332483600001516000612f37565b91509150600061333333612175565b905060008061334783600001516000612f37565b915091508560800151818151811061336257613361614ee0565b5b60200260200101600073ffffffffffffffffffffffffffffffffffffffff16815250856006858154811061339957613398614ee0565b5b906000526020600020906007020160008201518160000190805190602001906133c3929190613f15565b5060208201518160010190805190602001906133e0929190613f15565b506040820151816002015560608201518160030160006101000a81548160ff0219169083151502179055506080820151816004019080519060200190613427929190613f9b565b5060a0820151816005019080519060200190613444929190613f9b565b5060c0820151816006015590505085600560008b8a8151811061346a57613469614ee0565b5b602002602001015173ffffffffffffffffffffffffffffffffffffffff1673ffffffffffffffffffffffffffffffffffffffff16815260200190815260200160002060008201518160000190805190602001906134c8929190613f15565b5060208201518160010190805190602001906134e5929190613f15565b506040820151816002015560608201518160030160006101000a81548160ff021916908315150217905550608082015181600401908051906020019061352c929190613f9b565b5060a0820151816005019080519060200190613549929190613f9b565b5060c08201518160060155905050505050505050808061356890614f3e565b9150506132e2565b50600061357c33612175565b905060008160600190151590811515815250508060a001516000815181106135a7576135a6614ee0565b5b60200260200101600073ffffffffffffffffffffffffffffffffffffffff1681525080600560003373ffffffffffffffffffffffffffffffffffffffff1673ffffffffffffffffffffffffffffffffffffffff1681526020019081526020016000206000820151816000019080519060200190613625929190613f15565b506020820151816001019080519060200190613642929190613f15565b506040820151816002015560608201518160030160006101000a81548160ff0219169083151502179055506080820151816004019080519060200190613689929190613f9b565b5060a08201518160050190805190602001906136a6929190613f9b565b5060c0820151816006015590505080915050919050565b60405180602001604052806000815250805190602001206136dd33612175565b60000151805190602001201415613729576040517f08c379a0000000000000000000000000000000000000000000000000000000008152600401613720906151a6565b60405180910390fd5b8015613b0257600460003373ffffffffffffffffffffffffffffffffffffffff1673ffffffffffffffffffffffffffffffffffffffff16815260200190815260200160002060405180608001604052804281526020013373ffffffffffffffffffffffffffffffffffffffff1681526020018573ffffffffffffffffffffffffffffffffffffffff1681526020018481525090806001815401808255809150506001900390600052602060002090600402016000909190919091506000820151816000015560208201518160010160006101000a81548173ffffffffffffffffffffffffffffffffffffffff021916908373ffffffffffffffffffffffffffffffffffffffff16021790555060408201518160020160006101000a81548173ffffffffffffffffffffffffffffffffffffffff021916908373ffffffffffffffffffffffffffffffffffffffff160217905550606082015181600301555050600260405180608001604052804281526020013373ffffffffffffffffffffffffffffffffffffffff1681526020018573ffffffffffffffffffffffffffffffffffffffff1681526020018481525090806001815401808255809150506001900390600052602060002090600402016000909190919091506000820151816000015560208201518160010160006101000a81548173ffffffffffffffffffffffffffffffffffffffff021916908373ffffffffffffffffffffffffffffffffffffffff16021790555060408201518160020160006101000a81548173ffffffffffffffffffffffffffffffffffffffff021916908373ffffffffffffffffffffffffffffffffffffffff160217905550606082015181600301555050600460008473ffffffffffffffffffffffffffffffffffffffff1673ffffffffffffffffffffffffffffffffffffffff16815260200190815260200160002060405180608001604052804281526020013373ffffffffffffffffffffffffffffffffffffffff1681526020018573ffffffffffffffffffffffffffffffffffffffff1681526020018481525090806001815401808255809150506001900390600052602060002090600402016000909190919091506000820151816000015560208201518160010160006101000a81548173ffffffffffffffffffffffffffffffffffffffff021916908373ffffffffffffffffffffffffffffffffffffffff16021790555060408201518160020160006101000a81548173ffffffffffffffffffffffffffffffffffffffff021916908373ffffffffffffffffffffffffffffffffffffffff160217905550606082015181600301555050613ed1565b600460008473ffffffffffffffffffffffffffffffffffffffff1673ffffffffffffffffffffffffffffffffffffffff16815260200190815260200160002060405180608001604052804281526020018573ffffffffffffffffffffffffffffffffffffffff1681526020013373ffffffffffffffffffffffffffffffffffffffff1681526020018481525090806001815401808255809150506001900390600052602060002090600402016000909190919091506000820151816000015560208201518160010160006101000a81548173ffffffffffffffffffffffffffffffffffffffff021916908373ffffffffffffffffffffffffffffffffffffffff16021790555060408201518160020160006101000a81548173ffffffffffffffffffffffffffffffffffffffff021916908373ffffffffffffffffffffffffffffffffffffffff160217905550606082015181600301555050600460003373ffffffffffffffffffffffffffffffffffffffff1673ffffffffffffffffffffffffffffffffffffffff16815260200190815260200160002060405180608001604052804281526020018573ffffffffffffffffffffffffffffffffffffffff1681526020013373ffffffffffffffffffffffffffffffffffffffff1681526020018481525090806001815401808255809150506001900390600052602060002090600402016000909190919091506000820151816000015560208201518160010160006101000a81548173ffffffffffffffffffffffffffffffffffffffff021916908373ffffffffffffffffffffffffffffffffffffffff16021790555060408201518160020160006101000a81548173ffffffffffffffffffffffffffffffffffffffff021916908373ffffffffffffffffffffffffffffffffffffffff160217905550606082015181600301555050600260405180608001604052804281526020018573ffffffffffffffffffffffffffffffffffffffff1681526020013373ffffffffffffffffffffffffffffffffffffffff1681526020018481525090806001815401808255809150506001900390600052602060002090600402016000909190919091506000820151816000015560208201518160010160006101000a81548173ffffffffffffffffffffffffffffffffffffffff021916908373ffffffffffffffffffffffffffffffffffffffff16021790555060408201518160020160006101000a81548173ffffffffffffffffffffffffffffffffffffffff021916908373ffffffffffffffffffffffffffffffffffffffff1602179055506060820151816003015550505b505050565b6040518060e001604052806060815260200160608152602001600081526020016000151581526020016060815260200160608152602001600081525090565b828054613f2190614d0f565b90600052602060002090601f016020900481019282613f435760008555613f8a565b82601f10613f5c57805160ff1916838001178555613f8a565b82800160010185558215613f8a579182015b82811115613f89578251825591602001919060010190613f6e565b5b509050613f979190614104565b5090565b828054828255906000526020600020908101928215614014579160200282015b828111156140135782518260006101000a81548173ffffffffffffffffffffffffffffffffffffffff021916908373ffffffffffffffffffffffffffffffffffffffff16021790555091602001919060010190613fbb565b5b5090506140219190614104565b5090565b82805461403190614d0f565b90600052602060002090601f01602090048101928261405357600085556140a1565b82601f1061406457805485556140a1565b828001600101855582156140a157600052602060002091601f016020900482015b828111156140a0578254825591600101919060010190614085565b5b5090506140ae9190614104565b5090565b8280548282559060005260206000209081019282156140f35760005260206000209182015b828111156140f25782548255916001019190600101906140d7565b5b5090506141009190614104565b5090565b5b8082111561411d576000816000905550600101614105565b5090565b6000604051905090565b600080fd5b600080fd5b600080fd5b600080fd5b6000601f19601f8301169050919050565b7f4e487b7100000000000000000000000000000000000000000000000000000000600052604160045260246000fd5b6141888261413f565b810181811067ffffffffffffffff821117156141a7576141a6614150565b5b80604052505050565b60006141ba614121565b90506141c6828261417f565b919050565b600067ffffffffffffffff8211156141e6576141e5614150565b5b6141ef8261413f565b9050602081019050919050565b82818337600083830152505050565b600061421e614219846141cb565b6141b0565b90508281526020810184848401111561423a5761423961413a565b5b6142458482856141fc565b509392505050565b600082601f83011261426257614261614135565b5b813561427284826020860161420b565b91505092915050565b60008115159050919050565b6142908161427b565b811461429b57600080fd5b50565b6000813590506142ad81614287565b92915050565b6000806000606084860312156142cc576142cb61412b565b5b600084013567ffffffffffffffff8111156142ea576142e9614130565b5b6142f68682870161424d565b935050602084013567ffffffffffffffff81111561431757614316614130565b5b6143238682870161424d565b92505060406143348682870161429e565b9150509250925092565b600081519050919050565b600082825260208201905092915050565b60005b8381101561437857808201518184015260208101905061435d565b83811115614387576000848401525b50505050565b60006143988261433e565b6143a28185614349565b93506143b281856020860161435a565b6143bb8161413f565b840191505092915050565b6000819050919050565b6143d9816143c6565b82525050565b6143e88161427b565b82525050565b600081519050919050565b600082825260208201905092915050565b6000819050602082019050919050565b600073ffffffffffffffffffffffffffffffffffffffff82169050919050565b60006144458261441a565b9050919050565b6144558161443a565b82525050565b6000614467838361444c565b60208301905092915050565b6000602082019050919050565b600061448b826143ee565b61449581856143f9565b93506144a08361440a565b8060005b838110156144d15781516144b8888261445b565b97506144c383614473565b9250506001810190506144a4565b5085935050505092915050565b600060e08301600083015184820360008601526144fb828261438d565b91505060208301518482036020860152614515828261438d565b915050604083015161452a60408601826143d0565b50606083015161453d60608601826143df565b50608083015184820360808601526145558282614480565b91505060a083015184820360a086015261456f8282614480565b91505060c083015161458460c08601826143d0565b508091505092915050565b600060208201905081810360008301526145a981846144de565b905092915050565b600082825260208201905092915050565b60006145cd826143ee565b6145d781856145b1565b93506145e28361440a565b8060005b838110156146135781516145fa888261445b565b975061460583614473565b9250506001810190506145e6565b5085935050505092915050565b6000602082019050818103600083015261463a81846145c2565b905092915050565b600081519050919050565b600082825260208201905092915050565b6000819050602082019050919050565b60808201600082015161468460008501826143d0565b506020820151614697602085018261444c565b5060408201516146aa604085018261444c565b5060608201516146bd60608501826143d0565b50505050565b60006146cf838361466e565b60808301905092915050565b6000602082019050919050565b60006146f382614642565b6146fd818561464d565b93506147088361465e565b8060005b8381101561473957815161472088826146c3565b975061472b836146db565b92505060018101905061470c565b5085935050505092915050565b6000602082019050818103600083015261476081846146e8565b905092915050565b614771816143c6565b811461477c57600080fd5b50565b60008135905061478e81614768565b92915050565b6000602082840312156147aa576147a961412b565b5b60006147b88482850161477f565b91505092915050565b6147ca8161443a565b82525050565b60006020820190506147e560008301846147c1565b92915050565b600081519050919050565b600082825260208201905092915050565b6000819050602082019050919050565b600060e0830160008301518482036000860152614834828261438d565b9150506020830151848203602086015261484e828261438d565b915050604083015161486360408601826143d0565b50606083015161487660608601826143df565b506080830151848203608086015261488e8282614480565b91505060a083015184820360a08601526148a88282614480565b91505060c08301516148bd60c08601826143d0565b508091505092915050565b60006148d48383614817565b905092915050565b6000602082019050919050565b60006148f4826147eb565b6148fe81856147f6565b93508360208202850161491085614807565b8060005b8581101561494c578484038952815161492d85826148c8565b9450614938836148dc565b925060208a01995050600181019050614914565b50829750879550505050505092915050565b6000602082019050818103600083015261497881846148e9565b905092915050565b614989816143c6565b82525050565b60006020820190506149a46000830184614980565b92915050565b6000602082840312156149c0576149bf61412b565b5b600082013567ffffffffffffffff8111156149de576149dd614130565b5b6149ea8482850161424d565b91505092915050565b60008060408385031215614a0a57614a0961412b565b5b600083013567ffffffffffffffff811115614a2857614a27614130565b5b614a348582860161424d565b9250506020614a458582860161429e565b9150509250929050565b60006040820190508181036000830152614a6981856144de565b9050614a786020830184614980565b9392505050565b614a888161443a565b8114614a9357600080fd5b50565b600081359050614aa581614a7f565b92915050565b600080600060608486031215614ac457614ac361412b565b5b6000614ad286828701614a96565b935050602084013567ffffffffffffffff811115614af357614af2614130565b5b614aff8682870161424d565b925050604084013567ffffffffffffffff811115614b2057614b1f614130565b5b614b2c8682870161424d565b9150509250925092565b600060208284031215614b4c57614b4b61412b565b5b6000614b5a84828501614a96565b91505092915050565b6000608082019050614b786000830187614980565b614b8560208301866147c1565b614b9260408301856147c1565b614b9f6060830184614980565b95945050505050565b60008060408385031215614bbf57614bbe61412b565b5b6000614bcd85828601614a96565b9250506020614bde8582860161477f565b9150509250929050565b6000614bf38261441a565b9050919050565b614c0381614be8565b8114614c0e57600080fd5b50565b600081359050614c2081614bfa565b92915050565b60008060408385031215614c3d57614c3c61412b565b5b6000614c4b85828601614c11565b9250506020614c5c8582860161477f565b9150509250929050565b6000819050919050565b6000614c8b614c86614c818461441a565b614c66565b61441a565b9050919050565b6000614c9d82614c70565b9050919050565b6000614caf82614c92565b9050919050565b614cbf81614ca4565b82525050565b6000602082019050614cda6000830184614cb6565b92915050565b7f4e487b7100000000000000000000000000000000000000000000000000000000600052602260045260246000fd5b60006002820490506001821680614d2757607f821691505b60208210811415614d3b57614d3a614ce0565b5b50919050565b600081905092915050565b60008190508160005260206000209050919050565b60008154614d6e81614d0f565b614d788186614d41565b94506001821660008114614d935760018114614da457614dd7565b60ff19831686528186019350614dd7565b614dad85614d4c565b60005b83811015614dcf57815481890152600182019150602081019050614db0565b838801955050505b50505092915050565b6000614dec8284614d61565b915081905092915050565b600082825260208201905092915050565b7f596f7520616c7265616479206861766520616e206163636f756e740000000000600082015250565b6000614e3e601b83614df7565b9150614e4982614e08565b602082019050919050565b60006020820190508181036000830152614e6d81614e31565b9050919050565b7f596f752772652061646d696e2021212100000000000000000000000000000000600082015250565b6000614eaa601083614df7565b9150614eb582614e74565b602082019050919050565b60006020820190508181036000830152614ed981614e9d565b9050919050565b7f4e487b7100000000000000000000000000000000000000000000000000000000600052603260045260246000fd5b7f4e487b7100000000000000000000000000000000000000000000000000000000600052601160045260246000fd5b6000614f49826143c6565b91507fffffffffffffffffffffffffffffffffffffffffffffffffffffffffffffffff821415614f7c57614f7b614f0f565b5b600182019050919050565b6000614f928261433e565b614f9c8185614df7565b9350614fac81856020860161435a565b614fb58161413f565b840191505092915050565b6000604082019050614fd560008301856147c1565b8181036020830152614fe78184614f87565b90509392505050565b7f546865206368696c6420646964206e6f7420666f756e64000000000000000000600082015250565b6000615026601783614df7565b915061503182614ff0565b602082019050919050565b6000602082019050818103600083015261505581615019565b9050919050565b7f596f752068617665206e6f7420616e79206368696c6400000000000000000000600082015250565b6000615092601683614df7565b915061509d8261505c565b602082019050919050565b600060208201905081810360008301526150c181615085565b9050919050565b7f596f752772652061646d696e0000000000000000000000000000000000000000600082015250565b60006150fe600c83614df7565b9150615109826150c8565b602082019050919050565b6000602082019050818103600083015261512d816150f1565b9050919050565b7f596f752063616e206c696e6b206163636f756e74206166746572206c6f67676560008201527f6420696e00000000000000000000000000000000000000000000000000000000602082015250565b6000615190602483614df7565b915061519b82615134565b604082019050919050565b600060208201905081810360008301526151bf81615183565b9050919050565b60006151d1826143c6565b91506151dc836143c6565b9250827fffffffffffffffffffffffffffffffffffffffffffffffffffffffffffffffff0382111561521157615210614f0f565b5b828201905092915050565b7f54686973206163636f756e74206973206e6f74206c696d697465640000000000600082015250565b6000615252601b83614df7565b915061525d8261521c565b602082019050919050565b6000602082019050818103600083015261528181615245565b9050919050565b60008151905061529781614768565b92915050565b6000602082840312156152b3576152b261412b565b5b60006152c184828501615288565b91505092915050565b7f596f752776652061206c696d69746564206163636f756e74202c20796f75277260008201527f65206e6f7420616e206164756c74000000000000000000000000000000000000602082015250565b6000615326602e83614df7565b9150615331826152ca565b604082019050919050565b6000602082019050818103600083015261535581615319565b9050919050565b600060408201905061537160008301856147c1565b61537e6020830184614980565b9392505050565b60008151905061539481614287565b92915050565b6000602082840312156153b0576153af61412b565b5b60006153be84828501615385565b91505092915050565b50565b60006153d7600083614d41565b91506153e2826153c7565b600082019050919050565b60006153f8826153ca565b9150819050919050565b7f4661696c656420746f2073656e64204574686572000000000000000000000000600082015250565b6000615438601483614df7565b915061544382615402565b602082019050919050565b600060208201905081810360008301526154678161542b565b9050919050565b6000615479826143c6565b9150615484836143c6565b92508282101561549757615496614f0f565b5b828203905092915050565b7f54686520706572736f6e20646964206e6f7420666f756e640000000000000000600082015250565b60006154d8601883614df7565b91506154e3826154a2565b602082019050919050565b60006020820190508181036000830152615507816154cb565b905091905056fea2646970667358221220a0b14770a1835497855752dda54d4d212006a4202c2bd388bebe588e5a3f294164736f6c63430008090033",
  "linkReferences": {},
  "deployedLinkReferences": {}
}