{
  "_format": "hh-sol-artifact-1",
  "contractName": "BankingApp",
  "sourceName": "contracts/Banking.sol",
  "abi": [
    {
      "inputs": [
        {
          "internalType": "address",
          "name": "_token",
          "type": "address"
        },
        {
          "internalType": "address",
          "name": "_owner",
          "type": "address"
        }
      ],
      "stateMutability": "payable",
      "type": "constructor"
    },
    {
      "anonymous": false,
      "inputs": [
        {
          "indexed": false,
          "internalType": "address",
          "name": "owner",
          "type": "address"
        },
        {
          "indexed": false,
          "internalType": "string",
          "name": "child",
          "type": "string"
        }
      ],
      "name": "BalanceGot",
      "type": "event"
    },
    {
      "anonymous": false,
      "inputs": [
        {
          "indexed": false,
          "internalType": "address",
          "name": "from",
          "type": "address"
        },
        {
          "indexed": false,
          "internalType": "address",
          "name": "to",
          "type": "address"
        },
        {
          "indexed": false,
          "internalType": "uint256",
          "name": "amount",
          "type": "uint256"
        }
      ],
      "name": "InheritumSent",
      "type": "event"
    },
    {
      "anonymous": false,
      "inputs": [
        {
          "indexed": false,
          "internalType": "address",
          "name": "from",
          "type": "address"
        },
        {
          "indexed": false,
          "internalType": "address",
          "name": "to",
          "type": "address"
        },
        {
          "indexed": false,
          "internalType": "string",
          "name": "childName",
          "type": "string"
        },
        {
          "indexed": false,
          "internalType": "uint256",
          "name": "amount",
          "type": "uint256"
        }
      ],
      "name": "SentMoney",
      "type": "event"
    },
    {
      "anonymous": false,
      "inputs": [
        {
          "indexed": false,
          "internalType": "address",
          "name": "recipient",
          "type": "address"
        },
        {
          "indexed": false,
          "internalType": "uint256",
          "name": "amount",
          "type": "uint256"
        }
      ],
      "name": "allowanceTest",
      "type": "event"
    },
    {
      "inputs": [
        {
          "internalType": "uint256",
          "name": "",
          "type": "uint256"
        }
      ],
      "name": "GeneralTransactions",
      "outputs": [
        {
          "internalType": "uint256",
          "name": "timestamp",
          "type": "uint256"
        },
        {
          "internalType": "address",
          "name": "sender",
          "type": "address"
        },
        {
          "internalType": "address",
          "name": "receiver",
          "type": "address"
        },
        {
          "internalType": "uint256",
          "name": "amount",
          "type": "uint256"
        }
      ],
      "stateMutability": "view",
      "type": "function"
    },
    {
      "inputs": [
        {
          "internalType": "string",
          "name": "_name",
          "type": "string"
        },
        {
          "internalType": "uint256",
          "name": "_age",
          "type": "uint256"
        },
        {
          "internalType": "bool",
          "name": "isLimited",
          "type": "bool"
        }
      ],
      "name": "addPerson",
      "outputs": [
        {
          "components": [
            {
              "internalType": "string",
              "name": "name",
              "type": "string"
            },
            {
              "internalType": "uint256",
              "name": "age",
              "type": "uint256"
            },
            {
              "internalType": "uint256",
              "name": "balance",
              "type": "uint256"
            },
            {
              "internalType": "bool",
              "name": "isLimited",
              "type": "bool"
            },
            {
              "internalType": "address[]",
              "name": "children",
              "type": "address[]"
            },
            {
              "internalType": "address[]",
              "name": "parents",
              "type": "address[]"
            },
            {
              "internalType": "uint256",
              "name": "createdTime",
              "type": "uint256"
            }
          ],
          "internalType": "struct BankingApp.Person",
          "name": "",
          "type": "tuple"
        }
      ],
      "stateMutability": "nonpayable",
      "type": "function"
    },
    {
      "inputs": [
        {
          "internalType": "string",
          "name": "_name",
          "type": "string"
        },
        {
          "internalType": "bool",
          "name": "returnErr",
          "type": "bool"
        }
      ],
      "name": "findTheChild",
      "outputs": [
        {
          "components": [
            {
              "internalType": "string",
              "name": "name",
              "type": "string"
            },
            {
              "internalType": "uint256",
              "name": "age",
              "type": "uint256"
            },
            {
              "internalType": "uint256",
              "name": "balance",
              "type": "uint256"
            },
            {
              "internalType": "bool",
              "name": "isLimited",
              "type": "bool"
            },
            {
              "internalType": "address[]",
              "name": "children",
              "type": "address[]"
            },
            {
              "internalType": "address[]",
              "name": "parents",
              "type": "address[]"
            },
            {
              "internalType": "uint256",
              "name": "createdTime",
              "type": "uint256"
            }
          ],
          "internalType": "struct BankingApp.Person",
          "name": "",
          "type": "tuple"
        },
        {
          "internalType": "uint256",
          "name": "index",
          "type": "uint256"
        }
      ],
      "stateMutability": "view",
      "type": "function"
    },
    {
      "inputs": [
        {
          "internalType": "string",
          "name": "_name",
          "type": "string"
        },
        {
          "internalType": "bool",
          "name": "returnErr",
          "type": "bool"
        }
      ],
      "name": "findThePerson",
      "outputs": [
        {
          "components": [
            {
              "internalType": "string",
              "name": "name",
              "type": "string"
            },
            {
              "internalType": "uint256",
              "name": "age",
              "type": "uint256"
            },
            {
              "internalType": "uint256",
              "name": "balance",
              "type": "uint256"
            },
            {
              "internalType": "bool",
              "name": "isLimited",
              "type": "bool"
            },
            {
              "internalType": "address[]",
              "name": "children",
              "type": "address[]"
            },
            {
              "internalType": "address[]",
              "name": "parents",
              "type": "address[]"
            },
            {
              "internalType": "uint256",
              "name": "createdTime",
              "type": "uint256"
            }
          ],
          "internalType": "struct BankingApp.Person",
          "name": "",
          "type": "tuple"
        },
        {
          "internalType": "uint256",
          "name": "index",
          "type": "uint256"
        }
      ],
      "stateMutability": "view",
      "type": "function"
    },
    {
      "inputs": [],
      "name": "getAllTransactionRecorded",
      "outputs": [
        {
          "components": [
            {
              "internalType": "uint256",
              "name": "timestamp",
              "type": "uint256"
            },
            {
              "internalType": "address",
              "name": "sender",
              "type": "address"
            },
            {
              "internalType": "address",
              "name": "receiver",
              "type": "address"
            },
            {
              "internalType": "uint256",
              "name": "amount",
              "type": "uint256"
            }
          ],
          "internalType": "struct BankingApp.Transaction[]",
          "name": "",
          "type": "tuple[]"
        }
      ],
      "stateMutability": "view",
      "type": "function"
    },
    {
      "inputs": [],
      "name": "getBalanceOfInheritumToken",
      "outputs": [
        {
          "internalType": "uint256",
          "name": "",
          "type": "uint256"
        }
      ],
      "stateMutability": "view",
      "type": "function"
    },
    {
      "inputs": [],
      "name": "getChildren",
      "outputs": [
        {
          "internalType": "address[]",
          "name": "",
          "type": "address[]"
        }
      ],
      "stateMutability": "view",
      "type": "function"
    },
    {
      "inputs": [],
      "name": "getMyBalance",
      "outputs": [
        {
          "internalType": "uint256",
          "name": "",
          "type": "uint256"
        }
      ],
      "stateMutability": "view",
      "type": "function"
    },
    {
      "inputs": [],
      "name": "getMyChild",
      "outputs": [
        {
          "internalType": "address[]",
          "name": "",
          "type": "address[]"
        }
      ],
      "stateMutability": "view",
      "type": "function"
    },
    {
      "inputs": [
        {
          "internalType": "string",
          "name": "_name",
          "type": "string"
        }
      ],
      "name": "getMyChildBalance",
      "outputs": [
        {
          "internalType": "uint256",
          "name": "",
          "type": "uint256"
        }
      ],
      "stateMutability": "nonpayable",
      "type": "function"
    },
    {
      "inputs": [],
      "name": "getPersons",
      "outputs": [
        {
          "components": [
            {
              "internalType": "string",
              "name": "name",
              "type": "string"
            },
            {
              "internalType": "uint256",
              "name": "age",
              "type": "uint256"
            },
            {
              "internalType": "uint256",
              "name": "balance",
              "type": "uint256"
            },
            {
              "internalType": "bool",
              "name": "isLimited",
              "type": "bool"
            },
            {
              "internalType": "address[]",
              "name": "children",
              "type": "address[]"
            },
            {
              "internalType": "address[]",
              "name": "parents",
              "type": "address[]"
            },
            {
              "internalType": "uint256",
              "name": "createdTime",
              "type": "uint256"
            }
          ],
          "internalType": "struct BankingApp.Person[]",
          "name": "",
          "type": "tuple[]"
        }
      ],
      "stateMutability": "view",
      "type": "function"
    },
    {
      "inputs": [],
      "name": "getTranscationHistory",
      "outputs": [
        {
          "components": [
            {
              "internalType": "uint256",
              "name": "timestamp",
              "type": "uint256"
            },
            {
              "internalType": "address",
              "name": "sender",
              "type": "address"
            },
            {
              "internalType": "address",
              "name": "receiver",
              "type": "address"
            },
            {
              "internalType": "uint256",
              "name": "amount",
              "type": "uint256"
            }
          ],
          "internalType": "struct BankingApp.Transaction[]",
          "name": "",
          "type": "tuple[]"
        }
      ],
      "stateMutability": "view",
      "type": "function"
    },
    {
      "inputs": [
        {
          "internalType": "address",
          "name": "addr",
          "type": "address"
        }
      ],
      "name": "getUser",
      "outputs": [
        {
          "components": [
            {
              "internalType": "string",
              "name": "name",
              "type": "string"
            },
            {
              "internalType": "uint256",
              "name": "age",
              "type": "uint256"
            },
            {
              "internalType": "uint256",
              "name": "balance",
              "type": "uint256"
            },
            {
              "internalType": "bool",
              "name": "isLimited",
              "type": "bool"
            },
            {
              "internalType": "address[]",
              "name": "children",
              "type": "address[]"
            },
            {
              "internalType": "address[]",
              "name": "parents",
              "type": "address[]"
            },
            {
              "internalType": "uint256",
              "name": "createdTime",
              "type": "uint256"
            }
          ],
          "internalType": "struct BankingApp.Person",
          "name": "",
          "type": "tuple"
        }
      ],
      "stateMutability": "view",
      "type": "function"
    },
    {
      "inputs": [],
      "name": "getUsersAddressByOwner",
      "outputs": [
        {
          "internalType": "address[]",
          "name": "",
          "type": "address[]"
        }
      ],
      "stateMutability": "view",
      "type": "function"
    },
    {
      "inputs": [
        {
          "internalType": "address",
          "name": "childAccount",
          "type": "address"
        },
        {
          "internalType": "string",
          "name": "_name",
          "type": "string"
        },
        {
          "internalType": "uint256",
          "name": "_age",
          "type": "uint256"
        }
      ],
      "name": "linkAccount",
      "outputs": [
        {
          "components": [
            {
              "internalType": "string",
              "name": "name",
              "type": "string"
            },
            {
              "internalType": "uint256",
              "name": "age",
              "type": "uint256"
            },
            {
              "internalType": "uint256",
              "name": "balance",
              "type": "uint256"
            },
            {
              "internalType": "bool",
              "name": "isLimited",
              "type": "bool"
            },
            {
              "internalType": "address[]",
              "name": "children",
              "type": "address[]"
            },
            {
              "internalType": "address[]",
              "name": "parents",
              "type": "address[]"
            },
            {
              "internalType": "uint256",
              "name": "createdTime",
              "type": "uint256"
            }
          ],
          "internalType": "struct BankingApp.Person",
          "name": "",
          "type": "tuple"
        }
      ],
      "stateMutability": "nonpayable",
      "type": "function"
    },
    {
      "inputs": [
        {
          "internalType": "address",
          "name": "linked_account",
          "type": "address"
        }
      ],
      "name": "makeAccountisLimited",
      "outputs": [],
      "stateMutability": "nonpayable",
      "type": "function"
    },
    {
      "inputs": [
        {
          "internalType": "address payable",
          "name": "_to",
          "type": "address"
        },
        {
          "internalType": "uint256",
          "name": "amount",
          "type": "uint256"
        }
      ],
      "name": "sendEther",
      "outputs": [],
      "stateMutability": "payable",
      "type": "function"
    },
    {
      "inputs": [
        {
          "internalType": "address",
          "name": "_to",
          "type": "address"
        },
        {
          "internalType": "uint256",
          "name": "_amount",
          "type": "uint256"
        }
      ],
      "name": "sendTokenToChild",
      "outputs": [],
      "stateMutability": "nonpayable",
      "type": "function"
    },
    {
      "inputs": [],
      "name": "token",
      "outputs": [
        {
          "internalType": "contract IERC20",
          "name": "",
          "type": "address"
        }
      ],
      "stateMutability": "view",
      "type": "function"
    },
    {
      "inputs": [
        {
          "internalType": "uint256",
          "name": "",
          "type": "uint256"
        }
      ],
      "name": "user_address",
      "outputs": [
        {
          "internalType": "address",
          "name": "",
          "type": "address"
        }
      ],
      "stateMutability": "view",
      "type": "function"
    }
  ],
  "bytecode": "0x608060405260405162004f9938038062004f9983398181016040528101906200002991906200011c565b816000806101000a81548173ffffffffffffffffffffffffffffffffffffffff021916908373ffffffffffffffffffffffffffffffffffffffff16021790555080600160006101000a81548173ffffffffffffffffffffffffffffffffffffffff021916908373ffffffffffffffffffffffffffffffffffffffff160217905550505062000163565b600080fd5b600073ffffffffffffffffffffffffffffffffffffffff82169050919050565b6000620000e482620000b7565b9050919050565b620000f681620000d7565b81146200010257600080fd5b50565b6000815190506200011681620000eb565b92915050565b60008060408385031215620001365762000135620000b2565b5b6000620001468582860162000105565b9250506020620001598582860162000105565b9150509250929050565b614e2680620001736000396000f3fe60806040526004361061011f5760003560e01c80638d6ec214116100a0578063c81cdec911610064578063c81cdec914610418578063dbc1a22b14610443578063ee203fe61461046e578063fbf8574d14610499578063fc0c546a146104d75761011f565b80638d6ec2141461032d578063a5090f971461036a578063b42fbdfd146103aa578063c1756a2c146103d3578063c1a16177146103ef5761011f565b80634c6b6c6f116100e75780634c6b6c6f1461021f5780634c7389091461024a57806353a86c94146102755780635412f1c9146102b25780636f77926b146102f05761011f565b8063032ce9aa146101245780632b9d6b1e146101615780633a34675d1461018c5780634892e8e8146101b75780634b696dc9146101e2575b600080fd5b34801561013057600080fd5b5061014b60048036038101906101469190613bb3565b610502565b6040516101589190613e62565b60405180910390f35b34801561016d57600080fd5b50610176610ae0565b6040516101839190613ef3565b60405180910390f35b34801561019857600080fd5b506101a1610b6e565b6040516101ae9190614019565b60405180910390f35b3480156101c357600080fd5b506101cc610c8d565b6040516101d99190613ef3565b60405180910390f35b3480156101ee57600080fd5b506102096004803603810190610204919061403b565b610d86565b6040516102169190614077565b60405180910390f35b34801561022b57600080fd5b50610234610dc5565b60405161024191906141fe565b60405180910390f35b34801561025657600080fd5b5061025f61100b565b60405161026c919061422f565b60405180910390f35b34801561028157600080fd5b5061029c6004803603810190610297919061424a565b61102a565b6040516102a9919061422f565b60405180910390f35b3480156102be57600080fd5b506102d960048036038101906102d49190614293565b611085565b6040516102e79291906142ef565b60405180910390f35b3480156102fc57600080fd5b506103176004803603810190610312919061434b565b6111ca565b6040516103249190613e62565b60405180910390f35b34801561033957600080fd5b50610354600480360381019061034f9190614378565b61140a565b6040516103619190613e62565b60405180910390f35b34801561037657600080fd5b50610391600480360381019061038c919061403b565b61200c565b6040516103a194939291906143e7565b60405180910390f35b3480156103b657600080fd5b506103d160048036038101906103cc919061442c565b61208c565b005b6103ed60048036038101906103e891906144aa565b61228d565b005b3480156103fb57600080fd5b506104166004803603810190610411919061434b565b61245b565b005b34801561042457600080fd5b5061042d612648565b60405161043a919061422f565b60405180910390f35b34801561044f57600080fd5b506104586126f9565b6040516104659190614019565b60405180910390f35b34801561047a57600080fd5b50610483612855565b6040516104909190613ef3565b60405180910390f35b3480156104a557600080fd5b506104c060048036038101906104bb9190614293565b612923565b6040516104ce9291906142ef565b60405180910390f35b3480156104e357600080fd5b506104ec612c17565b6040516104f99190614549565b60405180910390f35b61050a6137a0565b6040518060200160405280600081525080519060200120600560003373ffffffffffffffffffffffffffffffffffffffff1673ffffffffffffffffffffffffffffffffffffffff1681526020019081526020016000206000016040516105709190614664565b6040518091039020146105b8576040517f08c379a00000000000000000000000000000000000000000000000000000000081526004016105af906146d8565b60405180910390fd5b600160009054906101000a900473ffffffffffffffffffffffffffffffffffffffff1673ffffffffffffffffffffffffffffffffffffffff163373ffffffffffffffffffffffffffffffffffffffff161415610649576040517f08c379a000000000000000000000000000000000000000000000000000000000815260040161064090614744565b60405180910390fd5b6000600560003373ffffffffffffffffffffffffffffffffffffffff1673ffffffffffffffffffffffffffffffffffffffff1681526020019081526020016000209050848160000190805190602001906106a49291906137df565b508381600101819055503373ffffffffffffffffffffffffffffffffffffffff16318160020181905550828160030160006101000a81548160ff021916908315150217905550600067ffffffffffffffff81111561070557610704613a1a565b5b6040519080825280602002602001820160405280156107335781602001602082028036833780820191505090505b5081600401908051906020019061074b929190613865565b50600067ffffffffffffffff81111561076757610766613a1a565b5b6040519080825280602002602001820160405280156107955781602001602082028036833780820191505090505b508160050190805190602001906107ad929190613865565b504281600601819055506000816040518060e00160405290816000820180546107d590614593565b80601f016020809104026020016040519081016040528092919081815260200182805461080190614593565b801561084e5780601f106108235761010080835404028352916020019161084e565b820191906000526020600020905b81548152906001019060200180831161083157829003601f168201915b5050505050815260200160018201548152602001600282015481526020016003820160009054906101000a900460ff161515151581526020016004820180548060200260200160405190810160405280929190818152602001828054801561090b57602002820191906000526020600020905b8160009054906101000a900473ffffffffffffffffffffffffffffffffffffffff1673ffffffffffffffffffffffffffffffffffffffff16815260200190600101908083116108c1575b505050505081526020016005820180548060200260200160405190810160405280929190818152602001828054801561099957602002820191906000526020600020905b8160009054906101000a900473ffffffffffffffffffffffffffffffffffffffff1673ffffffffffffffffffffffffffffffffffffffff168152602001906001019080831161094f575b505050505081526020016006820154815250509050600681908060018154018082558091505060019003906000526020600020906007020160009091909190915060008201518160000190805190602001906109f69291906137df565b50602082015181600101556040820151816002015560608201518160030160006101000a81548160ff0219169083151502179055506080820151816004019080519060200190610a47929190613865565b5060a0820151816005019080519060200190610a64929190613865565b5060c0820151816006015550506003339080600181540180825580915050600190039060005260206000200160009091909190916101000a81548173ffffffffffffffffffffffffffffffffffffffff021916908373ffffffffffffffffffffffffffffffffffffffff16021790555080925050509392505050565b60606003805480602002602001604051908101604052809291908181526020018280548015610b6457602002820191906000526020600020905b8160009054906101000a900473ffffffffffffffffffffffffffffffffffffffff1673ffffffffffffffffffffffffffffffffffffffff1681526020019060010190808311610b1a575b5050505050905090565b60606002805480602002602001604051908101604052809291908181526020016000905b82821015610c845783829060005260206000209060040201604051806080016040529081600082015481526020016001820160009054906101000a900473ffffffffffffffffffffffffffffffffffffffff1673ffffffffffffffffffffffffffffffffffffffff1673ffffffffffffffffffffffffffffffffffffffff1681526020016002820160009054906101000a900473ffffffffffffffffffffffffffffffffffffffff1673ffffffffffffffffffffffffffffffffffffffff1673ffffffffffffffffffffffffffffffffffffffff16815260200160038201548152505081526020019060010190610b92565b50505050905090565b60606000610c9a336111ca565b9050600081608001515167ffffffffffffffff811115610cbd57610cbc613a1a565b5b604051908082528060200260200182016040528015610ceb5781602001602082028036833780820191505090505b50905060005b826080015151811015610d7d5782608001518181518110610d1557610d14614764565b5b6020026020010151828281518110610d3057610d2f614764565b5b602002602001019073ffffffffffffffffffffffffffffffffffffffff16908173ffffffffffffffffffffffffffffffffffffffff16815250508080610d75906147c2565b915050610cf1565b50809250505090565b60038181548110610d9657600080fd5b906000526020600020016000915054906101000a900473ffffffffffffffffffffffffffffffffffffffff1681565b60606006805480602002602001604051908101604052809291908181526020016000905b8282101561100257838290600052602060002090600702016040518060e0016040529081600082018054610e1c90614593565b80601f0160208091040260200160405190810160405280929190818152602001828054610e4890614593565b8015610e955780601f10610e6a57610100808354040283529160200191610e95565b820191906000526020600020905b815481529060010190602001808311610e7857829003601f168201915b5050505050815260200160018201548152602001600282015481526020016003820160009054906101000a900460ff1615151515815260200160048201805480602002602001604051908101604052809291908181526020018280548015610f5257602002820191906000526020600020905b8160009054906101000a900473ffffffffffffffffffffffffffffffffffffffff1673ffffffffffffffffffffffffffffffffffffffff1681526020019060010190808311610f08575b5050505050815260200160058201805480602002602001604051908101604052809291908181526020018280548015610fe057602002820191906000526020600020905b8160009054906101000a900473ffffffffffffffffffffffffffffffffffffffff1673ffffffffffffffffffffffffffffffffffffffff1681526020019060010190808311610f96575b5050505050815260200160068201548152505081526020019060010190610de9565b50505050905090565b60003373ffffffffffffffffffffffffffffffffffffffff1631905090565b600080611038836001611085565b5090507f43bffc0f95fb1b5cd921e2fa994fd3abf463eefb09b4b0fffddb4d365c172528338260000151604051611070929190614844565b60405180910390a18060400151915050919050565b61108d6137a0565b600080611099336111ca565b905060008160800151519050600181106111885760005b8181101561112f576000836080015182815181106110d1576110d0614764565b5b6020026020010151905060006110e6826111ca565b60000151905088805190602001208180519060200120141561111a5761110b826111ca565b839650965050505050506111c3565b50508080611127906147c2565b9150506110b0565b508415611171576040517f08c379a0000000000000000000000000000000000000000000000000000000008152600401611168906148c0565b60405180910390fd5b6111796137a0565b806000945094505050506111c3565b6040517f08c379a00000000000000000000000000000000000000000000000000000000081526004016111ba9061492c565b60405180910390fd5b9250929050565b6111d26137a0565b600560008373ffffffffffffffffffffffffffffffffffffffff1673ffffffffffffffffffffffffffffffffffffffff1681526020019081526020016000206040518060e001604052908160008201805461122c90614593565b80601f016020809104026020016040519081016040528092919081815260200182805461125890614593565b80156112a55780601f1061127a576101008083540402835291602001916112a5565b820191906000526020600020905b81548152906001019060200180831161128857829003601f168201915b5050505050815260200160018201548152602001600282015481526020016003820160009054906101000a900460ff161515151581526020016004820180548060200260200160405190810160405280929190818152602001828054801561136257602002820191906000526020600020905b8160009054906101000a900473ffffffffffffffffffffffffffffffffffffffff1673ffffffffffffffffffffffffffffffffffffffff1681526020019060010190808311611318575b50505050508152602001600582018054806020026020016040519081016040528092919081815260200182805480156113f057602002820191906000526020600020905b8160009054906101000a900473ffffffffffffffffffffffffffffffffffffffff1673ffffffffffffffffffffffffffffffffffffffff16815260200190600101908083116113a6575b505050505081526020016006820154815250509050919050565b6114126137a0565b600160009054906101000a900473ffffffffffffffffffffffffffffffffffffffff1673ffffffffffffffffffffffffffffffffffffffff163373ffffffffffffffffffffffffffffffffffffffff1614156114a3576040517f08c379a000000000000000000000000000000000000000000000000000000000815260040161149a90614998565b60405180910390fd5b60405180602001604052806000815250805190602001206114c3336111ca565b6000015180519060200120141561150f576040517f08c379a000000000000000000000000000000000000000000000000000000000815260040161150690614a2a565b60405180910390fd5b6000600560003373ffffffffffffffffffffffffffffffffffffffff1673ffffffffffffffffffffffffffffffffffffffff168152602001908152602001600020905080600401859080600181540180825580915050600190039060005260206000200160009091909190916101000a81548173ffffffffffffffffffffffffffffffffffffffff021916908373ffffffffffffffffffffffffffffffffffffffff16021790555080600560003373ffffffffffffffffffffffffffffffffffffffff1673ffffffffffffffffffffffffffffffffffffffff168152602001908152602001600020600082018160000190805461160b90614593565b6116169291906138ef565b5060018201548160010155600282015481600201556003820160009054906101000a900460ff168160030160006101000a81548160ff021916908315150217905550600482018160040190805461166e92919061397c565b50600582018160050190805461168592919061397c565b506006820154816006015590505060008061172d8360000180546116a890614593565b80601f01602080910402602001604051908101604052809291908181526020018280546116d490614593565b80156117215780601f106116f657610100808354040283529160200191611721565b820191906000526020600020905b81548152906001019060200180831161170457829003601f168201915b50505050506000612923565b915091506006818154811061174557611744614764565b5b9060005260206000209060070201600401879080600181540180825580915050600190039060005260206000200160009091909190916101000a81548173ffffffffffffffffffffffffffffffffffffffff021916908373ffffffffffffffffffffffffffffffffffffffff1602179055506040518060200160405280600081525080519060200120600560008973ffffffffffffffffffffffffffffffffffffffff1673ffffffffffffffffffffffffffffffffffffffff16815260200190815260200160002060000160405161181d9190614664565b604051809103902014611b8a576000611835886111ca565b905060008160a0015151905060008260a0015190506040518060e001604052808a815260200189815260200160008152602001600115158152602001600067ffffffffffffffff81111561188c5761188b613a1a565b5b6040519080825280602002602001820160405280156118ba5781602001602082028036833780820191505090505b5081526020016001846118cd9190614a4a565b67ffffffffffffffff8111156118e6576118e5613a1a565b5b6040519080825280602002602001820160405280156119145781602001602082028036833780820191505090505b50815260200142815250600560008c73ffffffffffffffffffffffffffffffffffffffff1673ffffffffffffffffffffffffffffffffffffffff16815260200190815260200160002060008201518160000190805190602001906119799291906137df565b50602082015181600101556040820151816002015560608201518160030160006101000a81548160ff02191690831515021790555060808201518160040190805190602001906119ca929190613865565b5060a08201518160050190805190602001906119e7929190613865565b5060c0820151816006015590505060005b600183611a059190614a4a565b811015611b815782811415611ab65733600560008d73ffffffffffffffffffffffffffffffffffffffff1673ffffffffffffffffffffffffffffffffffffffff1681526020019081526020016000206005018281548110611a6957611a68614764565b5b9060005260206000200160006101000a81548173ffffffffffffffffffffffffffffffffffffffff021916908373ffffffffffffffffffffffffffffffffffffffff160217905550611b6e565b818181518110611ac957611ac8614764565b5b6020026020010151600560008d73ffffffffffffffffffffffffffffffffffffffff1673ffffffffffffffffffffffffffffffffffffffff1681526020019081526020016000206005018281548110611b2557611b24614764565b5b9060005260206000200160006101000a81548173ffffffffffffffffffffffffffffffffffffffff021916908373ffffffffffffffffffffffffffffffffffffffff1602179055505b8080611b79906147c2565b9150506119f8565b50505050611dc9565b6040518060e0016040528087815260200186815260200160008152602001600115158152602001600067ffffffffffffffff811115611bcc57611bcb613a1a565b5b604051908082528060200260200182016040528015611bfa5781602001602082028036833780820191505090505b508152602001600167ffffffffffffffff811115611c1b57611c1a613a1a565b5b604051908082528060200260200182016040528015611c495781602001602082028036833780820191505090505b50815260200142815250600560008973ffffffffffffffffffffffffffffffffffffffff1673ffffffffffffffffffffffffffffffffffffffff1681526020019081526020016000206000820151816000019080519060200190611cae9291906137df565b50602082015181600101556040820151816002015560608201518160030160006101000a81548160ff0219169083151502179055506080820151816004019080519060200190611cff929190613865565b5060a0820151816005019080519060200190611d1c929190613865565b5060c0820151816006015590505033600560008973ffffffffffffffffffffffffffffffffffffffff1673ffffffffffffffffffffffffffffffffffffffff168152602001908152602001600020600501600081548110611d8057611d7f614764565b5b9060005260206000200160006101000a81548173ffffffffffffffffffffffffffffffffffffffff021916908373ffffffffffffffffffffffffffffffffffffffff1602179055505b6000600560003373ffffffffffffffffffffffffffffffffffffffff1673ffffffffffffffffffffffffffffffffffffffff1681526020019081526020016000206040518060e0016040529081600082018054611e2590614593565b80601f0160208091040260200160405190810160405280929190818152602001828054611e5190614593565b8015611e9e5780601f10611e7357610100808354040283529160200191611e9e565b820191906000526020600020905b815481529060010190602001808311611e8157829003601f168201915b5050505050815260200160018201548152602001600282015481526020016003820160009054906101000a900460ff1615151515815260200160048201805480602002602001604051908101604052809291908181526020018280548015611f5b57602002820191906000526020600020905b8160009054906101000a900473ffffffffffffffffffffffffffffffffffffffff1673ffffffffffffffffffffffffffffffffffffffff1681526020019060010190808311611f11575b5050505050815260200160058201805480602002602001604051908101604052809291908181526020018280548015611fe957602002820191906000526020600020905b8160009054906101000a900473ffffffffffffffffffffffffffffffffffffffff1673ffffffffffffffffffffffffffffffffffffffff1681526020019060010190808311611f9f575b505050505081526020016006820154815250509050809450505050509392505050565b6002818154811061201c57600080fd5b90600052602060002090600402016000915090508060000154908060010160009054906101000a900473ffffffffffffffffffffffffffffffffffffffff16908060020160009054906101000a900473ffffffffffffffffffffffffffffffffffffffff16908060030154905084565b808060008054906101000a900473ffffffffffffffffffffffffffffffffffffffff1673ffffffffffffffffffffffffffffffffffffffff166370a08231336040518263ffffffff1660e01b81526004016120e79190614077565b60206040518083038186803b1580156120ff57600080fd5b505afa158015612113573d6000803e3d6000fd5b505050506040513d601f19601f820116820180604052508101906121379190614ab5565b101561214257600080fd5b600560003373ffffffffffffffffffffffffffffffffffffffff1673ffffffffffffffffffffffffffffffffffffffff16815260200190815260200160002060030160009054906101000a900460ff1660001515811515146121d9576040517f08c379a00000000000000000000000000000000000000000000000000000000081526004016121d090614b54565b60405180910390fd5b60008054906101000a900473ffffffffffffffffffffffffffffffffffffffff1673ffffffffffffffffffffffffffffffffffffffff1663a9059cbb85856040518363ffffffff1660e01b8152600401612234929190614b74565b602060405180830381600087803b15801561224e57600080fd5b505af1158015612262573d6000803e3d6000fd5b505050506040513d601f19601f820116820180604052508101906122869190614bb2565b5050505050565b600560003373ffffffffffffffffffffffffffffffffffffffff1673ffffffffffffffffffffffffffffffffffffffff16815260200190815260200160002060030160009054906101000a900460ff166000151581151514612324576040517f08c379a000000000000000000000000000000000000000000000000000000000815260040161231b90614b54565b60405180910390fd5b60008373ffffffffffffffffffffffffffffffffffffffff168360405161234a90614c05565b60006040518083038185875af1925050503d8060008114612387576040519150601f19603f3d011682016040523d82523d6000602084013e61238c565b606091505b50509050806123d0576040517f08c379a00000000000000000000000000000000000000000000000000000000081526004016123c790614c66565b60405180910390fd5b6123dc84846001612c3b565b60006123e7856111ca565b9050600115158160600151151514156124545783600560008773ffffffffffffffffffffffffffffffffffffffff1673ffffffffffffffffffffffffffffffffffffffff168152602001908152602001600020600201600082825461244c9190614a4a565b925050819055505b5050505050565b8060011515612469826111ca565b606001511515146124af576040517f08c379a00000000000000000000000000000000000000000000000000000000081526004016124a690614cd2565b60405180910390fd5b600160009054906101000a900473ffffffffffffffffffffffffffffffffffffffff1673ffffffffffffffffffffffffffffffffffffffff163373ffffffffffffffffffffffffffffffffffffffff161461253f576040517f08c379a000000000000000000000000000000000000000000000000000000000815260040161253690614d64565b60405180910390fd5b600061254a836111ca565b905060008160a0015160008151811061256657612565614764565b5b60200260200101519050600061257c8583613454565b9050600681908060018154018082558091505060019003906000526020600020906007020160009091909190915060008201518160000190805190602001906125c69291906137df565b50602082015181600101556040820151816002015560608201518160030160006101000a81548160ff0219169083151502179055506080820151816004019080519060200190612617929190613865565b5060a0820151816005019080519060200190612634929190613865565b5060c0820151816006015550505050505050565b60008060009054906101000a900473ffffffffffffffffffffffffffffffffffffffff1673ffffffffffffffffffffffffffffffffffffffff166370a08231336040518263ffffffff1660e01b81526004016126a49190614077565b60206040518083038186803b1580156126bc57600080fd5b505afa1580156126d0573d6000803e3d6000fd5b505050506040513d601f19601f820116820180604052508101906126f49190614ab5565b905090565b6060600460003373ffffffffffffffffffffffffffffffffffffffff1673ffffffffffffffffffffffffffffffffffffffff168152602001908152602001600020805480602002602001604051908101604052809291908181526020016000905b8282101561284c5783829060005260206000209060040201604051806080016040529081600082015481526020016001820160009054906101000a900473ffffffffffffffffffffffffffffffffffffffff1673ffffffffffffffffffffffffffffffffffffffff1673ffffffffffffffffffffffffffffffffffffffff1681526020016002820160009054906101000a900473ffffffffffffffffffffffffffffffffffffffff1673ffffffffffffffffffffffffffffffffffffffff1673ffffffffffffffffffffffffffffffffffffffff1681526020016003820154815250508152602001906001019061275a565b50505050905090565b6060600560003373ffffffffffffffffffffffffffffffffffffffff1673ffffffffffffffffffffffffffffffffffffffff16815260200190815260200160002060040180548060200260200160405190810160405280929190818152602001828054801561291957602002820191906000526020600020905b8160009054906101000a900473ffffffffffffffffffffffffffffffffffffffff1673ffffffffffffffffffffffffffffffffffffffff16815260200190600101908083116128cf575b5050505050905090565b61292b6137a0565b600080600090505b600680549050811015612bbd5784805190602001206006828154811061295c5761295b614764565b5b906000526020600020906007020160000160405161297a9190614664565b60405180910390201415612baa576006818154811061299c5761299b614764565b5b906000526020600020906007020181816040518060e00160405290816000820180546129c790614593565b80601f01602080910402602001604051908101604052809291908181526020018280546129f390614593565b8015612a405780601f10612a1557610100808354040283529160200191612a40565b820191906000526020600020905b815481529060010190602001808311612a2357829003601f168201915b5050505050815260200160018201548152602001600282015481526020016003820160009054906101000a900460ff1615151515815260200160048201805480602002602001604051908101604052809291908181526020018280548015612afd57602002820191906000526020600020905b8160009054906101000a900473ffffffffffffffffffffffffffffffffffffffff1673ffffffffffffffffffffffffffffffffffffffff1681526020019060010190808311612ab3575b5050505050815260200160058201805480602002602001604051908101604052809291908181526020018280548015612b8b57602002820191906000526020600020905b8160009054906101000a900473ffffffffffffffffffffffffffffffffffffffff1673ffffffffffffffffffffffffffffffffffffffff1681526020019060010190808311612b41575b5050505050815260200160068201548152505091509250925050612c10565b8080612bb5906147c2565b915050612933565b508215612bff576040517f08c379a0000000000000000000000000000000000000000000000000000000008152600401612bf690614dd0565b60405180910390fd5b612c076137a0565b80600092509250505b9250929050565b60008054906101000a900473ffffffffffffffffffffffffffffffffffffffff1681565b6040518060200160405280600081525080519060200120612c5b336111ca565b60000151805190602001201415612ca7576040517f08c379a0000000000000000000000000000000000000000000000000000000008152600401612c9e90614a2a565b60405180910390fd5b801561308057600460003373ffffffffffffffffffffffffffffffffffffffff1673ffffffffffffffffffffffffffffffffffffffff16815260200190815260200160002060405180608001604052804281526020013373ffffffffffffffffffffffffffffffffffffffff1681526020018573ffffffffffffffffffffffffffffffffffffffff1681526020018481525090806001815401808255809150506001900390600052602060002090600402016000909190919091506000820151816000015560208201518160010160006101000a81548173ffffffffffffffffffffffffffffffffffffffff021916908373ffffffffffffffffffffffffffffffffffffffff16021790555060408201518160020160006101000a81548173ffffffffffffffffffffffffffffffffffffffff021916908373ffffffffffffffffffffffffffffffffffffffff160217905550606082015181600301555050600260405180608001604052804281526020013373ffffffffffffffffffffffffffffffffffffffff1681526020018573ffffffffffffffffffffffffffffffffffffffff1681526020018481525090806001815401808255809150506001900390600052602060002090600402016000909190919091506000820151816000015560208201518160010160006101000a81548173ffffffffffffffffffffffffffffffffffffffff021916908373ffffffffffffffffffffffffffffffffffffffff16021790555060408201518160020160006101000a81548173ffffffffffffffffffffffffffffffffffffffff021916908373ffffffffffffffffffffffffffffffffffffffff160217905550606082015181600301555050600460008473ffffffffffffffffffffffffffffffffffffffff1673ffffffffffffffffffffffffffffffffffffffff16815260200190815260200160002060405180608001604052804281526020013373ffffffffffffffffffffffffffffffffffffffff1681526020018573ffffffffffffffffffffffffffffffffffffffff1681526020018481525090806001815401808255809150506001900390600052602060002090600402016000909190919091506000820151816000015560208201518160010160006101000a81548173ffffffffffffffffffffffffffffffffffffffff021916908373ffffffffffffffffffffffffffffffffffffffff16021790555060408201518160020160006101000a81548173ffffffffffffffffffffffffffffffffffffffff021916908373ffffffffffffffffffffffffffffffffffffffff16021790555060608201518160030155505061344f565b600460008473ffffffffffffffffffffffffffffffffffffffff1673ffffffffffffffffffffffffffffffffffffffff16815260200190815260200160002060405180608001604052804281526020018573ffffffffffffffffffffffffffffffffffffffff1681526020013373ffffffffffffffffffffffffffffffffffffffff1681526020018481525090806001815401808255809150506001900390600052602060002090600402016000909190919091506000820151816000015560208201518160010160006101000a81548173ffffffffffffffffffffffffffffffffffffffff021916908373ffffffffffffffffffffffffffffffffffffffff16021790555060408201518160020160006101000a81548173ffffffffffffffffffffffffffffffffffffffff021916908373ffffffffffffffffffffffffffffffffffffffff160217905550606082015181600301555050600460003373ffffffffffffffffffffffffffffffffffffffff1673ffffffffffffffffffffffffffffffffffffffff16815260200190815260200160002060405180608001604052804281526020018573ffffffffffffffffffffffffffffffffffffffff1681526020013373ffffffffffffffffffffffffffffffffffffffff1681526020018481525090806001815401808255809150506001900390600052602060002090600402016000909190919091506000820151816000015560208201518160010160006101000a81548173ffffffffffffffffffffffffffffffffffffffff021916908373ffffffffffffffffffffffffffffffffffffffff16021790555060408201518160020160006101000a81548173ffffffffffffffffffffffffffffffffffffffff021916908373ffffffffffffffffffffffffffffffffffffffff160217905550606082015181600301555050600260405180608001604052804281526020018573ffffffffffffffffffffffffffffffffffffffff1681526020013373ffffffffffffffffffffffffffffffffffffffff1681526020018481525090806001815401808255809150506001900390600052602060002090600402016000909190919091506000820151816000015560208201518160010160006101000a81548173ffffffffffffffffffffffffffffffffffffffff021916908373ffffffffffffffffffffffffffffffffffffffff16021790555060408201518160020160006101000a81548173ffffffffffffffffffffffffffffffffffffffff021916908373ffffffffffffffffffffffffffffffffffffffff1602179055506060820151816003015550505b505050565b61345c6137a0565b6000613467836111ca565b905060008061347b83600001516000612923565b91509150600061348a876111ca565b905060008061349e83600001516000612923565b91509150856080015181815181106134b9576134b8614764565b5b60200260200101600073ffffffffffffffffffffffffffffffffffffffff1681525085600685815481106134f0576134ef614764565b5b9060005260206000209060070201600082015181600001908051906020019061351a9291906137df565b50602082015181600101556040820151816002015560608201518160030160006101000a81548160ff021916908315150217905550608082015181600401908051906020019061356b929190613865565b5060a0820151816005019080519060200190613588929190613865565b5060c0820151816006015590505085600560008a73ffffffffffffffffffffffffffffffffffffffff1673ffffffffffffffffffffffffffffffffffffffff16815260200190815260200160002060008201518160000190805190602001906135f29291906137df565b50602082015181600101556040820151816002015560608201518160030160006101000a81548160ff0219169083151502179055506080820151816004019080519060200190613643929190613865565b5060a0820151816005019080519060200190613660929190613865565b5060c0820151816006015590505060008360600190151590811515815250508260a0015160008151811061369757613696614764565b5b60200260200101600073ffffffffffffffffffffffffffffffffffffffff1681525082600560008b73ffffffffffffffffffffffffffffffffffffffff1673ffffffffffffffffffffffffffffffffffffffff16815260200190815260200160002060008201518160000190805190602001906137159291906137df565b50602082015181600101556040820151816002015560608201518160030160006101000a81548160ff0219169083151502179055506080820151816004019080519060200190613766929190613865565b5060a0820151816005019080519060200190613783929190613865565b5060c0820151816006015590505082965050505050505092915050565b6040518060e001604052806060815260200160008152602001600081526020016000151581526020016060815260200160608152602001600081525090565b8280546137eb90614593565b90600052602060002090601f01602090048101928261380d5760008555613854565b82601f1061382657805160ff1916838001178555613854565b82800160010185558215613854579182015b82811115613853578251825591602001919060010190613838565b5b50905061386191906139ce565b5090565b8280548282559060005260206000209081019282156138de579160200282015b828111156138dd5782518260006101000a81548173ffffffffffffffffffffffffffffffffffffffff021916908373ffffffffffffffffffffffffffffffffffffffff16021790555091602001919060010190613885565b5b5090506138eb91906139ce565b5090565b8280546138fb90614593565b90600052602060002090601f01602090048101928261391d576000855561396b565b82601f1061392e578054855561396b565b8280016001018555821561396b57600052602060002091601f016020900482015b8281111561396a57825482559160010191906001019061394f565b5b50905061397891906139ce565b5090565b8280548282559060005260206000209081019282156139bd5760005260206000209182015b828111156139bc5782548255916001019190600101906139a1565b5b5090506139ca91906139ce565b5090565b5b808211156139e75760008160009055506001016139cf565b5090565b6000604051905090565b600080fd5b600080fd5b600080fd5b600080fd5b6000601f19601f8301169050919050565b7f4e487b7100000000000000000000000000000000000000000000000000000000600052604160045260246000fd5b613a5282613a09565b810181811067ffffffffffffffff82111715613a7157613a70613a1a565b5b80604052505050565b6000613a846139eb565b9050613a908282613a49565b919050565b600067ffffffffffffffff821115613ab057613aaf613a1a565b5b613ab982613a09565b9050602081019050919050565b82818337600083830152505050565b6000613ae8613ae384613a95565b613a7a565b905082815260208101848484011115613b0457613b03613a04565b5b613b0f848285613ac6565b509392505050565b600082601f830112613b2c57613b2b6139ff565b5b8135613b3c848260208601613ad5565b91505092915050565b6000819050919050565b613b5881613b45565b8114613b6357600080fd5b50565b600081359050613b7581613b4f565b92915050565b60008115159050919050565b613b9081613b7b565b8114613b9b57600080fd5b50565b600081359050613bad81613b87565b92915050565b600080600060608486031215613bcc57613bcb6139f5565b5b600084013567ffffffffffffffff811115613bea57613be96139fa565b5b613bf686828701613b17565b9350506020613c0786828701613b66565b9250506040613c1886828701613b9e565b9150509250925092565b600081519050919050565b600082825260208201905092915050565b60005b83811015613c5c578082015181840152602081019050613c41565b83811115613c6b576000848401525b50505050565b6000613c7c82613c22565b613c868185613c2d565b9350613c96818560208601613c3e565b613c9f81613a09565b840191505092915050565b613cb381613b45565b82525050565b613cc281613b7b565b82525050565b600081519050919050565b600082825260208201905092915050565b6000819050602082019050919050565b600073ffffffffffffffffffffffffffffffffffffffff82169050919050565b6000613d1f82613cf4565b9050919050565b613d2f81613d14565b82525050565b6000613d418383613d26565b60208301905092915050565b6000602082019050919050565b6000613d6582613cc8565b613d6f8185613cd3565b9350613d7a83613ce4565b8060005b83811015613dab578151613d928882613d35565b9750613d9d83613d4d565b925050600181019050613d7e565b5085935050505092915050565b600060e0830160008301518482036000860152613dd58282613c71565b9150506020830151613dea6020860182613caa565b506040830151613dfd6040860182613caa565b506060830151613e106060860182613cb9565b5060808301518482036080860152613e288282613d5a565b91505060a083015184820360a0860152613e428282613d5a565b91505060c0830151613e5760c0860182613caa565b508091505092915050565b60006020820190508181036000830152613e7c8184613db8565b905092915050565b600082825260208201905092915050565b6000613ea082613cc8565b613eaa8185613e84565b9350613eb583613ce4565b8060005b83811015613ee6578151613ecd8882613d35565b9750613ed883613d4d565b925050600181019050613eb9565b5085935050505092915050565b60006020820190508181036000830152613f0d8184613e95565b905092915050565b600081519050919050565b600082825260208201905092915050565b6000819050602082019050919050565b608082016000820151613f576000850182613caa565b506020820151613f6a6020850182613d26565b506040820151613f7d6040850182613d26565b506060820151613f906060850182613caa565b50505050565b6000613fa28383613f41565b60808301905092915050565b6000602082019050919050565b6000613fc682613f15565b613fd08185613f20565b9350613fdb83613f31565b8060005b8381101561400c578151613ff38882613f96565b9750613ffe83613fae565b925050600181019050613fdf565b5085935050505092915050565b600060208201905081810360008301526140338184613fbb565b905092915050565b600060208284031215614051576140506139f5565b5b600061405f84828501613b66565b91505092915050565b61407181613d14565b82525050565b600060208201905061408c6000830184614068565b92915050565b600081519050919050565b600082825260208201905092915050565b6000819050602082019050919050565b600060e08301600083015184820360008601526140db8282613c71565b91505060208301516140f06020860182613caa565b5060408301516141036040860182613caa565b5060608301516141166060860182613cb9565b506080830151848203608086015261412e8282613d5a565b91505060a083015184820360a08601526141488282613d5a565b91505060c083015161415d60c0860182613caa565b508091505092915050565b600061417483836140be565b905092915050565b6000602082019050919050565b600061419482614092565b61419e818561409d565b9350836020820285016141b0856140ae565b8060005b858110156141ec57848403895281516141cd8582614168565b94506141d88361417c565b925060208a019950506001810190506141b4565b50829750879550505050505092915050565b600060208201905081810360008301526142188184614189565b905092915050565b61422981613b45565b82525050565b60006020820190506142446000830184614220565b92915050565b6000602082840312156142605761425f6139f5565b5b600082013567ffffffffffffffff81111561427e5761427d6139fa565b5b61428a84828501613b17565b91505092915050565b600080604083850312156142aa576142a96139f5565b5b600083013567ffffffffffffffff8111156142c8576142c76139fa565b5b6142d485828601613b17565b92505060206142e585828601613b9e565b9150509250929050565b600060408201905081810360008301526143098185613db8565b90506143186020830184614220565b9392505050565b61432881613d14565b811461433357600080fd5b50565b6000813590506143458161431f565b92915050565b600060208284031215614361576143606139f5565b5b600061436f84828501614336565b91505092915050565b600080600060608486031215614391576143906139f5565b5b600061439f86828701614336565b935050602084013567ffffffffffffffff8111156143c0576143bf6139fa565b5b6143cc86828701613b17565b92505060406143dd86828701613b66565b9150509250925092565b60006080820190506143fc6000830187614220565b6144096020830186614068565b6144166040830185614068565b6144236060830184614220565b95945050505050565b60008060408385031215614443576144426139f5565b5b600061445185828601614336565b925050602061446285828601613b66565b9150509250929050565b600061447782613cf4565b9050919050565b6144878161446c565b811461449257600080fd5b50565b6000813590506144a48161447e565b92915050565b600080604083850312156144c1576144c06139f5565b5b60006144cf85828601614495565b92505060206144e085828601613b66565b9150509250929050565b6000819050919050565b600061450f61450a61450584613cf4565b6144ea565b613cf4565b9050919050565b6000614521826144f4565b9050919050565b600061453382614516565b9050919050565b61454381614528565b82525050565b600060208201905061455e600083018461453a565b92915050565b7f4e487b7100000000000000000000000000000000000000000000000000000000600052602260045260246000fd5b600060028204905060018216806145ab57607f821691505b602082108114156145bf576145be614564565b5b50919050565b600081905092915050565b60008190508160005260206000209050919050565b600081546145f281614593565b6145fc81866145c5565b9450600182166000811461461757600181146146285761465b565b60ff1983168652818601935061465b565b614631856145d0565b60005b8381101561465357815481890152600182019150602081019050614634565b838801955050505b50505092915050565b600061467082846145e5565b915081905092915050565b600082825260208201905092915050565b7f596f7520616c7265616479206861766520616e206163636f756e740000000000600082015250565b60006146c2601b8361467b565b91506146cd8261468c565b602082019050919050565b600060208201905081810360008301526146f1816146b5565b9050919050565b7f596f752772652061646d696e2021212100000000000000000000000000000000600082015250565b600061472e60108361467b565b9150614739826146f8565b602082019050919050565b6000602082019050818103600083015261475d81614721565b9050919050565b7f4e487b7100000000000000000000000000000000000000000000000000000000600052603260045260246000fd5b7f4e487b7100000000000000000000000000000000000000000000000000000000600052601160045260246000fd5b60006147cd82613b45565b91507fffffffffffffffffffffffffffffffffffffffffffffffffffffffffffffffff821415614800576147ff614793565b5b600182019050919050565b600061481682613c22565b614820818561467b565b9350614830818560208601613c3e565b61483981613a09565b840191505092915050565b60006040820190506148596000830185614068565b818103602083015261486b818461480b565b90509392505050565b7f546865206368696c6420646964206e6f7420666f756e64000000000000000000600082015250565b60006148aa60178361467b565b91506148b582614874565b602082019050919050565b600060208201905081810360008301526148d98161489d565b9050919050565b7f596f752068617665206e6f7420616e79206368696c6400000000000000000000600082015250565b600061491660168361467b565b9150614921826148e0565b602082019050919050565b6000602082019050818103600083015261494581614909565b9050919050565b7f596f752772652061646d696e0000000000000000000000000000000000000000600082015250565b6000614982600c8361467b565b915061498d8261494c565b602082019050919050565b600060208201905081810360008301526149b181614975565b9050919050565b7f596f752063616e206c696e6b206163636f756e74206166746572206c6f67676560008201527f6420696e00000000000000000000000000000000000000000000000000000000602082015250565b6000614a1460248361467b565b9150614a1f826149b8565b604082019050919050565b60006020820190508181036000830152614a4381614a07565b9050919050565b6000614a5582613b45565b9150614a6083613b45565b9250827fffffffffffffffffffffffffffffffffffffffffffffffffffffffffffffffff03821115614a9557614a94614793565b5b828201905092915050565b600081519050614aaf81613b4f565b92915050565b600060208284031215614acb57614aca6139f5565b5b6000614ad984828501614aa0565b91505092915050565b7f596f752776652061206c696d69746564206163636f756e74202c20796f75277260008201527f65206e6f7420616e206164756c74000000000000000000000000000000000000602082015250565b6000614b3e602e8361467b565b9150614b4982614ae2565b604082019050919050565b60006020820190508181036000830152614b6d81614b31565b9050919050565b6000604082019050614b896000830185614068565b614b966020830184614220565b9392505050565b600081519050614bac81613b87565b92915050565b600060208284031215614bc857614bc76139f5565b5b6000614bd684828501614b9d565b91505092915050565b50565b6000614bef6000836145c5565b9150614bfa82614bdf565b600082019050919050565b6000614c1082614be2565b9150819050919050565b7f4661696c656420746f2073656e64204574686572000000000000000000000000600082015250565b6000614c5060148361467b565b9150614c5b82614c1a565b602082019050919050565b60006020820190508181036000830152614c7f81614c43565b9050919050565b7f54686973206163636f756e74206973206e6f74206c696d697465640000000000600082015250565b6000614cbc601b8361467b565b9150614cc782614c86565b602082019050919050565b60006020820190508181036000830152614ceb81614caf565b9050919050565b7f596f75206d757374206265206f776e657220746f2072756e2074686973206d6560008201527f74686f6400000000000000000000000000000000000000000000000000000000602082015250565b6000614d4e60248361467b565b9150614d5982614cf2565b604082019050919050565b60006020820190508181036000830152614d7d81614d41565b9050919050565b7f54686520706572736f6e20646964206e6f7420666f756e640000000000000000600082015250565b6000614dba60188361467b565b9150614dc582614d84565b602082019050919050565b60006020820190508181036000830152614de981614dad565b905091905056fea26469706673582212206b9eafb1d11cc605c1d4a005deb0b68bb8ca6cf7ae0d611c0838570def8c7c7864736f6c63430008090033",
  "linkReferences": {},
  "deployedLinkReferences": {}
}