{
  "_format": "hh-sol-artifact-1",
  "contractName": "BankingApp",
  "sourceName": "contracts/Banking.sol",
  "abi": [
    {
      "inputs": [
        {
          "internalType": "address",
          "name": "_token",
          "type": "address"
        },
        {
          "internalType": "address",
          "name": "_owner",
          "type": "address"
        }
      ],
      "stateMutability": "payable",
      "type": "constructor"
    },
    {
      "anonymous": false,
      "inputs": [
        {
          "indexed": false,
          "internalType": "address",
          "name": "owner",
          "type": "address"
        },
        {
          "indexed": false,
          "internalType": "string",
          "name": "child",
          "type": "string"
        }
      ],
      "name": "BalanceGot",
      "type": "event"
    },
    {
      "anonymous": false,
      "inputs": [
        {
          "indexed": false,
          "internalType": "address",
          "name": "from",
          "type": "address"
        },
        {
          "indexed": false,
          "internalType": "address",
          "name": "to",
          "type": "address"
        },
        {
          "indexed": false,
          "internalType": "uint256",
          "name": "amount",
          "type": "uint256"
        }
      ],
      "name": "InheritumSent",
      "type": "event"
    },
    {
      "anonymous": false,
      "inputs": [
        {
          "indexed": false,
          "internalType": "address",
          "name": "from",
          "type": "address"
        },
        {
          "indexed": false,
          "internalType": "address",
          "name": "to",
          "type": "address"
        },
        {
          "indexed": false,
          "internalType": "string",
          "name": "childName",
          "type": "string"
        },
        {
          "indexed": false,
          "internalType": "uint256",
          "name": "amount",
          "type": "uint256"
        }
      ],
      "name": "SentMoney",
      "type": "event"
    },
    {
      "anonymous": false,
      "inputs": [
        {
          "indexed": false,
          "internalType": "address",
          "name": "recipient",
          "type": "address"
        },
        {
          "indexed": false,
          "internalType": "uint256",
          "name": "amount",
          "type": "uint256"
        }
      ],
      "name": "allowanceTest",
      "type": "event"
    },
    {
      "inputs": [
        {
          "internalType": "uint256",
          "name": "",
          "type": "uint256"
        }
      ],
      "name": "GeneralTransactions",
      "outputs": [
        {
          "internalType": "uint256",
          "name": "timestamp",
          "type": "uint256"
        },
        {
          "internalType": "address",
          "name": "sender",
          "type": "address"
        },
        {
          "internalType": "address",
          "name": "receiver",
          "type": "address"
        },
        {
          "internalType": "uint256",
          "name": "amount",
          "type": "uint256"
        }
      ],
      "stateMutability": "view",
      "type": "function"
    },
    {
      "inputs": [
        {
          "internalType": "string",
          "name": "_name",
          "type": "string"
        },
        {
          "internalType": "string",
          "name": "_age",
          "type": "string"
        },
        {
          "internalType": "bool",
          "name": "isLimited",
          "type": "bool"
        }
      ],
      "name": "addPerson",
      "outputs": [
        {
          "components": [
            {
              "internalType": "string",
              "name": "name",
              "type": "string"
            },
            {
              "internalType": "string",
              "name": "agestring",
              "type": "string"
            },
            {
              "internalType": "uint256",
              "name": "balance",
              "type": "uint256"
            },
            {
              "internalType": "bool",
              "name": "isLimited",
              "type": "bool"
            },
            {
              "internalType": "address[]",
              "name": "children",
              "type": "address[]"
            },
            {
              "internalType": "address[]",
              "name": "parents",
              "type": "address[]"
            },
            {
              "internalType": "uint256",
              "name": "createdTime",
              "type": "uint256"
            }
          ],
          "internalType": "struct BankingApp.Person",
          "name": "",
          "type": "tuple"
        }
      ],
      "stateMutability": "nonpayable",
      "type": "function"
    },
    {
      "inputs": [],
      "name": "balancePool",
      "outputs": [
        {
          "internalType": "uint256",
          "name": "",
          "type": "uint256"
        }
      ],
      "stateMutability": "view",
      "type": "function"
    },
    {
      "inputs": [
        {
          "internalType": "address",
          "name": "to",
          "type": "address"
        }
      ],
      "name": "deposit",
      "outputs": [],
      "stateMutability": "payable",
      "type": "function"
    },
    {
      "inputs": [
        {
          "internalType": "string",
          "name": "_name",
          "type": "string"
        },
        {
          "internalType": "bool",
          "name": "returnErr",
          "type": "bool"
        }
      ],
      "name": "findTheChild",
      "outputs": [
        {
          "components": [
            {
              "internalType": "string",
              "name": "name",
              "type": "string"
            },
            {
              "internalType": "string",
              "name": "agestring",
              "type": "string"
            },
            {
              "internalType": "uint256",
              "name": "balance",
              "type": "uint256"
            },
            {
              "internalType": "bool",
              "name": "isLimited",
              "type": "bool"
            },
            {
              "internalType": "address[]",
              "name": "children",
              "type": "address[]"
            },
            {
              "internalType": "address[]",
              "name": "parents",
              "type": "address[]"
            },
            {
              "internalType": "uint256",
              "name": "createdTime",
              "type": "uint256"
            }
          ],
          "internalType": "struct BankingApp.Person",
          "name": "",
          "type": "tuple"
        },
        {
          "internalType": "uint256",
          "name": "index",
          "type": "uint256"
        }
      ],
      "stateMutability": "view",
      "type": "function"
    },
    {
      "inputs": [
        {
          "internalType": "string",
          "name": "_name",
          "type": "string"
        },
        {
          "internalType": "bool",
          "name": "returnErr",
          "type": "bool"
        }
      ],
      "name": "findThePerson",
      "outputs": [
        {
          "components": [
            {
              "internalType": "string",
              "name": "name",
              "type": "string"
            },
            {
              "internalType": "string",
              "name": "agestring",
              "type": "string"
            },
            {
              "internalType": "uint256",
              "name": "balance",
              "type": "uint256"
            },
            {
              "internalType": "bool",
              "name": "isLimited",
              "type": "bool"
            },
            {
              "internalType": "address[]",
              "name": "children",
              "type": "address[]"
            },
            {
              "internalType": "address[]",
              "name": "parents",
              "type": "address[]"
            },
            {
              "internalType": "uint256",
              "name": "createdTime",
              "type": "uint256"
            }
          ],
          "internalType": "struct BankingApp.Person",
          "name": "",
          "type": "tuple"
        },
        {
          "internalType": "uint256",
          "name": "index",
          "type": "uint256"
        }
      ],
      "stateMutability": "view",
      "type": "function"
    },
    {
      "inputs": [],
      "name": "getAllTransactionRecorded",
      "outputs": [
        {
          "components": [
            {
              "internalType": "uint256",
              "name": "timestamp",
              "type": "uint256"
            },
            {
              "internalType": "address",
              "name": "sender",
              "type": "address"
            },
            {
              "internalType": "address",
              "name": "receiver",
              "type": "address"
            },
            {
              "internalType": "uint256",
              "name": "amount",
              "type": "uint256"
            }
          ],
          "internalType": "struct BankingApp.Transaction[]",
          "name": "",
          "type": "tuple[]"
        }
      ],
      "stateMutability": "view",
      "type": "function"
    },
    {
      "inputs": [],
      "name": "getBalanceOfInheritumToken",
      "outputs": [
        {
          "internalType": "uint256",
          "name": "",
          "type": "uint256"
        }
      ],
      "stateMutability": "view",
      "type": "function"
    },
    {
      "inputs": [],
      "name": "getChildren",
      "outputs": [
        {
          "internalType": "address[]",
          "name": "",
          "type": "address[]"
        }
      ],
      "stateMutability": "view",
      "type": "function"
    },
    {
      "inputs": [],
      "name": "getMyBalance",
      "outputs": [
        {
          "internalType": "uint256",
          "name": "",
          "type": "uint256"
        }
      ],
      "stateMutability": "view",
      "type": "function"
    },
    {
      "inputs": [],
      "name": "getMyChild",
      "outputs": [
        {
          "internalType": "address[]",
          "name": "",
          "type": "address[]"
        }
      ],
      "stateMutability": "view",
      "type": "function"
    },
    {
      "inputs": [
        {
          "internalType": "string",
          "name": "_name",
          "type": "string"
        }
      ],
      "name": "getMyChildBalance",
      "outputs": [
        {
          "internalType": "uint256",
          "name": "",
          "type": "uint256"
        }
      ],
      "stateMutability": "nonpayable",
      "type": "function"
    },
    {
      "inputs": [
        {
          "internalType": "address",
          "name": "user_address",
          "type": "address"
        }
      ],
      "name": "getPending",
      "outputs": [
        {
          "internalType": "uint256",
          "name": "",
          "type": "uint256"
        }
      ],
      "stateMutability": "view",
      "type": "function"
    },
    {
      "inputs": [],
      "name": "getPersons",
      "outputs": [
        {
          "components": [
            {
              "internalType": "string",
              "name": "name",
              "type": "string"
            },
            {
              "internalType": "string",
              "name": "agestring",
              "type": "string"
            },
            {
              "internalType": "uint256",
              "name": "balance",
              "type": "uint256"
            },
            {
              "internalType": "bool",
              "name": "isLimited",
              "type": "bool"
            },
            {
              "internalType": "address[]",
              "name": "children",
              "type": "address[]"
            },
            {
              "internalType": "address[]",
              "name": "parents",
              "type": "address[]"
            },
            {
              "internalType": "uint256",
              "name": "createdTime",
              "type": "uint256"
            }
          ],
          "internalType": "struct BankingApp.Person[]",
          "name": "",
          "type": "tuple[]"
        }
      ],
      "stateMutability": "view",
      "type": "function"
    },
    {
      "inputs": [],
      "name": "getTranscationHistory",
      "outputs": [
        {
          "components": [
            {
              "internalType": "uint256",
              "name": "timestamp",
              "type": "uint256"
            },
            {
              "internalType": "address",
              "name": "sender",
              "type": "address"
            },
            {
              "internalType": "address",
              "name": "receiver",
              "type": "address"
            },
            {
              "internalType": "uint256",
              "name": "amount",
              "type": "uint256"
            }
          ],
          "internalType": "struct BankingApp.Transaction[]",
          "name": "",
          "type": "tuple[]"
        }
      ],
      "stateMutability": "view",
      "type": "function"
    },
    {
      "inputs": [
        {
          "internalType": "address",
          "name": "addr",
          "type": "address"
        }
      ],
      "name": "getUser",
      "outputs": [
        {
          "components": [
            {
              "internalType": "string",
              "name": "name",
              "type": "string"
            },
            {
              "internalType": "string",
              "name": "agestring",
              "type": "string"
            },
            {
              "internalType": "uint256",
              "name": "balance",
              "type": "uint256"
            },
            {
              "internalType": "bool",
              "name": "isLimited",
              "type": "bool"
            },
            {
              "internalType": "address[]",
              "name": "children",
              "type": "address[]"
            },
            {
              "internalType": "address[]",
              "name": "parents",
              "type": "address[]"
            },
            {
              "internalType": "uint256",
              "name": "createdTime",
              "type": "uint256"
            }
          ],
          "internalType": "struct BankingApp.Person",
          "name": "",
          "type": "tuple"
        }
      ],
      "stateMutability": "view",
      "type": "function"
    },
    {
      "inputs": [],
      "name": "getUsersAddressByOwner",
      "outputs": [
        {
          "internalType": "address[]",
          "name": "",
          "type": "address[]"
        }
      ],
      "stateMutability": "view",
      "type": "function"
    },
    {
      "inputs": [
        {
          "internalType": "address",
          "name": "childAccount",
          "type": "address"
        },
        {
          "internalType": "string",
          "name": "_name",
          "type": "string"
        },
        {
          "internalType": "string",
          "name": "ageString",
          "type": "string"
        }
      ],
      "name": "linkAccount",
      "outputs": [
        {
          "components": [
            {
              "internalType": "string",
              "name": "name",
              "type": "string"
            },
            {
              "internalType": "string",
              "name": "agestring",
              "type": "string"
            },
            {
              "internalType": "uint256",
              "name": "balance",
              "type": "uint256"
            },
            {
              "internalType": "bool",
              "name": "isLimited",
              "type": "bool"
            },
            {
              "internalType": "address[]",
              "name": "children",
              "type": "address[]"
            },
            {
              "internalType": "address[]",
              "name": "parents",
              "type": "address[]"
            },
            {
              "internalType": "uint256",
              "name": "createdTime",
              "type": "uint256"
            }
          ],
          "internalType": "struct BankingApp.Person",
          "name": "",
          "type": "tuple"
        }
      ],
      "stateMutability": "nonpayable",
      "type": "function"
    },
    {
      "inputs": [],
      "name": "makeAccountisLimited",
      "outputs": [],
      "stateMutability": "nonpayable",
      "type": "function"
    },
    {
      "inputs": [
        {
          "internalType": "address payable",
          "name": "_to",
          "type": "address"
        },
        {
          "internalType": "uint256",
          "name": "amount",
          "type": "uint256"
        }
      ],
      "name": "sendEther",
      "outputs": [],
      "stateMutability": "payable",
      "type": "function"
    },
    {
      "inputs": [
        {
          "internalType": "address",
          "name": "_to",
          "type": "address"
        },
        {
          "internalType": "uint256",
          "name": "_amount",
          "type": "uint256"
        }
      ],
      "name": "sendTokenToChild",
      "outputs": [],
      "stateMutability": "nonpayable",
      "type": "function"
    },
    {
      "inputs": [],
      "name": "token",
      "outputs": [
        {
          "internalType": "contract IERC20",
          "name": "",
          "type": "address"
        }
      ],
      "stateMutability": "view",
      "type": "function"
    },
    {
      "inputs": [
        {
          "internalType": "uint256",
          "name": "",
          "type": "uint256"
        }
      ],
      "name": "user_address",
      "outputs": [
        {
          "internalType": "address",
          "name": "",
          "type": "address"
        }
      ],
      "stateMutability": "view",
      "type": "function"
    },
    {
      "inputs": [],
      "name": "withdraw",
      "outputs": [],
      "stateMutability": "payable",
      "type": "function"
    },
    {
      "inputs": [
        {
          "internalType": "address",
          "name": "to",
          "type": "address"
        }
      ],
      "name": "withdrawBack",
      "outputs": [],
      "stateMutability": "payable",
      "type": "function"
    }
  ],
  "bytecode": "0x60806040526040516200571a3803806200571a83398181016040528101906200002991906200011c565b816000806101000a81548173ffffffffffffffffffffffffffffffffffffffff021916908373ffffffffffffffffffffffffffffffffffffffff16021790555080600160006101000a81548173ffffffffffffffffffffffffffffffffffffffff021916908373ffffffffffffffffffffffffffffffffffffffff160217905550505062000163565b600080fd5b600073ffffffffffffffffffffffffffffffffffffffff82169050919050565b6000620000e482620000b7565b9050919050565b620000f681620000d7565b81146200010257600080fd5b50565b6000815190506200011681620000eb565b92915050565b60008060408385031215620001365762000135620000b2565b5b6000620001468582860162000105565b9250506020620001598582860162000105565b9150509250929050565b6155a780620001736000396000f3fe6080604052600436106101665760003560e01c806370eb843b116100d1578063d086c2541161008a578063ee203fe611610064578063ee203fe614610531578063f340fa011461055c578063fbf8574d14610578578063fc0c546a146105b657610166565b8063d086c254146104ad578063dbc1a22b146104ea578063e2a5a17b1461051557610166565b806370eb843b146103bb578063a5090f97146103e6578063a8b3ba0214610426578063b42fbdfd1461043d578063c1756a2c14610466578063c81cdec91461048257610166565b80634c6b6c6f116101235780634c6b6c6f146102705780634c7389091461029b57806353a86c94146102c65780635412f1c9146103035780635a86bfd9146103415780636f77926b1461037e57610166565b806327d86db71461016b5780632b9d6b1e146101a85780633a34675d146101d35780633ccfd60b146101fe5780634892e8e8146102085780634b696dc914610233575b600080fd5b34801561017757600080fd5b50610192600480360381019061018d9190614316565b6105e1565b60405161019f91906145f2565b60405180910390f35b3480156101b457600080fd5b506101bd610c6a565b6040516101ca9190614683565b60405180910390f35b3480156101df57600080fd5b506101e8610cf8565b6040516101f591906147a9565b60405180910390f35b610206610e17565b005b34801561021457600080fd5b5061021d610eea565b60405161022a9190614683565b60405180910390f35b34801561023f57600080fd5b5061025a600480360381019061025591906147f7565b610fe3565b6040516102679190614833565b60405180910390f35b34801561027c57600080fd5b50610285611022565b60405161029291906149c1565b60405180910390f35b3480156102a757600080fd5b506102b06112f0565b6040516102bd91906149f2565b60405180910390f35b3480156102d257600080fd5b506102ed60048036038101906102e89190614a0d565b61130f565b6040516102fa91906149f2565b60405180910390f35b34801561030f57600080fd5b5061032a60048036038101906103259190614a56565b61136a565b604051610338929190614ab2565b60405180910390f35b34801561034d57600080fd5b5061036860048036038101906103639190614b0e565b6114af565b60405161037591906145f2565b60405180910390f35b34801561038a57600080fd5b506103a560048036038101906103a09190614b99565b612175565b6040516103b291906145f2565b60405180910390f35b3480156103c757600080fd5b506103d061243d565b6040516103dd91906149f2565b60405180910390f35b3480156103f257600080fd5b5061040d600480360381019061040891906147f7565b612443565b60405161041d9493929190614bc6565b60405180910390f35b34801561043257600080fd5b5061043b6124c3565b005b34801561044957600080fd5b50610464600480360381019061045f9190614c0b565b612679565b005b610480600480360381019061047b9190614c89565b61287a565b005b34801561048e57600080fd5b50610497612a48565b6040516104a491906149f2565b60405180910390f35b3480156104b957600080fd5b506104d460048036038101906104cf9190614b99565b612af9565b6040516104e191906149f2565b60405180910390f35b3480156104f657600080fd5b506104ff612b42565b60405161050c91906147a9565b60405180910390f35b61052f600480360381019061052a9190614b99565b612c9e565b005b34801561053d57600080fd5b50610546612dd9565b6040516105539190614683565b60405180910390f35b61057660048036038101906105719190614b99565b612ea7565b005b34801561058457600080fd5b5061059f600480360381019061059a9190614a56565b612f9a565b6040516105ad929190614ab2565b60405180910390f35b3480156105c257600080fd5b506105cb613316565b6040516105d89190614d28565b60405180910390f35b6105e9613f39565b6040518060200160405280600081525080519060200120600560003373ffffffffffffffffffffffffffffffffffffffff1673ffffffffffffffffffffffffffffffffffffffff16815260200190815260200160002060000160405161064f9190614e43565b604051809103902014610697576040517f08c379a000000000000000000000000000000000000000000000000000000000815260040161068e90614eb7565b60405180910390fd5b600160009054906101000a900473ffffffffffffffffffffffffffffffffffffffff1673ffffffffffffffffffffffffffffffffffffffff163373ffffffffffffffffffffffffffffffffffffffff161415610728576040517f08c379a000000000000000000000000000000000000000000000000000000000815260040161071f90614f23565b60405180910390fd5b6000600560003373ffffffffffffffffffffffffffffffffffffffff1673ffffffffffffffffffffffffffffffffffffffff168152602001908152602001600020905084816000019080519060200190610783929190613f78565b508381600101908051906020019061079c929190613f78565b503373ffffffffffffffffffffffffffffffffffffffff16318160020181905550828160030160006101000a81548160ff021916908315150217905550600067ffffffffffffffff8111156107f4576107f36141b3565b5b6040519080825280602002602001820160405280156108225781602001602082028036833780820191505090505b5081600401908051906020019061083a929190613ffe565b50600067ffffffffffffffff811115610856576108556141b3565b5b6040519080825280602002602001820160405280156108845781602001602082028036833780820191505090505b5081600501908051906020019061089c929190613ffe565b504281600601819055506000816040518060e00160405290816000820180546108c490614d72565b80601f01602080910402602001604051908101604052809291908181526020018280546108f090614d72565b801561093d5780601f106109125761010080835404028352916020019161093d565b820191906000526020600020905b81548152906001019060200180831161092057829003601f168201915b5050505050815260200160018201805461095690614d72565b80601f016020809104026020016040519081016040528092919081815260200182805461098290614d72565b80156109cf5780601f106109a4576101008083540402835291602001916109cf565b820191906000526020600020905b8154815290600101906020018083116109b257829003601f168201915b50505050508152602001600282015481526020016003820160009054906101000a900460ff1615151515815260200160048201805480602002602001604051908101604052809291908181526020018280548015610a8257602002820191906000526020600020905b8160009054906101000a900473ffffffffffffffffffffffffffffffffffffffff1673ffffffffffffffffffffffffffffffffffffffff1681526020019060010190808311610a38575b5050505050815260200160058201805480602002602001604051908101604052809291908181526020018280548015610b1057602002820191906000526020600020905b8160009054906101000a900473ffffffffffffffffffffffffffffffffffffffff1673ffffffffffffffffffffffffffffffffffffffff1681526020019060010190808311610ac6575b50505050508152602001600682015481525050905060068190806001815401808255809150506001900390600052602060002090600702016000909190919091506000820151816000019080519060200190610b6d929190613f78565b506020820151816001019080519060200190610b8a929190613f78565b506040820151816002015560608201518160030160006101000a81548160ff0219169083151502179055506080820151816004019080519060200190610bd1929190613ffe565b5060a0820151816005019080519060200190610bee929190613ffe565b5060c0820151816006015550506003339080600181540180825580915050600190039060005260206000200160009091909190916101000a81548173ffffffffffffffffffffffffffffffffffffffff021916908373ffffffffffffffffffffffffffffffffffffffff16021790555080925050509392505050565b60606003805480602002602001604051908101604052809291908181526020018280548015610cee57602002820191906000526020600020905b8160009054906101000a900473ffffffffffffffffffffffffffffffffffffffff1673ffffffffffffffffffffffffffffffffffffffff1681526020019060010190808311610ca4575b5050505050905090565b60606002805480602002602001604051908101604052809291908181526020016000905b82821015610e0e5783829060005260206000209060040201604051806080016040529081600082015481526020016001820160009054906101000a900473ffffffffffffffffffffffffffffffffffffffff1673ffffffffffffffffffffffffffffffffffffffff1673ffffffffffffffffffffffffffffffffffffffff1681526020016002820160009054906101000a900473ffffffffffffffffffffffffffffffffffffffff1673ffffffffffffffffffffffffffffffffffffffff1673ffffffffffffffffffffffffffffffffffffffff16815260200160038201548152505081526020019060010190610d1c565b50505050905090565b6000600860003373ffffffffffffffffffffffffffffffffffffffff1673ffffffffffffffffffffffffffffffffffffffff1681526020019081526020016000205490506000600860003373ffffffffffffffffffffffffffffffffffffffff1673ffffffffffffffffffffffffffffffffffffffff168152602001908152602001600020819055503373ffffffffffffffffffffffffffffffffffffffff166108fc829081150290604051600060405180830381858888f19350505050158015610ee6573d6000803e3d6000fd5b5050565b60606000610ef733612175565b9050600081608001515167ffffffffffffffff811115610f1a57610f196141b3565b5b604051908082528060200260200182016040528015610f485781602001602082028036833780820191505090505b50905060005b826080015151811015610fda5782608001518181518110610f7257610f71614f43565b5b6020026020010151828281518110610f8d57610f8c614f43565b5b602002602001019073ffffffffffffffffffffffffffffffffffffffff16908173ffffffffffffffffffffffffffffffffffffffff16815250508080610fd290614fa1565b915050610f4e565b50809250505090565b60038181548110610ff357600080fd5b906000526020600020016000915054906101000a900473ffffffffffffffffffffffffffffffffffffffff1681565b60606006805480602002602001604051908101604052809291908181526020016000905b828210156112e757838290600052602060002090600702016040518060e001604052908160008201805461107990614d72565b80601f01602080910402602001604051908101604052809291908181526020018280546110a590614d72565b80156110f25780601f106110c7576101008083540402835291602001916110f2565b820191906000526020600020905b8154815290600101906020018083116110d557829003601f168201915b5050505050815260200160018201805461110b90614d72565b80601f016020809104026020016040519081016040528092919081815260200182805461113790614d72565b80156111845780601f1061115957610100808354040283529160200191611184565b820191906000526020600020905b81548152906001019060200180831161116757829003601f168201915b50505050508152602001600282015481526020016003820160009054906101000a900460ff161515151581526020016004820180548060200260200160405190810160405280929190818152602001828054801561123757602002820191906000526020600020905b8160009054906101000a900473ffffffffffffffffffffffffffffffffffffffff1673ffffffffffffffffffffffffffffffffffffffff16815260200190600101908083116111ed575b50505050508152602001600582018054806020026020016040519081016040528092919081815260200182805480156112c557602002820191906000526020600020905b8160009054906101000a900473ffffffffffffffffffffffffffffffffffffffff1673ffffffffffffffffffffffffffffffffffffffff168152602001906001019080831161127b575b5050505050815260200160068201548152505081526020019060010190611046565b50505050905090565b60003373ffffffffffffffffffffffffffffffffffffffff1631905090565b60008061131d83600161136a565b5090507f43bffc0f95fb1b5cd921e2fa994fd3abf463eefb09b4b0fffddb4d365c172528338260000151604051611355929190615023565b60405180910390a18060400151915050919050565b611372613f39565b60008061137e33612175565b9050600081608001515190506001811061146d5760005b81811015611414576000836080015182815181106113b6576113b5614f43565b5b6020026020010151905060006113cb82612175565b6000015190508880519060200120818051906020012014156113ff576113f082612175565b839650965050505050506114a8565b5050808061140c90614fa1565b915050611395565b508415611456576040517f08c379a000000000000000000000000000000000000000000000000000000000815260040161144d9061509f565b60405180910390fd5b61145e613f39565b806000945094505050506114a8565b6040517f08c379a000000000000000000000000000000000000000000000000000000000815260040161149f9061510b565b60405180910390fd5b9250929050565b6114b7613f39565b600160009054906101000a900473ffffffffffffffffffffffffffffffffffffffff1673ffffffffffffffffffffffffffffffffffffffff163373ffffffffffffffffffffffffffffffffffffffff161415611548576040517f08c379a000000000000000000000000000000000000000000000000000000000815260040161153f90615177565b60405180910390fd5b604051806020016040528060008152508051906020012061156833612175565b600001518051906020012014156115b4576040517f08c379a00000000000000000000000000000000000000000000000000000000081526004016115ab90615209565b60405180910390fd5b6000600560003373ffffffffffffffffffffffffffffffffffffffff1673ffffffffffffffffffffffffffffffffffffffff168152602001908152602001600020905080600401859080600181540180825580915050600190039060005260206000200160009091909190916101000a81548173ffffffffffffffffffffffffffffffffffffffff021916908373ffffffffffffffffffffffffffffffffffffffff16021790555080600560003373ffffffffffffffffffffffffffffffffffffffff1673ffffffffffffffffffffffffffffffffffffffff16815260200190815260200160002060008201816000019080546116b090614d72565b6116bb929190614088565b5060018201816001019080546116d090614d72565b6116db929190614088565b50600282015481600201556003820160009054906101000a900460ff168160030160006101000a81548160ff0219169083151502179055506004820181600401908054611729929190614115565b506005820181600501908054611740929190614115565b50600682015481600601559050506000806117e883600001805461176390614d72565b80601f016020809104026020016040519081016040528092919081815260200182805461178f90614d72565b80156117dc5780601f106117b1576101008083540402835291602001916117dc565b820191906000526020600020905b8154815290600101906020018083116117bf57829003601f168201915b50505050506000612f9a565b9150915060068181548110611800576117ff614f43565b5b9060005260206000209060070201600401879080600181540180825580915050600190039060005260206000200160009091909190916101000a81548173ffffffffffffffffffffffffffffffffffffffff021916908373ffffffffffffffffffffffffffffffffffffffff1602179055506040518060200160405280600081525080519060200120600560008973ffffffffffffffffffffffffffffffffffffffff1673ffffffffffffffffffffffffffffffffffffffff1681526020019081526020016000206000016040516118d89190614e43565b604051809103902014611c585760006118f088612175565b905060008160a0015151905060008260a0015190506040518060e001604052808a815260200189815260200160008152602001600115158152602001600067ffffffffffffffff811115611947576119466141b3565b5b6040519080825280602002602001820160405280156119755781602001602082028036833780820191505090505b5081526020016001846119889190615229565b67ffffffffffffffff8111156119a1576119a06141b3565b5b6040519080825280602002602001820160405280156119cf5781602001602082028036833780820191505090505b50815260200142815250600560008c73ffffffffffffffffffffffffffffffffffffffff1673ffffffffffffffffffffffffffffffffffffffff1681526020019081526020016000206000820151816000019080519060200190611a34929190613f78565b506020820151816001019080519060200190611a51929190613f78565b506040820151816002015560608201518160030160006101000a81548160ff0219169083151502179055506080820151816004019080519060200190611a98929190613ffe565b5060a0820151816005019080519060200190611ab5929190613ffe565b5060c0820151816006015590505060005b600183611ad39190615229565b811015611c4f5782811415611b845733600560008d73ffffffffffffffffffffffffffffffffffffffff1673ffffffffffffffffffffffffffffffffffffffff1681526020019081526020016000206005018281548110611b3757611b36614f43565b5b9060005260206000200160006101000a81548173ffffffffffffffffffffffffffffffffffffffff021916908373ffffffffffffffffffffffffffffffffffffffff160217905550611c3c565b818181518110611b9757611b96614f43565b5b6020026020010151600560008d73ffffffffffffffffffffffffffffffffffffffff1673ffffffffffffffffffffffffffffffffffffffff1681526020019081526020016000206005018281548110611bf357611bf2614f43565b5b9060005260206000200160006101000a81548173ffffffffffffffffffffffffffffffffffffffff021916908373ffffffffffffffffffffffffffffffffffffffff1602179055505b8080611c4790614fa1565b915050611ac6565b50505050611eaa565b6040518060e0016040528087815260200186815260200160008152602001600115158152602001600067ffffffffffffffff811115611c9a57611c996141b3565b5b604051908082528060200260200182016040528015611cc85781602001602082028036833780820191505090505b508152602001600167ffffffffffffffff811115611ce957611ce86141b3565b5b604051908082528060200260200182016040528015611d175781602001602082028036833780820191505090505b50815260200142815250600560008973ffffffffffffffffffffffffffffffffffffffff1673ffffffffffffffffffffffffffffffffffffffff1681526020019081526020016000206000820151816000019080519060200190611d7c929190613f78565b506020820151816001019080519060200190611d99929190613f78565b506040820151816002015560608201518160030160006101000a81548160ff0219169083151502179055506080820151816004019080519060200190611de0929190613ffe565b5060a0820151816005019080519060200190611dfd929190613ffe565b5060c0820151816006015590505033600560008973ffffffffffffffffffffffffffffffffffffffff1673ffffffffffffffffffffffffffffffffffffffff168152602001908152602001600020600501600081548110611e6157611e60614f43565b5b9060005260206000200160006101000a81548173ffffffffffffffffffffffffffffffffffffffff021916908373ffffffffffffffffffffffffffffffffffffffff1602179055505b6000600560003373ffffffffffffffffffffffffffffffffffffffff1673ffffffffffffffffffffffffffffffffffffffff1681526020019081526020016000206040518060e0016040529081600082018054611f0690614d72565b80601f0160208091040260200160405190810160405280929190818152602001828054611f3290614d72565b8015611f7f5780601f10611f5457610100808354040283529160200191611f7f565b820191906000526020600020905b815481529060010190602001808311611f6257829003601f168201915b50505050508152602001600182018054611f9890614d72565b80601f0160208091040260200160405190810160405280929190818152602001828054611fc490614d72565b80156120115780601f10611fe657610100808354040283529160200191612011565b820191906000526020600020905b815481529060010190602001808311611ff457829003601f168201915b50505050508152602001600282015481526020016003820160009054906101000a900460ff16151515158152602001600482018054806020026020016040519081016040528092919081815260200182805480156120c457602002820191906000526020600020905b8160009054906101000a900473ffffffffffffffffffffffffffffffffffffffff1673ffffffffffffffffffffffffffffffffffffffff168152602001906001019080831161207a575b505050505081526020016005820180548060200260200160405190810160405280929190818152602001828054801561215257602002820191906000526020600020905b8160009054906101000a900473ffffffffffffffffffffffffffffffffffffffff1673ffffffffffffffffffffffffffffffffffffffff1681526020019060010190808311612108575b505050505081526020016006820154815250509050809450505050509392505050565b61217d613f39565b600560008373ffffffffffffffffffffffffffffffffffffffff1673ffffffffffffffffffffffffffffffffffffffff1681526020019081526020016000206040518060e00160405290816000820180546121d790614d72565b80601f016020809104026020016040519081016040528092919081815260200182805461220390614d72565b80156122505780601f1061222557610100808354040283529160200191612250565b820191906000526020600020905b81548152906001019060200180831161223357829003601f168201915b5050505050815260200160018201805461226990614d72565b80601f016020809104026020016040519081016040528092919081815260200182805461229590614d72565b80156122e25780601f106122b7576101008083540402835291602001916122e2565b820191906000526020600020905b8154815290600101906020018083116122c557829003601f168201915b50505050508152602001600282015481526020016003820160009054906101000a900460ff161515151581526020016004820180548060200260200160405190810160405280929190818152602001828054801561239557602002820191906000526020600020905b8160009054906101000a900473ffffffffffffffffffffffffffffffffffffffff1673ffffffffffffffffffffffffffffffffffffffff168152602001906001019080831161234b575b505050505081526020016005820180548060200260200160405190810160405280929190818152602001828054801561242357602002820191906000526020600020905b8160009054906101000a900473ffffffffffffffffffffffffffffffffffffffff1673ffffffffffffffffffffffffffffffffffffffff16815260200190600101908083116123d9575b505050505081526020016006820154815250509050919050565b60075481565b6002818154811061245357600080fd5b90600052602060002090600402016000915090508060000154908060010160009054906101000a900473ffffffffffffffffffffffffffffffffffffffff16908060020160009054906101000a900473ffffffffffffffffffffffffffffffffffffffff16908060030154905084565b33600115156124d182612175565b60600151151514612517576040517f08c379a000000000000000000000000000000000000000000000000000000000815260040161250e906152cb565b60405180910390fd5b600061252233612175565b905060008160a00151905060006125388261333a565b905060068190806001815401808255809150506001900390600052602060002090600702016000909190919091506000820151816000019080519060200190612582929190613f78565b50602082015181600101908051906020019061259f929190613f78565b506040820151816002015560608201518160030160006101000a81548160ff02191690831515021790555060808201518160040190805190602001906125e6929190613ffe565b5060a0820151816005019080519060200190612603929190613ffe565b5060c0820151816006015550506003339080600181540180825580915050600190039060005260206000200160009091909190916101000a81548173ffffffffffffffffffffffffffffffffffffffff021916908373ffffffffffffffffffffffffffffffffffffffff16021790555050505050565b808060008054906101000a900473ffffffffffffffffffffffffffffffffffffffff1673ffffffffffffffffffffffffffffffffffffffff166370a08231336040518263ffffffff1660e01b81526004016126d49190614833565b60206040518083038186803b1580156126ec57600080fd5b505afa158015612700573d6000803e3d6000fd5b505050506040513d601f19601f820116820180604052508101906127249190615300565b101561272f57600080fd5b600560003373ffffffffffffffffffffffffffffffffffffffff1673ffffffffffffffffffffffffffffffffffffffff16815260200190815260200160002060030160009054906101000a900460ff1660001515811515146127c6576040517f08c379a00000000000000000000000000000000000000000000000000000000081526004016127bd9061539f565b60405180910390fd5b60008054906101000a900473ffffffffffffffffffffffffffffffffffffffff1673ffffffffffffffffffffffffffffffffffffffff1663a9059cbb85856040518363ffffffff1660e01b81526004016128219291906153bf565b602060405180830381600087803b15801561283b57600080fd5b505af115801561284f573d6000803e3d6000fd5b505050506040513d601f19601f8201168201806040525081019061287391906153fd565b5050505050565b600560003373ffffffffffffffffffffffffffffffffffffffff1673ffffffffffffffffffffffffffffffffffffffff16815260200190815260200160002060030160009054906101000a900460ff166000151581151514612911576040517f08c379a00000000000000000000000000000000000000000000000000000000081526004016129089061539f565b60405180910390fd5b60008373ffffffffffffffffffffffffffffffffffffffff168360405161293790615450565b60006040518083038185875af1925050503d8060008114612974576040519150601f19603f3d011682016040523d82523d6000602084013e612979565b606091505b50509050806129bd576040517f08c379a00000000000000000000000000000000000000000000000000000000081526004016129b4906154b1565b60405180910390fd5b6129c984846001613720565b60006129d485612175565b905060011515816060015115151415612a415783600560008773ffffffffffffffffffffffffffffffffffffffff1673ffffffffffffffffffffffffffffffffffffffff1681526020019081526020016000206002016000828254612a399190615229565b925050819055505b5050505050565b60008060009054906101000a900473ffffffffffffffffffffffffffffffffffffffff1673ffffffffffffffffffffffffffffffffffffffff166370a08231336040518263ffffffff1660e01b8152600401612aa49190614833565b60206040518083038186803b158015612abc57600080fd5b505afa158015612ad0573d6000803e3d6000fd5b505050506040513d601f19601f82011682018060405250810190612af49190615300565b905090565b6000600860008373ffffffffffffffffffffffffffffffffffffffff1673ffffffffffffffffffffffffffffffffffffffff168152602001908152602001600020549050919050565b6060600460003373ffffffffffffffffffffffffffffffffffffffff1673ffffffffffffffffffffffffffffffffffffffff168152602001908152602001600020805480602002602001604051908101604052809291908181526020016000905b82821015612c955783829060005260206000209060040201604051806080016040529081600082015481526020016001820160009054906101000a900473ffffffffffffffffffffffffffffffffffffffff1673ffffffffffffffffffffffffffffffffffffffff1673ffffffffffffffffffffffffffffffffffffffff1681526020016002820160009054906101000a900473ffffffffffffffffffffffffffffffffffffffff1673ffffffffffffffffffffffffffffffffffffffff1673ffffffffffffffffffffffffffffffffffffffff16815260200160038201548152505081526020019060010190612ba3565b50505050905090565b6000600960003373ffffffffffffffffffffffffffffffffffffffff1673ffffffffffffffffffffffffffffffffffffffff16815260200190815260200160002060008373ffffffffffffffffffffffffffffffffffffffff1673ffffffffffffffffffffffffffffffffffffffff1681526020019081526020016000205490508060076000828254612d3191906154d1565b9250508190555080600860008473ffffffffffffffffffffffffffffffffffffffff1673ffffffffffffffffffffffffffffffffffffffff1681526020019081526020016000206000828254612d8791906154d1565b925050819055503373ffffffffffffffffffffffffffffffffffffffff166108fc829081150290604051600060405180830381858888f19350505050158015612dd4573d6000803e3d6000fd5b505050565b6060600560003373ffffffffffffffffffffffffffffffffffffffff1673ffffffffffffffffffffffffffffffffffffffff168152602001908152602001600020600401805480602002602001604051908101604052809291908181526020018280548015612e9d57602002820191906000526020600020905b8160009054906101000a900473ffffffffffffffffffffffffffffffffffffffff1673ffffffffffffffffffffffffffffffffffffffff1681526020019060010190808311612e53575b5050505050905090565b3460076000828254612eb99190615229565b9250508190555034600860008373ffffffffffffffffffffffffffffffffffffffff1673ffffffffffffffffffffffffffffffffffffffff1681526020019081526020016000206000828254612f0f9190615229565b9250508190555034600960003373ffffffffffffffffffffffffffffffffffffffff1673ffffffffffffffffffffffffffffffffffffffff16815260200190815260200160002060008373ffffffffffffffffffffffffffffffffffffffff1673ffffffffffffffffffffffffffffffffffffffff1681526020019081526020016000208190555050565b612fa2613f39565b600080600090505b6006805490508110156132bc57848051906020012060068281548110612fd357612fd2614f43565b5b9060005260206000209060070201600001604051612ff19190614e43565b604051809103902014156132a9576006818154811061301357613012614f43565b5b906000526020600020906007020181816040518060e001604052908160008201805461303e90614d72565b80601f016020809104026020016040519081016040528092919081815260200182805461306a90614d72565b80156130b75780601f1061308c576101008083540402835291602001916130b7565b820191906000526020600020905b81548152906001019060200180831161309a57829003601f168201915b505050505081526020016001820180546130d090614d72565b80601f01602080910402602001604051908101604052809291908181526020018280546130fc90614d72565b80156131495780601f1061311e57610100808354040283529160200191613149565b820191906000526020600020905b81548152906001019060200180831161312c57829003601f168201915b50505050508152602001600282015481526020016003820160009054906101000a900460ff16151515158152602001600482018054806020026020016040519081016040528092919081815260200182805480156131fc57602002820191906000526020600020905b8160009054906101000a900473ffffffffffffffffffffffffffffffffffffffff1673ffffffffffffffffffffffffffffffffffffffff16815260200190600101908083116131b2575b505050505081526020016005820180548060200260200160405190810160405280929190818152602001828054801561328a57602002820191906000526020600020905b8160009054906101000a900473ffffffffffffffffffffffffffffffffffffffff1673ffffffffffffffffffffffffffffffffffffffff1681526020019060010190808311613240575b505050505081526020016006820154815250509150925092505061330f565b80806132b490614fa1565b915050612faa565b5082156132fe576040517f08c379a00000000000000000000000000000000000000000000000000000000081526004016132f590615551565b60405180910390fd5b613306613f39565b80600092509250505b9250929050565b60008054906101000a900473ffffffffffffffffffffffffffffffffffffffff1681565b613342613f39565b60005b82518110156135d357600061337384838151811061336657613365614f43565b5b6020026020010151612175565b905060008061338783600001516000612f9a565b91509150600061339633612175565b90506000806133aa83600001516000612f9a565b91509150856080015181815181106133c5576133c4614f43565b5b60200260200101600073ffffffffffffffffffffffffffffffffffffffff1681525085600685815481106133fc576133fb614f43565b5b90600052602060002090600702016000820151816000019080519060200190613426929190613f78565b506020820151816001019080519060200190613443929190613f78565b506040820151816002015560608201518160030160006101000a81548160ff021916908315150217905550608082015181600401908051906020019061348a929190613ffe565b5060a08201518160050190805190602001906134a7929190613ffe565b5060c0820151816006015590505085600560008b8a815181106134cd576134cc614f43565b5b602002602001015173ffffffffffffffffffffffffffffffffffffffff1673ffffffffffffffffffffffffffffffffffffffff168152602001908152602001600020600082015181600001908051906020019061352b929190613f78565b506020820151816001019080519060200190613548929190613f78565b506040820151816002015560608201518160030160006101000a81548160ff021916908315150217905550608082015181600401908051906020019061358f929190613ffe565b5060a08201518160050190805190602001906135ac929190613ffe565b5060c0820151816006015590505050505050505080806135cb90614fa1565b915050613345565b5060006135df33612175565b905060008160600190151590811515815250508060a0015160008151811061360a57613609614f43565b5b60200260200101600073ffffffffffffffffffffffffffffffffffffffff1681525080600560003373ffffffffffffffffffffffffffffffffffffffff1673ffffffffffffffffffffffffffffffffffffffff1681526020019081526020016000206000820151816000019080519060200190613688929190613f78565b5060208201518160010190805190602001906136a5929190613f78565b506040820151816002015560608201518160030160006101000a81548160ff02191690831515021790555060808201518160040190805190602001906136ec929190613ffe565b5060a0820151816005019080519060200190613709929190613ffe565b5060c0820151816006015590505080915050919050565b604051806020016040528060008152508051906020012061374033612175565b6000015180519060200120141561378c576040517f08c379a000000000000000000000000000000000000000000000000000000000815260040161378390615209565b60405180910390fd5b8015613b6557600460003373ffffffffffffffffffffffffffffffffffffffff1673ffffffffffffffffffffffffffffffffffffffff16815260200190815260200160002060405180608001604052804281526020013373ffffffffffffffffffffffffffffffffffffffff1681526020018573ffffffffffffffffffffffffffffffffffffffff1681526020018481525090806001815401808255809150506001900390600052602060002090600402016000909190919091506000820151816000015560208201518160010160006101000a81548173ffffffffffffffffffffffffffffffffffffffff021916908373ffffffffffffffffffffffffffffffffffffffff16021790555060408201518160020160006101000a81548173ffffffffffffffffffffffffffffffffffffffff021916908373ffffffffffffffffffffffffffffffffffffffff160217905550606082015181600301555050600260405180608001604052804281526020013373ffffffffffffffffffffffffffffffffffffffff1681526020018573ffffffffffffffffffffffffffffffffffffffff1681526020018481525090806001815401808255809150506001900390600052602060002090600402016000909190919091506000820151816000015560208201518160010160006101000a81548173ffffffffffffffffffffffffffffffffffffffff021916908373ffffffffffffffffffffffffffffffffffffffff16021790555060408201518160020160006101000a81548173ffffffffffffffffffffffffffffffffffffffff021916908373ffffffffffffffffffffffffffffffffffffffff160217905550606082015181600301555050600460008473ffffffffffffffffffffffffffffffffffffffff1673ffffffffffffffffffffffffffffffffffffffff16815260200190815260200160002060405180608001604052804281526020013373ffffffffffffffffffffffffffffffffffffffff1681526020018573ffffffffffffffffffffffffffffffffffffffff1681526020018481525090806001815401808255809150506001900390600052602060002090600402016000909190919091506000820151816000015560208201518160010160006101000a81548173ffffffffffffffffffffffffffffffffffffffff021916908373ffffffffffffffffffffffffffffffffffffffff16021790555060408201518160020160006101000a81548173ffffffffffffffffffffffffffffffffffffffff021916908373ffffffffffffffffffffffffffffffffffffffff160217905550606082015181600301555050613f34565b600460008473ffffffffffffffffffffffffffffffffffffffff1673ffffffffffffffffffffffffffffffffffffffff16815260200190815260200160002060405180608001604052804281526020018573ffffffffffffffffffffffffffffffffffffffff1681526020013373ffffffffffffffffffffffffffffffffffffffff1681526020018481525090806001815401808255809150506001900390600052602060002090600402016000909190919091506000820151816000015560208201518160010160006101000a81548173ffffffffffffffffffffffffffffffffffffffff021916908373ffffffffffffffffffffffffffffffffffffffff16021790555060408201518160020160006101000a81548173ffffffffffffffffffffffffffffffffffffffff021916908373ffffffffffffffffffffffffffffffffffffffff160217905550606082015181600301555050600460003373ffffffffffffffffffffffffffffffffffffffff1673ffffffffffffffffffffffffffffffffffffffff16815260200190815260200160002060405180608001604052804281526020018573ffffffffffffffffffffffffffffffffffffffff1681526020013373ffffffffffffffffffffffffffffffffffffffff1681526020018481525090806001815401808255809150506001900390600052602060002090600402016000909190919091506000820151816000015560208201518160010160006101000a81548173ffffffffffffffffffffffffffffffffffffffff021916908373ffffffffffffffffffffffffffffffffffffffff16021790555060408201518160020160006101000a81548173ffffffffffffffffffffffffffffffffffffffff021916908373ffffffffffffffffffffffffffffffffffffffff160217905550606082015181600301555050600260405180608001604052804281526020018573ffffffffffffffffffffffffffffffffffffffff1681526020013373ffffffffffffffffffffffffffffffffffffffff1681526020018481525090806001815401808255809150506001900390600052602060002090600402016000909190919091506000820151816000015560208201518160010160006101000a81548173ffffffffffffffffffffffffffffffffffffffff021916908373ffffffffffffffffffffffffffffffffffffffff16021790555060408201518160020160006101000a81548173ffffffffffffffffffffffffffffffffffffffff021916908373ffffffffffffffffffffffffffffffffffffffff1602179055506060820151816003015550505b505050565b6040518060e001604052806060815260200160608152602001600081526020016000151581526020016060815260200160608152602001600081525090565b828054613f8490614d72565b90600052602060002090601f016020900481019282613fa65760008555613fed565b82601f10613fbf57805160ff1916838001178555613fed565b82800160010185558215613fed579182015b82811115613fec578251825591602001919060010190613fd1565b5b509050613ffa9190614167565b5090565b828054828255906000526020600020908101928215614077579160200282015b828111156140765782518260006101000a81548173ffffffffffffffffffffffffffffffffffffffff021916908373ffffffffffffffffffffffffffffffffffffffff1602179055509160200191906001019061401e565b5b5090506140849190614167565b5090565b82805461409490614d72565b90600052602060002090601f0160209004810192826140b65760008555614104565b82601f106140c75780548555614104565b8280016001018555821561410457600052602060002091601f016020900482015b828111156141035782548255916001019190600101906140e8565b5b5090506141119190614167565b5090565b8280548282559060005260206000209081019282156141565760005260206000209182015b8281111561415557825482559160010191906001019061413a565b5b5090506141639190614167565b5090565b5b80821115614180576000816000905550600101614168565b5090565b6000604051905090565b600080fd5b600080fd5b600080fd5b600080fd5b6000601f19601f8301169050919050565b7f4e487b7100000000000000000000000000000000000000000000000000000000600052604160045260246000fd5b6141eb826141a2565b810181811067ffffffffffffffff8211171561420a576142096141b3565b5b80604052505050565b600061421d614184565b905061422982826141e2565b919050565b600067ffffffffffffffff821115614249576142486141b3565b5b614252826141a2565b9050602081019050919050565b82818337600083830152505050565b600061428161427c8461422e565b614213565b90508281526020810184848401111561429d5761429c61419d565b5b6142a884828561425f565b509392505050565b600082601f8301126142c5576142c4614198565b5b81356142d584826020860161426e565b91505092915050565b60008115159050919050565b6142f3816142de565b81146142fe57600080fd5b50565b600081359050614310816142ea565b92915050565b60008060006060848603121561432f5761432e61418e565b5b600084013567ffffffffffffffff81111561434d5761434c614193565b5b614359868287016142b0565b935050602084013567ffffffffffffffff81111561437a57614379614193565b5b614386868287016142b0565b925050604061439786828701614301565b9150509250925092565b600081519050919050565b600082825260208201905092915050565b60005b838110156143db5780820151818401526020810190506143c0565b838111156143ea576000848401525b50505050565b60006143fb826143a1565b61440581856143ac565b93506144158185602086016143bd565b61441e816141a2565b840191505092915050565b6000819050919050565b61443c81614429565b82525050565b61444b816142de565b82525050565b600081519050919050565b600082825260208201905092915050565b6000819050602082019050919050565b600073ffffffffffffffffffffffffffffffffffffffff82169050919050565b60006144a88261447d565b9050919050565b6144b88161449d565b82525050565b60006144ca83836144af565b60208301905092915050565b6000602082019050919050565b60006144ee82614451565b6144f8818561445c565b93506145038361446d565b8060005b8381101561453457815161451b88826144be565b9750614526836144d6565b925050600181019050614507565b5085935050505092915050565b600060e083016000830151848203600086015261455e82826143f0565b9150506020830151848203602086015261457882826143f0565b915050604083015161458d6040860182614433565b5060608301516145a06060860182614442565b50608083015184820360808601526145b882826144e3565b91505060a083015184820360a08601526145d282826144e3565b91505060c08301516145e760c0860182614433565b508091505092915050565b6000602082019050818103600083015261460c8184614541565b905092915050565b600082825260208201905092915050565b600061463082614451565b61463a8185614614565b93506146458361446d565b8060005b8381101561467657815161465d88826144be565b9750614668836144d6565b925050600181019050614649565b5085935050505092915050565b6000602082019050818103600083015261469d8184614625565b905092915050565b600081519050919050565b600082825260208201905092915050565b6000819050602082019050919050565b6080820160008201516146e76000850182614433565b5060208201516146fa60208501826144af565b50604082015161470d60408501826144af565b5060608201516147206060850182614433565b50505050565b600061473283836146d1565b60808301905092915050565b6000602082019050919050565b6000614756826146a5565b61476081856146b0565b935061476b836146c1565b8060005b8381101561479c5781516147838882614726565b975061478e8361473e565b92505060018101905061476f565b5085935050505092915050565b600060208201905081810360008301526147c3818461474b565b905092915050565b6147d481614429565b81146147df57600080fd5b50565b6000813590506147f1816147cb565b92915050565b60006020828403121561480d5761480c61418e565b5b600061481b848285016147e2565b91505092915050565b61482d8161449d565b82525050565b60006020820190506148486000830184614824565b92915050565b600081519050919050565b600082825260208201905092915050565b6000819050602082019050919050565b600060e083016000830151848203600086015261489782826143f0565b915050602083015184820360208601526148b182826143f0565b91505060408301516148c66040860182614433565b5060608301516148d96060860182614442565b50608083015184820360808601526148f182826144e3565b91505060a083015184820360a086015261490b82826144e3565b91505060c083015161492060c0860182614433565b508091505092915050565b6000614937838361487a565b905092915050565b6000602082019050919050565b60006149578261484e565b6149618185614859565b9350836020820285016149738561486a565b8060005b858110156149af5784840389528151614990858261492b565b945061499b8361493f565b925060208a01995050600181019050614977565b50829750879550505050505092915050565b600060208201905081810360008301526149db818461494c565b905092915050565b6149ec81614429565b82525050565b6000602082019050614a0760008301846149e3565b92915050565b600060208284031215614a2357614a2261418e565b5b600082013567ffffffffffffffff811115614a4157614a40614193565b5b614a4d848285016142b0565b91505092915050565b60008060408385031215614a6d57614a6c61418e565b5b600083013567ffffffffffffffff811115614a8b57614a8a614193565b5b614a97858286016142b0565b9250506020614aa885828601614301565b9150509250929050565b60006040820190508181036000830152614acc8185614541565b9050614adb60208301846149e3565b9392505050565b614aeb8161449d565b8114614af657600080fd5b50565b600081359050614b0881614ae2565b92915050565b600080600060608486031215614b2757614b2661418e565b5b6000614b3586828701614af9565b935050602084013567ffffffffffffffff811115614b5657614b55614193565b5b614b62868287016142b0565b925050604084013567ffffffffffffffff811115614b8357614b82614193565b5b614b8f868287016142b0565b9150509250925092565b600060208284031215614baf57614bae61418e565b5b6000614bbd84828501614af9565b91505092915050565b6000608082019050614bdb60008301876149e3565b614be86020830186614824565b614bf56040830185614824565b614c0260608301846149e3565b95945050505050565b60008060408385031215614c2257614c2161418e565b5b6000614c3085828601614af9565b9250506020614c41858286016147e2565b9150509250929050565b6000614c568261447d565b9050919050565b614c6681614c4b565b8114614c7157600080fd5b50565b600081359050614c8381614c5d565b92915050565b60008060408385031215614ca057614c9f61418e565b5b6000614cae85828601614c74565b9250506020614cbf858286016147e2565b9150509250929050565b6000819050919050565b6000614cee614ce9614ce48461447d565b614cc9565b61447d565b9050919050565b6000614d0082614cd3565b9050919050565b6000614d1282614cf5565b9050919050565b614d2281614d07565b82525050565b6000602082019050614d3d6000830184614d19565b92915050565b7f4e487b7100000000000000000000000000000000000000000000000000000000600052602260045260246000fd5b60006002820490506001821680614d8a57607f821691505b60208210811415614d9e57614d9d614d43565b5b50919050565b600081905092915050565b60008190508160005260206000209050919050565b60008154614dd181614d72565b614ddb8186614da4565b94506001821660008114614df65760018114614e0757614e3a565b60ff19831686528186019350614e3a565b614e1085614daf565b60005b83811015614e3257815481890152600182019150602081019050614e13565b838801955050505b50505092915050565b6000614e4f8284614dc4565b915081905092915050565b600082825260208201905092915050565b7f596f7520616c7265616479206861766520616e206163636f756e740000000000600082015250565b6000614ea1601b83614e5a565b9150614eac82614e6b565b602082019050919050565b60006020820190508181036000830152614ed081614e94565b9050919050565b7f596f752772652061646d696e2021212100000000000000000000000000000000600082015250565b6000614f0d601083614e5a565b9150614f1882614ed7565b602082019050919050565b60006020820190508181036000830152614f3c81614f00565b9050919050565b7f4e487b7100000000000000000000000000000000000000000000000000000000600052603260045260246000fd5b7f4e487b7100000000000000000000000000000000000000000000000000000000600052601160045260246000fd5b6000614fac82614429565b91507fffffffffffffffffffffffffffffffffffffffffffffffffffffffffffffffff821415614fdf57614fde614f72565b5b600182019050919050565b6000614ff5826143a1565b614fff8185614e5a565b935061500f8185602086016143bd565b615018816141a2565b840191505092915050565b60006040820190506150386000830185614824565b818103602083015261504a8184614fea565b90509392505050565b7f546865206368696c6420646964206e6f7420666f756e64000000000000000000600082015250565b6000615089601783614e5a565b915061509482615053565b602082019050919050565b600060208201905081810360008301526150b88161507c565b9050919050565b7f596f752068617665206e6f7420616e79206368696c6400000000000000000000600082015250565b60006150f5601683614e5a565b9150615100826150bf565b602082019050919050565b60006020820190508181036000830152615124816150e8565b9050919050565b7f596f752772652061646d696e0000000000000000000000000000000000000000600082015250565b6000615161600c83614e5a565b915061516c8261512b565b602082019050919050565b6000602082019050818103600083015261519081615154565b9050919050565b7f596f752063616e206c696e6b206163636f756e74206166746572206c6f67676560008201527f6420696e00000000000000000000000000000000000000000000000000000000602082015250565b60006151f3602483614e5a565b91506151fe82615197565b604082019050919050565b60006020820190508181036000830152615222816151e6565b9050919050565b600061523482614429565b915061523f83614429565b9250827fffffffffffffffffffffffffffffffffffffffffffffffffffffffffffffffff0382111561527457615273614f72565b5b828201905092915050565b7f54686973206163636f756e74206973206e6f74206c696d697465640000000000600082015250565b60006152b5601b83614e5a565b91506152c08261527f565b602082019050919050565b600060208201905081810360008301526152e4816152a8565b9050919050565b6000815190506152fa816147cb565b92915050565b6000602082840312156153165761531561418e565b5b6000615324848285016152eb565b91505092915050565b7f596f752776652061206c696d69746564206163636f756e74202c20796f75277260008201527f65206e6f7420616e206164756c74000000000000000000000000000000000000602082015250565b6000615389602e83614e5a565b91506153948261532d565b604082019050919050565b600060208201905081810360008301526153b88161537c565b9050919050565b60006040820190506153d46000830185614824565b6153e160208301846149e3565b9392505050565b6000815190506153f7816142ea565b92915050565b6000602082840312156154135761541261418e565b5b6000615421848285016153e8565b91505092915050565b50565b600061543a600083614da4565b91506154458261542a565b600082019050919050565b600061545b8261542d565b9150819050919050565b7f4661696c656420746f2073656e64204574686572000000000000000000000000600082015250565b600061549b601483614e5a565b91506154a682615465565b602082019050919050565b600060208201905081810360008301526154ca8161548e565b9050919050565b60006154dc82614429565b91506154e783614429565b9250828210156154fa576154f9614f72565b5b828203905092915050565b7f54686520706572736f6e20646964206e6f7420666f756e640000000000000000600082015250565b600061553b601883614e5a565b915061554682615505565b602082019050919050565b6000602082019050818103600083015261556a8161552e565b905091905056fea2646970667358221220cc607e1f5122ad553b3840f5e485b3bb66d435b96641cc472c6abb40312ba87464736f6c63430008090033",
  "linkReferences": {},
  "deployedLinkReferences": {}
}