{
  "_format": "hh-sol-artifact-1",
  "contractName": "Inheritium",
  "sourceName": "contracts/Inheritium.sol",
  "abi": [
    {
      "inputs": [],
      "stateMutability": "nonpayable",
      "type": "constructor"
    },
    {
      "anonymous": false,
      "inputs": [
        {
          "indexed": true,
          "internalType": "address",
          "name": "owner",
          "type": "address"
        },
        {
          "indexed": true,
          "internalType": "address",
          "name": "spender",
          "type": "address"
        },
        {
          "indexed": false,
          "internalType": "uint256",
          "name": "value",
          "type": "uint256"
        }
      ],
      "name": "Approval",
      "type": "event"
    },
    {
      "anonymous": false,
      "inputs": [
        {
          "indexed": true,
          "internalType": "address",
          "name": "from",
          "type": "address"
        },
        {
          "indexed": true,
          "internalType": "address",
          "name": "to",
          "type": "address"
        },
        {
          "indexed": false,
          "internalType": "uint256",
          "name": "value",
          "type": "uint256"
        }
      ],
      "name": "Transfer",
      "type": "event"
    },
    {
      "inputs": [
        {
          "internalType": "address",
          "name": "owner",
          "type": "address"
        },
        {
          "internalType": "address",
          "name": "spender",
          "type": "address"
        }
      ],
      "name": "allowance",
      "outputs": [
        {
          "internalType": "uint256",
          "name": "",
          "type": "uint256"
        }
      ],
      "stateMutability": "view",
      "type": "function"
    },
    {
      "inputs": [
        {
          "internalType": "address",
          "name": "spender",
          "type": "address"
        },
        {
          "internalType": "uint256",
          "name": "amount",
          "type": "uint256"
        }
      ],
      "name": "approve",
      "outputs": [
        {
          "internalType": "bool",
          "name": "",
          "type": "bool"
        }
      ],
      "stateMutability": "nonpayable",
      "type": "function"
    },
    {
      "inputs": [
        {
          "internalType": "address",
          "name": "account",
          "type": "address"
        }
      ],
      "name": "balanceOf",
      "outputs": [
        {
          "internalType": "uint256",
          "name": "",
          "type": "uint256"
        }
      ],
      "stateMutability": "view",
      "type": "function"
    },
    {
      "inputs": [],
      "name": "decimals",
      "outputs": [
        {
          "internalType": "uint8",
          "name": "",
          "type": "uint8"
        }
      ],
      "stateMutability": "view",
      "type": "function"
    },
    {
      "inputs": [
        {
          "internalType": "address",
          "name": "spender",
          "type": "address"
        },
        {
          "internalType": "uint256",
          "name": "subtractedValue",
          "type": "uint256"
        }
      ],
      "name": "decreaseAllowance",
      "outputs": [
        {
          "internalType": "bool",
          "name": "",
          "type": "bool"
        }
      ],
      "stateMutability": "nonpayable",
      "type": "function"
    },
    {
      "inputs": [],
      "name": "getBalanceOfContract",
      "outputs": [
        {
          "internalType": "uint256",
          "name": "",
          "type": "uint256"
        }
      ],
      "stateMutability": "view",
      "type": "function"
    },
    {
      "inputs": [],
      "name": "getCountOfMintedTokens",
      "outputs": [
        {
          "internalType": "uint256",
          "name": "",
          "type": "uint256"
        }
      ],
      "stateMutability": "view",
      "type": "function"
    },
    {
      "inputs": [],
      "name": "getOwner",
      "outputs": [
        {
          "internalType": "address",
          "name": "",
          "type": "address"
        }
      ],
      "stateMutability": "view",
      "type": "function"
    },
    {
      "inputs": [
        {
          "internalType": "address",
          "name": "spender",
          "type": "address"
        },
        {
          "internalType": "uint256",
          "name": "addedValue",
          "type": "uint256"
        }
      ],
      "name": "increaseAllowance",
      "outputs": [
        {
          "internalType": "bool",
          "name": "",
          "type": "bool"
        }
      ],
      "stateMutability": "nonpayable",
      "type": "function"
    },
    {
      "inputs": [
        {
          "internalType": "uint256",
          "name": "mintAmount",
          "type": "uint256"
        }
      ],
      "name": "mint",
      "outputs": [],
      "stateMutability": "nonpayable",
      "type": "function"
    },
    {
      "inputs": [],
      "name": "name",
      "outputs": [
        {
          "internalType": "string",
          "name": "",
          "type": "string"
        }
      ],
      "stateMutability": "view",
      "type": "function"
    },
    {
      "inputs": [],
      "name": "symbol",
      "outputs": [
        {
          "internalType": "string",
          "name": "",
          "type": "string"
        }
      ],
      "stateMutability": "view",
      "type": "function"
    },
    {
      "inputs": [],
      "name": "totalSupply",
      "outputs": [
        {
          "internalType": "uint256",
          "name": "",
          "type": "uint256"
        }
      ],
      "stateMutability": "view",
      "type": "function"
    },
    {
      "inputs": [
        {
          "internalType": "address",
          "name": "to",
          "type": "address"
        },
        {
          "internalType": "uint256",
          "name": "amount",
          "type": "uint256"
        }
      ],
      "name": "transfer",
      "outputs": [
        {
          "internalType": "bool",
          "name": "",
          "type": "bool"
        }
      ],
      "stateMutability": "nonpayable",
      "type": "function"
    },
    {
      "inputs": [
        {
          "internalType": "address",
          "name": "from",
          "type": "address"
        },
        {
          "internalType": "address",
          "name": "to",
          "type": "address"
        },
        {
          "internalType": "uint256",
          "name": "amount",
          "type": "uint256"
        }
      ],
      "name": "transferFrom",
      "outputs": [
        {
          "internalType": "bool",
          "name": "",
          "type": "bool"
        }
      ],
      "stateMutability": "nonpayable",
      "type": "function"
    }
  ],
  "bytecode": "0x608060405260006006553480156200001657600080fd5b506040518060400160405280600981526020017f496e6865726974756d00000000000000000000000000000000000000000000008152506040518060400160405280600681526020017f494e4852544d000000000000000000000000000000000000000000000000000081525081600390805190602001906200009b9291906200029d565b508060049080519060200190620000b49291906200029d565b50505033600560006101000a81548173ffffffffffffffffffffffffffffffffffffffff021916908373ffffffffffffffffffffffffffffffffffffffff160217905550620001143369d3c21bcecceda10000006200011a60201b60201c565b620004f9565b600073ffffffffffffffffffffffffffffffffffffffff168273ffffffffffffffffffffffffffffffffffffffff1614156200018d576040517f08c379a00000000000000000000000000000000000000000000000000000000081526004016200018490620003ae565b60405180910390fd5b620001a1600083836200029360201b60201c565b8060026000828254620001b5919062000409565b92505081905550806000808473ffffffffffffffffffffffffffffffffffffffff1673ffffffffffffffffffffffffffffffffffffffff16815260200190815260200160002060008282546200020c919062000409565b925050819055508173ffffffffffffffffffffffffffffffffffffffff16600073ffffffffffffffffffffffffffffffffffffffff167fddf252ad1be2c89b69c2b068fc378daa952ba7f163c4a11628f55a4df523b3ef8360405162000273919062000477565b60405180910390a36200028f600083836200029860201b60201c565b5050565b505050565b505050565b828054620002ab90620004c3565b90600052602060002090601f016020900481019282620002cf57600085556200031b565b82601f10620002ea57805160ff19168380011785556200031b565b828001600101855582156200031b579182015b828111156200031a578251825591602001919060010190620002fd565b5b5090506200032a91906200032e565b5090565b5b80821115620003495760008160009055506001016200032f565b5090565b600082825260208201905092915050565b7f45524332303a206d696e7420746f20746865207a65726f206164647265737300600082015250565b600062000396601f836200034d565b9150620003a3826200035e565b602082019050919050565b60006020820190508181036000830152620003c98162000387565b9050919050565b6000819050919050565b7f4e487b7100000000000000000000000000000000000000000000000000000000600052601160045260246000fd5b60006200041682620003d0565b91506200042383620003d0565b9250827fffffffffffffffffffffffffffffffffffffffffffffffffffffffffffffffff038211156200045b576200045a620003da565b5b828201905092915050565b6200047181620003d0565b82525050565b60006020820190506200048e600083018462000466565b92915050565b7f4e487b7100000000000000000000000000000000000000000000000000000000600052602260045260246000fd5b60006002820490506001821680620004dc57607f821691505b60208210811415620004f357620004f262000494565b5b50919050565b611bc280620005096000396000f3fe608060405234801561001057600080fd5b50600436106100f55760003560e01c8063531a77e911610097578063a0712d6811610066578063a0712d681461028c578063a457c2d7146102a8578063a9059cbb146102d8578063dd62ed3e14610308576100f5565b8063531a77e91461020257806370a0823114610220578063893d20e81461025057806395d89b411461026e576100f5565b806322968885116100d3578063229688851461016657806323b872dd14610184578063313ce567146101b457806339509351146101d2576100f5565b806306fdde03146100fa578063095ea7b31461011857806318160ddd14610148575b600080fd5b610102610338565b60405161010f919061101d565b60405180910390f35b610132600480360381019061012d91906110d8565b6103ca565b60405161013f9190611133565b60405180910390f35b6101506103ed565b60405161015d919061115d565b60405180910390f35b61016e6103f7565b60405161017b919061115d565b60405180910390f35b61019e60048036038101906101999190611178565b610407565b6040516101ab9190611133565b60405180910390f35b6101bc610436565b6040516101c991906111e7565b60405180910390f35b6101ec60048036038101906101e791906110d8565b61043f565b6040516101f99190611133565b60405180910390f35b61020a610476565b604051610217919061115d565b60405180910390f35b61023a60048036038101906102359190611202565b610480565b604051610247919061115d565b60405180910390f35b6102586104c8565b604051610265919061123e565b60405180910390f35b6102766104f2565b604051610283919061101d565b60405180910390f35b6102a660048036038101906102a19190611259565b610584565b005b6102c260048036038101906102bd91906110d8565b610642565b6040516102cf9190611133565b60405180910390f35b6102f260048036038101906102ed91906110d8565b6106b9565b6040516102ff9190611133565b60405180910390f35b610322600480360381019061031d9190611286565b6106dc565b60405161032f919061115d565b60405180910390f35b606060038054610347906112f5565b80601f0160208091040260200160405190810160405280929190818152602001828054610373906112f5565b80156103c05780601f10610395576101008083540402835291602001916103c0565b820191906000526020600020905b8154815290600101906020018083116103a357829003601f168201915b5050505050905090565b6000806103d5610763565b90506103e281858561076b565b600191505092915050565b6000600254905090565b600061040230610480565b905090565b600080610412610763565b905061041f858285610936565b61042a8585856109c2565b60019150509392505050565b60006012905090565b60008061044a610763565b905061046b81858561045c85896106dc565b6104669190611356565b61076b565b600191505092915050565b6000600654905090565b60008060008373ffffffffffffffffffffffffffffffffffffffff1673ffffffffffffffffffffffffffffffffffffffff168152602001908152602001600020549050919050565b6000600560009054906101000a900473ffffffffffffffffffffffffffffffffffffffff16905090565b606060048054610501906112f5565b80601f016020809104026020016040519081016040528092919081815260200182805461052d906112f5565b801561057a5780601f1061054f5761010080835404028352916020019161057a565b820191906000526020600020905b81548152906001019060200180831161055d57829003601f168201915b5050505050905090565b60065461058f6103ed565b116105cf576040517f08c379a00000000000000000000000000000000000000000000000000000000081526004016105c6906113f8565b60405180910390fd5b6105fa336105db610436565b60ff16600a6105ea919061154b565b836105f59190611596565b610c43565b610626600560009054906101000a900473ffffffffffffffffffffffffffffffffffffffff1682610da3565b80600660008282546106389190611356565b9250508190555050565b60008061064d610763565b9050600061065b82866106dc565b9050838110156106a0576040517f08c379a000000000000000000000000000000000000000000000000000000000815260040161069790611662565b60405180910390fd5b6106ad828686840361076b565b60019250505092915050565b6000806106c4610763565b90506106d18185856109c2565b600191505092915050565b6000600160008473ffffffffffffffffffffffffffffffffffffffff1673ffffffffffffffffffffffffffffffffffffffff16815260200190815260200160002060008373ffffffffffffffffffffffffffffffffffffffff1673ffffffffffffffffffffffffffffffffffffffff16815260200190815260200160002054905092915050565b600033905090565b600073ffffffffffffffffffffffffffffffffffffffff168373ffffffffffffffffffffffffffffffffffffffff1614156107db576040517f08c379a00000000000000000000000000000000000000000000000000000000081526004016107d2906116f4565b60405180910390fd5b600073ffffffffffffffffffffffffffffffffffffffff168273ffffffffffffffffffffffffffffffffffffffff16141561084b576040517f08c379a000000000000000000000000000000000000000000000000000000000815260040161084290611786565b60405180910390fd5b80600160008573ffffffffffffffffffffffffffffffffffffffff1673ffffffffffffffffffffffffffffffffffffffff16815260200190815260200160002060008473ffffffffffffffffffffffffffffffffffffffff1673ffffffffffffffffffffffffffffffffffffffff168152602001908152602001600020819055508173ffffffffffffffffffffffffffffffffffffffff168373ffffffffffffffffffffffffffffffffffffffff167f8c5be1e5ebec7d5bd14f71427d1e84f3dd0314c0f7b2291e5b200ac8c7c3b92583604051610929919061115d565b60405180910390a3505050565b600061094284846106dc565b90507fffffffffffffffffffffffffffffffffffffffffffffffffffffffffffffffff81146109bc57818110156109ae576040517f08c379a00000000000000000000000000000000000000000000000000000000081526004016109a5906117f2565b60405180910390fd5b6109bb848484840361076b565b5b50505050565b600073ffffffffffffffffffffffffffffffffffffffff168373ffffffffffffffffffffffffffffffffffffffff161415610a32576040517f08c379a0000000000000000000000000000000000000000000000000000000008152600401610a2990611884565b60405180910390fd5b600073ffffffffffffffffffffffffffffffffffffffff168273ffffffffffffffffffffffffffffffffffffffff161415610aa2576040517f08c379a0000000000000000000000000000000000000000000000000000000008152600401610a9990611916565b60405180910390fd5b610aad838383610f7a565b60008060008573ffffffffffffffffffffffffffffffffffffffff1673ffffffffffffffffffffffffffffffffffffffff16815260200190815260200160002054905081811015610b33576040517f08c379a0000000000000000000000000000000000000000000000000000000008152600401610b2a906119a8565b60405180910390fd5b8181036000808673ffffffffffffffffffffffffffffffffffffffff1673ffffffffffffffffffffffffffffffffffffffff16815260200190815260200160002081905550816000808573ffffffffffffffffffffffffffffffffffffffff1673ffffffffffffffffffffffffffffffffffffffff1681526020019081526020016000206000828254610bc69190611356565b925050819055508273ffffffffffffffffffffffffffffffffffffffff168473ffffffffffffffffffffffffffffffffffffffff167fddf252ad1be2c89b69c2b068fc378daa952ba7f163c4a11628f55a4df523b3ef84604051610c2a919061115d565b60405180910390a3610c3d848484610f7f565b50505050565b600073ffffffffffffffffffffffffffffffffffffffff168273ffffffffffffffffffffffffffffffffffffffff161415610cb3576040517f08c379a0000000000000000000000000000000000000000000000000000000008152600401610caa90611a14565b60405180910390fd5b610cbf60008383610f7a565b8060026000828254610cd19190611356565b92505081905550806000808473ffffffffffffffffffffffffffffffffffffffff1673ffffffffffffffffffffffffffffffffffffffff1681526020019081526020016000206000828254610d269190611356565b925050819055508173ffffffffffffffffffffffffffffffffffffffff16600073ffffffffffffffffffffffffffffffffffffffff167fddf252ad1be2c89b69c2b068fc378daa952ba7f163c4a11628f55a4df523b3ef83604051610d8b919061115d565b60405180910390a3610d9f60008383610f7f565b5050565b600073ffffffffffffffffffffffffffffffffffffffff168273ffffffffffffffffffffffffffffffffffffffff161415610e13576040517f08c379a0000000000000000000000000000000000000000000000000000000008152600401610e0a90611aa6565b60405180910390fd5b610e1f82600083610f7a565b60008060008473ffffffffffffffffffffffffffffffffffffffff1673ffffffffffffffffffffffffffffffffffffffff16815260200190815260200160002054905081811015610ea5576040517f08c379a0000000000000000000000000000000000000000000000000000000008152600401610e9c90611b38565b60405180910390fd5b8181036000808573ffffffffffffffffffffffffffffffffffffffff1673ffffffffffffffffffffffffffffffffffffffff168152602001908152602001600020819055508160026000828254610efc9190611b58565b92505081905550600073ffffffffffffffffffffffffffffffffffffffff168373ffffffffffffffffffffffffffffffffffffffff167fddf252ad1be2c89b69c2b068fc378daa952ba7f163c4a11628f55a4df523b3ef84604051610f61919061115d565b60405180910390a3610f7583600084610f7f565b505050565b505050565b505050565b600081519050919050565b600082825260208201905092915050565b60005b83811015610fbe578082015181840152602081019050610fa3565b83811115610fcd576000848401525b50505050565b6000601f19601f8301169050919050565b6000610fef82610f84565b610ff98185610f8f565b9350611009818560208601610fa0565b61101281610fd3565b840191505092915050565b600060208201905081810360008301526110378184610fe4565b905092915050565b600080fd5b600073ffffffffffffffffffffffffffffffffffffffff82169050919050565b600061106f82611044565b9050919050565b61107f81611064565b811461108a57600080fd5b50565b60008135905061109c81611076565b92915050565b6000819050919050565b6110b5816110a2565b81146110c057600080fd5b50565b6000813590506110d2816110ac565b92915050565b600080604083850312156110ef576110ee61103f565b5b60006110fd8582860161108d565b925050602061110e858286016110c3565b9150509250929050565b60008115159050919050565b61112d81611118565b82525050565b60006020820190506111486000830184611124565b92915050565b611157816110a2565b82525050565b6000602082019050611172600083018461114e565b92915050565b6000806000606084860312156111915761119061103f565b5b600061119f8682870161108d565b93505060206111b08682870161108d565b92505060406111c1868287016110c3565b9150509250925092565b600060ff82169050919050565b6111e1816111cb565b82525050565b60006020820190506111fc60008301846111d8565b92915050565b6000602082840312156112185761121761103f565b5b60006112268482850161108d565b91505092915050565b61123881611064565b82525050565b6000602082019050611253600083018461122f565b92915050565b60006020828403121561126f5761126e61103f565b5b600061127d848285016110c3565b91505092915050565b6000806040838503121561129d5761129c61103f565b5b60006112ab8582860161108d565b92505060206112bc8582860161108d565b9150509250929050565b7f4e487b7100000000000000000000000000000000000000000000000000000000600052602260045260246000fd5b6000600282049050600182168061130d57607f821691505b60208210811415611321576113206112c6565b5b50919050565b7f4e487b7100000000000000000000000000000000000000000000000000000000600052601160045260246000fd5b6000611361826110a2565b915061136c836110a2565b9250827fffffffffffffffffffffffffffffffffffffffffffffffffffffffffffffffff038211156113a1576113a0611327565b5b828201905092915050565b7f5468657265206973206e6f20746f6b656e20746f206d696e7400000000000000600082015250565b60006113e2601983610f8f565b91506113ed826113ac565b602082019050919050565b60006020820190508181036000830152611411816113d5565b9050919050565b60008160011c9050919050565b6000808291508390505b600185111561146f5780860481111561144b5761144a611327565b5b600185161561145a5780820291505b808102905061146885611418565b945061142f565b94509492505050565b6000826114885760019050611544565b816114965760009050611544565b81600181146114ac57600281146114b6576114e5565b6001915050611544565b60ff8411156114c8576114c7611327565b5b8360020a9150848211156114df576114de611327565b5b50611544565b5060208310610133831016604e8410600b841016171561151a5782820a90508381111561151557611514611327565b5b611544565b6115278484846001611425565b9250905081840481111561153e5761153d611327565b5b81810290505b9392505050565b6000611556826110a2565b9150611561836110a2565b925061158e7fffffffffffffffffffffffffffffffffffffffffffffffffffffffffffffffff8484611478565b905092915050565b60006115a1826110a2565b91506115ac836110a2565b9250817fffffffffffffffffffffffffffffffffffffffffffffffffffffffffffffffff04831182151516156115e5576115e4611327565b5b828202905092915050565b7f45524332303a2064656372656173656420616c6c6f77616e63652062656c6f7760008201527f207a65726f000000000000000000000000000000000000000000000000000000602082015250565b600061164c602583610f8f565b9150611657826115f0565b604082019050919050565b6000602082019050818103600083015261167b8161163f565b9050919050565b7f45524332303a20617070726f76652066726f6d20746865207a65726f2061646460008201527f7265737300000000000000000000000000000000000000000000000000000000602082015250565b60006116de602483610f8f565b91506116e982611682565b604082019050919050565b6000602082019050818103600083015261170d816116d1565b9050919050565b7f45524332303a20617070726f766520746f20746865207a65726f20616464726560008201527f7373000000000000000000000000000000000000000000000000000000000000602082015250565b6000611770602283610f8f565b915061177b82611714565b604082019050919050565b6000602082019050818103600083015261179f81611763565b9050919050565b7f45524332303a20696e73756666696369656e7420616c6c6f77616e6365000000600082015250565b60006117dc601d83610f8f565b91506117e7826117a6565b602082019050919050565b6000602082019050818103600083015261180b816117cf565b9050919050565b7f45524332303a207472616e736665722066726f6d20746865207a65726f20616460008201527f6472657373000000000000000000000000000000000000000000000000000000602082015250565b600061186e602583610f8f565b915061187982611812565b604082019050919050565b6000602082019050818103600083015261189d81611861565b9050919050565b7f45524332303a207472616e7366657220746f20746865207a65726f206164647260008201527f6573730000000000000000000000000000000000000000000000000000000000602082015250565b6000611900602383610f8f565b915061190b826118a4565b604082019050919050565b6000602082019050818103600083015261192f816118f3565b9050919050565b7f45524332303a207472616e7366657220616d6f756e742065786365656473206260008201527f616c616e63650000000000000000000000000000000000000000000000000000602082015250565b6000611992602683610f8f565b915061199d82611936565b604082019050919050565b600060208201905081810360008301526119c181611985565b9050919050565b7f45524332303a206d696e7420746f20746865207a65726f206164647265737300600082015250565b60006119fe601f83610f8f565b9150611a09826119c8565b602082019050919050565b60006020820190508181036000830152611a2d816119f1565b9050919050565b7f45524332303a206275726e2066726f6d20746865207a65726f2061646472657360008201527f7300000000000000000000000000000000000000000000000000000000000000602082015250565b6000611a90602183610f8f565b9150611a9b82611a34565b604082019050919050565b60006020820190508181036000830152611abf81611a83565b9050919050565b7f45524332303a206275726e20616d6f756e7420657863656564732062616c616e60008201527f6365000000000000000000000000000000000000000000000000000000000000602082015250565b6000611b22602283610f8f565b9150611b2d82611ac6565b604082019050919050565b60006020820190508181036000830152611b5181611b15565b9050919050565b6000611b63826110a2565b9150611b6e836110a2565b925082821015611b8157611b80611327565b5b82820390509291505056fea2646970667358221220614dd796d410d75c7ac4bfc547fd9511dada62ab8dab88658145e146be1abe2564736f6c63430008090033",
  "linkReferences": {},
  "deployedLinkReferences": {}
}