{
  "_format": "hh-sol-artifact-1",
  "contractName": "BankingApp",
  "sourceName": "contracts/Banking.sol",
  "abi": [
    {
      "inputs": [
        {
          "internalType": "address",
          "name": "_token",
          "type": "address"
        },
        {
          "internalType": "address",
          "name": "_owner",
          "type": "address"
        }
      ],
      "stateMutability": "payable",
      "type": "constructor"
    },
    {
      "anonymous": false,
      "inputs": [
        {
          "indexed": false,
          "internalType": "address",
          "name": "owner",
          "type": "address"
        },
        {
          "indexed": false,
          "internalType": "string",
          "name": "child",
          "type": "string"
        }
      ],
      "name": "BalanceGot",
      "type": "event"
    },
    {
      "anonymous": false,
      "inputs": [
        {
          "indexed": false,
          "internalType": "address",
          "name": "from",
          "type": "address"
        },
        {
          "indexed": false,
          "internalType": "address",
          "name": "to",
          "type": "address"
        },
        {
          "indexed": false,
          "internalType": "uint256",
          "name": "amount",
          "type": "uint256"
        }
      ],
      "name": "InheritumSent",
      "type": "event"
    },
    {
      "anonymous": false,
      "inputs": [
        {
          "indexed": false,
          "internalType": "address",
          "name": "from",
          "type": "address"
        },
        {
          "indexed": false,
          "internalType": "address",
          "name": "to",
          "type": "address"
        },
        {
          "indexed": false,
          "internalType": "string",
          "name": "childName",
          "type": "string"
        },
        {
          "indexed": false,
          "internalType": "uint256",
          "name": "amount",
          "type": "uint256"
        }
      ],
      "name": "SentMoney",
      "type": "event"
    },
    {
      "anonymous": false,
      "inputs": [
        {
          "indexed": false,
          "internalType": "address",
          "name": "recipient",
          "type": "address"
        },
        {
          "indexed": false,
          "internalType": "uint256",
          "name": "amount",
          "type": "uint256"
        }
      ],
      "name": "allowanceTest",
      "type": "event"
    },
    {
      "inputs": [
        {
          "internalType": "string",
          "name": "_name",
          "type": "string"
        },
        {
          "internalType": "uint256",
          "name": "_age",
          "type": "uint256"
        },
        {
          "internalType": "address",
          "name": "childAccount",
          "type": "address"
        }
      ],
      "name": "addAndLinkChild",
      "outputs": [
        {
          "components": [
            {
              "internalType": "string",
              "name": "name",
              "type": "string"
            },
            {
              "internalType": "uint256",
              "name": "age",
              "type": "uint256"
            },
            {
              "internalType": "uint256",
              "name": "balance",
              "type": "uint256"
            },
            {
              "internalType": "bool",
              "name": "isLimited",
              "type": "bool"
            },
            {
              "internalType": "address[]",
              "name": "child",
              "type": "address[]"
            },
            {
              "internalType": "address[]",
              "name": "parent",
              "type": "address[]"
            },
            {
              "internalType": "uint256",
              "name": "createdTime",
              "type": "uint256"
            },
            {
              "internalType": "address",
              "name": "myAddress",
              "type": "address"
            },
            {
              "components": [
                {
                  "internalType": "bool",
                  "name": "have",
                  "type": "bool"
                },
                {
                  "internalType": "address",
                  "name": "parent",
                  "type": "address"
                }
              ],
              "internalType": "struct BankingApp.HaveParent",
              "name": "parentInfo",
              "type": "tuple"
            }
          ],
          "internalType": "struct BankingApp.Person",
          "name": "",
          "type": "tuple"
        }
      ],
      "stateMutability": "nonpayable",
      "type": "function"
    },
    {
      "inputs": [
        {
          "internalType": "string",
          "name": "_name",
          "type": "string"
        },
        {
          "internalType": "uint256",
          "name": "_age",
          "type": "uint256"
        }
      ],
      "name": "addPerson",
      "outputs": [
        {
          "components": [
            {
              "internalType": "string",
              "name": "name",
              "type": "string"
            },
            {
              "internalType": "uint256",
              "name": "age",
              "type": "uint256"
            },
            {
              "internalType": "uint256",
              "name": "balance",
              "type": "uint256"
            },
            {
              "internalType": "bool",
              "name": "isLimited",
              "type": "bool"
            },
            {
              "internalType": "address[]",
              "name": "child",
              "type": "address[]"
            },
            {
              "internalType": "address[]",
              "name": "parent",
              "type": "address[]"
            },
            {
              "internalType": "uint256",
              "name": "createdTime",
              "type": "uint256"
            },
            {
              "internalType": "address",
              "name": "myAddress",
              "type": "address"
            },
            {
              "components": [
                {
                  "internalType": "bool",
                  "name": "have",
                  "type": "bool"
                },
                {
                  "internalType": "address",
                  "name": "parent",
                  "type": "address"
                }
              ],
              "internalType": "struct BankingApp.HaveParent",
              "name": "parentInfo",
              "type": "tuple"
            }
          ],
          "internalType": "struct BankingApp.Person",
          "name": "",
          "type": "tuple"
        }
      ],
      "stateMutability": "nonpayable",
      "type": "function"
    },
    {
      "inputs": [
        {
          "internalType": "string",
          "name": "_name",
          "type": "string"
        },
        {
          "internalType": "bool",
          "name": "returnErr",
          "type": "bool"
        }
      ],
      "name": "findTheChild",
      "outputs": [
        {
          "components": [
            {
              "internalType": "string",
              "name": "name",
              "type": "string"
            },
            {
              "internalType": "uint256",
              "name": "age",
              "type": "uint256"
            },
            {
              "internalType": "uint256",
              "name": "balance",
              "type": "uint256"
            },
            {
              "internalType": "bool",
              "name": "isLimited",
              "type": "bool"
            },
            {
              "internalType": "address[]",
              "name": "child",
              "type": "address[]"
            },
            {
              "internalType": "address[]",
              "name": "parent",
              "type": "address[]"
            },
            {
              "internalType": "uint256",
              "name": "createdTime",
              "type": "uint256"
            },
            {
              "internalType": "address",
              "name": "myAddress",
              "type": "address"
            },
            {
              "components": [
                {
                  "internalType": "bool",
                  "name": "have",
                  "type": "bool"
                },
                {
                  "internalType": "address",
                  "name": "parent",
                  "type": "address"
                }
              ],
              "internalType": "struct BankingApp.HaveParent",
              "name": "parentInfo",
              "type": "tuple"
            }
          ],
          "internalType": "struct BankingApp.Person",
          "name": "",
          "type": "tuple"
        },
        {
          "internalType": "uint256",
          "name": "index",
          "type": "uint256"
        }
      ],
      "stateMutability": "view",
      "type": "function"
    },
    {
      "inputs": [],
      "name": "getBalanceOfInheritumToken",
      "outputs": [
        {
          "internalType": "uint256",
          "name": "",
          "type": "uint256"
        }
      ],
      "stateMutability": "view",
      "type": "function"
    },
    {
      "inputs": [
        {
          "internalType": "address",
          "name": "childAddr",
          "type": "address"
        }
      ],
      "name": "getChildByAddress",
      "outputs": [
        {
          "components": [
            {
              "internalType": "string",
              "name": "name",
              "type": "string"
            },
            {
              "internalType": "uint256",
              "name": "age",
              "type": "uint256"
            },
            {
              "internalType": "uint256",
              "name": "balance",
              "type": "uint256"
            },
            {
              "internalType": "bool",
              "name": "isLimited",
              "type": "bool"
            },
            {
              "internalType": "address[]",
              "name": "child",
              "type": "address[]"
            },
            {
              "internalType": "address[]",
              "name": "parent",
              "type": "address[]"
            },
            {
              "internalType": "uint256",
              "name": "createdTime",
              "type": "uint256"
            },
            {
              "internalType": "address",
              "name": "myAddress",
              "type": "address"
            },
            {
              "components": [
                {
                  "internalType": "bool",
                  "name": "have",
                  "type": "bool"
                },
                {
                  "internalType": "address",
                  "name": "parent",
                  "type": "address"
                }
              ],
              "internalType": "struct BankingApp.HaveParent",
              "name": "parentInfo",
              "type": "tuple"
            }
          ],
          "internalType": "struct BankingApp.Person",
          "name": "",
          "type": "tuple"
        }
      ],
      "stateMutability": "view",
      "type": "function"
    },
    {
      "inputs": [],
      "name": "getChildren",
      "outputs": [
        {
          "components": [
            {
              "internalType": "string",
              "name": "name",
              "type": "string"
            },
            {
              "internalType": "uint256",
              "name": "age",
              "type": "uint256"
            },
            {
              "internalType": "uint256",
              "name": "balance",
              "type": "uint256"
            },
            {
              "internalType": "bool",
              "name": "isLimited",
              "type": "bool"
            },
            {
              "internalType": "address[]",
              "name": "child",
              "type": "address[]"
            },
            {
              "internalType": "address[]",
              "name": "parent",
              "type": "address[]"
            },
            {
              "internalType": "uint256",
              "name": "createdTime",
              "type": "uint256"
            },
            {
              "internalType": "address",
              "name": "myAddress",
              "type": "address"
            },
            {
              "components": [
                {
                  "internalType": "bool",
                  "name": "have",
                  "type": "bool"
                },
                {
                  "internalType": "address",
                  "name": "parent",
                  "type": "address"
                }
              ],
              "internalType": "struct BankingApp.HaveParent",
              "name": "parentInfo",
              "type": "tuple"
            }
          ],
          "internalType": "struct BankingApp.Person[]",
          "name": "",
          "type": "tuple[]"
        }
      ],
      "stateMutability": "view",
      "type": "function"
    },
    {
      "inputs": [],
      "name": "getMyBalance",
      "outputs": [
        {
          "internalType": "uint256",
          "name": "",
          "type": "uint256"
        }
      ],
      "stateMutability": "view",
      "type": "function"
    },
    {
      "inputs": [],
      "name": "getMyChild",
      "outputs": [
        {
          "internalType": "address[]",
          "name": "",
          "type": "address[]"
        }
      ],
      "stateMutability": "view",
      "type": "function"
    },
    {
      "inputs": [
        {
          "internalType": "string",
          "name": "_name",
          "type": "string"
        }
      ],
      "name": "getMyChildBalance",
      "outputs": [
        {
          "internalType": "uint256",
          "name": "",
          "type": "uint256"
        }
      ],
      "stateMutability": "nonpayable",
      "type": "function"
    },
    {
      "inputs": [],
      "name": "getPersons",
      "outputs": [
        {
          "components": [
            {
              "internalType": "string",
              "name": "name",
              "type": "string"
            },
            {
              "internalType": "uint256",
              "name": "age",
              "type": "uint256"
            },
            {
              "internalType": "uint256",
              "name": "balance",
              "type": "uint256"
            },
            {
              "internalType": "bool",
              "name": "isLimited",
              "type": "bool"
            },
            {
              "internalType": "address[]",
              "name": "child",
              "type": "address[]"
            },
            {
              "internalType": "address[]",
              "name": "parent",
              "type": "address[]"
            },
            {
              "internalType": "uint256",
              "name": "createdTime",
              "type": "uint256"
            },
            {
              "internalType": "address",
              "name": "myAddress",
              "type": "address"
            },
            {
              "components": [
                {
                  "internalType": "bool",
                  "name": "have",
                  "type": "bool"
                },
                {
                  "internalType": "address",
                  "name": "parent",
                  "type": "address"
                }
              ],
              "internalType": "struct BankingApp.HaveParent",
              "name": "parentInfo",
              "type": "tuple"
            }
          ],
          "internalType": "struct BankingApp.Person[]",
          "name": "",
          "type": "tuple[]"
        }
      ],
      "stateMutability": "view",
      "type": "function"
    },
    {
      "inputs": [],
      "name": "getTranscationHistory",
      "outputs": [
        {
          "components": [
            {
              "internalType": "uint256",
              "name": "timestamp",
              "type": "uint256"
            },
            {
              "internalType": "address",
              "name": "sender",
              "type": "address"
            },
            {
              "internalType": "address",
              "name": "receiver",
              "type": "address"
            },
            {
              "internalType": "uint256",
              "name": "amount",
              "type": "uint256"
            }
          ],
          "internalType": "struct BankingApp.Transaction[]",
          "name": "",
          "type": "tuple[]"
        }
      ],
      "stateMutability": "view",
      "type": "function"
    },
    {
      "inputs": [],
      "name": "getTranscationHistoryForChild",
      "outputs": [
        {
          "components": [
            {
              "internalType": "uint256",
              "name": "timestamp",
              "type": "uint256"
            },
            {
              "internalType": "address",
              "name": "sender",
              "type": "address"
            },
            {
              "internalType": "address",
              "name": "receiver",
              "type": "address"
            },
            {
              "internalType": "uint256",
              "name": "amount",
              "type": "uint256"
            }
          ],
          "internalType": "struct BankingApp.Transaction[]",
          "name": "",
          "type": "tuple[]"
        }
      ],
      "stateMutability": "view",
      "type": "function"
    },
    {
      "inputs": [
        {
          "internalType": "address",
          "name": "",
          "type": "address"
        }
      ],
      "name": "personList",
      "outputs": [
        {
          "internalType": "string",
          "name": "name",
          "type": "string"
        },
        {
          "internalType": "uint256",
          "name": "age",
          "type": "uint256"
        },
        {
          "internalType": "uint256",
          "name": "balance",
          "type": "uint256"
        },
        {
          "internalType": "bool",
          "name": "isLimited",
          "type": "bool"
        },
        {
          "internalType": "uint256",
          "name": "createdTime",
          "type": "uint256"
        },
        {
          "internalType": "address",
          "name": "myAddress",
          "type": "address"
        },
        {
          "components": [
            {
              "internalType": "bool",
              "name": "have",
              "type": "bool"
            },
            {
              "internalType": "address",
              "name": "parent",
              "type": "address"
            }
          ],
          "internalType": "struct BankingApp.HaveParent",
          "name": "parentInfo",
          "type": "tuple"
        }
      ],
      "stateMutability": "view",
      "type": "function"
    },
    {
      "inputs": [
        {
          "internalType": "address payable",
          "name": "_to",
          "type": "address"
        },
        {
          "internalType": "uint256",
          "name": "amount",
          "type": "uint256"
        }
      ],
      "name": "sendEther",
      "outputs": [],
      "stateMutability": "payable",
      "type": "function"
    },
    {
      "inputs": [
        {
          "internalType": "address",
          "name": "_to",
          "type": "address"
        },
        {
          "internalType": "uint256",
          "name": "_amount",
          "type": "uint256"
        }
      ],
      "name": "sendTokenToChild",
      "outputs": [],
      "stateMutability": "nonpayable",
      "type": "function"
    },
    {
      "inputs": [],
      "name": "token",
      "outputs": [
        {
          "internalType": "contract IERC20",
          "name": "",
          "type": "address"
        }
      ],
      "stateMutability": "view",
      "type": "function"
    }
  ],
  "bytecode": "0x6080604052604051620054623803806200546283398181016040528101906200002991906200011c565b816000806101000a81548173ffffffffffffffffffffffffffffffffffffffff021916908373ffffffffffffffffffffffffffffffffffffffff16021790555080600160006101000a81548173ffffffffffffffffffffffffffffffffffffffff021916908373ffffffffffffffffffffffffffffffffffffffff160217905550505062000163565b600080fd5b600073ffffffffffffffffffffffffffffffffffffffff82169050919050565b6000620000e482620000b7565b9050919050565b620000f681620000d7565b81146200010257600080fd5b50565b6000815190506200011681620000eb565b92915050565b60008060408385031215620001365762000135620000b2565b5b6000620001468582860162000105565b9250506020620001598582860162000105565b9150509250929050565b6152ef80620001736000396000f3fe6080604052600436106100f35760003560e01c80637a6e7a9e1161008a578063c81cdec911610059578063c81cdec91461035e578063dbc1a22b14610389578063ee203fe6146103b4578063fc0c546a146103df576100f3565b80637a6e7a9e146102ab578063a6e4788c146102ee578063b42fbdfd14610319578063c1756a2c14610342576100f3565b80634c738909116100c65780634c738909146101c857806353a86c94146101f35780635412f1c9146102305780636f760f411461026e576100f3565b80631079ed67146100f85780633f8706ab146101355780634892e8e8146101725780634c6b6c6f1461019d575b600080fd5b34801561010457600080fd5b5061011f600480360381019061011a9190613f54565b61040a565b60405161012c919061420e565b60405180910390f35b34801561014157600080fd5b5061015c60048036038101906101579190614391565b6107d7565b604051610169919061420e565b60405180910390f35b34801561017e57600080fd5b50610187611004565b6040516101949190614595565b60405180910390f35b3480156101a957600080fd5b506101b2611502565b6040516101bf9190614595565b60405180910390f35b3480156101d457600080fd5b506101dd611824565b6040516101ea91906145c6565b60405180910390f35b3480156101ff57600080fd5b5061021a600480360381019061021591906145e1565b611843565b60405161022791906145c6565b60405180910390f35b34801561023c57600080fd5b5061025760048036038101906102529190614656565b6118bd565b6040516102659291906146b2565b60405180910390f35b34801561027a57600080fd5b50610295600480360381019061029091906146e2565b611d4a565b6040516102a2919061420e565b60405180910390f35b3480156102b757600080fd5b506102d260048036038101906102cd9190613f54565b612563565b6040516102e597969594939291906147d5565b60405180910390f35b3480156102fa57600080fd5b506103036126d5565b6040516103109190614950565b60405180910390f35b34801561032557600080fd5b50610340600480360381019061033b9190614972565b612831565b005b61035c600480360381019061035791906149f0565b612a32565b005b34801561036a57600080fd5b50610373612d84565b60405161038091906145c6565b60405180910390f35b34801561039557600080fd5b5061039e612e35565b6040516103ab9190614950565b60405180910390f35b3480156103c057600080fd5b506103c9612f91565b6040516103d69190614a9f565b60405180910390f35b3480156103eb57600080fd5b506103f461305f565b6040516104019190614b20565b60405180910390f35b610412613d19565b816040518060200160405280600081525080519060200120600560008373ffffffffffffffffffffffffffffffffffffffff1673ffffffffffffffffffffffffffffffffffffffff1681526020019081526020016000206000016040516104799190614c3b565b604051809103902014156104c2576040517f08c379a00000000000000000000000000000000000000000000000000000000081526004016104b990614cc4565b60405180910390fd5b600560008473ffffffffffffffffffffffffffffffffffffffff1673ffffffffffffffffffffffffffffffffffffffff1681526020019081526020016000206040518061012001604052908160008201805461051d90614b6a565b80601f016020809104026020016040519081016040528092919081815260200182805461054990614b6a565b80156105965780601f1061056b57610100808354040283529160200191610596565b820191906000526020600020905b81548152906001019060200180831161057957829003601f168201915b5050505050815260200160018201548152602001600282015481526020016003820160009054906101000a900460ff161515151581526020016004820180548060200260200160405190810160405280929190818152602001828054801561065357602002820191906000526020600020905b8160009054906101000a900473ffffffffffffffffffffffffffffffffffffffff1673ffffffffffffffffffffffffffffffffffffffff1681526020019060010190808311610609575b50505050508152602001600582018054806020026020016040519081016040528092919081815260200182805480156106e157602002820191906000526020600020905b8160009054906101000a900473ffffffffffffffffffffffffffffffffffffffff1673ffffffffffffffffffffffffffffffffffffffff1681526020019060010190808311610697575b50505050508152602001600682015481526020016007820160009054906101000a900473ffffffffffffffffffffffffffffffffffffffff1673ffffffffffffffffffffffffffffffffffffffff1673ffffffffffffffffffffffffffffffffffffffff168152602001600882016040518060400160405290816000820160009054906101000a900460ff161515151581526020016000820160019054906101000a900473ffffffffffffffffffffffffffffffffffffffff1673ffffffffffffffffffffffffffffffffffffffff1673ffffffffffffffffffffffffffffffffffffffff168152505081525050915050919050565b6107df613d19565b816040518060200160405280600081525080519060200120600560008373ffffffffffffffffffffffffffffffffffffffff1673ffffffffffffffffffffffffffffffffffffffff1681526020019081526020016000206000016040516108469190614c3b565b60405180910390201461088e576040517f08c379a000000000000000000000000000000000000000000000000000000000815260040161088590614d56565b60405180910390fd5b6108988585613083565b506000600460003373ffffffffffffffffffffffffffffffffffffffff1673ffffffffffffffffffffffffffffffffffffffff168152602001908152602001600020905080600401849080600181540180825580915050600190039060005260206000200160009091909190916101000a81548173ffffffffffffffffffffffffffffffffffffffff021916908373ffffffffffffffffffffffffffffffffffffffff16021790555060008061094f8860016118bd565b91509150856007828154811061096857610967614d76565b5b906000526020600020906009020160070160006101000a81548173ffffffffffffffffffffffffffffffffffffffff021916908373ffffffffffffffffffffffffffffffffffffffff16021790555081600560008873ffffffffffffffffffffffffffffffffffffffff1673ffffffffffffffffffffffffffffffffffffffff1681526020019081526020016000206000820151816000019080519060200190610a13929190613d83565b50602082015181600101556040820151816002015560608201518160030160006101000a81548160ff0219169083151502179055506080820151816004019080519060200190610a64929190613e09565b5060a0820151816005019080519060200190610a81929190613e09565b5060c0820151816006015560e08201518160070160006101000a81548173ffffffffffffffffffffffffffffffffffffffff021916908373ffffffffffffffffffffffffffffffffffffffff1602179055506101008201518160080160008201518160000160006101000a81548160ff02191690831515021790555060208201518160000160016101000a81548173ffffffffffffffffffffffffffffffffffffffff021916908373ffffffffffffffffffffffffffffffffffffffff1602179055505050905050610b51613d19565b80600560003373ffffffffffffffffffffffffffffffffffffffff1673ffffffffffffffffffffffffffffffffffffffff1681526020019081526020016000206000820151816000019080519060200190610bad929190613d83565b50602082015181600101556040820151816002015560608201518160030160006101000a81548160ff0219169083151502179055506080820151816004019080519060200190610bfe929190613e09565b5060a0820151816005019080519060200190610c1b929190613e09565b5060c0820151816006015560e08201518160070160006101000a81548173ffffffffffffffffffffffffffffffffffffffff021916908373ffffffffffffffffffffffffffffffffffffffff1602179055506101008201518160080160008201518160000160006101000a81548160ff02191690831515021790555060208201518160000160016101000a81548173ffffffffffffffffffffffffffffffffffffffff021916908373ffffffffffffffffffffffffffffffffffffffff16021790555050509050506000600460003373ffffffffffffffffffffffffffffffffffffffff1673ffffffffffffffffffffffffffffffffffffffff16815260200190815260200160002060405180610120016040529081600082018054610d4090614b6a565b80601f0160208091040260200160405190810160405280929190818152602001828054610d6c90614b6a565b8015610db95780601f10610d8e57610100808354040283529160200191610db9565b820191906000526020600020905b815481529060010190602001808311610d9c57829003601f168201915b5050505050815260200160018201548152602001600282015481526020016003820160009054906101000a900460ff1615151515815260200160048201805480602002602001604051908101604052809291908181526020018280548015610e7657602002820191906000526020600020905b8160009054906101000a900473ffffffffffffffffffffffffffffffffffffffff1673ffffffffffffffffffffffffffffffffffffffff1681526020019060010190808311610e2c575b5050505050815260200160058201805480602002602001604051908101604052809291908181526020018280548015610f0457602002820191906000526020600020905b8160009054906101000a900473ffffffffffffffffffffffffffffffffffffffff1673ffffffffffffffffffffffffffffffffffffffff1681526020019060010190808311610eba575b50505050508152602001600682015481526020016007820160009054906101000a900473ffffffffffffffffffffffffffffffffffffffff1673ffffffffffffffffffffffffffffffffffffffff1673ffffffffffffffffffffffffffffffffffffffff168152602001600882016040518060400160405290816000820160009054906101000a900460ff161515151581526020016000820160019054906101000a900473ffffffffffffffffffffffffffffffffffffffff1673ffffffffffffffffffffffffffffffffffffffff1673ffffffffffffffffffffffffffffffffffffffff16815250508152505090508096505050505050509392505050565b6060600060078054905067ffffffffffffffff8111156110275761102661423a565b5b60405190808252806020026020018201604052801561106057816020015b61104d613d19565b8152602001906001900390816110455790505b5090506000805b6007805490508110156114f9576007818154811061108857611087614d76565b5b906000526020600020906009020160030160009054906101000a900460ff1680156111255750600073ffffffffffffffffffffffffffffffffffffffff16600782815481106110da576110d9614d76565b5b906000526020600020906009020160070160009054906101000a900473ffffffffffffffffffffffffffffffffffffffff1673ffffffffffffffffffffffffffffffffffffffff1614155b80156111c45750600160009054906101000a900473ffffffffffffffffffffffffffffffffffffffff1673ffffffffffffffffffffffffffffffffffffffff166007828154811061117957611178614d76565b5b906000526020600020906009020160070160009054906101000a900473ffffffffffffffffffffffffffffffffffffffff1673ffffffffffffffffffffffffffffffffffffffff1614155b156114e657600781815481106111dd576111dc614d76565b5b90600052602060002090600902016040518061012001604052908160008201805461120790614b6a565b80601f016020809104026020016040519081016040528092919081815260200182805461123390614b6a565b80156112805780601f1061125557610100808354040283529160200191611280565b820191906000526020600020905b81548152906001019060200180831161126357829003601f168201915b5050505050815260200160018201548152602001600282015481526020016003820160009054906101000a900460ff161515151581526020016004820180548060200260200160405190810160405280929190818152602001828054801561133d57602002820191906000526020600020905b8160009054906101000a900473ffffffffffffffffffffffffffffffffffffffff1673ffffffffffffffffffffffffffffffffffffffff16815260200190600101908083116112f3575b50505050508152602001600582018054806020026020016040519081016040528092919081815260200182805480156113cb57602002820191906000526020600020905b8160009054906101000a900473ffffffffffffffffffffffffffffffffffffffff1673ffffffffffffffffffffffffffffffffffffffff1681526020019060010190808311611381575b50505050508152602001600682015481526020016007820160009054906101000a900473ffffffffffffffffffffffffffffffffffffffff1673ffffffffffffffffffffffffffffffffffffffff1673ffffffffffffffffffffffffffffffffffffffff168152602001600882016040518060400160405290816000820160009054906101000a900460ff161515151581526020016000820160019054906101000a900473ffffffffffffffffffffffffffffffffffffffff1673ffffffffffffffffffffffffffffffffffffffff1673ffffffffffffffffffffffffffffffffffffffff1681525050815250508383815181106114cc576114cb614d76565b5b602002602001018190525081806114e290614dd4565b9250505b80806114f190614dd4565b915050611067565b50819250505090565b60606007805480602002602001604051908101604052809291908181526020016000905b8282101561181b57838290600052602060002090600902016040518061012001604052908160008201805461155a90614b6a565b80601f016020809104026020016040519081016040528092919081815260200182805461158690614b6a565b80156115d35780601f106115a8576101008083540402835291602001916115d3565b820191906000526020600020905b8154815290600101906020018083116115b657829003601f168201915b5050505050815260200160018201548152602001600282015481526020016003820160009054906101000a900460ff161515151581526020016004820180548060200260200160405190810160405280929190818152602001828054801561169057602002820191906000526020600020905b8160009054906101000a900473ffffffffffffffffffffffffffffffffffffffff1673ffffffffffffffffffffffffffffffffffffffff1681526020019060010190808311611646575b505050505081526020016005820180548060200260200160405190810160405280929190818152602001828054801561171e57602002820191906000526020600020905b8160009054906101000a900473ffffffffffffffffffffffffffffffffffffffff1673ffffffffffffffffffffffffffffffffffffffff16815260200190600101908083116116d4575b50505050508152602001600682015481526020016007820160009054906101000a900473ffffffffffffffffffffffffffffffffffffffff1673ffffffffffffffffffffffffffffffffffffffff1673ffffffffffffffffffffffffffffffffffffffff168152602001600882016040518060400160405290816000820160009054906101000a900460ff161515151581526020016000820160019054906101000a900473ffffffffffffffffffffffffffffffffffffffff1673ffffffffffffffffffffffffffffffffffffffff1673ffffffffffffffffffffffffffffffffffffffff16815250508152505081526020019060010190611526565b50505050905090565b60003373ffffffffffffffffffffffffffffffffffffffff1631905090565b60008060006118538460016118bd565b915091507f43bffc0f95fb1b5cd921e2fa994fd3abf463eefb09b4b0fffddb4d365c1725288260e001518360000151604051611890929190614e1d565b60405180910390a18160e0015173ffffffffffffffffffffffffffffffffffffffff163192505050919050565b6118c5613d19565b600080600090505b600780549050811015611cf057600781815481106118ee576118ed614d76565b5b906000526020600020906009020160080160000160009054906101000a900460ff16801561198f57503373ffffffffffffffffffffffffffffffffffffffff166007828154811061194257611941614d76565b5b906000526020600020906009020160080160000160019054906101000a900473ffffffffffffffffffffffffffffffffffffffff1673ffffffffffffffffffffffffffffffffffffffff16145b80156119da57508480519060200120600782815481106119b2576119b1614d76565b5b90600052602060002090600902016000016040516119d09190614c3b565b6040518091039020145b15611cdd57600781815481106119f3576119f2614d76565b5b9060005260206000209060090201818160405180610120016040529081600082018054611a1f90614b6a565b80601f0160208091040260200160405190810160405280929190818152602001828054611a4b90614b6a565b8015611a985780601f10611a6d57610100808354040283529160200191611a98565b820191906000526020600020905b815481529060010190602001808311611a7b57829003601f168201915b5050505050815260200160018201548152602001600282015481526020016003820160009054906101000a900460ff1615151515815260200160048201805480602002602001604051908101604052809291908181526020018280548015611b5557602002820191906000526020600020905b8160009054906101000a900473ffffffffffffffffffffffffffffffffffffffff1673ffffffffffffffffffffffffffffffffffffffff1681526020019060010190808311611b0b575b5050505050815260200160058201805480602002602001604051908101604052809291908181526020018280548015611be357602002820191906000526020600020905b8160009054906101000a900473ffffffffffffffffffffffffffffffffffffffff1673ffffffffffffffffffffffffffffffffffffffff1681526020019060010190808311611b99575b50505050508152602001600682015481526020016007820160009054906101000a900473ffffffffffffffffffffffffffffffffffffffff1673ffffffffffffffffffffffffffffffffffffffff1673ffffffffffffffffffffffffffffffffffffffff168152602001600882016040518060400160405290816000820160009054906101000a900460ff161515151581526020016000820160019054906101000a900473ffffffffffffffffffffffffffffffffffffffff1673ffffffffffffffffffffffffffffffffffffffff1673ffffffffffffffffffffffffffffffffffffffff16815250508152505091509250925050611d43565b8080611ce890614dd4565b9150506118cd565b508215611d32576040517f08c379a0000000000000000000000000000000000000000000000000000000008152600401611d2990614e99565b60405180910390fd5b611d3a613d19565b80600092509250505b9250929050565b611d52613d19565b6040518060200160405280600081525080519060200120600460003373ffffffffffffffffffffffffffffffffffffffff1673ffffffffffffffffffffffffffffffffffffffff168152602001908152602001600020600001604051611db89190614c3b565b604051809103902014611e00576040517f08c379a0000000000000000000000000000000000000000000000000000000008152600401611df790614f05565b60405180910390fd5b600160009054906101000a900473ffffffffffffffffffffffffffffffffffffffff1673ffffffffffffffffffffffffffffffffffffffff163373ffffffffffffffffffffffffffffffffffffffff161415611e91576040517f08c379a0000000000000000000000000000000000000000000000000000000008152600401611e8890614f71565b60405180910390fd5b6000600460003373ffffffffffffffffffffffffffffffffffffffff1673ffffffffffffffffffffffffffffffffffffffff168152602001908152602001600020905083816000019080519060200190611eec929190613d83565b50828160010181905550600660003373ffffffffffffffffffffffffffffffffffffffff1673ffffffffffffffffffffffffffffffffffffffff16815260200190815260200160002054816002018190555060008160030160006101000a81548160ff021916908315150217905550600067ffffffffffffffff811115611f7657611f7561423a565b5b604051908082528060200260200182016040528015611fa45781602001602082028036833780820191505090505b50816004019080519060200190611fbc929190613e09565b50600067ffffffffffffffff811115611fd857611fd761423a565b5b6040519080825280602002602001820160405280156120065781602001602082028036833780820191505090505b5081600501908051906020019061201e929190613e09565b504281600601819055506040518060400160405280600015158152602001600073ffffffffffffffffffffffffffffffffffffffff168152508160080160008201518160000160006101000a81548160ff02191690831515021790555060208201518160000160016101000a81548173ffffffffffffffffffffffffffffffffffffffff021916908373ffffffffffffffffffffffffffffffffffffffff160217905550905050338160070160006101000a81548173ffffffffffffffffffffffffffffffffffffffff021916908373ffffffffffffffffffffffffffffffffffffffff1602179055506000816040518061012001604052908160008201805461212790614b6a565b80601f016020809104026020016040519081016040528092919081815260200182805461215390614b6a565b80156121a05780601f10612175576101008083540402835291602001916121a0565b820191906000526020600020905b81548152906001019060200180831161218357829003601f168201915b5050505050815260200160018201548152602001600282015481526020016003820160009054906101000a900460ff161515151581526020016004820180548060200260200160405190810160405280929190818152602001828054801561225d57602002820191906000526020600020905b8160009054906101000a900473ffffffffffffffffffffffffffffffffffffffff1673ffffffffffffffffffffffffffffffffffffffff1681526020019060010190808311612213575b50505050508152602001600582018054806020026020016040519081016040528092919081815260200182805480156122eb57602002820191906000526020600020905b8160009054906101000a900473ffffffffffffffffffffffffffffffffffffffff1673ffffffffffffffffffffffffffffffffffffffff16815260200190600101908083116122a1575b50505050508152602001600682015481526020016007820160009054906101000a900473ffffffffffffffffffffffffffffffffffffffff1673ffffffffffffffffffffffffffffffffffffffff1673ffffffffffffffffffffffffffffffffffffffff168152602001600882016040518060400160405290816000820160009054906101000a900460ff161515151581526020016000820160019054906101000a900473ffffffffffffffffffffffffffffffffffffffff1673ffffffffffffffffffffffffffffffffffffffff1673ffffffffffffffffffffffffffffffffffffffff168152505081525050905060078190806001815401808255809150506001900390600052602060002090600902016000909190919091506000820151816000019080519060200190612423929190613d83565b50602082015181600101556040820151816002015560608201518160030160006101000a81548160ff0219169083151502179055506080820151816004019080519060200190612474929190613e09565b5060a0820151816005019080519060200190612491929190613e09565b5060c0820151816006015560e08201518160070160006101000a81548173ffffffffffffffffffffffffffffffffffffffff021916908373ffffffffffffffffffffffffffffffffffffffff1602179055506101008201518160080160008201518160000160006101000a81548160ff02191690831515021790555060208201518160000160016101000a81548173ffffffffffffffffffffffffffffffffffffffff021916908373ffffffffffffffffffffffffffffffffffffffff16021790555050505050809250505092915050565b600460205280600052604060002060009150905080600001805461258690614b6a565b80601f01602080910402602001604051908101604052809291908181526020018280546125b290614b6a565b80156125ff5780601f106125d4576101008083540402835291602001916125ff565b820191906000526020600020905b8154815290600101906020018083116125e257829003601f168201915b5050505050908060010154908060020154908060030160009054906101000a900460ff16908060060154908060070160009054906101000a900473ffffffffffffffffffffffffffffffffffffffff1690806008016040518060400160405290816000820160009054906101000a900460ff161515151581526020016000820160019054906101000a900473ffffffffffffffffffffffffffffffffffffffff1673ffffffffffffffffffffffffffffffffffffffff1673ffffffffffffffffffffffffffffffffffffffff1681525050905087565b6060600360003373ffffffffffffffffffffffffffffffffffffffff1673ffffffffffffffffffffffffffffffffffffffff168152602001908152602001600020805480602002602001604051908101604052809291908181526020016000905b828210156128285783829060005260206000209060040201604051806080016040529081600082015481526020016001820160009054906101000a900473ffffffffffffffffffffffffffffffffffffffff1673ffffffffffffffffffffffffffffffffffffffff1673ffffffffffffffffffffffffffffffffffffffff1681526020016002820160009054906101000a900473ffffffffffffffffffffffffffffffffffffffff1673ffffffffffffffffffffffffffffffffffffffff1673ffffffffffffffffffffffffffffffffffffffff16815260200160038201548152505081526020019060010190612736565b50505050905090565b808060008054906101000a900473ffffffffffffffffffffffffffffffffffffffff1673ffffffffffffffffffffffffffffffffffffffff166370a08231336040518263ffffffff1660e01b815260040161288c9190614f91565b60206040518083038186803b1580156128a457600080fd5b505afa1580156128b8573d6000803e3d6000fd5b505050506040513d601f19601f820116820180604052508101906128dc9190614fc1565b10156128e757600080fd5b600460003373ffffffffffffffffffffffffffffffffffffffff1673ffffffffffffffffffffffffffffffffffffffff16815260200190815260200160002060030160009054906101000a900460ff16600015158115151461297e576040517f08c379a000000000000000000000000000000000000000000000000000000000815260040161297590615060565b60405180910390fd5b60008054906101000a900473ffffffffffffffffffffffffffffffffffffffff1673ffffffffffffffffffffffffffffffffffffffff1663a9059cbb85856040518363ffffffff1660e01b81526004016129d9929190615080565b602060405180830381600087803b1580156129f357600080fd5b505af1158015612a07573d6000803e3d6000fd5b505050506040513d601f19601f82011682018060405250810190612a2b91906150be565b5050505050565b600460003373ffffffffffffffffffffffffffffffffffffffff1673ffffffffffffffffffffffffffffffffffffffff16815260200190815260200160002060030160009054906101000a900460ff166000151581151514612ac9576040517f08c379a0000000000000000000000000000000000000000000000000000000008152600401612ac090615060565b60405180910390fd5b818060008054906101000a900473ffffffffffffffffffffffffffffffffffffffff1673ffffffffffffffffffffffffffffffffffffffff1663dd62ed3e600160009054906101000a900473ffffffffffffffffffffffffffffffffffffffff16336040518363ffffffff1660e01b8152600401612b489291906150eb565b60206040518083038186803b158015612b6057600080fd5b505afa158015612b74573d6000803e3d6000fd5b505050506040513d601f19601f82011682018060405250810190612b989190614fc1565b1015612bd9576040517f08c379a0000000000000000000000000000000000000000000000000000000008152600401612bd090615186565b60405180910390fd5b6000808573ffffffffffffffffffffffffffffffffffffffff1685604051612c00906151cc565b60006040518083038185875af1925050503d8060008114612c3d576040519150601f19603f3d011682016040523d82523d6000602084013e612c42565b606091505b509150915081612c87576040517f08c379a0000000000000000000000000000000000000000000000000000000008152600401612c7e9061522d565b60405180910390fd5b6000600460003373ffffffffffffffffffffffffffffffffffffffff1673ffffffffffffffffffffffffffffffffffffffff168152602001908152602001600020600001604051612cd89190614c3b565b604051809103902014612d0357612cf186866001613792565b612cfe8633876000613a55565b612d7c565b6000600560003373ffffffffffffffffffffffffffffffffffffffff1673ffffffffffffffffffffffffffffffffffffffff168152602001908152602001600020600001604051612d549190614c3b565b604051809103902014612d7b57612d6d86866000613792565b612d7a8633876001613a55565b5b5b505050505050565b60008060009054906101000a900473ffffffffffffffffffffffffffffffffffffffff1673ffffffffffffffffffffffffffffffffffffffff166370a08231336040518263ffffffff1660e01b8152600401612de09190614f91565b60206040518083038186803b158015612df857600080fd5b505afa158015612e0c573d6000803e3d6000fd5b505050506040513d601f19601f82011682018060405250810190612e309190614fc1565b905090565b6060600260003373ffffffffffffffffffffffffffffffffffffffff1673ffffffffffffffffffffffffffffffffffffffff168152602001908152602001600020805480602002602001604051908101604052809291908181526020016000905b82821015612f885783829060005260206000209060040201604051806080016040529081600082015481526020016001820160009054906101000a900473ffffffffffffffffffffffffffffffffffffffff1673ffffffffffffffffffffffffffffffffffffffff1673ffffffffffffffffffffffffffffffffffffffff1681526020016002820160009054906101000a900473ffffffffffffffffffffffffffffffffffffffff1673ffffffffffffffffffffffffffffffffffffffff1673ffffffffffffffffffffffffffffffffffffffff16815260200160038201548152505081526020019060010190612e96565b50505050905090565b6060600460003373ffffffffffffffffffffffffffffffffffffffff1673ffffffffffffffffffffffffffffffffffffffff16815260200190815260200160002060040180548060200260200160405190810160405280929190818152602001828054801561305557602002820191906000526020600020905b8160009054906101000a900473ffffffffffffffffffffffffffffffffffffffff1673ffffffffffffffffffffffffffffffffffffffff168152602001906001019080831161300b575b5050505050905090565b60008054906101000a900473ffffffffffffffffffffffffffffffffffffffff1681565b61308b613d19565b8260008061309a8360006118bd565b91509150604051806020016040528060008152508051906020012082600001518051906020012014613101576040517f08c379a00000000000000000000000000000000000000000000000000000000081526004016130f890615299565b60405180910390fd5b6000600560003373ffffffffffffffffffffffffffffffffffffffff1673ffffffffffffffffffffffffffffffffffffffff16815260200190815260200160002090508681600001908051906020019061315c929190613d83565b50858160010181905550600660003373ffffffffffffffffffffffffffffffffffffffff1673ffffffffffffffffffffffffffffffffffffffff16815260200190815260200160002054816002018190555060018160030160006101000a81548160ff021916908315150217905550600067ffffffffffffffff8111156131e6576131e561423a565b5b6040519080825280602002602001820160405280156132145781602001602082028036833780820191505090505b5081600401908051906020019061322c929190613e09565b50600067ffffffffffffffff8111156132485761324761423a565b5b6040519080825280602002602001820160405280156132765781602001602082028036833780820191505090505b5081600501908051906020019061328e929190613e09565b5042816006018190555060405180604001604052806001151581526020013373ffffffffffffffffffffffffffffffffffffffff168152508160080160008201518160000160006101000a81548160ff02191690831515021790555060208201518160000160016101000a81548173ffffffffffffffffffffffffffffffffffffffff021916908373ffffffffffffffffffffffffffffffffffffffff1602179055509050506000816040518061012001604052908160008201805461335390614b6a565b80601f016020809104026020016040519081016040528092919081815260200182805461337f90614b6a565b80156133cc5780601f106133a1576101008083540402835291602001916133cc565b820191906000526020600020905b8154815290600101906020018083116133af57829003601f168201915b5050505050815260200160018201548152602001600282015481526020016003820160009054906101000a900460ff161515151581526020016004820180548060200260200160405190810160405280929190818152602001828054801561348957602002820191906000526020600020905b8160009054906101000a900473ffffffffffffffffffffffffffffffffffffffff1673ffffffffffffffffffffffffffffffffffffffff168152602001906001019080831161343f575b505050505081526020016005820180548060200260200160405190810160405280929190818152602001828054801561351757602002820191906000526020600020905b8160009054906101000a900473ffffffffffffffffffffffffffffffffffffffff1673ffffffffffffffffffffffffffffffffffffffff16815260200190600101908083116134cd575b50505050508152602001600682015481526020016007820160009054906101000a900473ffffffffffffffffffffffffffffffffffffffff1673ffffffffffffffffffffffffffffffffffffffff1673ffffffffffffffffffffffffffffffffffffffff168152602001600882016040518060400160405290816000820160009054906101000a900460ff161515151581526020016000820160019054906101000a900473ffffffffffffffffffffffffffffffffffffffff1673ffffffffffffffffffffffffffffffffffffffff1673ffffffffffffffffffffffffffffffffffffffff16815250508152505090506007819080600181540180825580915050600190039060005260206000209060090201600090919091909150600082015181600001908051906020019061364f929190613d83565b50602082015181600101556040820151816002015560608201518160030160006101000a81548160ff02191690831515021790555060808201518160040190805190602001906136a0929190613e09565b5060a08201518160050190805190602001906136bd929190613e09565b5060c0820151816006015560e08201518160070160006101000a81548173ffffffffffffffffffffffffffffffffffffffff021916908373ffffffffffffffffffffffffffffffffffffffff1602179055506101008201518160080160008201518160000160006101000a81548160ff02191690831515021790555060208201518160000160016101000a81548173ffffffffffffffffffffffffffffffffffffffff021916908373ffffffffffffffffffffffffffffffffffffffff16021790555050505050809550505050505092915050565b80156138f657600260003373ffffffffffffffffffffffffffffffffffffffff1673ffffffffffffffffffffffffffffffffffffffff16815260200190815260200160002060405180608001604052804281526020013373ffffffffffffffffffffffffffffffffffffffff1681526020018573ffffffffffffffffffffffffffffffffffffffff1681526020018481525090806001815401808255809150506001900390600052602060002090600402016000909190919091506000820151816000015560208201518160010160006101000a81548173ffffffffffffffffffffffffffffffffffffffff021916908373ffffffffffffffffffffffffffffffffffffffff16021790555060408201518160020160006101000a81548173ffffffffffffffffffffffffffffffffffffffff021916908373ffffffffffffffffffffffffffffffffffffffff160217905550606082015181600301555050613a50565b600260003373ffffffffffffffffffffffffffffffffffffffff1673ffffffffffffffffffffffffffffffffffffffff16815260200190815260200160002060405180608001604052804281526020018573ffffffffffffffffffffffffffffffffffffffff1681526020013373ffffffffffffffffffffffffffffffffffffffff1681526020018481525090806001815401808255809150506001900390600052602060002090600402016000909190919091506000820151816000015560208201518160010160006101000a81548173ffffffffffffffffffffffffffffffffffffffff021916908373ffffffffffffffffffffffffffffffffffffffff16021790555060408201518160020160006101000a81548173ffffffffffffffffffffffffffffffffffffffff021916908373ffffffffffffffffffffffffffffffffffffffff1602179055506060820151816003015550505b505050565b8015613bb957600360008573ffffffffffffffffffffffffffffffffffffffff1673ffffffffffffffffffffffffffffffffffffffff16815260200190815260200160002060405180608001604052804281526020018673ffffffffffffffffffffffffffffffffffffffff1681526020018573ffffffffffffffffffffffffffffffffffffffff1681526020018481525090806001815401808255809150506001900390600052602060002090600402016000909190919091506000820151816000015560208201518160010160006101000a81548173ffffffffffffffffffffffffffffffffffffffff021916908373ffffffffffffffffffffffffffffffffffffffff16021790555060408201518160020160006101000a81548173ffffffffffffffffffffffffffffffffffffffff021916908373ffffffffffffffffffffffffffffffffffffffff160217905550606082015181600301555050613d13565b600360008573ffffffffffffffffffffffffffffffffffffffff1673ffffffffffffffffffffffffffffffffffffffff16815260200190815260200160002060405180608001604052804281526020018573ffffffffffffffffffffffffffffffffffffffff1681526020018673ffffffffffffffffffffffffffffffffffffffff1681526020018481525090806001815401808255809150506001900390600052602060002090600402016000909190919091506000820151816000015560208201518160010160006101000a81548173ffffffffffffffffffffffffffffffffffffffff021916908373ffffffffffffffffffffffffffffffffffffffff16021790555060408201518160020160006101000a81548173ffffffffffffffffffffffffffffffffffffffff021916908373ffffffffffffffffffffffffffffffffffffffff1602179055506060820151816003015550505b50505050565b604051806101200160405280606081526020016000815260200160008152602001600015158152602001606081526020016060815260200160008152602001600073ffffffffffffffffffffffffffffffffffffffff168152602001613d7d613e93565b81525090565b828054613d8f90614b6a565b90600052602060002090601f016020900481019282613db15760008555613df8565b82601f10613dca57805160ff1916838001178555613df8565b82800160010185558215613df8579182015b82811115613df7578251825591602001919060010190613ddc565b5b509050613e059190613ec5565b5090565b828054828255906000526020600020908101928215613e82579160200282015b82811115613e815782518260006101000a81548173ffffffffffffffffffffffffffffffffffffffff021916908373ffffffffffffffffffffffffffffffffffffffff16021790555091602001919060010190613e29565b5b509050613e8f9190613ec5565b5090565b6040518060400160405280600015158152602001600073ffffffffffffffffffffffffffffffffffffffff1681525090565b5b80821115613ede576000816000905550600101613ec6565b5090565b6000604051905090565b600080fd5b600080fd5b600073ffffffffffffffffffffffffffffffffffffffff82169050919050565b6000613f2182613ef6565b9050919050565b613f3181613f16565b8114613f3c57600080fd5b50565b600081359050613f4e81613f28565b92915050565b600060208284031215613f6a57613f69613eec565b5b6000613f7884828501613f3f565b91505092915050565b600081519050919050565b600082825260208201905092915050565b60005b83811015613fbb578082015181840152602081019050613fa0565b83811115613fca576000848401525b50505050565b6000601f19601f8301169050919050565b6000613fec82613f81565b613ff68185613f8c565b9350614006818560208601613f9d565b61400f81613fd0565b840191505092915050565b6000819050919050565b61402d8161401a565b82525050565b60008115159050919050565b61404881614033565b82525050565b600081519050919050565b600082825260208201905092915050565b6000819050602082019050919050565b61408381613f16565b82525050565b6000614095838361407a565b60208301905092915050565b6000602082019050919050565b60006140b98261404e565b6140c38185614059565b93506140ce8361406a565b8060005b838110156140ff5781516140e68882614089565b97506140f1836140a1565b9250506001810190506140d2565b5085935050505092915050565b604082016000820151614122600085018261403f565b506020820151614135602085018261407a565b50505050565b60006101408301600083015184820360008601526141598282613fe1565b915050602083015161416e6020860182614024565b5060408301516141816040860182614024565b506060830151614194606086018261403f565b50608083015184820360808601526141ac82826140ae565b91505060a083015184820360a08601526141c682826140ae565b91505060c08301516141db60c0860182614024565b5060e08301516141ee60e086018261407a565b5061010083015161420361010086018261410c565b508091505092915050565b60006020820190508181036000830152614228818461413b565b905092915050565b600080fd5b600080fd5b7f4e487b7100000000000000000000000000000000000000000000000000000000600052604160045260246000fd5b61427282613fd0565b810181811067ffffffffffffffff821117156142915761429061423a565b5b80604052505050565b60006142a4613ee2565b90506142b08282614269565b919050565b600067ffffffffffffffff8211156142d0576142cf61423a565b5b6142d982613fd0565b9050602081019050919050565b82818337600083830152505050565b6000614308614303846142b5565b61429a565b90508281526020810184848401111561432457614323614235565b5b61432f8482856142e6565b509392505050565b600082601f83011261434c5761434b614230565b5b813561435c8482602086016142f5565b91505092915050565b61436e8161401a565b811461437957600080fd5b50565b60008135905061438b81614365565b92915050565b6000806000606084860312156143aa576143a9613eec565b5b600084013567ffffffffffffffff8111156143c8576143c7613ef1565b5b6143d486828701614337565b93505060206143e58682870161437c565b92505060406143f686828701613f3f565b9150509250925092565b600081519050919050565b600082825260208201905092915050565b6000819050602082019050919050565b600061014083016000830151848203600086015261444a8282613fe1565b915050602083015161445f6020860182614024565b5060408301516144726040860182614024565b506060830151614485606086018261403f565b506080830151848203608086015261449d82826140ae565b91505060a083015184820360a08601526144b782826140ae565b91505060c08301516144cc60c0860182614024565b5060e08301516144df60e086018261407a565b506101008301516144f461010086018261410c565b508091505092915050565b600061450b838361442c565b905092915050565b6000602082019050919050565b600061452b82614400565b614535818561440b565b9350836020820285016145478561441c565b8060005b85811015614583578484038952815161456485826144ff565b945061456f83614513565b925060208a0199505060018101905061454b565b50829750879550505050505092915050565b600060208201905081810360008301526145af8184614520565b905092915050565b6145c08161401a565b82525050565b60006020820190506145db60008301846145b7565b92915050565b6000602082840312156145f7576145f6613eec565b5b600082013567ffffffffffffffff81111561461557614614613ef1565b5b61462184828501614337565b91505092915050565b61463381614033565b811461463e57600080fd5b50565b6000813590506146508161462a565b92915050565b6000806040838503121561466d5761466c613eec565b5b600083013567ffffffffffffffff81111561468b5761468a613ef1565b5b61469785828601614337565b92505060206146a885828601614641565b9150509250929050565b600060408201905081810360008301526146cc818561413b565b90506146db60208301846145b7565b9392505050565b600080604083850312156146f9576146f8613eec565b5b600083013567ffffffffffffffff81111561471757614716613ef1565b5b61472385828601614337565b92505060206147348582860161437c565b9150509250929050565b600082825260208201905092915050565b600061475a82613f81565b614764818561473e565b9350614774818560208601613f9d565b61477d81613fd0565b840191505092915050565b61479181614033565b82525050565b6147a081613f16565b82525050565b6040820160008201516147bc600085018261403f565b5060208201516147cf602085018261407a565b50505050565b60006101008201905081810360008301526147f0818a61474f565b90506147ff60208301896145b7565b61480c60408301886145b7565b6148196060830187614788565b61482660808301866145b7565b61483360a0830185614797565b61484060c08301846147a6565b98975050505050505050565b600081519050919050565b600082825260208201905092915050565b6000819050602082019050919050565b60808201600082015161488e6000850182614024565b5060208201516148a1602085018261407a565b5060408201516148b4604085018261407a565b5060608201516148c76060850182614024565b50505050565b60006148d98383614878565b60808301905092915050565b6000602082019050919050565b60006148fd8261484c565b6149078185614857565b935061491283614868565b8060005b8381101561494357815161492a88826148cd565b9750614935836148e5565b925050600181019050614916565b5085935050505092915050565b6000602082019050818103600083015261496a81846148f2565b905092915050565b6000806040838503121561498957614988613eec565b5b600061499785828601613f3f565b92505060206149a88582860161437c565b9150509250929050565b60006149bd82613ef6565b9050919050565b6149cd816149b2565b81146149d857600080fd5b50565b6000813590506149ea816149c4565b92915050565b60008060408385031215614a0757614a06613eec565b5b6000614a15858286016149db565b9250506020614a268582860161437c565b9150509250929050565b600082825260208201905092915050565b6000614a4c8261404e565b614a568185614a30565b9350614a618361406a565b8060005b83811015614a92578151614a798882614089565b9750614a84836140a1565b925050600181019050614a65565b5085935050505092915050565b60006020820190508181036000830152614ab98184614a41565b905092915050565b6000819050919050565b6000614ae6614ae1614adc84613ef6565b614ac1565b613ef6565b9050919050565b6000614af882614acb565b9050919050565b6000614b0a82614aed565b9050919050565b614b1a81614aff565b82525050565b6000602082019050614b356000830184614b11565b92915050565b7f4e487b7100000000000000000000000000000000000000000000000000000000600052602260045260246000fd5b60006002820490506001821680614b8257607f821691505b60208210811415614b9657614b95614b3b565b5b50919050565b600081905092915050565b60008190508160005260206000209050919050565b60008154614bc981614b6a565b614bd38186614b9c565b94506001821660008114614bee5760018114614bff57614c32565b60ff19831686528186019350614c32565b614c0885614ba7565b60005b83811015614c2a57815481890152600182019150602081019050614c0b565b838801955050505b50505092915050565b6000614c478284614bbc565b915081905092915050565b7f596f7520616c72656164792068617665206e6f7420616e206163636f756e742060008201527f286368696c642900000000000000000000000000000000000000000000000000602082015250565b6000614cae60278361473e565b9150614cb982614c52565b604082019050919050565b60006020820190508181036000830152614cdd81614ca1565b9050919050565b7f596f7520616c7265616479206861766520616e206163636f756e74202863686960008201527f6c64290000000000000000000000000000000000000000000000000000000000602082015250565b6000614d4060238361473e565b9150614d4b82614ce4565b604082019050919050565b60006020820190508181036000830152614d6f81614d33565b9050919050565b7f4e487b7100000000000000000000000000000000000000000000000000000000600052603260045260246000fd5b7f4e487b7100000000000000000000000000000000000000000000000000000000600052601160045260246000fd5b6000614ddf8261401a565b91507fffffffffffffffffffffffffffffffffffffffffffffffffffffffffffffffff821415614e1257614e11614da5565b5b600182019050919050565b6000604082019050614e326000830185614797565b8181036020830152614e44818461474f565b90509392505050565b7f546865206368696c6420646964206e6f7420666f756e64000000000000000000600082015250565b6000614e8360178361473e565b9150614e8e82614e4d565b602082019050919050565b60006020820190508181036000830152614eb281614e76565b9050919050565b7f596f7520616c7265616479206861766520616e206163636f756e740000000000600082015250565b6000614eef601b8361473e565b9150614efa82614eb9565b602082019050919050565b60006020820190508181036000830152614f1e81614ee2565b9050919050565b7f596f752772652061646d696e2021212100000000000000000000000000000000600082015250565b6000614f5b60108361473e565b9150614f6682614f25565b602082019050919050565b60006020820190508181036000830152614f8a81614f4e565b9050919050565b6000602082019050614fa66000830184614797565b92915050565b600081519050614fbb81614365565b92915050565b600060208284031215614fd757614fd6613eec565b5b6000614fe584828501614fac565b91505092915050565b7f596f752776652061206c696d69746564206163636f756e74202c20796f75277260008201527f65206e6f7420616e206164756c74000000000000000000000000000000000000602082015250565b600061504a602e8361473e565b915061505582614fee565b604082019050919050565b600060208201905081810360008301526150798161503d565b9050919050565b60006040820190506150956000830185614797565b6150a260208301846145b7565b9392505050565b6000815190506150b88161462a565b92915050565b6000602082840312156150d4576150d3613eec565b5b60006150e2848285016150a9565b91505092915050565b60006040820190506151006000830185614797565b61510d6020830184614797565b9392505050565b7f616c6c6f77616e6365206572726f72202c206f776e65722073686f756c64206960008201527f6e63726561736520796f757220616c6c6f77616e636500000000000000000000602082015250565b600061517060368361473e565b915061517b82615114565b604082019050919050565b6000602082019050818103600083015261519f81615163565b9050919050565b50565b60006151b6600083614b9c565b91506151c1826151a6565b600082019050919050565b60006151d7826151a9565b9150819050919050565b7f4661696c656420746f2073656e64204574686572000000000000000000000000600082015250565b600061521760148361473e565b9150615222826151e1565b602082019050919050565b600060208201905081810360008301526152468161520a565b9050919050565b7f4368696c64206e616d6520616c72656164792065786973740000000000000000600082015250565b600061528360188361473e565b915061528e8261524d565b602082019050919050565b600060208201905081810360008301526152b281615276565b905091905056fea2646970667358221220e8464d9dfa36019de9d0309d84be508678a540b8f6da4deb5a38e3b9e7902bf564736f6c63430008090033",
  "linkReferences": {},
  "deployedLinkReferences": {}
}