{
  "_format": "hh-sol-artifact-1",
  "contractName": "BankingApp",
  "sourceName": "contracts/Banking.sol",
  "abi": [
    {
      "inputs": [
        {
          "internalType": "string",
          "name": "firstMsg",
          "type": "string"
        }
      ],
      "stateMutability": "nonpayable",
      "type": "constructor"
    },
    {
      "anonymous": false,
      "inputs": [
        {
          "indexed": false,
          "internalType": "string",
          "name": "ldMsg",
          "type": "string"
        },
        {
          "indexed": false,
          "internalType": "string",
          "name": "newMsg",
          "type": "string"
        }
      ],
      "name": "msgChanged",
      "type": "event"
    },
    {
      "inputs": [],
      "name": "getMessage",
      "outputs": [
        {
          "internalType": "string",
          "name": "",
          "type": "string"
        }
      ],
      "stateMutability": "view",
      "type": "function"
    },
    {
      "inputs": [],
      "name": "msg",
      "outputs": [
        {
          "internalType": "string",
          "name": "",
          "type": "string"
        }
      ],
      "stateMutability": "view",
      "type": "function"
    },
    {
      "inputs": [
        {
          "internalType": "string",
          "name": "newmsg",
          "type": "string"
        }
      ],
      "name": "update",
      "outputs": [],
      "stateMutability": "nonpayable",
      "type": "function"
    }
  ],
  "bytecode": "0x60806040523480156200001157600080fd5b5060405162000a5e38038062000a5e8339818101604052810190620000379190620002a4565b80600090805190602001906200004f92919062000057565b50506200035a565b828054620000659062000324565b90600052602060002090601f016020900481019282620000895760008555620000d5565b82601f10620000a457805160ff1916838001178555620000d5565b82800160010185558215620000d5579182015b82811115620000d4578251825591602001919060010190620000b7565b5b509050620000e49190620000e8565b5090565b5b8082111562000103576000816000905550600101620000e9565b5090565b6000604051905090565b600080fd5b600080fd5b600080fd5b600080fd5b6000601f19601f8301169050919050565b7f4e487b7100000000000000000000000000000000000000000000000000000000600052604160045260246000fd5b620001708262000125565b810181811067ffffffffffffffff8211171562000192576200019162000136565b5b80604052505050565b6000620001a762000107565b9050620001b5828262000165565b919050565b600067ffffffffffffffff821115620001d857620001d762000136565b5b620001e38262000125565b9050602081019050919050565b60005b8381101562000210578082015181840152602081019050620001f3565b8381111562000220576000848401525b50505050565b60006200023d6200023784620001ba565b6200019b565b9050828152602081018484840111156200025c576200025b62000120565b5b62000269848285620001f0565b509392505050565b600082601f8301126200028957620002886200011b565b5b81516200029b84826020860162000226565b91505092915050565b600060208284031215620002bd57620002bc62000111565b5b600082015167ffffffffffffffff811115620002de57620002dd62000116565b5b620002ec8482850162000271565b91505092915050565b7f4e487b7100000000000000000000000000000000000000000000000000000000600052602260045260246000fd5b600060028204905060018216806200033d57607f821691505b60208210811415620003545762000353620002f5565b5b50919050565b6106f4806200036a6000396000f3fe608060405234801561001057600080fd5b50600436106100415760003560e01c80633d7403a3146100465780636b473fca14610062578063ce6d41de14610080575b600080fd5b610060600480360381019061005b919061049e565b61009e565b005b61006a610181565b604051610077919061056f565b60405180910390f35b61008861020f565b604051610095919061056f565b60405180910390f35b60008080546100ac906105c0565b80601f01602080910402602001604051908101604052809291908181526020018280546100d8906105c0565b80156101255780601f106100fa57610100808354040283529160200191610125565b820191906000526020600020905b81548152906001019060200180831161010857829003601f168201915b5050505050905081600090805190602001906101429291906102a1565b507f7a53b83355ea4eadb5ada7c432408c78e558d1c641206bb57138d738f4a2b5cf816000604051610175929190610687565b60405180910390a15050565b6000805461018e906105c0565b80601f01602080910402602001604051908101604052809291908181526020018280546101ba906105c0565b80156102075780601f106101dc57610100808354040283529160200191610207565b820191906000526020600020905b8154815290600101906020018083116101ea57829003601f168201915b505050505081565b60606000805461021e906105c0565b80601f016020809104026020016040519081016040528092919081815260200182805461024a906105c0565b80156102975780601f1061026c57610100808354040283529160200191610297565b820191906000526020600020905b81548152906001019060200180831161027a57829003601f168201915b5050505050905090565b8280546102ad906105c0565b90600052602060002090601f0160209004810192826102cf5760008555610316565b82601f106102e857805160ff1916838001178555610316565b82800160010185558215610316579182015b828111156103155782518255916020019190600101906102fa565b5b5090506103239190610327565b5090565b5b80821115610340576000816000905550600101610328565b5090565b6000604051905090565b600080fd5b600080fd5b600080fd5b600080fd5b6000601f19601f8301169050919050565b7f4e487b7100000000000000000000000000000000000000000000000000000000600052604160045260246000fd5b6103ab82610362565b810181811067ffffffffffffffff821117156103ca576103c9610373565b5b80604052505050565b60006103dd610344565b90506103e982826103a2565b919050565b600067ffffffffffffffff82111561040957610408610373565b5b61041282610362565b9050602081019050919050565b82818337600083830152505050565b600061044161043c846103ee565b6103d3565b90508281526020810184848401111561045d5761045c61035d565b5b61046884828561041f565b509392505050565b600082601f83011261048557610484610358565b5b813561049584826020860161042e565b91505092915050565b6000602082840312156104b4576104b361034e565b5b600082013567ffffffffffffffff8111156104d2576104d1610353565b5b6104de84828501610470565b91505092915050565b600081519050919050565b600082825260208201905092915050565b60005b83811015610521578082015181840152602081019050610506565b83811115610530576000848401525b50505050565b6000610541826104e7565b61054b81856104f2565b935061055b818560208601610503565b61056481610362565b840191505092915050565b600060208201905081810360008301526105898184610536565b905092915050565b7f4e487b7100000000000000000000000000000000000000000000000000000000600052602260045260246000fd5b600060028204905060018216806105d857607f821691505b602082108114156105ec576105eb610591565b5b50919050565b60008190508160005260206000209050919050565b60008154610614816105c0565b61061e81866104f2565b94506001821660008114610639576001811461064b5761067e565b60ff198316865260208601935061067e565b610654856105f2565b60005b8381101561067657815481890152600182019150602081019050610657565b808801955050505b50505092915050565b600060408201905081810360008301526106a18185610536565b905081810360208301526106b58184610607565b9050939250505056fea26469706673582212204ef95501f3304c37fa627fc8b206d31ded827792c28091e960b0d5b10fc1d9c364736f6c63430008090033",
  "linkReferences": {},
  "deployedLinkReferences": {}
}