{
  "_format": "hh-sol-artifact-1",
  "contractName": "BankingApp",
  "sourceName": "contracts/Banking.sol",
  "abi": [
    {
      "inputs": [
        {
          "internalType": "address",
          "name": "_token",
          "type": "address"
        },
        {
          "internalType": "address",
          "name": "_owner",
          "type": "address"
        }
      ],
      "stateMutability": "payable",
      "type": "constructor"
    },
    {
      "anonymous": false,
      "inputs": [
        {
          "indexed": false,
          "internalType": "address",
          "name": "owner",
          "type": "address"
        },
        {
          "indexed": false,
          "internalType": "string",
          "name": "child",
          "type": "string"
        }
      ],
      "name": "BalanceGot",
      "type": "event"
    },
    {
      "anonymous": false,
      "inputs": [
        {
          "indexed": false,
          "internalType": "address",
          "name": "from",
          "type": "address"
        },
        {
          "indexed": false,
          "internalType": "address",
          "name": "to",
          "type": "address"
        },
        {
          "indexed": false,
          "internalType": "uint256",
          "name": "amount",
          "type": "uint256"
        }
      ],
      "name": "InheritumSent",
      "type": "event"
    },
    {
      "anonymous": false,
      "inputs": [
        {
          "indexed": false,
          "internalType": "address",
          "name": "from",
          "type": "address"
        },
        {
          "indexed": false,
          "internalType": "address",
          "name": "to",
          "type": "address"
        },
        {
          "indexed": false,
          "internalType": "string",
          "name": "childName",
          "type": "string"
        },
        {
          "indexed": false,
          "internalType": "uint256",
          "name": "amount",
          "type": "uint256"
        }
      ],
      "name": "SentMoney",
      "type": "event"
    },
    {
      "anonymous": false,
      "inputs": [
        {
          "indexed": false,
          "internalType": "address",
          "name": "recipient",
          "type": "address"
        },
        {
          "indexed": false,
          "internalType": "uint256",
          "name": "amount",
          "type": "uint256"
        }
      ],
      "name": "allowanceTest",
      "type": "event"
    },
    {
      "inputs": [
        {
          "internalType": "string",
          "name": "_name",
          "type": "string"
        },
        {
          "internalType": "uint256",
          "name": "_age",
          "type": "uint256"
        },
        {
          "internalType": "bool",
          "name": "isLimited",
          "type": "bool"
        }
      ],
      "name": "addPerson",
      "outputs": [
        {
          "components": [
            {
              "internalType": "string",
              "name": "name",
              "type": "string"
            },
            {
              "internalType": "uint256",
              "name": "age",
              "type": "uint256"
            },
            {
              "internalType": "uint256",
              "name": "balance",
              "type": "uint256"
            },
            {
              "internalType": "bool",
              "name": "isLimited",
              "type": "bool"
            },
            {
              "internalType": "address[]",
              "name": "children",
              "type": "address[]"
            },
            {
              "internalType": "address[]",
              "name": "parents",
              "type": "address[]"
            },
            {
              "internalType": "uint256",
              "name": "createdTime",
              "type": "uint256"
            }
          ],
          "internalType": "struct BankingApp.Person",
          "name": "",
          "type": "tuple"
        }
      ],
      "stateMutability": "nonpayable",
      "type": "function"
    },
    {
      "inputs": [
        {
          "internalType": "string",
          "name": "_name",
          "type": "string"
        },
        {
          "internalType": "bool",
          "name": "returnErr",
          "type": "bool"
        }
      ],
      "name": "findTheChild",
      "outputs": [
        {
          "components": [
            {
              "internalType": "string",
              "name": "name",
              "type": "string"
            },
            {
              "internalType": "uint256",
              "name": "age",
              "type": "uint256"
            },
            {
              "internalType": "uint256",
              "name": "balance",
              "type": "uint256"
            },
            {
              "internalType": "bool",
              "name": "isLimited",
              "type": "bool"
            },
            {
              "internalType": "address[]",
              "name": "children",
              "type": "address[]"
            },
            {
              "internalType": "address[]",
              "name": "parents",
              "type": "address[]"
            },
            {
              "internalType": "uint256",
              "name": "createdTime",
              "type": "uint256"
            }
          ],
          "internalType": "struct BankingApp.Person",
          "name": "",
          "type": "tuple"
        },
        {
          "internalType": "uint256",
          "name": "index",
          "type": "uint256"
        }
      ],
      "stateMutability": "view",
      "type": "function"
    },
    {
      "inputs": [
        {
          "internalType": "string",
          "name": "_name",
          "type": "string"
        },
        {
          "internalType": "bool",
          "name": "returnErr",
          "type": "bool"
        }
      ],
      "name": "findThePerson",
      "outputs": [
        {
          "components": [
            {
              "internalType": "string",
              "name": "name",
              "type": "string"
            },
            {
              "internalType": "uint256",
              "name": "age",
              "type": "uint256"
            },
            {
              "internalType": "uint256",
              "name": "balance",
              "type": "uint256"
            },
            {
              "internalType": "bool",
              "name": "isLimited",
              "type": "bool"
            },
            {
              "internalType": "address[]",
              "name": "children",
              "type": "address[]"
            },
            {
              "internalType": "address[]",
              "name": "parents",
              "type": "address[]"
            },
            {
              "internalType": "uint256",
              "name": "createdTime",
              "type": "uint256"
            }
          ],
          "internalType": "struct BankingApp.Person",
          "name": "",
          "type": "tuple"
        },
        {
          "internalType": "uint256",
          "name": "index",
          "type": "uint256"
        }
      ],
      "stateMutability": "view",
      "type": "function"
    },
    {
      "inputs": [],
      "name": "getBalanceOfInheritumToken",
      "outputs": [
        {
          "internalType": "uint256",
          "name": "",
          "type": "uint256"
        }
      ],
      "stateMutability": "view",
      "type": "function"
    },
    {
      "inputs": [],
      "name": "getChildren",
      "outputs": [
        {
          "internalType": "address[]",
          "name": "",
          "type": "address[]"
        }
      ],
      "stateMutability": "view",
      "type": "function"
    },
    {
      "inputs": [],
      "name": "getMyBalance",
      "outputs": [
        {
          "internalType": "uint256",
          "name": "",
          "type": "uint256"
        }
      ],
      "stateMutability": "view",
      "type": "function"
    },
    {
      "inputs": [],
      "name": "getMyChild",
      "outputs": [
        {
          "internalType": "address[]",
          "name": "",
          "type": "address[]"
        }
      ],
      "stateMutability": "view",
      "type": "function"
    },
    {
      "inputs": [
        {
          "internalType": "string",
          "name": "_name",
          "type": "string"
        }
      ],
      "name": "getMyChildBalance",
      "outputs": [
        {
          "internalType": "uint256",
          "name": "",
          "type": "uint256"
        }
      ],
      "stateMutability": "nonpayable",
      "type": "function"
    },
    {
      "inputs": [],
      "name": "getPersons",
      "outputs": [
        {
          "components": [
            {
              "internalType": "string",
              "name": "name",
              "type": "string"
            },
            {
              "internalType": "uint256",
              "name": "age",
              "type": "uint256"
            },
            {
              "internalType": "uint256",
              "name": "balance",
              "type": "uint256"
            },
            {
              "internalType": "bool",
              "name": "isLimited",
              "type": "bool"
            },
            {
              "internalType": "address[]",
              "name": "children",
              "type": "address[]"
            },
            {
              "internalType": "address[]",
              "name": "parents",
              "type": "address[]"
            },
            {
              "internalType": "uint256",
              "name": "createdTime",
              "type": "uint256"
            }
          ],
          "internalType": "struct BankingApp.Person[]",
          "name": "",
          "type": "tuple[]"
        }
      ],
      "stateMutability": "view",
      "type": "function"
    },
    {
      "inputs": [],
      "name": "getTranscationHistory",
      "outputs": [
        {
          "components": [
            {
              "internalType": "uint256",
              "name": "timestamp",
              "type": "uint256"
            },
            {
              "internalType": "address",
              "name": "sender",
              "type": "address"
            },
            {
              "internalType": "address",
              "name": "receiver",
              "type": "address"
            },
            {
              "internalType": "uint256",
              "name": "amount",
              "type": "uint256"
            }
          ],
          "internalType": "struct BankingApp.Transaction[]",
          "name": "",
          "type": "tuple[]"
        }
      ],
      "stateMutability": "view",
      "type": "function"
    },
    {
      "inputs": [
        {
          "internalType": "address",
          "name": "addr",
          "type": "address"
        }
      ],
      "name": "getUser",
      "outputs": [
        {
          "components": [
            {
              "internalType": "string",
              "name": "name",
              "type": "string"
            },
            {
              "internalType": "uint256",
              "name": "age",
              "type": "uint256"
            },
            {
              "internalType": "uint256",
              "name": "balance",
              "type": "uint256"
            },
            {
              "internalType": "bool",
              "name": "isLimited",
              "type": "bool"
            },
            {
              "internalType": "address[]",
              "name": "children",
              "type": "address[]"
            },
            {
              "internalType": "address[]",
              "name": "parents",
              "type": "address[]"
            },
            {
              "internalType": "uint256",
              "name": "createdTime",
              "type": "uint256"
            }
          ],
          "internalType": "struct BankingApp.Person",
          "name": "",
          "type": "tuple"
        }
      ],
      "stateMutability": "view",
      "type": "function"
    },
    {
      "inputs": [
        {
          "internalType": "address",
          "name": "childAccount",
          "type": "address"
        },
        {
          "internalType": "string",
          "name": "_name",
          "type": "string"
        },
        {
          "internalType": "uint256",
          "name": "_age",
          "type": "uint256"
        }
      ],
      "name": "linkAccount",
      "outputs": [
        {
          "components": [
            {
              "internalType": "string",
              "name": "name",
              "type": "string"
            },
            {
              "internalType": "uint256",
              "name": "age",
              "type": "uint256"
            },
            {
              "internalType": "uint256",
              "name": "balance",
              "type": "uint256"
            },
            {
              "internalType": "bool",
              "name": "isLimited",
              "type": "bool"
            },
            {
              "internalType": "address[]",
              "name": "children",
              "type": "address[]"
            },
            {
              "internalType": "address[]",
              "name": "parents",
              "type": "address[]"
            },
            {
              "internalType": "uint256",
              "name": "createdTime",
              "type": "uint256"
            }
          ],
          "internalType": "struct BankingApp.Person",
          "name": "",
          "type": "tuple"
        }
      ],
      "stateMutability": "nonpayable",
      "type": "function"
    },
    {
      "inputs": [
        {
          "internalType": "address payable",
          "name": "_to",
          "type": "address"
        },
        {
          "internalType": "uint256",
          "name": "amount",
          "type": "uint256"
        }
      ],
      "name": "sendEther",
      "outputs": [],
      "stateMutability": "payable",
      "type": "function"
    },
    {
      "inputs": [
        {
          "internalType": "address",
          "name": "_to",
          "type": "address"
        },
        {
          "internalType": "uint256",
          "name": "_amount",
          "type": "uint256"
        }
      ],
      "name": "sendTokenToChild",
      "outputs": [],
      "stateMutability": "nonpayable",
      "type": "function"
    },
    {
      "inputs": [],
      "name": "token",
      "outputs": [
        {
          "internalType": "contract IERC20",
          "name": "",
          "type": "address"
        }
      ],
      "stateMutability": "view",
      "type": "function"
    }
  ],
  "bytecode": "0x608060405260405162003ed438038062003ed483398181016040528101906200002991906200011c565b816000806101000a81548173ffffffffffffffffffffffffffffffffffffffff021916908373ffffffffffffffffffffffffffffffffffffffff16021790555080600160006101000a81548173ffffffffffffffffffffffffffffffffffffffff021916908373ffffffffffffffffffffffffffffffffffffffff160217905550505062000163565b600080fd5b600073ffffffffffffffffffffffffffffffffffffffff82169050919050565b6000620000e482620000b7565b9050919050565b620000f681620000d7565b81146200010257600080fd5b50565b6000815190506200011681620000eb565b92915050565b60008060408385031215620001365762000135620000b2565b5b6000620001468582860162000105565b9250506020620001598582860162000105565b9150509250929050565b613d6180620001736000396000f3fe6080604052600436106100e85760003560e01c80638d6ec2141161008a578063dbc1a22b11610059578063dbc1a22b14610310578063ee203fe61461033b578063fbf8574d14610366578063fc0c546a146103a4576100e8565b80638d6ec21414610263578063b42fbdfd146102a0578063c1756a2c146102c9578063c81cdec9146102e5576100e8565b80634c738909116100c65780634c7389091461018057806353a86c94146101ab5780635412f1c9146101e85780636f77926b14610226576100e8565b8063032ce9aa146100ed5780634892e8e81461012a5780634c6b6c6f14610155575b600080fd5b3480156100f957600080fd5b50610114600480360381019061010f9190612b67565b6103cf565b6040516101219190612e16565b60405180910390f35b34801561013657600080fd5b5061013f610934565b60405161014c9190612ea7565b60405180910390f35b34801561016157600080fd5b5061016a610a2d565b6040516101779190613035565b60405180910390f35b34801561018c57600080fd5b50610195610c73565b6040516101a29190613066565b60405180910390f35b3480156101b757600080fd5b506101d260048036038101906101cd9190613081565b610c92565b6040516101df9190613066565b60405180910390f35b3480156101f457600080fd5b5061020f600480360381019061020a91906130ca565b610ced565b60405161021d929190613126565b60405180910390f35b34801561023257600080fd5b5061024d60048036038101906102489190613182565b610e32565b60405161025a9190612e16565b60405180910390f35b34801561026f57600080fd5b5061028a600480360381019061028591906131af565b611072565b6040516102979190612e16565b60405180910390f35b3480156102ac57600080fd5b506102c760048036038101906102c2919061321e565b611950565b005b6102e360048036038101906102de919061329c565b611b51565b005b3480156102f157600080fd5b506102fa611e9e565b6040516103079190613066565b60405180910390f35b34801561031c57600080fd5b50610325611f4f565b60405161033291906133e0565b60405180910390f35b34801561034757600080fd5b506103506120ab565b60405161035d9190612ea7565b60405180910390f35b34801561037257600080fd5b5061038d600480360381019061038891906130ca565b612179565b60405161039b929190613126565b60405180910390f35b3480156103b057600080fd5b506103b961246d565b6040516103c69190613461565b60405180910390f35b6103d7612754565b6040518060200160405280600081525080519060200120600360003373ffffffffffffffffffffffffffffffffffffffff1673ffffffffffffffffffffffffffffffffffffffff16815260200190815260200160002060000160405161043d919061357c565b604051809103902014610485576040517f08c379a000000000000000000000000000000000000000000000000000000000815260040161047c906135f0565b60405180910390fd5b600160009054906101000a900473ffffffffffffffffffffffffffffffffffffffff1673ffffffffffffffffffffffffffffffffffffffff163373ffffffffffffffffffffffffffffffffffffffff161415610516576040517f08c379a000000000000000000000000000000000000000000000000000000000815260040161050d9061365c565b60405180910390fd5b6000600360003373ffffffffffffffffffffffffffffffffffffffff1673ffffffffffffffffffffffffffffffffffffffff168152602001908152602001600020905084816000019080519060200190610571929190612793565b5083816001018190555060008160020181905550828160030160006101000a81548160ff021916908315150217905550600067ffffffffffffffff8111156105bc576105bb6129ce565b5b6040519080825280602002602001820160405280156105ea5781602001602082028036833780820191505090505b50816004019080519060200190610602929190612819565b50600067ffffffffffffffff81111561061e5761061d6129ce565b5b60405190808252806020026020018201604052801561064c5781602001602082028036833780820191505090505b50816005019080519060200190610664929190612819565b504281600601819055506000816040518060e001604052908160008201805461068c906134ab565b80601f01602080910402602001604051908101604052809291908181526020018280546106b8906134ab565b80156107055780601f106106da57610100808354040283529160200191610705565b820191906000526020600020905b8154815290600101906020018083116106e857829003601f168201915b5050505050815260200160018201548152602001600282015481526020016003820160009054906101000a900460ff16151515158152602001600482018054806020026020016040519081016040528092919081815260200182805480156107c257602002820191906000526020600020905b8160009054906101000a900473ffffffffffffffffffffffffffffffffffffffff1673ffffffffffffffffffffffffffffffffffffffff1681526020019060010190808311610778575b505050505081526020016005820180548060200260200160405190810160405280929190818152602001828054801561085057602002820191906000526020600020905b8160009054906101000a900473ffffffffffffffffffffffffffffffffffffffff1673ffffffffffffffffffffffffffffffffffffffff1681526020019060010190808311610806575b505050505081526020016006820154815250509050600481908060018154018082558091505060019003906000526020600020906007020160009091909190915060008201518160000190805190602001906108ad929190612793565b50602082015181600101556040820151816002015560608201518160030160006101000a81548160ff02191690831515021790555060808201518160040190805190602001906108fe929190612819565b5060a082015181600501908051906020019061091b929190612819565b5060c08201518160060155505080925050509392505050565b6060600061094133610e32565b9050600081608001515167ffffffffffffffff811115610964576109636129ce565b5b6040519080825280602002602001820160405280156109925781602001602082028036833780820191505090505b50905060005b826080015151811015610a2457826080015181815181106109bc576109bb61367c565b5b60200260200101518282815181106109d7576109d661367c565b5b602002602001019073ffffffffffffffffffffffffffffffffffffffff16908173ffffffffffffffffffffffffffffffffffffffff16815250508080610a1c906136da565b915050610998565b50809250505090565b60606004805480602002602001604051908101604052809291908181526020016000905b82821015610c6a57838290600052602060002090600702016040518060e0016040529081600082018054610a84906134ab565b80601f0160208091040260200160405190810160405280929190818152602001828054610ab0906134ab565b8015610afd5780601f10610ad257610100808354040283529160200191610afd565b820191906000526020600020905b815481529060010190602001808311610ae057829003601f168201915b5050505050815260200160018201548152602001600282015481526020016003820160009054906101000a900460ff1615151515815260200160048201805480602002602001604051908101604052809291908181526020018280548015610bba57602002820191906000526020600020905b8160009054906101000a900473ffffffffffffffffffffffffffffffffffffffff1673ffffffffffffffffffffffffffffffffffffffff1681526020019060010190808311610b70575b5050505050815260200160058201805480602002602001604051908101604052809291908181526020018280548015610c4857602002820191906000526020600020905b8160009054906101000a900473ffffffffffffffffffffffffffffffffffffffff1673ffffffffffffffffffffffffffffffffffffffff1681526020019060010190808311610bfe575b5050505050815260200160068201548152505081526020019060010190610a51565b50505050905090565b60003373ffffffffffffffffffffffffffffffffffffffff1631905090565b600080610ca0836001610ced565b5090507f43bffc0f95fb1b5cd921e2fa994fd3abf463eefb09b4b0fffddb4d365c172528338260000151604051610cd892919061376b565b60405180910390a18060400151915050919050565b610cf5612754565b600080610d0133610e32565b90506000816080015151905060018110610df05760005b81811015610d9757600083608001518281518110610d3957610d3861367c565b5b602002602001015190506000610d4e82610e32565b600001519050888051906020012081805190602001201415610d8257610d7382610e32565b83965096505050505050610e2b565b50508080610d8f906136da565b915050610d18565b508415610dd9576040517f08c379a0000000000000000000000000000000000000000000000000000000008152600401610dd0906137e7565b60405180910390fd5b610de1612754565b80600094509450505050610e2b565b6040517f08c379a0000000000000000000000000000000000000000000000000000000008152600401610e2290613853565b60405180910390fd5b9250929050565b610e3a612754565b600360008373ffffffffffffffffffffffffffffffffffffffff1673ffffffffffffffffffffffffffffffffffffffff1681526020019081526020016000206040518060e0016040529081600082018054610e94906134ab565b80601f0160208091040260200160405190810160405280929190818152602001828054610ec0906134ab565b8015610f0d5780601f10610ee257610100808354040283529160200191610f0d565b820191906000526020600020905b815481529060010190602001808311610ef057829003601f168201915b5050505050815260200160018201548152602001600282015481526020016003820160009054906101000a900460ff1615151515815260200160048201805480602002602001604051908101604052809291908181526020018280548015610fca57602002820191906000526020600020905b8160009054906101000a900473ffffffffffffffffffffffffffffffffffffffff1673ffffffffffffffffffffffffffffffffffffffff1681526020019060010190808311610f80575b505050505081526020016005820180548060200260200160405190810160405280929190818152602001828054801561105857602002820191906000526020600020905b8160009054906101000a900473ffffffffffffffffffffffffffffffffffffffff1673ffffffffffffffffffffffffffffffffffffffff168152602001906001019080831161100e575b505050505081526020016006820154815250509050919050565b61107a612754565b836040518060200160405280600081525080519060200120600360008373ffffffffffffffffffffffffffffffffffffffff1673ffffffffffffffffffffffffffffffffffffffff1681526020019081526020016000206000016040516110e1919061357c565b604051809103902014611129576040517f08c379a0000000000000000000000000000000000000000000000000000000008152600401611120906138e5565b60405180910390fd5b600160009054906101000a900473ffffffffffffffffffffffffffffffffffffffff1673ffffffffffffffffffffffffffffffffffffffff163373ffffffffffffffffffffffffffffffffffffffff1614156111ba576040517f08c379a00000000000000000000000000000000000000000000000000000000081526004016111b190613951565b60405180910390fd5b60405180602001604052806000815250805190602001206111da33610e32565b60000151805190602001201415611226576040517f08c379a000000000000000000000000000000000000000000000000000000000815260040161121d906139e3565b60405180910390fd5b6000600360003373ffffffffffffffffffffffffffffffffffffffff1673ffffffffffffffffffffffffffffffffffffffff168152602001908152602001600020905080600401869080600181540180825580915050600190039060005260206000200160009091909190916101000a81548173ffffffffffffffffffffffffffffffffffffffff021916908373ffffffffffffffffffffffffffffffffffffffff16021790555080600360003373ffffffffffffffffffffffffffffffffffffffff1673ffffffffffffffffffffffffffffffffffffffff1681526020019081526020016000206000820181600001908054611322906134ab565b61132d9291906128a3565b5060018201548160010155600282015481600201556003820160009054906101000a900460ff168160030160006101000a81548160ff0219169083151502179055506004820181600401908054611385929190612930565b50600582018160050190805461139c929190612930565b50600682015481600601559050506000806114448360000180546113bf906134ab565b80601f01602080910402602001604051908101604052809291908181526020018280546113eb906134ab565b80156114385780601f1061140d57610100808354040283529160200191611438565b820191906000526020600020905b81548152906001019060200180831161141b57829003601f168201915b50505050506000612179565b915091506004818154811061145c5761145b61367c565b5b9060005260206000209060070201600401889080600181540180825580915050600190039060005260206000200160009091909190916101000a81548173ffffffffffffffffffffffffffffffffffffffff021916908373ffffffffffffffffffffffffffffffffffffffff1602179055506040518060e0016040528088815260200187815260200160008152602001600115158152602001600067ffffffffffffffff8111156115105761150f6129ce565b5b60405190808252806020026020018201604052801561153e5781602001602082028036833780820191505090505b508152602001600167ffffffffffffffff81111561155f5761155e6129ce565b5b60405190808252806020026020018201604052801561158d5781602001602082028036833780820191505090505b50815260200142815250600360008a73ffffffffffffffffffffffffffffffffffffffff1673ffffffffffffffffffffffffffffffffffffffff16815260200190815260200160002060008201518160000190805190602001906115f2929190612793565b50602082015181600101556040820151816002015560608201518160030160006101000a81548160ff0219169083151502179055506080820151816004019080519060200190611643929190612819565b5060a0820151816005019080519060200190611660929190612819565b5060c0820151816006015590505033600360008a73ffffffffffffffffffffffffffffffffffffffff1673ffffffffffffffffffffffffffffffffffffffff1681526020019081526020016000206005016000815481106116c4576116c361367c565b5b9060005260206000200160006101000a81548173ffffffffffffffffffffffffffffffffffffffff021916908373ffffffffffffffffffffffffffffffffffffffff1602179055506000600360003373ffffffffffffffffffffffffffffffffffffffff1673ffffffffffffffffffffffffffffffffffffffff1681526020019081526020016000206040518060e0016040529081600082018054611768906134ab565b80601f0160208091040260200160405190810160405280929190818152602001828054611794906134ab565b80156117e15780601f106117b6576101008083540402835291602001916117e1565b820191906000526020600020905b8154815290600101906020018083116117c457829003601f168201915b5050505050815260200160018201548152602001600282015481526020016003820160009054906101000a900460ff161515151581526020016004820180548060200260200160405190810160405280929190818152602001828054801561189e57602002820191906000526020600020905b8160009054906101000a900473ffffffffffffffffffffffffffffffffffffffff1673ffffffffffffffffffffffffffffffffffffffff1681526020019060010190808311611854575b505050505081526020016005820180548060200260200160405190810160405280929190818152602001828054801561192c57602002820191906000526020600020905b8160009054906101000a900473ffffffffffffffffffffffffffffffffffffffff1673ffffffffffffffffffffffffffffffffffffffff16815260200190600101908083116118e2575b50505050508152602001600682015481525050905080955050505050509392505050565b808060008054906101000a900473ffffffffffffffffffffffffffffffffffffffff1673ffffffffffffffffffffffffffffffffffffffff166370a08231336040518263ffffffff1660e01b81526004016119ab9190613a03565b60206040518083038186803b1580156119c357600080fd5b505afa1580156119d7573d6000803e3d6000fd5b505050506040513d601f19601f820116820180604052508101906119fb9190613a33565b1015611a0657600080fd5b600360003373ffffffffffffffffffffffffffffffffffffffff1673ffffffffffffffffffffffffffffffffffffffff16815260200190815260200160002060030160009054906101000a900460ff166000151581151514611a9d576040517f08c379a0000000000000000000000000000000000000000000000000000000008152600401611a9490613ad2565b60405180910390fd5b60008054906101000a900473ffffffffffffffffffffffffffffffffffffffff1673ffffffffffffffffffffffffffffffffffffffff1663a9059cbb85856040518363ffffffff1660e01b8152600401611af8929190613af2565b602060405180830381600087803b158015611b1257600080fd5b505af1158015611b26573d6000803e3d6000fd5b505050506040513d601f19601f82011682018060405250810190611b4a9190613b30565b5050505050565b600360003373ffffffffffffffffffffffffffffffffffffffff1673ffffffffffffffffffffffffffffffffffffffff16815260200190815260200160002060030160009054906101000a900460ff166000151581151514611be8576040517f08c379a0000000000000000000000000000000000000000000000000000000008152600401611bdf90613ad2565b60405180910390fd5b818060008054906101000a900473ffffffffffffffffffffffffffffffffffffffff1673ffffffffffffffffffffffffffffffffffffffff1663dd62ed3e600160009054906101000a900473ffffffffffffffffffffffffffffffffffffffff16336040518363ffffffff1660e01b8152600401611c67929190613b5d565b60206040518083038186803b158015611c7f57600080fd5b505afa158015611c93573d6000803e3d6000fd5b505050506040513d601f19601f82011682018060405250810190611cb79190613a33565b1015611cf8576040517f08c379a0000000000000000000000000000000000000000000000000000000008152600401611cef90613bf8565b60405180910390fd5b60008473ffffffffffffffffffffffffffffffffffffffff1684604051611d1e90613c3e565b60006040518083038185875af1925050503d8060008114611d5b576040519150601f19603f3d011682016040523d82523d6000602084013e611d60565b606091505b5050905080611da4576040517f08c379a0000000000000000000000000000000000000000000000000000000008152600401611d9b90613c9f565b60405180910390fd5b6000600360003373ffffffffffffffffffffffffffffffffffffffff1673ffffffffffffffffffffffffffffffffffffffff168152602001908152602001600020600001604051611df5919061357c565b604051809103902014611e1f57611e0e85856001612491565b611e1a85856000612491565b611e97565b6000600360003373ffffffffffffffffffffffffffffffffffffffff1673ffffffffffffffffffffffffffffffffffffffff168152602001908152602001600020600001604051611e70919061357c565b604051809103902014611e9657611e8985856000612491565b611e9585856001612491565b5b5b5050505050565b60008060009054906101000a900473ffffffffffffffffffffffffffffffffffffffff1673ffffffffffffffffffffffffffffffffffffffff166370a08231336040518263ffffffff1660e01b8152600401611efa9190613a03565b60206040518083038186803b158015611f1257600080fd5b505afa158015611f26573d6000803e3d6000fd5b505050506040513d601f19601f82011682018060405250810190611f4a9190613a33565b905090565b6060600260003373ffffffffffffffffffffffffffffffffffffffff1673ffffffffffffffffffffffffffffffffffffffff168152602001908152602001600020805480602002602001604051908101604052809291908181526020016000905b828210156120a25783829060005260206000209060040201604051806080016040529081600082015481526020016001820160009054906101000a900473ffffffffffffffffffffffffffffffffffffffff1673ffffffffffffffffffffffffffffffffffffffff1673ffffffffffffffffffffffffffffffffffffffff1681526020016002820160009054906101000a900473ffffffffffffffffffffffffffffffffffffffff1673ffffffffffffffffffffffffffffffffffffffff1673ffffffffffffffffffffffffffffffffffffffff16815260200160038201548152505081526020019060010190611fb0565b50505050905090565b6060600360003373ffffffffffffffffffffffffffffffffffffffff1673ffffffffffffffffffffffffffffffffffffffff16815260200190815260200160002060040180548060200260200160405190810160405280929190818152602001828054801561216f57602002820191906000526020600020905b8160009054906101000a900473ffffffffffffffffffffffffffffffffffffffff1673ffffffffffffffffffffffffffffffffffffffff1681526020019060010190808311612125575b5050505050905090565b612181612754565b600080600090505b600480549050811015612413578480519060200120600482815481106121b2576121b161367c565b5b90600052602060002090600702016000016040516121d0919061357c565b6040518091039020141561240057600481815481106121f2576121f161367c565b5b906000526020600020906007020181816040518060e001604052908160008201805461221d906134ab565b80601f0160208091040260200160405190810160405280929190818152602001828054612249906134ab565b80156122965780601f1061226b57610100808354040283529160200191612296565b820191906000526020600020905b81548152906001019060200180831161227957829003601f168201915b5050505050815260200160018201548152602001600282015481526020016003820160009054906101000a900460ff161515151581526020016004820180548060200260200160405190810160405280929190818152602001828054801561235357602002820191906000526020600020905b8160009054906101000a900473ffffffffffffffffffffffffffffffffffffffff1673ffffffffffffffffffffffffffffffffffffffff1681526020019060010190808311612309575b50505050508152602001600582018054806020026020016040519081016040528092919081815260200182805480156123e157602002820191906000526020600020905b8160009054906101000a900473ffffffffffffffffffffffffffffffffffffffff1673ffffffffffffffffffffffffffffffffffffffff1681526020019060010190808311612397575b5050505050815260200160068201548152505091509250925050612466565b808061240b906136da565b915050612189565b508215612455576040517f08c379a000000000000000000000000000000000000000000000000000000000815260040161244c90613d0b565b60405180910390fd5b61245d612754565b80600092509250505b9250929050565b60008054906101000a900473ffffffffffffffffffffffffffffffffffffffff1681565b80156125f557600260003373ffffffffffffffffffffffffffffffffffffffff1673ffffffffffffffffffffffffffffffffffffffff16815260200190815260200160002060405180608001604052804281526020013373ffffffffffffffffffffffffffffffffffffffff1681526020018573ffffffffffffffffffffffffffffffffffffffff1681526020018481525090806001815401808255809150506001900390600052602060002090600402016000909190919091506000820151816000015560208201518160010160006101000a81548173ffffffffffffffffffffffffffffffffffffffff021916908373ffffffffffffffffffffffffffffffffffffffff16021790555060408201518160020160006101000a81548173ffffffffffffffffffffffffffffffffffffffff021916908373ffffffffffffffffffffffffffffffffffffffff16021790555060608201518160030155505061274f565b600260003373ffffffffffffffffffffffffffffffffffffffff1673ffffffffffffffffffffffffffffffffffffffff16815260200190815260200160002060405180608001604052804281526020018573ffffffffffffffffffffffffffffffffffffffff1681526020013373ffffffffffffffffffffffffffffffffffffffff1681526020018481525090806001815401808255809150506001900390600052602060002090600402016000909190919091506000820151816000015560208201518160010160006101000a81548173ffffffffffffffffffffffffffffffffffffffff021916908373ffffffffffffffffffffffffffffffffffffffff16021790555060408201518160020160006101000a81548173ffffffffffffffffffffffffffffffffffffffff021916908373ffffffffffffffffffffffffffffffffffffffff1602179055506060820151816003015550505b505050565b6040518060e001604052806060815260200160008152602001600081526020016000151581526020016060815260200160608152602001600081525090565b82805461279f906134ab565b90600052602060002090601f0160209004810192826127c15760008555612808565b82601f106127da57805160ff1916838001178555612808565b82800160010185558215612808579182015b828111156128075782518255916020019190600101906127ec565b5b5090506128159190612982565b5090565b828054828255906000526020600020908101928215612892579160200282015b828111156128915782518260006101000a81548173ffffffffffffffffffffffffffffffffffffffff021916908373ffffffffffffffffffffffffffffffffffffffff16021790555091602001919060010190612839565b5b50905061289f9190612982565b5090565b8280546128af906134ab565b90600052602060002090601f0160209004810192826128d1576000855561291f565b82601f106128e2578054855561291f565b8280016001018555821561291f57600052602060002091601f016020900482015b8281111561291e578254825591600101919060010190612903565b5b50905061292c9190612982565b5090565b8280548282559060005260206000209081019282156129715760005260206000209182015b82811115612970578254825591600101919060010190612955565b5b50905061297e9190612982565b5090565b5b8082111561299b576000816000905550600101612983565b5090565b6000604051905090565b600080fd5b600080fd5b600080fd5b600080fd5b6000601f19601f8301169050919050565b7f4e487b7100000000000000000000000000000000000000000000000000000000600052604160045260246000fd5b612a06826129bd565b810181811067ffffffffffffffff82111715612a2557612a246129ce565b5b80604052505050565b6000612a3861299f565b9050612a4482826129fd565b919050565b600067ffffffffffffffff821115612a6457612a636129ce565b5b612a6d826129bd565b9050602081019050919050565b82818337600083830152505050565b6000612a9c612a9784612a49565b612a2e565b905082815260208101848484011115612ab857612ab76129b8565b5b612ac3848285612a7a565b509392505050565b600082601f830112612ae057612adf6129b3565b5b8135612af0848260208601612a89565b91505092915050565b6000819050919050565b612b0c81612af9565b8114612b1757600080fd5b50565b600081359050612b2981612b03565b92915050565b60008115159050919050565b612b4481612b2f565b8114612b4f57600080fd5b50565b600081359050612b6181612b3b565b92915050565b600080600060608486031215612b8057612b7f6129a9565b5b600084013567ffffffffffffffff811115612b9e57612b9d6129ae565b5b612baa86828701612acb565b9350506020612bbb86828701612b1a565b9250506040612bcc86828701612b52565b9150509250925092565b600081519050919050565b600082825260208201905092915050565b60005b83811015612c10578082015181840152602081019050612bf5565b83811115612c1f576000848401525b50505050565b6000612c3082612bd6565b612c3a8185612be1565b9350612c4a818560208601612bf2565b612c53816129bd565b840191505092915050565b612c6781612af9565b82525050565b612c7681612b2f565b82525050565b600081519050919050565b600082825260208201905092915050565b6000819050602082019050919050565b600073ffffffffffffffffffffffffffffffffffffffff82169050919050565b6000612cd382612ca8565b9050919050565b612ce381612cc8565b82525050565b6000612cf58383612cda565b60208301905092915050565b6000602082019050919050565b6000612d1982612c7c565b612d238185612c87565b9350612d2e83612c98565b8060005b83811015612d5f578151612d468882612ce9565b9750612d5183612d01565b925050600181019050612d32565b5085935050505092915050565b600060e0830160008301518482036000860152612d898282612c25565b9150506020830151612d9e6020860182612c5e565b506040830151612db16040860182612c5e565b506060830151612dc46060860182612c6d565b5060808301518482036080860152612ddc8282612d0e565b91505060a083015184820360a0860152612df68282612d0e565b91505060c0830151612e0b60c0860182612c5e565b508091505092915050565b60006020820190508181036000830152612e308184612d6c565b905092915050565b600082825260208201905092915050565b6000612e5482612c7c565b612e5e8185612e38565b9350612e6983612c98565b8060005b83811015612e9a578151612e818882612ce9565b9750612e8c83612d01565b925050600181019050612e6d565b5085935050505092915050565b60006020820190508181036000830152612ec18184612e49565b905092915050565b600081519050919050565b600082825260208201905092915050565b6000819050602082019050919050565b600060e0830160008301518482036000860152612f128282612c25565b9150506020830151612f276020860182612c5e565b506040830151612f3a6040860182612c5e565b506060830151612f4d6060860182612c6d565b5060808301518482036080860152612f658282612d0e565b91505060a083015184820360a0860152612f7f8282612d0e565b91505060c0830151612f9460c0860182612c5e565b508091505092915050565b6000612fab8383612ef5565b905092915050565b6000602082019050919050565b6000612fcb82612ec9565b612fd58185612ed4565b935083602082028501612fe785612ee5565b8060005b8581101561302357848403895281516130048582612f9f565b945061300f83612fb3565b925060208a01995050600181019050612feb565b50829750879550505050505092915050565b6000602082019050818103600083015261304f8184612fc0565b905092915050565b61306081612af9565b82525050565b600060208201905061307b6000830184613057565b92915050565b600060208284031215613097576130966129a9565b5b600082013567ffffffffffffffff8111156130b5576130b46129ae565b5b6130c184828501612acb565b91505092915050565b600080604083850312156130e1576130e06129a9565b5b600083013567ffffffffffffffff8111156130ff576130fe6129ae565b5b61310b85828601612acb565b925050602061311c85828601612b52565b9150509250929050565b600060408201905081810360008301526131408185612d6c565b905061314f6020830184613057565b9392505050565b61315f81612cc8565b811461316a57600080fd5b50565b60008135905061317c81613156565b92915050565b600060208284031215613198576131976129a9565b5b60006131a68482850161316d565b91505092915050565b6000806000606084860312156131c8576131c76129a9565b5b60006131d68682870161316d565b935050602084013567ffffffffffffffff8111156131f7576131f66129ae565b5b61320386828701612acb565b925050604061321486828701612b1a565b9150509250925092565b60008060408385031215613235576132346129a9565b5b60006132438582860161316d565b925050602061325485828601612b1a565b9150509250929050565b600061326982612ca8565b9050919050565b6132798161325e565b811461328457600080fd5b50565b60008135905061329681613270565b92915050565b600080604083850312156132b3576132b26129a9565b5b60006132c185828601613287565b92505060206132d285828601612b1a565b9150509250929050565b600081519050919050565b600082825260208201905092915050565b6000819050602082019050919050565b60808201600082015161331e6000850182612c5e565b5060208201516133316020850182612cda565b5060408201516133446040850182612cda565b5060608201516133576060850182612c5e565b50505050565b60006133698383613308565b60808301905092915050565b6000602082019050919050565b600061338d826132dc565b61339781856132e7565b93506133a2836132f8565b8060005b838110156133d35781516133ba888261335d565b97506133c583613375565b9250506001810190506133a6565b5085935050505092915050565b600060208201905081810360008301526133fa8184613382565b905092915050565b6000819050919050565b600061342761342261341d84612ca8565b613402565b612ca8565b9050919050565b60006134398261340c565b9050919050565b600061344b8261342e565b9050919050565b61345b81613440565b82525050565b60006020820190506134766000830184613452565b92915050565b7f4e487b7100000000000000000000000000000000000000000000000000000000600052602260045260246000fd5b600060028204905060018216806134c357607f821691505b602082108114156134d7576134d661347c565b5b50919050565b600081905092915050565b60008190508160005260206000209050919050565b6000815461350a816134ab565b61351481866134dd565b9450600182166000811461352f576001811461354057613573565b60ff19831686528186019350613573565b613549856134e8565b60005b8381101561356b5781548189015260018201915060208101905061354c565b838801955050505b50505092915050565b600061358882846134fd565b915081905092915050565b600082825260208201905092915050565b7f596f7520616c7265616479206861766520616e206163636f756e740000000000600082015250565b60006135da601b83613593565b91506135e5826135a4565b602082019050919050565b60006020820190508181036000830152613609816135cd565b9050919050565b7f596f752772652061646d696e2021212100000000000000000000000000000000600082015250565b6000613646601083613593565b915061365182613610565b602082019050919050565b6000602082019050818103600083015261367581613639565b9050919050565b7f4e487b7100000000000000000000000000000000000000000000000000000000600052603260045260246000fd5b7f4e487b7100000000000000000000000000000000000000000000000000000000600052601160045260246000fd5b60006136e582612af9565b91507fffffffffffffffffffffffffffffffffffffffffffffffffffffffffffffffff821415613718576137176136ab565b5b600182019050919050565b61372c81612cc8565b82525050565b600061373d82612bd6565b6137478185613593565b9350613757818560208601612bf2565b613760816129bd565b840191505092915050565b60006040820190506137806000830185613723565b81810360208301526137928184613732565b90509392505050565b7f546865206368696c6420646964206e6f7420666f756e64000000000000000000600082015250565b60006137d1601783613593565b91506137dc8261379b565b602082019050919050565b60006020820190508181036000830152613800816137c4565b9050919050565b7f596f752068617665206e6f7420616e79206368696c6400000000000000000000600082015250565b600061383d601683613593565b915061384882613807565b602082019050919050565b6000602082019050818103600083015261386c81613830565b9050919050565b7f596f7520616c7265616479206861766520616e206163636f756e74202863686960008201527f6c64290000000000000000000000000000000000000000000000000000000000602082015250565b60006138cf602383613593565b91506138da82613873565b604082019050919050565b600060208201905081810360008301526138fe816138c2565b9050919050565b7f596f752772652061646d696e0000000000000000000000000000000000000000600082015250565b600061393b600c83613593565b915061394682613905565b602082019050919050565b6000602082019050818103600083015261396a8161392e565b9050919050565b7f596f752063616e206c696e6b206163636f756e74206166746572206c6f67676560008201527f6420696e00000000000000000000000000000000000000000000000000000000602082015250565b60006139cd602483613593565b91506139d882613971565b604082019050919050565b600060208201905081810360008301526139fc816139c0565b9050919050565b6000602082019050613a186000830184613723565b92915050565b600081519050613a2d81612b03565b92915050565b600060208284031215613a4957613a486129a9565b5b6000613a5784828501613a1e565b91505092915050565b7f596f752776652061206c696d69746564206163636f756e74202c20796f75277260008201527f65206e6f7420616e206164756c74000000000000000000000000000000000000602082015250565b6000613abc602e83613593565b9150613ac782613a60565b604082019050919050565b60006020820190508181036000830152613aeb81613aaf565b9050919050565b6000604082019050613b076000830185613723565b613b146020830184613057565b9392505050565b600081519050613b2a81612b3b565b92915050565b600060208284031215613b4657613b456129a9565b5b6000613b5484828501613b1b565b91505092915050565b6000604082019050613b726000830185613723565b613b7f6020830184613723565b9392505050565b7f616c6c6f77616e6365206572726f72202c206f776e65722073686f756c64206960008201527f6e63726561736520796f757220616c6c6f77616e636500000000000000000000602082015250565b6000613be2603683613593565b9150613bed82613b86565b604082019050919050565b60006020820190508181036000830152613c1181613bd5565b9050919050565b50565b6000613c286000836134dd565b9150613c3382613c18565b600082019050919050565b6000613c4982613c1b565b9150819050919050565b7f4661696c656420746f2073656e64204574686572000000000000000000000000600082015250565b6000613c89601483613593565b9150613c9482613c53565b602082019050919050565b60006020820190508181036000830152613cb881613c7c565b9050919050565b7f54686520706572736f6e20646964206e6f7420666f756e640000000000000000600082015250565b6000613cf5601883613593565b9150613d0082613cbf565b602082019050919050565b60006020820190508181036000830152613d2481613ce8565b905091905056fea26469706673582212201662f82ee33bb975900437cdeec73801491c9c50bb5c5ebdc6e8c9e590269f5f64736f6c63430008090033",
  "linkReferences": {},
  "deployedLinkReferences": {}
}