{
  "_format": "hh-sol-artifact-1",
  "contractName": "NewContract",
  "sourceName": "contracts/Banking.sol",
  "abi": [
    {
      "inputs": [
        {
          "internalType": "address",
          "name": "_token",
          "type": "address"
        }
      ],
      "stateMutability": "payable",
      "type": "constructor"
    },
    {
      "anonymous": false,
      "inputs": [
        {
          "indexed": false,
          "internalType": "address",
          "name": "owner",
          "type": "address"
        },
        {
          "indexed": false,
          "internalType": "string",
          "name": "child",
          "type": "string"
        }
      ],
      "name": "BalanceGot",
      "type": "event"
    },
    {
      "anonymous": false,
      "inputs": [
        {
          "indexed": false,
          "internalType": "address",
          "name": "from",
          "type": "address"
        },
        {
          "indexed": false,
          "internalType": "address",
          "name": "to",
          "type": "address"
        },
        {
          "indexed": false,
          "internalType": "uint256",
          "name": "amount",
          "type": "uint256"
        }
      ],
      "name": "InheritumSent",
      "type": "event"
    },
    {
      "anonymous": false,
      "inputs": [
        {
          "indexed": false,
          "internalType": "address",
          "name": "from",
          "type": "address"
        },
        {
          "indexed": false,
          "internalType": "address",
          "name": "to",
          "type": "address"
        },
        {
          "indexed": false,
          "internalType": "string",
          "name": "childName",
          "type": "string"
        },
        {
          "indexed": false,
          "internalType": "uint256",
          "name": "amount",
          "type": "uint256"
        }
      ],
      "name": "SentMoney",
      "type": "event"
    },
    {
      "anonymous": false,
      "inputs": [
        {
          "indexed": false,
          "internalType": "address",
          "name": "recipient",
          "type": "address"
        },
        {
          "indexed": false,
          "internalType": "uint256",
          "name": "amount",
          "type": "uint256"
        }
      ],
      "name": "allowanceTest",
      "type": "event"
    },
    {
      "inputs": [
        {
          "internalType": "string",
          "name": "_name",
          "type": "string"
        },
        {
          "internalType": "uint256",
          "name": "_age",
          "type": "uint256"
        },
        {
          "internalType": "address",
          "name": "childAccount",
          "type": "address"
        }
      ],
      "name": "addAndLinkChild",
      "outputs": [
        {
          "components": [
            {
              "internalType": "string",
              "name": "name",
              "type": "string"
            },
            {
              "internalType": "uint256",
              "name": "age",
              "type": "uint256"
            },
            {
              "internalType": "uint256",
              "name": "balance",
              "type": "uint256"
            },
            {
              "internalType": "bool",
              "name": "isLimited",
              "type": "bool"
            },
            {
              "internalType": "address[]",
              "name": "child",
              "type": "address[]"
            },
            {
              "internalType": "address[]",
              "name": "parent",
              "type": "address[]"
            },
            {
              "internalType": "uint256",
              "name": "createdTime",
              "type": "uint256"
            },
            {
              "internalType": "address",
              "name": "myAddress",
              "type": "address"
            },
            {
              "components": [
                {
                  "internalType": "bool",
                  "name": "have",
                  "type": "bool"
                },
                {
                  "internalType": "address",
                  "name": "parent",
                  "type": "address"
                }
              ],
              "internalType": "struct NewContract.HaveParent",
              "name": "parentInfo",
              "type": "tuple"
            }
          ],
          "internalType": "struct NewContract.Person",
          "name": "",
          "type": "tuple"
        }
      ],
      "stateMutability": "nonpayable",
      "type": "function"
    },
    {
      "inputs": [
        {
          "internalType": "string",
          "name": "_name",
          "type": "string"
        },
        {
          "internalType": "uint256",
          "name": "_age",
          "type": "uint256"
        }
      ],
      "name": "addPerson",
      "outputs": [
        {
          "components": [
            {
              "internalType": "string",
              "name": "name",
              "type": "string"
            },
            {
              "internalType": "uint256",
              "name": "age",
              "type": "uint256"
            },
            {
              "internalType": "uint256",
              "name": "balance",
              "type": "uint256"
            },
            {
              "internalType": "bool",
              "name": "isLimited",
              "type": "bool"
            },
            {
              "internalType": "address[]",
              "name": "child",
              "type": "address[]"
            },
            {
              "internalType": "address[]",
              "name": "parent",
              "type": "address[]"
            },
            {
              "internalType": "uint256",
              "name": "createdTime",
              "type": "uint256"
            },
            {
              "internalType": "address",
              "name": "myAddress",
              "type": "address"
            },
            {
              "components": [
                {
                  "internalType": "bool",
                  "name": "have",
                  "type": "bool"
                },
                {
                  "internalType": "address",
                  "name": "parent",
                  "type": "address"
                }
              ],
              "internalType": "struct NewContract.HaveParent",
              "name": "parentInfo",
              "type": "tuple"
            }
          ],
          "internalType": "struct NewContract.Person",
          "name": "",
          "type": "tuple"
        }
      ],
      "stateMutability": "nonpayable",
      "type": "function"
    },
    {
      "inputs": [
        {
          "internalType": "string",
          "name": "_name",
          "type": "string"
        },
        {
          "internalType": "bool",
          "name": "returnErr",
          "type": "bool"
        }
      ],
      "name": "findTheChild",
      "outputs": [
        {
          "components": [
            {
              "internalType": "string",
              "name": "name",
              "type": "string"
            },
            {
              "internalType": "uint256",
              "name": "age",
              "type": "uint256"
            },
            {
              "internalType": "uint256",
              "name": "balance",
              "type": "uint256"
            },
            {
              "internalType": "bool",
              "name": "isLimited",
              "type": "bool"
            },
            {
              "internalType": "address[]",
              "name": "child",
              "type": "address[]"
            },
            {
              "internalType": "address[]",
              "name": "parent",
              "type": "address[]"
            },
            {
              "internalType": "uint256",
              "name": "createdTime",
              "type": "uint256"
            },
            {
              "internalType": "address",
              "name": "myAddress",
              "type": "address"
            },
            {
              "components": [
                {
                  "internalType": "bool",
                  "name": "have",
                  "type": "bool"
                },
                {
                  "internalType": "address",
                  "name": "parent",
                  "type": "address"
                }
              ],
              "internalType": "struct NewContract.HaveParent",
              "name": "parentInfo",
              "type": "tuple"
            }
          ],
          "internalType": "struct NewContract.Person",
          "name": "",
          "type": "tuple"
        },
        {
          "internalType": "uint256",
          "name": "index",
          "type": "uint256"
        }
      ],
      "stateMutability": "view",
      "type": "function"
    },
    {
      "inputs": [],
      "name": "getBalanceOfInheritumToken",
      "outputs": [
        {
          "internalType": "uint256",
          "name": "",
          "type": "uint256"
        }
      ],
      "stateMutability": "view",
      "type": "function"
    },
    {
      "inputs": [
        {
          "internalType": "address",
          "name": "childAddr",
          "type": "address"
        }
      ],
      "name": "getChildByAddress",
      "outputs": [
        {
          "components": [
            {
              "internalType": "string",
              "name": "name",
              "type": "string"
            },
            {
              "internalType": "uint256",
              "name": "age",
              "type": "uint256"
            },
            {
              "internalType": "uint256",
              "name": "balance",
              "type": "uint256"
            },
            {
              "internalType": "bool",
              "name": "isLimited",
              "type": "bool"
            },
            {
              "internalType": "address[]",
              "name": "child",
              "type": "address[]"
            },
            {
              "internalType": "address[]",
              "name": "parent",
              "type": "address[]"
            },
            {
              "internalType": "uint256",
              "name": "createdTime",
              "type": "uint256"
            },
            {
              "internalType": "address",
              "name": "myAddress",
              "type": "address"
            },
            {
              "components": [
                {
                  "internalType": "bool",
                  "name": "have",
                  "type": "bool"
                },
                {
                  "internalType": "address",
                  "name": "parent",
                  "type": "address"
                }
              ],
              "internalType": "struct NewContract.HaveParent",
              "name": "parentInfo",
              "type": "tuple"
            }
          ],
          "internalType": "struct NewContract.Person",
          "name": "",
          "type": "tuple"
        }
      ],
      "stateMutability": "view",
      "type": "function"
    },
    {
      "inputs": [],
      "name": "getChildren",
      "outputs": [
        {
          "components": [
            {
              "internalType": "string",
              "name": "name",
              "type": "string"
            },
            {
              "internalType": "uint256",
              "name": "age",
              "type": "uint256"
            },
            {
              "internalType": "uint256",
              "name": "balance",
              "type": "uint256"
            },
            {
              "internalType": "bool",
              "name": "isLimited",
              "type": "bool"
            },
            {
              "internalType": "address[]",
              "name": "child",
              "type": "address[]"
            },
            {
              "internalType": "address[]",
              "name": "parent",
              "type": "address[]"
            },
            {
              "internalType": "uint256",
              "name": "createdTime",
              "type": "uint256"
            },
            {
              "internalType": "address",
              "name": "myAddress",
              "type": "address"
            },
            {
              "components": [
                {
                  "internalType": "bool",
                  "name": "have",
                  "type": "bool"
                },
                {
                  "internalType": "address",
                  "name": "parent",
                  "type": "address"
                }
              ],
              "internalType": "struct NewContract.HaveParent",
              "name": "parentInfo",
              "type": "tuple"
            }
          ],
          "internalType": "struct NewContract.Person[]",
          "name": "",
          "type": "tuple[]"
        }
      ],
      "stateMutability": "view",
      "type": "function"
    },
    {
      "inputs": [],
      "name": "getMyBalance",
      "outputs": [
        {
          "internalType": "uint256",
          "name": "",
          "type": "uint256"
        }
      ],
      "stateMutability": "view",
      "type": "function"
    },
    {
      "inputs": [],
      "name": "getMyChild",
      "outputs": [
        {
          "internalType": "address[]",
          "name": "",
          "type": "address[]"
        }
      ],
      "stateMutability": "view",
      "type": "function"
    },
    {
      "inputs": [
        {
          "internalType": "string",
          "name": "_name",
          "type": "string"
        }
      ],
      "name": "getMyChildBalance",
      "outputs": [
        {
          "internalType": "uint256",
          "name": "",
          "type": "uint256"
        }
      ],
      "stateMutability": "nonpayable",
      "type": "function"
    },
    {
      "inputs": [],
      "name": "getPersons",
      "outputs": [
        {
          "components": [
            {
              "internalType": "string",
              "name": "name",
              "type": "string"
            },
            {
              "internalType": "uint256",
              "name": "age",
              "type": "uint256"
            },
            {
              "internalType": "uint256",
              "name": "balance",
              "type": "uint256"
            },
            {
              "internalType": "bool",
              "name": "isLimited",
              "type": "bool"
            },
            {
              "internalType": "address[]",
              "name": "child",
              "type": "address[]"
            },
            {
              "internalType": "address[]",
              "name": "parent",
              "type": "address[]"
            },
            {
              "internalType": "uint256",
              "name": "createdTime",
              "type": "uint256"
            },
            {
              "internalType": "address",
              "name": "myAddress",
              "type": "address"
            },
            {
              "components": [
                {
                  "internalType": "bool",
                  "name": "have",
                  "type": "bool"
                },
                {
                  "internalType": "address",
                  "name": "parent",
                  "type": "address"
                }
              ],
              "internalType": "struct NewContract.HaveParent",
              "name": "parentInfo",
              "type": "tuple"
            }
          ],
          "internalType": "struct NewContract.Person[]",
          "name": "",
          "type": "tuple[]"
        }
      ],
      "stateMutability": "view",
      "type": "function"
    },
    {
      "inputs": [],
      "name": "getTranscationHistory",
      "outputs": [
        {
          "components": [
            {
              "internalType": "uint256",
              "name": "timestamp",
              "type": "uint256"
            },
            {
              "internalType": "address",
              "name": "sender",
              "type": "address"
            },
            {
              "internalType": "address",
              "name": "receiver",
              "type": "address"
            },
            {
              "internalType": "uint256",
              "name": "amount",
              "type": "uint256"
            }
          ],
          "internalType": "struct NewContract.Transaction[]",
          "name": "",
          "type": "tuple[]"
        }
      ],
      "stateMutability": "view",
      "type": "function"
    },
    {
      "inputs": [],
      "name": "getTranscationHistoryForChild",
      "outputs": [
        {
          "components": [
            {
              "internalType": "uint256",
              "name": "timestamp",
              "type": "uint256"
            },
            {
              "internalType": "address",
              "name": "sender",
              "type": "address"
            },
            {
              "internalType": "address",
              "name": "receiver",
              "type": "address"
            },
            {
              "internalType": "uint256",
              "name": "amount",
              "type": "uint256"
            }
          ],
          "internalType": "struct NewContract.Transaction[]",
          "name": "",
          "type": "tuple[]"
        }
      ],
      "stateMutability": "view",
      "type": "function"
    },
    {
      "inputs": [
        {
          "internalType": "address payable",
          "name": "_to",
          "type": "address"
        },
        {
          "internalType": "uint256",
          "name": "amount",
          "type": "uint256"
        }
      ],
      "name": "sendEtherMyChild",
      "outputs": [],
      "stateMutability": "payable",
      "type": "function"
    },
    {
      "inputs": [
        {
          "internalType": "address",
          "name": "_to",
          "type": "address"
        },
        {
          "internalType": "uint256",
          "name": "_amount",
          "type": "uint256"
        }
      ],
      "name": "sendTokenToChild",
      "outputs": [],
      "stateMutability": "nonpayable",
      "type": "function"
    },
    {
      "inputs": [],
      "name": "token",
      "outputs": [
        {
          "internalType": "contract IERC20",
          "name": "",
          "type": "address"
        }
      ],
      "stateMutability": "view",
      "type": "function"
    }
  ],
  "bytecode": "0x6080604052735b38da6a701c568545dcfcb03fcb875f56beddc4600160006101000a81548173ffffffffffffffffffffffffffffffffffffffff021916908373ffffffffffffffffffffffffffffffffffffffff160217905550604051620051023803806200510283398181016040528101906200007e91906200012f565b806000806101000a81548173ffffffffffffffffffffffffffffffffffffffff021916908373ffffffffffffffffffffffffffffffffffffffff1602179055505062000161565b600080fd5b600073ffffffffffffffffffffffffffffffffffffffff82169050919050565b6000620000f782620000ca565b9050919050565b6200010981620000ea565b81146200011557600080fd5b50565b6000815190506200012981620000fe565b92915050565b600060208284031215620001485762000147620000c5565b5b6000620001588482850162000118565b91505092915050565b614f9180620001716000396000f3fe6080604052600436106100e85760003560e01c80635412f1c91161008a578063c81cdec911610059578063c81cdec914610310578063dbc1a22b1461033b578063ee203fe614610366578063fc0c546a14610391576100e8565b80635412f1c9146102415780636f760f411461027f578063a6e4788c146102bc578063b42fbdfd146102e7576100e8565b80634892e8e8116100c65780634892e8e8146101835780634c6b6c6f146101ae5780634c738909146101d957806353a86c9414610204576100e8565b806307eb9a6d146100ed5780631079ed67146101095780633f8706ab14610146575b600080fd5b61010760048036038101906101029190613ce1565b6103bc565b005b34801561011557600080fd5b50610130600480360381019061012b9190613d5f565b6105fd565b60405161013d919061400f565b60405180910390f35b34801561015257600080fd5b5061016d60048036038101906101689190614166565b6109ca565b60405161017a919061400f565b60405180910390f35b34801561018f57600080fd5b506101986111f7565b6040516101a5919061436a565b60405180910390f35b3480156101ba57600080fd5b506101c361169b565b6040516101d0919061436a565b60405180910390f35b3480156101e557600080fd5b506101ee6119bd565b6040516101fb919061439b565b60405180910390f35b34801561021057600080fd5b5061022b600480360381019061022691906143b6565b6119dc565b604051610238919061439b565b60405180910390f35b34801561024d57600080fd5b506102686004803603810190610263919061442b565b611a56565b604051610276929190614487565b60405180910390f35b34801561028b57600080fd5b506102a660048036038101906102a191906144b7565b611ee3565b6040516102b3919061400f565b60405180910390f35b3480156102c857600080fd5b506102d1612816565b6040516102de9190614617565b60405180910390f35b3480156102f357600080fd5b5061030e60048036038101906103099190614639565b612972565b005b34801561031c57600080fd5b50610325612adb565b604051610332919061439b565b60405180910390f35b34801561034757600080fd5b50610350612b8c565b60405161035d9190614617565b60405180910390f35b34801561037257600080fd5b5061037b612ce8565b60405161038891906146e8565b60405180910390f35b34801561039d57600080fd5b506103a6612db6565b6040516103b39190614769565b60405180910390f35b600460003373ffffffffffffffffffffffffffffffffffffffff1673ffffffffffffffffffffffffffffffffffffffff16815260200190815260200160002060030160009054906101000a900460ff166000151581151514610453576040517f08c379a000000000000000000000000000000000000000000000000000000000815260040161044a90614807565b60405180910390fd5b6000808473ffffffffffffffffffffffffffffffffffffffff168460405161047a90614858565b60006040518083038185875af1925050503d80600081146104b7576040519150601f19603f3d011682016040523d82523d6000602084013e6104bc565b606091505b509150915081610501576040517f08c379a00000000000000000000000000000000000000000000000000000000081526004016104f8906148b9565b60405180910390fd5b6000600460003373ffffffffffffffffffffffffffffffffffffffff1673ffffffffffffffffffffffffffffffffffffffff16815260200190815260200160002060000160405161055291906149ce565b60405180910390201461057d5761056b85856001612dda565b610578853386600061309d565b6105f6565b6000600560003373ffffffffffffffffffffffffffffffffffffffff1673ffffffffffffffffffffffffffffffffffffffff1681526020019081526020016000206000016040516105ce91906149ce565b6040518091039020146105f5576105e785856000612dda565b6105f4853386600161309d565b5b5b5050505050565b610605613a70565b816040518060200160405280600081525080519060200120600560008373ffffffffffffffffffffffffffffffffffffffff1673ffffffffffffffffffffffffffffffffffffffff16815260200190815260200160002060000160405161066c91906149ce565b604051809103902014156106b5576040517f08c379a00000000000000000000000000000000000000000000000000000000081526004016106ac90614a57565b60405180910390fd5b600560008473ffffffffffffffffffffffffffffffffffffffff1673ffffffffffffffffffffffffffffffffffffffff1681526020019081526020016000206040518061012001604052908160008201805461071090614908565b80601f016020809104026020016040519081016040528092919081815260200182805461073c90614908565b80156107895780601f1061075e57610100808354040283529160200191610789565b820191906000526020600020905b81548152906001019060200180831161076c57829003601f168201915b5050505050815260200160018201548152602001600282015481526020016003820160009054906101000a900460ff161515151581526020016004820180548060200260200160405190810160405280929190818152602001828054801561084657602002820191906000526020600020905b8160009054906101000a900473ffffffffffffffffffffffffffffffffffffffff1673ffffffffffffffffffffffffffffffffffffffff16815260200190600101908083116107fc575b50505050508152602001600582018054806020026020016040519081016040528092919081815260200182805480156108d457602002820191906000526020600020905b8160009054906101000a900473ffffffffffffffffffffffffffffffffffffffff1673ffffffffffffffffffffffffffffffffffffffff168152602001906001019080831161088a575b50505050508152602001600682015481526020016007820160009054906101000a900473ffffffffffffffffffffffffffffffffffffffff1673ffffffffffffffffffffffffffffffffffffffff1673ffffffffffffffffffffffffffffffffffffffff168152602001600882016040518060400160405290816000820160009054906101000a900460ff161515151581526020016000820160019054906101000a900473ffffffffffffffffffffffffffffffffffffffff1673ffffffffffffffffffffffffffffffffffffffff1673ffffffffffffffffffffffffffffffffffffffff168152505081525050915050919050565b6109d2613a70565b816040518060200160405280600081525080519060200120600560008373ffffffffffffffffffffffffffffffffffffffff1673ffffffffffffffffffffffffffffffffffffffff168152602001908152602001600020600001604051610a3991906149ce565b604051809103902014610a81576040517f08c379a0000000000000000000000000000000000000000000000000000000008152600401610a7890614ae9565b60405180910390fd5b610a8b8585613361565b506000600460003373ffffffffffffffffffffffffffffffffffffffff1673ffffffffffffffffffffffffffffffffffffffff168152602001908152602001600020905080600401849080600181540180825580915050600190039060005260206000200160009091909190916101000a81548173ffffffffffffffffffffffffffffffffffffffff021916908373ffffffffffffffffffffffffffffffffffffffff160217905550600080610b42886001611a56565b915091508560078281548110610b5b57610b5a614b09565b5b906000526020600020906009020160070160006101000a81548173ffffffffffffffffffffffffffffffffffffffff021916908373ffffffffffffffffffffffffffffffffffffffff16021790555081600560008873ffffffffffffffffffffffffffffffffffffffff1673ffffffffffffffffffffffffffffffffffffffff1681526020019081526020016000206000820151816000019080519060200190610c06929190613ada565b50602082015181600101556040820151816002015560608201518160030160006101000a81548160ff0219169083151502179055506080820151816004019080519060200190610c57929190613b60565b5060a0820151816005019080519060200190610c74929190613b60565b5060c0820151816006015560e08201518160070160006101000a81548173ffffffffffffffffffffffffffffffffffffffff021916908373ffffffffffffffffffffffffffffffffffffffff1602179055506101008201518160080160008201518160000160006101000a81548160ff02191690831515021790555060208201518160000160016101000a81548173ffffffffffffffffffffffffffffffffffffffff021916908373ffffffffffffffffffffffffffffffffffffffff1602179055505050905050610d44613a70565b80600560003373ffffffffffffffffffffffffffffffffffffffff1673ffffffffffffffffffffffffffffffffffffffff1681526020019081526020016000206000820151816000019080519060200190610da0929190613ada565b50602082015181600101556040820151816002015560608201518160030160006101000a81548160ff0219169083151502179055506080820151816004019080519060200190610df1929190613b60565b5060a0820151816005019080519060200190610e0e929190613b60565b5060c0820151816006015560e08201518160070160006101000a81548173ffffffffffffffffffffffffffffffffffffffff021916908373ffffffffffffffffffffffffffffffffffffffff1602179055506101008201518160080160008201518160000160006101000a81548160ff02191690831515021790555060208201518160000160016101000a81548173ffffffffffffffffffffffffffffffffffffffff021916908373ffffffffffffffffffffffffffffffffffffffff16021790555050509050506000600460003373ffffffffffffffffffffffffffffffffffffffff1673ffffffffffffffffffffffffffffffffffffffff16815260200190815260200160002060405180610120016040529081600082018054610f3390614908565b80601f0160208091040260200160405190810160405280929190818152602001828054610f5f90614908565b8015610fac5780601f10610f8157610100808354040283529160200191610fac565b820191906000526020600020905b815481529060010190602001808311610f8f57829003601f168201915b5050505050815260200160018201548152602001600282015481526020016003820160009054906101000a900460ff161515151581526020016004820180548060200260200160405190810160405280929190818152602001828054801561106957602002820191906000526020600020905b8160009054906101000a900473ffffffffffffffffffffffffffffffffffffffff1673ffffffffffffffffffffffffffffffffffffffff168152602001906001019080831161101f575b50505050508152602001600582018054806020026020016040519081016040528092919081815260200182805480156110f757602002820191906000526020600020905b8160009054906101000a900473ffffffffffffffffffffffffffffffffffffffff1673ffffffffffffffffffffffffffffffffffffffff16815260200190600101908083116110ad575b50505050508152602001600682015481526020016007820160009054906101000a900473ffffffffffffffffffffffffffffffffffffffff1673ffffffffffffffffffffffffffffffffffffffff1673ffffffffffffffffffffffffffffffffffffffff168152602001600882016040518060400160405290816000820160009054906101000a900460ff161515151581526020016000820160019054906101000a900473ffffffffffffffffffffffffffffffffffffffff1673ffffffffffffffffffffffffffffffffffffffff1673ffffffffffffffffffffffffffffffffffffffff16815250508152505090508096505050505050509392505050565b6060600060078054905067ffffffffffffffff81111561121a5761121961403b565b5b60405190808252806020026020018201604052801561125357816020015b611240613a70565b8152602001906001900390816112385790505b5090506000805b600780549050811015611692576007818154811061127b5761127a614b09565b5b906000526020600020906009020160030160009054906101000a900460ff1680156113185750600073ffffffffffffffffffffffffffffffffffffffff16600782815481106112cd576112cc614b09565b5b906000526020600020906009020160070160009054906101000a900473ffffffffffffffffffffffffffffffffffffffff1673ffffffffffffffffffffffffffffffffffffffff1614155b801561135d5750600115156007828154811061133757611336614b09565b5b906000526020600020906009020160080160000160009054906101000a900460ff161515145b1561167f576007818154811061137657611375614b09565b5b9060005260206000209060090201604051806101200160405290816000820180546113a090614908565b80601f01602080910402602001604051908101604052809291908181526020018280546113cc90614908565b80156114195780601f106113ee57610100808354040283529160200191611419565b820191906000526020600020905b8154815290600101906020018083116113fc57829003601f168201915b5050505050815260200160018201548152602001600282015481526020016003820160009054906101000a900460ff16151515158152602001600482018054806020026020016040519081016040528092919081815260200182805480156114d657602002820191906000526020600020905b8160009054906101000a900473ffffffffffffffffffffffffffffffffffffffff1673ffffffffffffffffffffffffffffffffffffffff168152602001906001019080831161148c575b505050505081526020016005820180548060200260200160405190810160405280929190818152602001828054801561156457602002820191906000526020600020905b8160009054906101000a900473ffffffffffffffffffffffffffffffffffffffff1673ffffffffffffffffffffffffffffffffffffffff168152602001906001019080831161151a575b50505050508152602001600682015481526020016007820160009054906101000a900473ffffffffffffffffffffffffffffffffffffffff1673ffffffffffffffffffffffffffffffffffffffff1673ffffffffffffffffffffffffffffffffffffffff168152602001600882016040518060400160405290816000820160009054906101000a900460ff161515151581526020016000820160019054906101000a900473ffffffffffffffffffffffffffffffffffffffff1673ffffffffffffffffffffffffffffffffffffffff1673ffffffffffffffffffffffffffffffffffffffff16815250508152505083838151811061166557611664614b09565b5b6020026020010181905250818061167b90614b67565b9250505b808061168a90614b67565b91505061125a565b50819250505090565b60606007805480602002602001604051908101604052809291908181526020016000905b828210156119b45783829060005260206000209060090201604051806101200160405290816000820180546116f390614908565b80601f016020809104026020016040519081016040528092919081815260200182805461171f90614908565b801561176c5780601f106117415761010080835404028352916020019161176c565b820191906000526020600020905b81548152906001019060200180831161174f57829003601f168201915b5050505050815260200160018201548152602001600282015481526020016003820160009054906101000a900460ff161515151581526020016004820180548060200260200160405190810160405280929190818152602001828054801561182957602002820191906000526020600020905b8160009054906101000a900473ffffffffffffffffffffffffffffffffffffffff1673ffffffffffffffffffffffffffffffffffffffff16815260200190600101908083116117df575b50505050508152602001600582018054806020026020016040519081016040528092919081815260200182805480156118b757602002820191906000526020600020905b8160009054906101000a900473ffffffffffffffffffffffffffffffffffffffff1673ffffffffffffffffffffffffffffffffffffffff168152602001906001019080831161186d575b50505050508152602001600682015481526020016007820160009054906101000a900473ffffffffffffffffffffffffffffffffffffffff1673ffffffffffffffffffffffffffffffffffffffff1673ffffffffffffffffffffffffffffffffffffffff168152602001600882016040518060400160405290816000820160009054906101000a900460ff161515151581526020016000820160019054906101000a900473ffffffffffffffffffffffffffffffffffffffff1673ffffffffffffffffffffffffffffffffffffffff1673ffffffffffffffffffffffffffffffffffffffff168152505081525050815260200190600101906116bf565b50505050905090565b60003373ffffffffffffffffffffffffffffffffffffffff1631905090565b60008060006119ec846001611a56565b915091507f43bffc0f95fb1b5cd921e2fa994fd3abf463eefb09b4b0fffddb4d365c1725288260e001518360000151604051611a29929190614bf8565b60405180910390a18160e0015173ffffffffffffffffffffffffffffffffffffffff163192505050919050565b611a5e613a70565b600080600090505b600780549050811015611e895760078181548110611a8757611a86614b09565b5b906000526020600020906009020160080160000160009054906101000a900460ff168015611b2857503373ffffffffffffffffffffffffffffffffffffffff1660078281548110611adb57611ada614b09565b5b906000526020600020906009020160080160000160019054906101000a900473ffffffffffffffffffffffffffffffffffffffff1673ffffffffffffffffffffffffffffffffffffffff16145b8015611b735750848051906020012060078281548110611b4b57611b4a614b09565b5b9060005260206000209060090201600001604051611b6991906149ce565b6040518091039020145b15611e765760078181548110611b8c57611b8b614b09565b5b9060005260206000209060090201818160405180610120016040529081600082018054611bb890614908565b80601f0160208091040260200160405190810160405280929190818152602001828054611be490614908565b8015611c315780601f10611c0657610100808354040283529160200191611c31565b820191906000526020600020905b815481529060010190602001808311611c1457829003601f168201915b5050505050815260200160018201548152602001600282015481526020016003820160009054906101000a900460ff1615151515815260200160048201805480602002602001604051908101604052809291908181526020018280548015611cee57602002820191906000526020600020905b8160009054906101000a900473ffffffffffffffffffffffffffffffffffffffff1673ffffffffffffffffffffffffffffffffffffffff1681526020019060010190808311611ca4575b5050505050815260200160058201805480602002602001604051908101604052809291908181526020018280548015611d7c57602002820191906000526020600020905b8160009054906101000a900473ffffffffffffffffffffffffffffffffffffffff1673ffffffffffffffffffffffffffffffffffffffff1681526020019060010190808311611d32575b50505050508152602001600682015481526020016007820160009054906101000a900473ffffffffffffffffffffffffffffffffffffffff1673ffffffffffffffffffffffffffffffffffffffff1673ffffffffffffffffffffffffffffffffffffffff168152602001600882016040518060400160405290816000820160009054906101000a900460ff161515151581526020016000820160019054906101000a900473ffffffffffffffffffffffffffffffffffffffff1673ffffffffffffffffffffffffffffffffffffffff1673ffffffffffffffffffffffffffffffffffffffff16815250508152505091509250925050611edc565b8080611e8190614b67565b915050611a66565b508215611ecb576040517f08c379a0000000000000000000000000000000000000000000000000000000008152600401611ec290614c74565b60405180910390fd5b611ed3613a70565b80600092509250505b9250929050565b611eeb613a70565b6040518060200160405280600081525080519060200120600460003373ffffffffffffffffffffffffffffffffffffffff1673ffffffffffffffffffffffffffffffffffffffff168152602001908152602001600020600001604051611f5191906149ce565b604051809103902014611f99576040517f08c379a0000000000000000000000000000000000000000000000000000000008152600401611f9090614ce0565b60405180910390fd5b68056bc75e2d631000008060008054906101000a900473ffffffffffffffffffffffffffffffffffffffff1673ffffffffffffffffffffffffffffffffffffffff1663dd62ed3e600160009054906101000a900473ffffffffffffffffffffffffffffffffffffffff16336040518363ffffffff1660e01b8152600401612021929190614d00565b60206040518083038186803b15801561203957600080fd5b505afa15801561204d573d6000803e3d6000fd5b505050506040513d601f19601f820116820180604052508101906120719190614d3e565b10156120b2576040517f08c379a00000000000000000000000000000000000000000000000000000000081526004016120a990614ddd565b60405180910390fd5b600160009054906101000a900473ffffffffffffffffffffffffffffffffffffffff1673ffffffffffffffffffffffffffffffffffffffff163373ffffffffffffffffffffffffffffffffffffffff161415612143576040517f08c379a000000000000000000000000000000000000000000000000000000000815260040161213a90614e49565b60405180910390fd5b6000600460003373ffffffffffffffffffffffffffffffffffffffff1673ffffffffffffffffffffffffffffffffffffffff16815260200190815260200160002090508481600001908051906020019061219e929190613ada565b50838160010181905550600660003373ffffffffffffffffffffffffffffffffffffffff1673ffffffffffffffffffffffffffffffffffffffff16815260200190815260200160002054816002018190555060008160030160006101000a81548160ff021916908315150217905550600067ffffffffffffffff8111156122285761222761403b565b5b6040519080825280602002602001820160405280156122565781602001602082028036833780820191505090505b5081600401908051906020019061226e929190613b60565b50600067ffffffffffffffff81111561228a5761228961403b565b5b6040519080825280602002602001820160405280156122b85781602001602082028036833780820191505090505b508160050190805190602001906122d0929190613b60565b504281600601819055506040518060400160405280600015158152602001600073ffffffffffffffffffffffffffffffffffffffff168152508160080160008201518160000160006101000a81548160ff02191690831515021790555060208201518160000160016101000a81548173ffffffffffffffffffffffffffffffffffffffff021916908373ffffffffffffffffffffffffffffffffffffffff160217905550905050338160070160006101000a81548173ffffffffffffffffffffffffffffffffffffffff021916908373ffffffffffffffffffffffffffffffffffffffff160217905550600081604051806101200160405290816000820180546123d990614908565b80601f016020809104026020016040519081016040528092919081815260200182805461240590614908565b80156124525780601f1061242757610100808354040283529160200191612452565b820191906000526020600020905b81548152906001019060200180831161243557829003601f168201915b5050505050815260200160018201548152602001600282015481526020016003820160009054906101000a900460ff161515151581526020016004820180548060200260200160405190810160405280929190818152602001828054801561250f57602002820191906000526020600020905b8160009054906101000a900473ffffffffffffffffffffffffffffffffffffffff1673ffffffffffffffffffffffffffffffffffffffff16815260200190600101908083116124c5575b505050505081526020016005820180548060200260200160405190810160405280929190818152602001828054801561259d57602002820191906000526020600020905b8160009054906101000a900473ffffffffffffffffffffffffffffffffffffffff1673ffffffffffffffffffffffffffffffffffffffff1681526020019060010190808311612553575b50505050508152602001600682015481526020016007820160009054906101000a900473ffffffffffffffffffffffffffffffffffffffff1673ffffffffffffffffffffffffffffffffffffffff1673ffffffffffffffffffffffffffffffffffffffff168152602001600882016040518060400160405290816000820160009054906101000a900460ff161515151581526020016000820160019054906101000a900473ffffffffffffffffffffffffffffffffffffffff1673ffffffffffffffffffffffffffffffffffffffff1673ffffffffffffffffffffffffffffffffffffffff1681525050815250509050600781908060018154018082558091505060019003906000526020600020906009020160009091909190915060008201518160000190805190602001906126d5929190613ada565b50602082015181600101556040820151816002015560608201518160030160006101000a81548160ff0219169083151502179055506080820151816004019080519060200190612726929190613b60565b5060a0820151816005019080519060200190612743929190613b60565b5060c0820151816006015560e08201518160070160006101000a81548173ffffffffffffffffffffffffffffffffffffffff021916908373ffffffffffffffffffffffffffffffffffffffff1602179055506101008201518160080160008201518160000160006101000a81548160ff02191690831515021790555060208201518160000160016101000a81548173ffffffffffffffffffffffffffffffffffffffff021916908373ffffffffffffffffffffffffffffffffffffffff1602179055505050505080935050505092915050565b6060600360003373ffffffffffffffffffffffffffffffffffffffff1673ffffffffffffffffffffffffffffffffffffffff168152602001908152602001600020805480602002602001604051908101604052809291908181526020016000905b828210156129695783829060005260206000209060040201604051806080016040529081600082015481526020016001820160009054906101000a900473ffffffffffffffffffffffffffffffffffffffff1673ffffffffffffffffffffffffffffffffffffffff1673ffffffffffffffffffffffffffffffffffffffff1681526020016002820160009054906101000a900473ffffffffffffffffffffffffffffffffffffffff1673ffffffffffffffffffffffffffffffffffffffff1673ffffffffffffffffffffffffffffffffffffffff16815260200160038201548152505081526020019060010190612877565b50505050905090565b808060008054906101000a900473ffffffffffffffffffffffffffffffffffffffff1673ffffffffffffffffffffffffffffffffffffffff166370a08231336040518263ffffffff1660e01b81526004016129cd9190614e69565b60206040518083038186803b1580156129e557600080fd5b505afa1580156129f9573d6000803e3d6000fd5b505050506040513d601f19601f82011682018060405250810190612a1d9190614d3e565b1015612a2857600080fd5b60008054906101000a900473ffffffffffffffffffffffffffffffffffffffff1673ffffffffffffffffffffffffffffffffffffffff1663a9059cbb84846040518363ffffffff1660e01b8152600401612a83929190614e84565b602060405180830381600087803b158015612a9d57600080fd5b505af1158015612ab1573d6000803e3d6000fd5b505050506040513d601f19601f82011682018060405250810190612ad59190614ec2565b50505050565b60008060009054906101000a900473ffffffffffffffffffffffffffffffffffffffff1673ffffffffffffffffffffffffffffffffffffffff166370a08231336040518263ffffffff1660e01b8152600401612b379190614e69565b60206040518083038186803b158015612b4f57600080fd5b505afa158015612b63573d6000803e3d6000fd5b505050506040513d601f19601f82011682018060405250810190612b879190614d3e565b905090565b6060600260003373ffffffffffffffffffffffffffffffffffffffff1673ffffffffffffffffffffffffffffffffffffffff168152602001908152602001600020805480602002602001604051908101604052809291908181526020016000905b82821015612cdf5783829060005260206000209060040201604051806080016040529081600082015481526020016001820160009054906101000a900473ffffffffffffffffffffffffffffffffffffffff1673ffffffffffffffffffffffffffffffffffffffff1673ffffffffffffffffffffffffffffffffffffffff1681526020016002820160009054906101000a900473ffffffffffffffffffffffffffffffffffffffff1673ffffffffffffffffffffffffffffffffffffffff1673ffffffffffffffffffffffffffffffffffffffff16815260200160038201548152505081526020019060010190612bed565b50505050905090565b6060600460003373ffffffffffffffffffffffffffffffffffffffff1673ffffffffffffffffffffffffffffffffffffffff168152602001908152602001600020600401805480602002602001604051908101604052809291908181526020018280548015612dac57602002820191906000526020600020905b8160009054906101000a900473ffffffffffffffffffffffffffffffffffffffff1673ffffffffffffffffffffffffffffffffffffffff1681526020019060010190808311612d62575b5050505050905090565b60008054906101000a900473ffffffffffffffffffffffffffffffffffffffff1681565b8015612f3e57600260003373ffffffffffffffffffffffffffffffffffffffff1673ffffffffffffffffffffffffffffffffffffffff16815260200190815260200160002060405180608001604052804281526020013373ffffffffffffffffffffffffffffffffffffffff1681526020018573ffffffffffffffffffffffffffffffffffffffff1681526020018481525090806001815401808255809150506001900390600052602060002090600402016000909190919091506000820151816000015560208201518160010160006101000a81548173ffffffffffffffffffffffffffffffffffffffff021916908373ffffffffffffffffffffffffffffffffffffffff16021790555060408201518160020160006101000a81548173ffffffffffffffffffffffffffffffffffffffff021916908373ffffffffffffffffffffffffffffffffffffffff160217905550606082015181600301555050613098565b600260003373ffffffffffffffffffffffffffffffffffffffff1673ffffffffffffffffffffffffffffffffffffffff16815260200190815260200160002060405180608001604052804281526020018573ffffffffffffffffffffffffffffffffffffffff1681526020013373ffffffffffffffffffffffffffffffffffffffff1681526020018481525090806001815401808255809150506001900390600052602060002090600402016000909190919091506000820151816000015560208201518160010160006101000a81548173ffffffffffffffffffffffffffffffffffffffff021916908373ffffffffffffffffffffffffffffffffffffffff16021790555060408201518160020160006101000a81548173ffffffffffffffffffffffffffffffffffffffff021916908373ffffffffffffffffffffffffffffffffffffffff1602179055506060820151816003015550505b505050565b801561320157600360008573ffffffffffffffffffffffffffffffffffffffff1673ffffffffffffffffffffffffffffffffffffffff16815260200190815260200160002060405180608001604052804281526020018673ffffffffffffffffffffffffffffffffffffffff1681526020018573ffffffffffffffffffffffffffffffffffffffff1681526020018481525090806001815401808255809150506001900390600052602060002090600402016000909190919091506000820151816000015560208201518160010160006101000a81548173ffffffffffffffffffffffffffffffffffffffff021916908373ffffffffffffffffffffffffffffffffffffffff16021790555060408201518160020160006101000a81548173ffffffffffffffffffffffffffffffffffffffff021916908373ffffffffffffffffffffffffffffffffffffffff16021790555060608201518160030155505061335b565b600360008573ffffffffffffffffffffffffffffffffffffffff1673ffffffffffffffffffffffffffffffffffffffff16815260200190815260200160002060405180608001604052804281526020018573ffffffffffffffffffffffffffffffffffffffff1681526020018673ffffffffffffffffffffffffffffffffffffffff1681526020018481525090806001815401808255809150506001900390600052602060002090600402016000909190919091506000820151816000015560208201518160010160006101000a81548173ffffffffffffffffffffffffffffffffffffffff021916908373ffffffffffffffffffffffffffffffffffffffff16021790555060408201518160020160006101000a81548173ffffffffffffffffffffffffffffffffffffffff021916908373ffffffffffffffffffffffffffffffffffffffff1602179055506060820151816003015550505b50505050565b613369613a70565b82600080613378836000611a56565b915091506040518060200160405280600081525080519060200120826000015180519060200120146133df576040517f08c379a00000000000000000000000000000000000000000000000000000000081526004016133d690614f3b565b60405180910390fd5b6000600560003373ffffffffffffffffffffffffffffffffffffffff1673ffffffffffffffffffffffffffffffffffffffff16815260200190815260200160002090508681600001908051906020019061343a929190613ada565b50858160010181905550600660003373ffffffffffffffffffffffffffffffffffffffff1673ffffffffffffffffffffffffffffffffffffffff16815260200190815260200160002054816002018190555060018160030160006101000a81548160ff021916908315150217905550600067ffffffffffffffff8111156134c4576134c361403b565b5b6040519080825280602002602001820160405280156134f25781602001602082028036833780820191505090505b5081600401908051906020019061350a929190613b60565b50600067ffffffffffffffff8111156135265761352561403b565b5b6040519080825280602002602001820160405280156135545781602001602082028036833780820191505090505b5081600501908051906020019061356c929190613b60565b5042816006018190555060405180604001604052806001151581526020013373ffffffffffffffffffffffffffffffffffffffff168152508160080160008201518160000160006101000a81548160ff02191690831515021790555060208201518160000160016101000a81548173ffffffffffffffffffffffffffffffffffffffff021916908373ffffffffffffffffffffffffffffffffffffffff1602179055509050506000816040518061012001604052908160008201805461363190614908565b80601f016020809104026020016040519081016040528092919081815260200182805461365d90614908565b80156136aa5780601f1061367f576101008083540402835291602001916136aa565b820191906000526020600020905b81548152906001019060200180831161368d57829003601f168201915b5050505050815260200160018201548152602001600282015481526020016003820160009054906101000a900460ff161515151581526020016004820180548060200260200160405190810160405280929190818152602001828054801561376757602002820191906000526020600020905b8160009054906101000a900473ffffffffffffffffffffffffffffffffffffffff1673ffffffffffffffffffffffffffffffffffffffff168152602001906001019080831161371d575b50505050508152602001600582018054806020026020016040519081016040528092919081815260200182805480156137f557602002820191906000526020600020905b8160009054906101000a900473ffffffffffffffffffffffffffffffffffffffff1673ffffffffffffffffffffffffffffffffffffffff16815260200190600101908083116137ab575b50505050508152602001600682015481526020016007820160009054906101000a900473ffffffffffffffffffffffffffffffffffffffff1673ffffffffffffffffffffffffffffffffffffffff1673ffffffffffffffffffffffffffffffffffffffff168152602001600882016040518060400160405290816000820160009054906101000a900460ff161515151581526020016000820160019054906101000a900473ffffffffffffffffffffffffffffffffffffffff1673ffffffffffffffffffffffffffffffffffffffff1673ffffffffffffffffffffffffffffffffffffffff16815250508152505090506007819080600181540180825580915050600190039060005260206000209060090201600090919091909150600082015181600001908051906020019061392d929190613ada565b50602082015181600101556040820151816002015560608201518160030160006101000a81548160ff021916908315150217905550608082015181600401908051906020019061397e929190613b60565b5060a082015181600501908051906020019061399b929190613b60565b5060c0820151816006015560e08201518160070160006101000a81548173ffffffffffffffffffffffffffffffffffffffff021916908373ffffffffffffffffffffffffffffffffffffffff1602179055506101008201518160080160008201518160000160006101000a81548160ff02191690831515021790555060208201518160000160016101000a81548173ffffffffffffffffffffffffffffffffffffffff021916908373ffffffffffffffffffffffffffffffffffffffff16021790555050505050809550505050505092915050565b604051806101200160405280606081526020016000815260200160008152602001600015158152602001606081526020016060815260200160008152602001600073ffffffffffffffffffffffffffffffffffffffff168152602001613ad4613bea565b81525090565b828054613ae690614908565b90600052602060002090601f016020900481019282613b085760008555613b4f565b82601f10613b2157805160ff1916838001178555613b4f565b82800160010185558215613b4f579182015b82811115613b4e578251825591602001919060010190613b33565b5b509050613b5c9190613c1c565b5090565b828054828255906000526020600020908101928215613bd9579160200282015b82811115613bd85782518260006101000a81548173ffffffffffffffffffffffffffffffffffffffff021916908373ffffffffffffffffffffffffffffffffffffffff16021790555091602001919060010190613b80565b5b509050613be69190613c1c565b5090565b6040518060400160405280600015158152602001600073ffffffffffffffffffffffffffffffffffffffff1681525090565b5b80821115613c35576000816000905550600101613c1d565b5090565b6000604051905090565b600080fd5b600080fd5b600073ffffffffffffffffffffffffffffffffffffffff82169050919050565b6000613c7882613c4d565b9050919050565b613c8881613c6d565b8114613c9357600080fd5b50565b600081359050613ca581613c7f565b92915050565b6000819050919050565b613cbe81613cab565b8114613cc957600080fd5b50565b600081359050613cdb81613cb5565b92915050565b60008060408385031215613cf857613cf7613c43565b5b6000613d0685828601613c96565b9250506020613d1785828601613ccc565b9150509250929050565b6000613d2c82613c4d565b9050919050565b613d3c81613d21565b8114613d4757600080fd5b50565b600081359050613d5981613d33565b92915050565b600060208284031215613d7557613d74613c43565b5b6000613d8384828501613d4a565b91505092915050565b600081519050919050565b600082825260208201905092915050565b60005b83811015613dc6578082015181840152602081019050613dab565b83811115613dd5576000848401525b50505050565b6000601f19601f8301169050919050565b6000613df782613d8c565b613e018185613d97565b9350613e11818560208601613da8565b613e1a81613ddb565b840191505092915050565b613e2e81613cab565b82525050565b60008115159050919050565b613e4981613e34565b82525050565b600081519050919050565b600082825260208201905092915050565b6000819050602082019050919050565b613e8481613d21565b82525050565b6000613e968383613e7b565b60208301905092915050565b6000602082019050919050565b6000613eba82613e4f565b613ec48185613e5a565b9350613ecf83613e6b565b8060005b83811015613f00578151613ee78882613e8a565b9750613ef283613ea2565b925050600181019050613ed3565b5085935050505092915050565b604082016000820151613f236000850182613e40565b506020820151613f366020850182613e7b565b50505050565b6000610140830160008301518482036000860152613f5a8282613dec565b9150506020830151613f6f6020860182613e25565b506040830151613f826040860182613e25565b506060830151613f956060860182613e40565b5060808301518482036080860152613fad8282613eaf565b91505060a083015184820360a0860152613fc78282613eaf565b91505060c0830151613fdc60c0860182613e25565b5060e0830151613fef60e0860182613e7b565b50610100830151614004610100860182613f0d565b508091505092915050565b600060208201905081810360008301526140298184613f3c565b905092915050565b600080fd5b600080fd5b7f4e487b7100000000000000000000000000000000000000000000000000000000600052604160045260246000fd5b61407382613ddb565b810181811067ffffffffffffffff821117156140925761409161403b565b5b80604052505050565b60006140a5613c39565b90506140b1828261406a565b919050565b600067ffffffffffffffff8211156140d1576140d061403b565b5b6140da82613ddb565b9050602081019050919050565b82818337600083830152505050565b6000614109614104846140b6565b61409b565b90508281526020810184848401111561412557614124614036565b5b6141308482856140e7565b509392505050565b600082601f83011261414d5761414c614031565b5b813561415d8482602086016140f6565b91505092915050565b60008060006060848603121561417f5761417e613c43565b5b600084013567ffffffffffffffff81111561419d5761419c613c48565b5b6141a986828701614138565b93505060206141ba86828701613ccc565b92505060406141cb86828701613d4a565b9150509250925092565b600081519050919050565b600082825260208201905092915050565b6000819050602082019050919050565b600061014083016000830151848203600086015261421f8282613dec565b91505060208301516142346020860182613e25565b5060408301516142476040860182613e25565b50606083015161425a6060860182613e40565b50608083015184820360808601526142728282613eaf565b91505060a083015184820360a086015261428c8282613eaf565b91505060c08301516142a160c0860182613e25565b5060e08301516142b460e0860182613e7b565b506101008301516142c9610100860182613f0d565b508091505092915050565b60006142e08383614201565b905092915050565b6000602082019050919050565b6000614300826141d5565b61430a81856141e0565b93508360208202850161431c856141f1565b8060005b85811015614358578484038952815161433985826142d4565b9450614344836142e8565b925060208a01995050600181019050614320565b50829750879550505050505092915050565b6000602082019050818103600083015261438481846142f5565b905092915050565b61439581613cab565b82525050565b60006020820190506143b0600083018461438c565b92915050565b6000602082840312156143cc576143cb613c43565b5b600082013567ffffffffffffffff8111156143ea576143e9613c48565b5b6143f684828501614138565b91505092915050565b61440881613e34565b811461441357600080fd5b50565b600081359050614425816143ff565b92915050565b6000806040838503121561444257614441613c43565b5b600083013567ffffffffffffffff8111156144605761445f613c48565b5b61446c85828601614138565b925050602061447d85828601614416565b9150509250929050565b600060408201905081810360008301526144a18185613f3c565b90506144b0602083018461438c565b9392505050565b600080604083850312156144ce576144cd613c43565b5b600083013567ffffffffffffffff8111156144ec576144eb613c48565b5b6144f885828601614138565b925050602061450985828601613ccc565b9150509250929050565b600081519050919050565b600082825260208201905092915050565b6000819050602082019050919050565b6080820160008201516145556000850182613e25565b5060208201516145686020850182613e7b565b50604082015161457b6040850182613e7b565b50606082015161458e6060850182613e25565b50505050565b60006145a0838361453f565b60808301905092915050565b6000602082019050919050565b60006145c482614513565b6145ce818561451e565b93506145d98361452f565b8060005b8381101561460a5781516145f18882614594565b97506145fc836145ac565b9250506001810190506145dd565b5085935050505092915050565b6000602082019050818103600083015261463181846145b9565b905092915050565b600080604083850312156146505761464f613c43565b5b600061465e85828601613d4a565b925050602061466f85828601613ccc565b9150509250929050565b600082825260208201905092915050565b600061469582613e4f565b61469f8185614679565b93506146aa83613e6b565b8060005b838110156146db5781516146c28882613e8a565b97506146cd83613ea2565b9250506001810190506146ae565b5085935050505092915050565b60006020820190508181036000830152614702818461468a565b905092915050565b6000819050919050565b600061472f61472a61472584613c4d565b61470a565b613c4d565b9050919050565b600061474182614714565b9050919050565b600061475382614736565b9050919050565b61476381614748565b82525050565b600060208201905061477e600083018461475a565b92915050565b600082825260208201905092915050565b7f596f752776652061206c696d69746564206163636f756e74202c20796f75277260008201527f65206e6f7420616e206164756c74000000000000000000000000000000000000602082015250565b60006147f1602e83614784565b91506147fc82614795565b604082019050919050565b60006020820190508181036000830152614820816147e4565b9050919050565b600081905092915050565b50565b6000614842600083614827565b915061484d82614832565b600082019050919050565b600061486382614835565b9150819050919050565b7f4661696c656420746f2073656e64204574686572000000000000000000000000600082015250565b60006148a3601483614784565b91506148ae8261486d565b602082019050919050565b600060208201905081810360008301526148d281614896565b9050919050565b7f4e487b7100000000000000000000000000000000000000000000000000000000600052602260045260246000fd5b6000600282049050600182168061492057607f821691505b60208210811415614934576149336148d9565b5b50919050565b60008190508160005260206000209050919050565b6000815461495c81614908565b6149668186614827565b945060018216600081146149815760018114614992576149c5565b60ff198316865281860193506149c5565b61499b8561493a565b60005b838110156149bd5781548189015260018201915060208101905061499e565b838801955050505b50505092915050565b60006149da828461494f565b915081905092915050565b7f596f7520616c72656164792068617665206e6f7420616e206163636f756e742060008201527f286368696c642900000000000000000000000000000000000000000000000000602082015250565b6000614a41602783614784565b9150614a4c826149e5565b604082019050919050565b60006020820190508181036000830152614a7081614a34565b9050919050565b7f596f7520616c7265616479206861766520616e206163636f756e74202863686960008201527f6c64290000000000000000000000000000000000000000000000000000000000602082015250565b6000614ad3602383614784565b9150614ade82614a77565b604082019050919050565b60006020820190508181036000830152614b0281614ac6565b9050919050565b7f4e487b7100000000000000000000000000000000000000000000000000000000600052603260045260246000fd5b7f4e487b7100000000000000000000000000000000000000000000000000000000600052601160045260246000fd5b6000614b7282613cab565b91507fffffffffffffffffffffffffffffffffffffffffffffffffffffffffffffffff821415614ba557614ba4614b38565b5b600182019050919050565b614bb981613d21565b82525050565b6000614bca82613d8c565b614bd48185614784565b9350614be4818560208601613da8565b614bed81613ddb565b840191505092915050565b6000604082019050614c0d6000830185614bb0565b8181036020830152614c1f8184614bbf565b90509392505050565b7f546865206368696c6420646964206e6f7420666f756e64000000000000000000600082015250565b6000614c5e601783614784565b9150614c6982614c28565b602082019050919050565b60006020820190508181036000830152614c8d81614c51565b9050919050565b7f596f7520616c7265616479206861766520616e206163636f756e740000000000600082015250565b6000614cca601b83614784565b9150614cd582614c94565b602082019050919050565b60006020820190508181036000830152614cf981614cbd565b9050919050565b6000604082019050614d156000830185614bb0565b614d226020830184614bb0565b9392505050565b600081519050614d3881613cb5565b92915050565b600060208284031215614d5457614d53613c43565b5b6000614d6284828501614d29565b91505092915050565b7f616c6c6f77616e6365206572726f72202c206f776e65722073686f756c64206960008201527f6e63726561736520796f757220616c6c6f77616e636500000000000000000000602082015250565b6000614dc7603683614784565b9150614dd282614d6b565b604082019050919050565b60006020820190508181036000830152614df681614dba565b9050919050565b7f596f752772652061646d696e2021212100000000000000000000000000000000600082015250565b6000614e33601083614784565b9150614e3e82614dfd565b602082019050919050565b60006020820190508181036000830152614e6281614e26565b9050919050565b6000602082019050614e7e6000830184614bb0565b92915050565b6000604082019050614e996000830185614bb0565b614ea6602083018461438c565b9392505050565b600081519050614ebc816143ff565b92915050565b600060208284031215614ed857614ed7613c43565b5b6000614ee684828501614ead565b91505092915050565b7f4368696c64206e616d6520616c72656164792065786973740000000000000000600082015250565b6000614f25601883614784565b9150614f3082614eef565b602082019050919050565b60006020820190508181036000830152614f5481614f18565b905091905056fea2646970667358221220010fb10b40a18d9e9d3d9ee52aec376e0be550a648ef0290aeca586d289d8ba264736f6c63430008090033",
  "linkReferences": {},
  "deployedLinkReferences": {}
}