{
  "_format": "hh-sol-artifact-1",
  "contractName": "NewContract",
  "sourceName": "contracts/Banking.sol",
  "abi": [
    {
      "inputs": [
        {
          "internalType": "address",
          "name": "_token",
          "type": "address"
        }
      ],
      "stateMutability": "payable",
      "type": "constructor"
    },
    {
      "anonymous": false,
      "inputs": [
        {
          "indexed": false,
          "internalType": "address",
          "name": "owner",
          "type": "address"
        },
        {
          "indexed": false,
          "internalType": "string",
          "name": "child",
          "type": "string"
        }
      ],
      "name": "BalanceGot",
      "type": "event"
    },
    {
      "anonymous": false,
      "inputs": [
        {
          "indexed": false,
          "internalType": "address",
          "name": "from",
          "type": "address"
        },
        {
          "indexed": false,
          "internalType": "address",
          "name": "to",
          "type": "address"
        },
        {
          "indexed": false,
          "internalType": "uint256",
          "name": "amount",
          "type": "uint256"
        }
      ],
      "name": "InheritumSent",
      "type": "event"
    },
    {
      "anonymous": false,
      "inputs": [
        {
          "indexed": false,
          "internalType": "address",
          "name": "from",
          "type": "address"
        },
        {
          "indexed": false,
          "internalType": "address",
          "name": "to",
          "type": "address"
        },
        {
          "indexed": false,
          "internalType": "string",
          "name": "childName",
          "type": "string"
        },
        {
          "indexed": false,
          "internalType": "uint256",
          "name": "amount",
          "type": "uint256"
        }
      ],
      "name": "SentMoney",
      "type": "event"
    },
    {
      "anonymous": false,
      "inputs": [
        {
          "indexed": false,
          "internalType": "address",
          "name": "recipient",
          "type": "address"
        },
        {
          "indexed": false,
          "internalType": "uint256",
          "name": "amount",
          "type": "uint256"
        }
      ],
      "name": "allowanceTest",
      "type": "event"
    },
    {
      "inputs": [
        {
          "internalType": "string",
          "name": "_name",
          "type": "string"
        },
        {
          "internalType": "uint256",
          "name": "_age",
          "type": "uint256"
        },
        {
          "internalType": "address",
          "name": "childAccount",
          "type": "address"
        }
      ],
      "name": "addAndLinkChild",
      "outputs": [
        {
          "components": [
            {
              "internalType": "string",
              "name": "name",
              "type": "string"
            },
            {
              "internalType": "uint256",
              "name": "age",
              "type": "uint256"
            },
            {
              "internalType": "uint256",
              "name": "balance",
              "type": "uint256"
            },
            {
              "internalType": "bool",
              "name": "isLimited",
              "type": "bool"
            },
            {
              "internalType": "address[]",
              "name": "child",
              "type": "address[]"
            },
            {
              "internalType": "address[]",
              "name": "parent",
              "type": "address[]"
            },
            {
              "internalType": "uint256",
              "name": "createdTime",
              "type": "uint256"
            },
            {
              "internalType": "address",
              "name": "myAddress",
              "type": "address"
            },
            {
              "components": [
                {
                  "internalType": "bool",
                  "name": "have",
                  "type": "bool"
                },
                {
                  "internalType": "address",
                  "name": "parent",
                  "type": "address"
                }
              ],
              "internalType": "struct NewContract.HaveParent",
              "name": "parentInfo",
              "type": "tuple"
            }
          ],
          "internalType": "struct NewContract.Person",
          "name": "",
          "type": "tuple"
        }
      ],
      "stateMutability": "nonpayable",
      "type": "function"
    },
    {
      "inputs": [
        {
          "internalType": "string",
          "name": "_name",
          "type": "string"
        },
        {
          "internalType": "uint256",
          "name": "_age",
          "type": "uint256"
        }
      ],
      "name": "addPerson",
      "outputs": [
        {
          "components": [
            {
              "internalType": "string",
              "name": "name",
              "type": "string"
            },
            {
              "internalType": "uint256",
              "name": "age",
              "type": "uint256"
            },
            {
              "internalType": "uint256",
              "name": "balance",
              "type": "uint256"
            },
            {
              "internalType": "bool",
              "name": "isLimited",
              "type": "bool"
            },
            {
              "internalType": "address[]",
              "name": "child",
              "type": "address[]"
            },
            {
              "internalType": "address[]",
              "name": "parent",
              "type": "address[]"
            },
            {
              "internalType": "uint256",
              "name": "createdTime",
              "type": "uint256"
            },
            {
              "internalType": "address",
              "name": "myAddress",
              "type": "address"
            },
            {
              "components": [
                {
                  "internalType": "bool",
                  "name": "have",
                  "type": "bool"
                },
                {
                  "internalType": "address",
                  "name": "parent",
                  "type": "address"
                }
              ],
              "internalType": "struct NewContract.HaveParent",
              "name": "parentInfo",
              "type": "tuple"
            }
          ],
          "internalType": "struct NewContract.Person",
          "name": "",
          "type": "tuple"
        }
      ],
      "stateMutability": "nonpayable",
      "type": "function"
    },
    {
      "inputs": [
        {
          "internalType": "string",
          "name": "_name",
          "type": "string"
        },
        {
          "internalType": "bool",
          "name": "returnErr",
          "type": "bool"
        }
      ],
      "name": "findTheChild",
      "outputs": [
        {
          "components": [
            {
              "internalType": "string",
              "name": "name",
              "type": "string"
            },
            {
              "internalType": "uint256",
              "name": "age",
              "type": "uint256"
            },
            {
              "internalType": "uint256",
              "name": "balance",
              "type": "uint256"
            },
            {
              "internalType": "bool",
              "name": "isLimited",
              "type": "bool"
            },
            {
              "internalType": "address[]",
              "name": "child",
              "type": "address[]"
            },
            {
              "internalType": "address[]",
              "name": "parent",
              "type": "address[]"
            },
            {
              "internalType": "uint256",
              "name": "createdTime",
              "type": "uint256"
            },
            {
              "internalType": "address",
              "name": "myAddress",
              "type": "address"
            },
            {
              "components": [
                {
                  "internalType": "bool",
                  "name": "have",
                  "type": "bool"
                },
                {
                  "internalType": "address",
                  "name": "parent",
                  "type": "address"
                }
              ],
              "internalType": "struct NewContract.HaveParent",
              "name": "parentInfo",
              "type": "tuple"
            }
          ],
          "internalType": "struct NewContract.Person",
          "name": "",
          "type": "tuple"
        },
        {
          "internalType": "uint256",
          "name": "index",
          "type": "uint256"
        }
      ],
      "stateMutability": "view",
      "type": "function"
    },
    {
      "inputs": [],
      "name": "getBalanceOfInheritumToken",
      "outputs": [
        {
          "internalType": "uint256",
          "name": "",
          "type": "uint256"
        }
      ],
      "stateMutability": "view",
      "type": "function"
    },
    {
      "inputs": [
        {
          "internalType": "address",
          "name": "childAddr",
          "type": "address"
        }
      ],
      "name": "getChildByAddress",
      "outputs": [
        {
          "components": [
            {
              "internalType": "string",
              "name": "name",
              "type": "string"
            },
            {
              "internalType": "uint256",
              "name": "age",
              "type": "uint256"
            },
            {
              "internalType": "uint256",
              "name": "balance",
              "type": "uint256"
            },
            {
              "internalType": "bool",
              "name": "isLimited",
              "type": "bool"
            },
            {
              "internalType": "address[]",
              "name": "child",
              "type": "address[]"
            },
            {
              "internalType": "address[]",
              "name": "parent",
              "type": "address[]"
            },
            {
              "internalType": "uint256",
              "name": "createdTime",
              "type": "uint256"
            },
            {
              "internalType": "address",
              "name": "myAddress",
              "type": "address"
            },
            {
              "components": [
                {
                  "internalType": "bool",
                  "name": "have",
                  "type": "bool"
                },
                {
                  "internalType": "address",
                  "name": "parent",
                  "type": "address"
                }
              ],
              "internalType": "struct NewContract.HaveParent",
              "name": "parentInfo",
              "type": "tuple"
            }
          ],
          "internalType": "struct NewContract.Person",
          "name": "",
          "type": "tuple"
        }
      ],
      "stateMutability": "view",
      "type": "function"
    },
    {
      "inputs": [],
      "name": "getChildren",
      "outputs": [
        {
          "components": [
            {
              "internalType": "string",
              "name": "name",
              "type": "string"
            },
            {
              "internalType": "uint256",
              "name": "age",
              "type": "uint256"
            },
            {
              "internalType": "uint256",
              "name": "balance",
              "type": "uint256"
            },
            {
              "internalType": "bool",
              "name": "isLimited",
              "type": "bool"
            },
            {
              "internalType": "address[]",
              "name": "child",
              "type": "address[]"
            },
            {
              "internalType": "address[]",
              "name": "parent",
              "type": "address[]"
            },
            {
              "internalType": "uint256",
              "name": "createdTime",
              "type": "uint256"
            },
            {
              "internalType": "address",
              "name": "myAddress",
              "type": "address"
            },
            {
              "components": [
                {
                  "internalType": "bool",
                  "name": "have",
                  "type": "bool"
                },
                {
                  "internalType": "address",
                  "name": "parent",
                  "type": "address"
                }
              ],
              "internalType": "struct NewContract.HaveParent",
              "name": "parentInfo",
              "type": "tuple"
            }
          ],
          "internalType": "struct NewContract.Person[]",
          "name": "",
          "type": "tuple[]"
        }
      ],
      "stateMutability": "view",
      "type": "function"
    },
    {
      "inputs": [],
      "name": "getMyBalance",
      "outputs": [
        {
          "internalType": "uint256",
          "name": "",
          "type": "uint256"
        }
      ],
      "stateMutability": "view",
      "type": "function"
    },
    {
      "inputs": [],
      "name": "getMyChild",
      "outputs": [
        {
          "internalType": "address[]",
          "name": "",
          "type": "address[]"
        }
      ],
      "stateMutability": "view",
      "type": "function"
    },
    {
      "inputs": [
        {
          "internalType": "string",
          "name": "_name",
          "type": "string"
        }
      ],
      "name": "getMyChildBalance",
      "outputs": [
        {
          "internalType": "uint256",
          "name": "",
          "type": "uint256"
        }
      ],
      "stateMutability": "nonpayable",
      "type": "function"
    },
    {
      "inputs": [],
      "name": "getPersons",
      "outputs": [
        {
          "components": [
            {
              "internalType": "string",
              "name": "name",
              "type": "string"
            },
            {
              "internalType": "uint256",
              "name": "age",
              "type": "uint256"
            },
            {
              "internalType": "uint256",
              "name": "balance",
              "type": "uint256"
            },
            {
              "internalType": "bool",
              "name": "isLimited",
              "type": "bool"
            },
            {
              "internalType": "address[]",
              "name": "child",
              "type": "address[]"
            },
            {
              "internalType": "address[]",
              "name": "parent",
              "type": "address[]"
            },
            {
              "internalType": "uint256",
              "name": "createdTime",
              "type": "uint256"
            },
            {
              "internalType": "address",
              "name": "myAddress",
              "type": "address"
            },
            {
              "components": [
                {
                  "internalType": "bool",
                  "name": "have",
                  "type": "bool"
                },
                {
                  "internalType": "address",
                  "name": "parent",
                  "type": "address"
                }
              ],
              "internalType": "struct NewContract.HaveParent",
              "name": "parentInfo",
              "type": "tuple"
            }
          ],
          "internalType": "struct NewContract.Person[]",
          "name": "",
          "type": "tuple[]"
        }
      ],
      "stateMutability": "view",
      "type": "function"
    },
    {
      "inputs": [],
      "name": "getTranscationHistory",
      "outputs": [
        {
          "components": [
            {
              "internalType": "uint256",
              "name": "timestamp",
              "type": "uint256"
            },
            {
              "internalType": "address",
              "name": "sender",
              "type": "address"
            },
            {
              "internalType": "address",
              "name": "receiver",
              "type": "address"
            },
            {
              "internalType": "uint256",
              "name": "amount",
              "type": "uint256"
            }
          ],
          "internalType": "struct NewContract.Transaction[]",
          "name": "",
          "type": "tuple[]"
        }
      ],
      "stateMutability": "view",
      "type": "function"
    },
    {
      "inputs": [],
      "name": "getTranscationHistoryForChild",
      "outputs": [
        {
          "components": [
            {
              "internalType": "uint256",
              "name": "timestamp",
              "type": "uint256"
            },
            {
              "internalType": "address",
              "name": "sender",
              "type": "address"
            },
            {
              "internalType": "address",
              "name": "receiver",
              "type": "address"
            },
            {
              "internalType": "uint256",
              "name": "amount",
              "type": "uint256"
            }
          ],
          "internalType": "struct NewContract.Transaction[]",
          "name": "",
          "type": "tuple[]"
        }
      ],
      "stateMutability": "view",
      "type": "function"
    },
    {
      "inputs": [
        {
          "internalType": "address payable",
          "name": "_to",
          "type": "address"
        },
        {
          "internalType": "uint256",
          "name": "amount",
          "type": "uint256"
        }
      ],
      "name": "sendEtherMyChild",
      "outputs": [],
      "stateMutability": "payable",
      "type": "function"
    },
    {
      "inputs": [
        {
          "internalType": "address",
          "name": "_to",
          "type": "address"
        },
        {
          "internalType": "uint256",
          "name": "_amount",
          "type": "uint256"
        }
      ],
      "name": "sendTokenToChild",
      "outputs": [],
      "stateMutability": "nonpayable",
      "type": "function"
    },
    {
      "inputs": [],
      "name": "token",
      "outputs": [
        {
          "internalType": "contract IERC20",
          "name": "",
          "type": "address"
        }
      ],
      "stateMutability": "view",
      "type": "function"
    }
  ],
  "bytecode": "0x6080604052735b38da6a701c568545dcfcb03fcb875f56beddc4600160006101000a81548173ffffffffffffffffffffffffffffffffffffffff021916908373ffffffffffffffffffffffffffffffffffffffff1602179055506040516200519a3803806200519a83398181016040528101906200007e91906200012f565b806000806101000a81548173ffffffffffffffffffffffffffffffffffffffff021916908373ffffffffffffffffffffffffffffffffffffffff1602179055505062000161565b600080fd5b600073ffffffffffffffffffffffffffffffffffffffff82169050919050565b6000620000f782620000ca565b9050919050565b6200010981620000ea565b81146200011557600080fd5b50565b6000815190506200012981620000fe565b92915050565b600060208284031215620001485762000147620000c5565b5b6000620001588482850162000118565b91505092915050565b61502980620001716000396000f3fe6080604052600436106100e85760003560e01c80635412f1c91161008a578063c81cdec911610059578063c81cdec914610310578063dbc1a22b1461033b578063ee203fe614610366578063fc0c546a14610391576100e8565b80635412f1c9146102415780636f760f411461027f578063a6e4788c146102bc578063b42fbdfd146102e7576100e8565b80634892e8e8116100c65780634892e8e8146101835780634c6b6c6f146101ae5780634c738909146101d957806353a86c9414610204576100e8565b806307eb9a6d146100ed5780631079ed67146101095780633f8706ab14610146575b600080fd5b61010760048036038101906101029190613d79565b6103bc565b005b34801561011557600080fd5b50610130600480360381019061012b9190613df7565b6105fd565b60405161013d91906140a7565b60405180910390f35b34801561015257600080fd5b5061016d600480360381019061016891906141fe565b6109ca565b60405161017a91906140a7565b60405180910390f35b34801561018f57600080fd5b506101986111f7565b6040516101a59190614402565b60405180910390f35b3480156101ba57600080fd5b506101c361169b565b6040516101d09190614402565b60405180910390f35b3480156101e557600080fd5b506101ee6119bd565b6040516101fb9190614433565b60405180910390f35b34801561021057600080fd5b5061022b6004803603810190610226919061444e565b6119dc565b6040516102389190614433565b60405180910390f35b34801561024d57600080fd5b50610268600480360381019061026391906144c3565b611a56565b60405161027692919061451f565b60405180910390f35b34801561028b57600080fd5b506102a660048036038101906102a1919061454f565b611ee3565b6040516102b391906140a7565b60405180910390f35b3480156102c857600080fd5b506102d1612816565b6040516102de91906146af565b60405180910390f35b3480156102f357600080fd5b5061030e600480360381019061030991906146d1565b612972565b005b34801561031c57600080fd5b50610325612b73565b6040516103329190614433565b60405180910390f35b34801561034757600080fd5b50610350612c24565b60405161035d91906146af565b60405180910390f35b34801561037257600080fd5b5061037b612d80565b6040516103889190614780565b60405180910390f35b34801561039d57600080fd5b506103a6612e4e565b6040516103b39190614801565b60405180910390f35b600460003373ffffffffffffffffffffffffffffffffffffffff1673ffffffffffffffffffffffffffffffffffffffff16815260200190815260200160002060030160009054906101000a900460ff166000151581151514610453576040517f08c379a000000000000000000000000000000000000000000000000000000000815260040161044a9061489f565b60405180910390fd5b6000808473ffffffffffffffffffffffffffffffffffffffff168460405161047a906148f0565b60006040518083038185875af1925050503d80600081146104b7576040519150601f19603f3d011682016040523d82523d6000602084013e6104bc565b606091505b509150915081610501576040517f08c379a00000000000000000000000000000000000000000000000000000000081526004016104f890614951565b60405180910390fd5b6000600460003373ffffffffffffffffffffffffffffffffffffffff1673ffffffffffffffffffffffffffffffffffffffff1681526020019081526020016000206000016040516105529190614a66565b60405180910390201461057d5761056b85856001612e72565b6105788533866000613135565b6105f6565b6000600560003373ffffffffffffffffffffffffffffffffffffffff1673ffffffffffffffffffffffffffffffffffffffff1681526020019081526020016000206000016040516105ce9190614a66565b6040518091039020146105f5576105e785856000612e72565b6105f48533866001613135565b5b5b5050505050565b610605613b08565b816040518060200160405280600081525080519060200120600560008373ffffffffffffffffffffffffffffffffffffffff1673ffffffffffffffffffffffffffffffffffffffff16815260200190815260200160002060000160405161066c9190614a66565b604051809103902014156106b5576040517f08c379a00000000000000000000000000000000000000000000000000000000081526004016106ac90614aef565b60405180910390fd5b600560008473ffffffffffffffffffffffffffffffffffffffff1673ffffffffffffffffffffffffffffffffffffffff16815260200190815260200160002060405180610120016040529081600082018054610710906149a0565b80601f016020809104026020016040519081016040528092919081815260200182805461073c906149a0565b80156107895780601f1061075e57610100808354040283529160200191610789565b820191906000526020600020905b81548152906001019060200180831161076c57829003601f168201915b5050505050815260200160018201548152602001600282015481526020016003820160009054906101000a900460ff161515151581526020016004820180548060200260200160405190810160405280929190818152602001828054801561084657602002820191906000526020600020905b8160009054906101000a900473ffffffffffffffffffffffffffffffffffffffff1673ffffffffffffffffffffffffffffffffffffffff16815260200190600101908083116107fc575b50505050508152602001600582018054806020026020016040519081016040528092919081815260200182805480156108d457602002820191906000526020600020905b8160009054906101000a900473ffffffffffffffffffffffffffffffffffffffff1673ffffffffffffffffffffffffffffffffffffffff168152602001906001019080831161088a575b50505050508152602001600682015481526020016007820160009054906101000a900473ffffffffffffffffffffffffffffffffffffffff1673ffffffffffffffffffffffffffffffffffffffff1673ffffffffffffffffffffffffffffffffffffffff168152602001600882016040518060400160405290816000820160009054906101000a900460ff161515151581526020016000820160019054906101000a900473ffffffffffffffffffffffffffffffffffffffff1673ffffffffffffffffffffffffffffffffffffffff1673ffffffffffffffffffffffffffffffffffffffff168152505081525050915050919050565b6109d2613b08565b816040518060200160405280600081525080519060200120600560008373ffffffffffffffffffffffffffffffffffffffff1673ffffffffffffffffffffffffffffffffffffffff168152602001908152602001600020600001604051610a399190614a66565b604051809103902014610a81576040517f08c379a0000000000000000000000000000000000000000000000000000000008152600401610a7890614b81565b60405180910390fd5b610a8b85856133f9565b506000600460003373ffffffffffffffffffffffffffffffffffffffff1673ffffffffffffffffffffffffffffffffffffffff168152602001908152602001600020905080600401849080600181540180825580915050600190039060005260206000200160009091909190916101000a81548173ffffffffffffffffffffffffffffffffffffffff021916908373ffffffffffffffffffffffffffffffffffffffff160217905550600080610b42886001611a56565b915091508560078281548110610b5b57610b5a614ba1565b5b906000526020600020906009020160070160006101000a81548173ffffffffffffffffffffffffffffffffffffffff021916908373ffffffffffffffffffffffffffffffffffffffff16021790555081600560008873ffffffffffffffffffffffffffffffffffffffff1673ffffffffffffffffffffffffffffffffffffffff1681526020019081526020016000206000820151816000019080519060200190610c06929190613b72565b50602082015181600101556040820151816002015560608201518160030160006101000a81548160ff0219169083151502179055506080820151816004019080519060200190610c57929190613bf8565b5060a0820151816005019080519060200190610c74929190613bf8565b5060c0820151816006015560e08201518160070160006101000a81548173ffffffffffffffffffffffffffffffffffffffff021916908373ffffffffffffffffffffffffffffffffffffffff1602179055506101008201518160080160008201518160000160006101000a81548160ff02191690831515021790555060208201518160000160016101000a81548173ffffffffffffffffffffffffffffffffffffffff021916908373ffffffffffffffffffffffffffffffffffffffff1602179055505050905050610d44613b08565b80600560003373ffffffffffffffffffffffffffffffffffffffff1673ffffffffffffffffffffffffffffffffffffffff1681526020019081526020016000206000820151816000019080519060200190610da0929190613b72565b50602082015181600101556040820151816002015560608201518160030160006101000a81548160ff0219169083151502179055506080820151816004019080519060200190610df1929190613bf8565b5060a0820151816005019080519060200190610e0e929190613bf8565b5060c0820151816006015560e08201518160070160006101000a81548173ffffffffffffffffffffffffffffffffffffffff021916908373ffffffffffffffffffffffffffffffffffffffff1602179055506101008201518160080160008201518160000160006101000a81548160ff02191690831515021790555060208201518160000160016101000a81548173ffffffffffffffffffffffffffffffffffffffff021916908373ffffffffffffffffffffffffffffffffffffffff16021790555050509050506000600460003373ffffffffffffffffffffffffffffffffffffffff1673ffffffffffffffffffffffffffffffffffffffff16815260200190815260200160002060405180610120016040529081600082018054610f33906149a0565b80601f0160208091040260200160405190810160405280929190818152602001828054610f5f906149a0565b8015610fac5780601f10610f8157610100808354040283529160200191610fac565b820191906000526020600020905b815481529060010190602001808311610f8f57829003601f168201915b5050505050815260200160018201548152602001600282015481526020016003820160009054906101000a900460ff161515151581526020016004820180548060200260200160405190810160405280929190818152602001828054801561106957602002820191906000526020600020905b8160009054906101000a900473ffffffffffffffffffffffffffffffffffffffff1673ffffffffffffffffffffffffffffffffffffffff168152602001906001019080831161101f575b50505050508152602001600582018054806020026020016040519081016040528092919081815260200182805480156110f757602002820191906000526020600020905b8160009054906101000a900473ffffffffffffffffffffffffffffffffffffffff1673ffffffffffffffffffffffffffffffffffffffff16815260200190600101908083116110ad575b50505050508152602001600682015481526020016007820160009054906101000a900473ffffffffffffffffffffffffffffffffffffffff1673ffffffffffffffffffffffffffffffffffffffff1673ffffffffffffffffffffffffffffffffffffffff168152602001600882016040518060400160405290816000820160009054906101000a900460ff161515151581526020016000820160019054906101000a900473ffffffffffffffffffffffffffffffffffffffff1673ffffffffffffffffffffffffffffffffffffffff1673ffffffffffffffffffffffffffffffffffffffff16815250508152505090508096505050505050509392505050565b6060600060078054905067ffffffffffffffff81111561121a576112196140d3565b5b60405190808252806020026020018201604052801561125357816020015b611240613b08565b8152602001906001900390816112385790505b5090506000805b600780549050811015611692576007818154811061127b5761127a614ba1565b5b906000526020600020906009020160030160009054906101000a900460ff1680156113185750600073ffffffffffffffffffffffffffffffffffffffff16600782815481106112cd576112cc614ba1565b5b906000526020600020906009020160070160009054906101000a900473ffffffffffffffffffffffffffffffffffffffff1673ffffffffffffffffffffffffffffffffffffffff1614155b801561135d5750600115156007828154811061133757611336614ba1565b5b906000526020600020906009020160080160000160009054906101000a900460ff161515145b1561167f576007818154811061137657611375614ba1565b5b9060005260206000209060090201604051806101200160405290816000820180546113a0906149a0565b80601f01602080910402602001604051908101604052809291908181526020018280546113cc906149a0565b80156114195780601f106113ee57610100808354040283529160200191611419565b820191906000526020600020905b8154815290600101906020018083116113fc57829003601f168201915b5050505050815260200160018201548152602001600282015481526020016003820160009054906101000a900460ff16151515158152602001600482018054806020026020016040519081016040528092919081815260200182805480156114d657602002820191906000526020600020905b8160009054906101000a900473ffffffffffffffffffffffffffffffffffffffff1673ffffffffffffffffffffffffffffffffffffffff168152602001906001019080831161148c575b505050505081526020016005820180548060200260200160405190810160405280929190818152602001828054801561156457602002820191906000526020600020905b8160009054906101000a900473ffffffffffffffffffffffffffffffffffffffff1673ffffffffffffffffffffffffffffffffffffffff168152602001906001019080831161151a575b50505050508152602001600682015481526020016007820160009054906101000a900473ffffffffffffffffffffffffffffffffffffffff1673ffffffffffffffffffffffffffffffffffffffff1673ffffffffffffffffffffffffffffffffffffffff168152602001600882016040518060400160405290816000820160009054906101000a900460ff161515151581526020016000820160019054906101000a900473ffffffffffffffffffffffffffffffffffffffff1673ffffffffffffffffffffffffffffffffffffffff1673ffffffffffffffffffffffffffffffffffffffff16815250508152505083838151811061166557611664614ba1565b5b6020026020010181905250818061167b90614bff565b9250505b808061168a90614bff565b91505061125a565b50819250505090565b60606007805480602002602001604051908101604052809291908181526020016000905b828210156119b45783829060005260206000209060090201604051806101200160405290816000820180546116f3906149a0565b80601f016020809104026020016040519081016040528092919081815260200182805461171f906149a0565b801561176c5780601f106117415761010080835404028352916020019161176c565b820191906000526020600020905b81548152906001019060200180831161174f57829003601f168201915b5050505050815260200160018201548152602001600282015481526020016003820160009054906101000a900460ff161515151581526020016004820180548060200260200160405190810160405280929190818152602001828054801561182957602002820191906000526020600020905b8160009054906101000a900473ffffffffffffffffffffffffffffffffffffffff1673ffffffffffffffffffffffffffffffffffffffff16815260200190600101908083116117df575b50505050508152602001600582018054806020026020016040519081016040528092919081815260200182805480156118b757602002820191906000526020600020905b8160009054906101000a900473ffffffffffffffffffffffffffffffffffffffff1673ffffffffffffffffffffffffffffffffffffffff168152602001906001019080831161186d575b50505050508152602001600682015481526020016007820160009054906101000a900473ffffffffffffffffffffffffffffffffffffffff1673ffffffffffffffffffffffffffffffffffffffff1673ffffffffffffffffffffffffffffffffffffffff168152602001600882016040518060400160405290816000820160009054906101000a900460ff161515151581526020016000820160019054906101000a900473ffffffffffffffffffffffffffffffffffffffff1673ffffffffffffffffffffffffffffffffffffffff1673ffffffffffffffffffffffffffffffffffffffff168152505081525050815260200190600101906116bf565b50505050905090565b60003373ffffffffffffffffffffffffffffffffffffffff1631905090565b60008060006119ec846001611a56565b915091507f43bffc0f95fb1b5cd921e2fa994fd3abf463eefb09b4b0fffddb4d365c1725288260e001518360000151604051611a29929190614c90565b60405180910390a18160e0015173ffffffffffffffffffffffffffffffffffffffff163192505050919050565b611a5e613b08565b600080600090505b600780549050811015611e895760078181548110611a8757611a86614ba1565b5b906000526020600020906009020160080160000160009054906101000a900460ff168015611b2857503373ffffffffffffffffffffffffffffffffffffffff1660078281548110611adb57611ada614ba1565b5b906000526020600020906009020160080160000160019054906101000a900473ffffffffffffffffffffffffffffffffffffffff1673ffffffffffffffffffffffffffffffffffffffff16145b8015611b735750848051906020012060078281548110611b4b57611b4a614ba1565b5b9060005260206000209060090201600001604051611b699190614a66565b6040518091039020145b15611e765760078181548110611b8c57611b8b614ba1565b5b9060005260206000209060090201818160405180610120016040529081600082018054611bb8906149a0565b80601f0160208091040260200160405190810160405280929190818152602001828054611be4906149a0565b8015611c315780601f10611c0657610100808354040283529160200191611c31565b820191906000526020600020905b815481529060010190602001808311611c1457829003601f168201915b5050505050815260200160018201548152602001600282015481526020016003820160009054906101000a900460ff1615151515815260200160048201805480602002602001604051908101604052809291908181526020018280548015611cee57602002820191906000526020600020905b8160009054906101000a900473ffffffffffffffffffffffffffffffffffffffff1673ffffffffffffffffffffffffffffffffffffffff1681526020019060010190808311611ca4575b5050505050815260200160058201805480602002602001604051908101604052809291908181526020018280548015611d7c57602002820191906000526020600020905b8160009054906101000a900473ffffffffffffffffffffffffffffffffffffffff1673ffffffffffffffffffffffffffffffffffffffff1681526020019060010190808311611d32575b50505050508152602001600682015481526020016007820160009054906101000a900473ffffffffffffffffffffffffffffffffffffffff1673ffffffffffffffffffffffffffffffffffffffff1673ffffffffffffffffffffffffffffffffffffffff168152602001600882016040518060400160405290816000820160009054906101000a900460ff161515151581526020016000820160019054906101000a900473ffffffffffffffffffffffffffffffffffffffff1673ffffffffffffffffffffffffffffffffffffffff1673ffffffffffffffffffffffffffffffffffffffff16815250508152505091509250925050611edc565b8080611e8190614bff565b915050611a66565b508215611ecb576040517f08c379a0000000000000000000000000000000000000000000000000000000008152600401611ec290614d0c565b60405180910390fd5b611ed3613b08565b80600092509250505b9250929050565b611eeb613b08565b6040518060200160405280600081525080519060200120600460003373ffffffffffffffffffffffffffffffffffffffff1673ffffffffffffffffffffffffffffffffffffffff168152602001908152602001600020600001604051611f519190614a66565b604051809103902014611f99576040517f08c379a0000000000000000000000000000000000000000000000000000000008152600401611f9090614d78565b60405180910390fd5b68056bc75e2d631000008060008054906101000a900473ffffffffffffffffffffffffffffffffffffffff1673ffffffffffffffffffffffffffffffffffffffff1663dd62ed3e600160009054906101000a900473ffffffffffffffffffffffffffffffffffffffff16336040518363ffffffff1660e01b8152600401612021929190614d98565b60206040518083038186803b15801561203957600080fd5b505afa15801561204d573d6000803e3d6000fd5b505050506040513d601f19601f820116820180604052508101906120719190614dd6565b10156120b2576040517f08c379a00000000000000000000000000000000000000000000000000000000081526004016120a990614e75565b60405180910390fd5b600160009054906101000a900473ffffffffffffffffffffffffffffffffffffffff1673ffffffffffffffffffffffffffffffffffffffff163373ffffffffffffffffffffffffffffffffffffffff161415612143576040517f08c379a000000000000000000000000000000000000000000000000000000000815260040161213a90614ee1565b60405180910390fd5b6000600460003373ffffffffffffffffffffffffffffffffffffffff1673ffffffffffffffffffffffffffffffffffffffff16815260200190815260200160002090508481600001908051906020019061219e929190613b72565b50838160010181905550600660003373ffffffffffffffffffffffffffffffffffffffff1673ffffffffffffffffffffffffffffffffffffffff16815260200190815260200160002054816002018190555060008160030160006101000a81548160ff021916908315150217905550600067ffffffffffffffff811115612228576122276140d3565b5b6040519080825280602002602001820160405280156122565781602001602082028036833780820191505090505b5081600401908051906020019061226e929190613bf8565b50600067ffffffffffffffff81111561228a576122896140d3565b5b6040519080825280602002602001820160405280156122b85781602001602082028036833780820191505090505b508160050190805190602001906122d0929190613bf8565b504281600601819055506040518060400160405280600015158152602001600073ffffffffffffffffffffffffffffffffffffffff168152508160080160008201518160000160006101000a81548160ff02191690831515021790555060208201518160000160016101000a81548173ffffffffffffffffffffffffffffffffffffffff021916908373ffffffffffffffffffffffffffffffffffffffff160217905550905050338160070160006101000a81548173ffffffffffffffffffffffffffffffffffffffff021916908373ffffffffffffffffffffffffffffffffffffffff160217905550600081604051806101200160405290816000820180546123d9906149a0565b80601f0160208091040260200160405190810160405280929190818152602001828054612405906149a0565b80156124525780601f1061242757610100808354040283529160200191612452565b820191906000526020600020905b81548152906001019060200180831161243557829003601f168201915b5050505050815260200160018201548152602001600282015481526020016003820160009054906101000a900460ff161515151581526020016004820180548060200260200160405190810160405280929190818152602001828054801561250f57602002820191906000526020600020905b8160009054906101000a900473ffffffffffffffffffffffffffffffffffffffff1673ffffffffffffffffffffffffffffffffffffffff16815260200190600101908083116124c5575b505050505081526020016005820180548060200260200160405190810160405280929190818152602001828054801561259d57602002820191906000526020600020905b8160009054906101000a900473ffffffffffffffffffffffffffffffffffffffff1673ffffffffffffffffffffffffffffffffffffffff1681526020019060010190808311612553575b50505050508152602001600682015481526020016007820160009054906101000a900473ffffffffffffffffffffffffffffffffffffffff1673ffffffffffffffffffffffffffffffffffffffff1673ffffffffffffffffffffffffffffffffffffffff168152602001600882016040518060400160405290816000820160009054906101000a900460ff161515151581526020016000820160019054906101000a900473ffffffffffffffffffffffffffffffffffffffff1673ffffffffffffffffffffffffffffffffffffffff1673ffffffffffffffffffffffffffffffffffffffff1681525050815250509050600781908060018154018082558091505060019003906000526020600020906009020160009091909190915060008201518160000190805190602001906126d5929190613b72565b50602082015181600101556040820151816002015560608201518160030160006101000a81548160ff0219169083151502179055506080820151816004019080519060200190612726929190613bf8565b5060a0820151816005019080519060200190612743929190613bf8565b5060c0820151816006015560e08201518160070160006101000a81548173ffffffffffffffffffffffffffffffffffffffff021916908373ffffffffffffffffffffffffffffffffffffffff1602179055506101008201518160080160008201518160000160006101000a81548160ff02191690831515021790555060208201518160000160016101000a81548173ffffffffffffffffffffffffffffffffffffffff021916908373ffffffffffffffffffffffffffffffffffffffff1602179055505050505080935050505092915050565b6060600360003373ffffffffffffffffffffffffffffffffffffffff1673ffffffffffffffffffffffffffffffffffffffff168152602001908152602001600020805480602002602001604051908101604052809291908181526020016000905b828210156129695783829060005260206000209060040201604051806080016040529081600082015481526020016001820160009054906101000a900473ffffffffffffffffffffffffffffffffffffffff1673ffffffffffffffffffffffffffffffffffffffff1673ffffffffffffffffffffffffffffffffffffffff1681526020016002820160009054906101000a900473ffffffffffffffffffffffffffffffffffffffff1673ffffffffffffffffffffffffffffffffffffffff1673ffffffffffffffffffffffffffffffffffffffff16815260200160038201548152505081526020019060010190612877565b50505050905090565b808060008054906101000a900473ffffffffffffffffffffffffffffffffffffffff1673ffffffffffffffffffffffffffffffffffffffff166370a08231336040518263ffffffff1660e01b81526004016129cd9190614f01565b60206040518083038186803b1580156129e557600080fd5b505afa1580156129f9573d6000803e3d6000fd5b505050506040513d601f19601f82011682018060405250810190612a1d9190614dd6565b1015612a2857600080fd5b600460003373ffffffffffffffffffffffffffffffffffffffff1673ffffffffffffffffffffffffffffffffffffffff16815260200190815260200160002060030160009054906101000a900460ff166000151581151514612abf576040517f08c379a0000000000000000000000000000000000000000000000000000000008152600401612ab69061489f565b60405180910390fd5b60008054906101000a900473ffffffffffffffffffffffffffffffffffffffff1673ffffffffffffffffffffffffffffffffffffffff1663a9059cbb85856040518363ffffffff1660e01b8152600401612b1a929190614f1c565b602060405180830381600087803b158015612b3457600080fd5b505af1158015612b48573d6000803e3d6000fd5b505050506040513d601f19601f82011682018060405250810190612b6c9190614f5a565b5050505050565b60008060009054906101000a900473ffffffffffffffffffffffffffffffffffffffff1673ffffffffffffffffffffffffffffffffffffffff166370a08231336040518263ffffffff1660e01b8152600401612bcf9190614f01565b60206040518083038186803b158015612be757600080fd5b505afa158015612bfb573d6000803e3d6000fd5b505050506040513d601f19601f82011682018060405250810190612c1f9190614dd6565b905090565b6060600260003373ffffffffffffffffffffffffffffffffffffffff1673ffffffffffffffffffffffffffffffffffffffff168152602001908152602001600020805480602002602001604051908101604052809291908181526020016000905b82821015612d775783829060005260206000209060040201604051806080016040529081600082015481526020016001820160009054906101000a900473ffffffffffffffffffffffffffffffffffffffff1673ffffffffffffffffffffffffffffffffffffffff1673ffffffffffffffffffffffffffffffffffffffff1681526020016002820160009054906101000a900473ffffffffffffffffffffffffffffffffffffffff1673ffffffffffffffffffffffffffffffffffffffff1673ffffffffffffffffffffffffffffffffffffffff16815260200160038201548152505081526020019060010190612c85565b50505050905090565b6060600460003373ffffffffffffffffffffffffffffffffffffffff1673ffffffffffffffffffffffffffffffffffffffff168152602001908152602001600020600401805480602002602001604051908101604052809291908181526020018280548015612e4457602002820191906000526020600020905b8160009054906101000a900473ffffffffffffffffffffffffffffffffffffffff1673ffffffffffffffffffffffffffffffffffffffff1681526020019060010190808311612dfa575b5050505050905090565b60008054906101000a900473ffffffffffffffffffffffffffffffffffffffff1681565b8015612fd657600260003373ffffffffffffffffffffffffffffffffffffffff1673ffffffffffffffffffffffffffffffffffffffff16815260200190815260200160002060405180608001604052804281526020013373ffffffffffffffffffffffffffffffffffffffff1681526020018573ffffffffffffffffffffffffffffffffffffffff1681526020018481525090806001815401808255809150506001900390600052602060002090600402016000909190919091506000820151816000015560208201518160010160006101000a81548173ffffffffffffffffffffffffffffffffffffffff021916908373ffffffffffffffffffffffffffffffffffffffff16021790555060408201518160020160006101000a81548173ffffffffffffffffffffffffffffffffffffffff021916908373ffffffffffffffffffffffffffffffffffffffff160217905550606082015181600301555050613130565b600260003373ffffffffffffffffffffffffffffffffffffffff1673ffffffffffffffffffffffffffffffffffffffff16815260200190815260200160002060405180608001604052804281526020018573ffffffffffffffffffffffffffffffffffffffff1681526020013373ffffffffffffffffffffffffffffffffffffffff1681526020018481525090806001815401808255809150506001900390600052602060002090600402016000909190919091506000820151816000015560208201518160010160006101000a81548173ffffffffffffffffffffffffffffffffffffffff021916908373ffffffffffffffffffffffffffffffffffffffff16021790555060408201518160020160006101000a81548173ffffffffffffffffffffffffffffffffffffffff021916908373ffffffffffffffffffffffffffffffffffffffff1602179055506060820151816003015550505b505050565b801561329957600360008573ffffffffffffffffffffffffffffffffffffffff1673ffffffffffffffffffffffffffffffffffffffff16815260200190815260200160002060405180608001604052804281526020018673ffffffffffffffffffffffffffffffffffffffff1681526020018573ffffffffffffffffffffffffffffffffffffffff1681526020018481525090806001815401808255809150506001900390600052602060002090600402016000909190919091506000820151816000015560208201518160010160006101000a81548173ffffffffffffffffffffffffffffffffffffffff021916908373ffffffffffffffffffffffffffffffffffffffff16021790555060408201518160020160006101000a81548173ffffffffffffffffffffffffffffffffffffffff021916908373ffffffffffffffffffffffffffffffffffffffff1602179055506060820151816003015550506133f3565b600360008573ffffffffffffffffffffffffffffffffffffffff1673ffffffffffffffffffffffffffffffffffffffff16815260200190815260200160002060405180608001604052804281526020018573ffffffffffffffffffffffffffffffffffffffff1681526020018673ffffffffffffffffffffffffffffffffffffffff1681526020018481525090806001815401808255809150506001900390600052602060002090600402016000909190919091506000820151816000015560208201518160010160006101000a81548173ffffffffffffffffffffffffffffffffffffffff021916908373ffffffffffffffffffffffffffffffffffffffff16021790555060408201518160020160006101000a81548173ffffffffffffffffffffffffffffffffffffffff021916908373ffffffffffffffffffffffffffffffffffffffff1602179055506060820151816003015550505b50505050565b613401613b08565b82600080613410836000611a56565b91509150604051806020016040528060008152508051906020012082600001518051906020012014613477576040517f08c379a000000000000000000000000000000000000000000000000000000000815260040161346e90614fd3565b60405180910390fd5b6000600560003373ffffffffffffffffffffffffffffffffffffffff1673ffffffffffffffffffffffffffffffffffffffff1681526020019081526020016000209050868160000190805190602001906134d2929190613b72565b50858160010181905550600660003373ffffffffffffffffffffffffffffffffffffffff1673ffffffffffffffffffffffffffffffffffffffff16815260200190815260200160002054816002018190555060018160030160006101000a81548160ff021916908315150217905550600067ffffffffffffffff81111561355c5761355b6140d3565b5b60405190808252806020026020018201604052801561358a5781602001602082028036833780820191505090505b508160040190805190602001906135a2929190613bf8565b50600067ffffffffffffffff8111156135be576135bd6140d3565b5b6040519080825280602002602001820160405280156135ec5781602001602082028036833780820191505090505b50816005019080519060200190613604929190613bf8565b5042816006018190555060405180604001604052806001151581526020013373ffffffffffffffffffffffffffffffffffffffff168152508160080160008201518160000160006101000a81548160ff02191690831515021790555060208201518160000160016101000a81548173ffffffffffffffffffffffffffffffffffffffff021916908373ffffffffffffffffffffffffffffffffffffffff160217905550905050600081604051806101200160405290816000820180546136c9906149a0565b80601f01602080910402602001604051908101604052809291908181526020018280546136f5906149a0565b80156137425780601f1061371757610100808354040283529160200191613742565b820191906000526020600020905b81548152906001019060200180831161372557829003601f168201915b5050505050815260200160018201548152602001600282015481526020016003820160009054906101000a900460ff16151515158152602001600482018054806020026020016040519081016040528092919081815260200182805480156137ff57602002820191906000526020600020905b8160009054906101000a900473ffffffffffffffffffffffffffffffffffffffff1673ffffffffffffffffffffffffffffffffffffffff16815260200190600101908083116137b5575b505050505081526020016005820180548060200260200160405190810160405280929190818152602001828054801561388d57602002820191906000526020600020905b8160009054906101000a900473ffffffffffffffffffffffffffffffffffffffff1673ffffffffffffffffffffffffffffffffffffffff1681526020019060010190808311613843575b50505050508152602001600682015481526020016007820160009054906101000a900473ffffffffffffffffffffffffffffffffffffffff1673ffffffffffffffffffffffffffffffffffffffff1673ffffffffffffffffffffffffffffffffffffffff168152602001600882016040518060400160405290816000820160009054906101000a900460ff161515151581526020016000820160019054906101000a900473ffffffffffffffffffffffffffffffffffffffff1673ffffffffffffffffffffffffffffffffffffffff1673ffffffffffffffffffffffffffffffffffffffff1681525050815250509050600781908060018154018082558091505060019003906000526020600020906009020160009091909190915060008201518160000190805190602001906139c5929190613b72565b50602082015181600101556040820151816002015560608201518160030160006101000a81548160ff0219169083151502179055506080820151816004019080519060200190613a16929190613bf8565b5060a0820151816005019080519060200190613a33929190613bf8565b5060c0820151816006015560e08201518160070160006101000a81548173ffffffffffffffffffffffffffffffffffffffff021916908373ffffffffffffffffffffffffffffffffffffffff1602179055506101008201518160080160008201518160000160006101000a81548160ff02191690831515021790555060208201518160000160016101000a81548173ffffffffffffffffffffffffffffffffffffffff021916908373ffffffffffffffffffffffffffffffffffffffff16021790555050505050809550505050505092915050565b604051806101200160405280606081526020016000815260200160008152602001600015158152602001606081526020016060815260200160008152602001600073ffffffffffffffffffffffffffffffffffffffff168152602001613b6c613c82565b81525090565b828054613b7e906149a0565b90600052602060002090601f016020900481019282613ba05760008555613be7565b82601f10613bb957805160ff1916838001178555613be7565b82800160010185558215613be7579182015b82811115613be6578251825591602001919060010190613bcb565b5b509050613bf49190613cb4565b5090565b828054828255906000526020600020908101928215613c71579160200282015b82811115613c705782518260006101000a81548173ffffffffffffffffffffffffffffffffffffffff021916908373ffffffffffffffffffffffffffffffffffffffff16021790555091602001919060010190613c18565b5b509050613c7e9190613cb4565b5090565b6040518060400160405280600015158152602001600073ffffffffffffffffffffffffffffffffffffffff1681525090565b5b80821115613ccd576000816000905550600101613cb5565b5090565b6000604051905090565b600080fd5b600080fd5b600073ffffffffffffffffffffffffffffffffffffffff82169050919050565b6000613d1082613ce5565b9050919050565b613d2081613d05565b8114613d2b57600080fd5b50565b600081359050613d3d81613d17565b92915050565b6000819050919050565b613d5681613d43565b8114613d6157600080fd5b50565b600081359050613d7381613d4d565b92915050565b60008060408385031215613d9057613d8f613cdb565b5b6000613d9e85828601613d2e565b9250506020613daf85828601613d64565b9150509250929050565b6000613dc482613ce5565b9050919050565b613dd481613db9565b8114613ddf57600080fd5b50565b600081359050613df181613dcb565b92915050565b600060208284031215613e0d57613e0c613cdb565b5b6000613e1b84828501613de2565b91505092915050565b600081519050919050565b600082825260208201905092915050565b60005b83811015613e5e578082015181840152602081019050613e43565b83811115613e6d576000848401525b50505050565b6000601f19601f8301169050919050565b6000613e8f82613e24565b613e998185613e2f565b9350613ea9818560208601613e40565b613eb281613e73565b840191505092915050565b613ec681613d43565b82525050565b60008115159050919050565b613ee181613ecc565b82525050565b600081519050919050565b600082825260208201905092915050565b6000819050602082019050919050565b613f1c81613db9565b82525050565b6000613f2e8383613f13565b60208301905092915050565b6000602082019050919050565b6000613f5282613ee7565b613f5c8185613ef2565b9350613f6783613f03565b8060005b83811015613f98578151613f7f8882613f22565b9750613f8a83613f3a565b925050600181019050613f6b565b5085935050505092915050565b604082016000820151613fbb6000850182613ed8565b506020820151613fce6020850182613f13565b50505050565b6000610140830160008301518482036000860152613ff28282613e84565b91505060208301516140076020860182613ebd565b50604083015161401a6040860182613ebd565b50606083015161402d6060860182613ed8565b50608083015184820360808601526140458282613f47565b91505060a083015184820360a086015261405f8282613f47565b91505060c083015161407460c0860182613ebd565b5060e083015161408760e0860182613f13565b5061010083015161409c610100860182613fa5565b508091505092915050565b600060208201905081810360008301526140c18184613fd4565b905092915050565b600080fd5b600080fd5b7f4e487b7100000000000000000000000000000000000000000000000000000000600052604160045260246000fd5b61410b82613e73565b810181811067ffffffffffffffff8211171561412a576141296140d3565b5b80604052505050565b600061413d613cd1565b90506141498282614102565b919050565b600067ffffffffffffffff821115614169576141686140d3565b5b61417282613e73565b9050602081019050919050565b82818337600083830152505050565b60006141a161419c8461414e565b614133565b9050828152602081018484840111156141bd576141bc6140ce565b5b6141c884828561417f565b509392505050565b600082601f8301126141e5576141e46140c9565b5b81356141f584826020860161418e565b91505092915050565b60008060006060848603121561421757614216613cdb565b5b600084013567ffffffffffffffff81111561423557614234613ce0565b5b614241868287016141d0565b935050602061425286828701613d64565b925050604061426386828701613de2565b9150509250925092565b600081519050919050565b600082825260208201905092915050565b6000819050602082019050919050565b60006101408301600083015184820360008601526142b78282613e84565b91505060208301516142cc6020860182613ebd565b5060408301516142df6040860182613ebd565b5060608301516142f26060860182613ed8565b506080830151848203608086015261430a8282613f47565b91505060a083015184820360a08601526143248282613f47565b91505060c083015161433960c0860182613ebd565b5060e083015161434c60e0860182613f13565b50610100830151614361610100860182613fa5565b508091505092915050565b60006143788383614299565b905092915050565b6000602082019050919050565b60006143988261426d565b6143a28185614278565b9350836020820285016143b485614289565b8060005b858110156143f057848403895281516143d1858261436c565b94506143dc83614380565b925060208a019950506001810190506143b8565b50829750879550505050505092915050565b6000602082019050818103600083015261441c818461438d565b905092915050565b61442d81613d43565b82525050565b60006020820190506144486000830184614424565b92915050565b60006020828403121561446457614463613cdb565b5b600082013567ffffffffffffffff81111561448257614481613ce0565b5b61448e848285016141d0565b91505092915050565b6144a081613ecc565b81146144ab57600080fd5b50565b6000813590506144bd81614497565b92915050565b600080604083850312156144da576144d9613cdb565b5b600083013567ffffffffffffffff8111156144f8576144f7613ce0565b5b614504858286016141d0565b9250506020614515858286016144ae565b9150509250929050565b600060408201905081810360008301526145398185613fd4565b90506145486020830184614424565b9392505050565b6000806040838503121561456657614565613cdb565b5b600083013567ffffffffffffffff81111561458457614583613ce0565b5b614590858286016141d0565b92505060206145a185828601613d64565b9150509250929050565b600081519050919050565b600082825260208201905092915050565b6000819050602082019050919050565b6080820160008201516145ed6000850182613ebd565b5060208201516146006020850182613f13565b5060408201516146136040850182613f13565b5060608201516146266060850182613ebd565b50505050565b600061463883836145d7565b60808301905092915050565b6000602082019050919050565b600061465c826145ab565b61466681856145b6565b9350614671836145c7565b8060005b838110156146a2578151614689888261462c565b975061469483614644565b925050600181019050614675565b5085935050505092915050565b600060208201905081810360008301526146c98184614651565b905092915050565b600080604083850312156146e8576146e7613cdb565b5b60006146f685828601613de2565b925050602061470785828601613d64565b9150509250929050565b600082825260208201905092915050565b600061472d82613ee7565b6147378185614711565b935061474283613f03565b8060005b8381101561477357815161475a8882613f22565b975061476583613f3a565b925050600181019050614746565b5085935050505092915050565b6000602082019050818103600083015261479a8184614722565b905092915050565b6000819050919050565b60006147c76147c26147bd84613ce5565b6147a2565b613ce5565b9050919050565b60006147d9826147ac565b9050919050565b60006147eb826147ce565b9050919050565b6147fb816147e0565b82525050565b600060208201905061481660008301846147f2565b92915050565b600082825260208201905092915050565b7f596f752776652061206c696d69746564206163636f756e74202c20796f75277260008201527f65206e6f7420616e206164756c74000000000000000000000000000000000000602082015250565b6000614889602e8361481c565b91506148948261482d565b604082019050919050565b600060208201905081810360008301526148b88161487c565b9050919050565b600081905092915050565b50565b60006148da6000836148bf565b91506148e5826148ca565b600082019050919050565b60006148fb826148cd565b9150819050919050565b7f4661696c656420746f2073656e64204574686572000000000000000000000000600082015250565b600061493b60148361481c565b915061494682614905565b602082019050919050565b6000602082019050818103600083015261496a8161492e565b9050919050565b7f4e487b7100000000000000000000000000000000000000000000000000000000600052602260045260246000fd5b600060028204905060018216806149b857607f821691505b602082108114156149cc576149cb614971565b5b50919050565b60008190508160005260206000209050919050565b600081546149f4816149a0565b6149fe81866148bf565b94506001821660008114614a195760018114614a2a57614a5d565b60ff19831686528186019350614a5d565b614a33856149d2565b60005b83811015614a5557815481890152600182019150602081019050614a36565b838801955050505b50505092915050565b6000614a7282846149e7565b915081905092915050565b7f596f7520616c72656164792068617665206e6f7420616e206163636f756e742060008201527f286368696c642900000000000000000000000000000000000000000000000000602082015250565b6000614ad960278361481c565b9150614ae482614a7d565b604082019050919050565b60006020820190508181036000830152614b0881614acc565b9050919050565b7f596f7520616c7265616479206861766520616e206163636f756e74202863686960008201527f6c64290000000000000000000000000000000000000000000000000000000000602082015250565b6000614b6b60238361481c565b9150614b7682614b0f565b604082019050919050565b60006020820190508181036000830152614b9a81614b5e565b9050919050565b7f4e487b7100000000000000000000000000000000000000000000000000000000600052603260045260246000fd5b7f4e487b7100000000000000000000000000000000000000000000000000000000600052601160045260246000fd5b6000614c0a82613d43565b91507fffffffffffffffffffffffffffffffffffffffffffffffffffffffffffffffff821415614c3d57614c3c614bd0565b5b600182019050919050565b614c5181613db9565b82525050565b6000614c6282613e24565b614c6c818561481c565b9350614c7c818560208601613e40565b614c8581613e73565b840191505092915050565b6000604082019050614ca56000830185614c48565b8181036020830152614cb78184614c57565b90509392505050565b7f546865206368696c6420646964206e6f7420666f756e64000000000000000000600082015250565b6000614cf660178361481c565b9150614d0182614cc0565b602082019050919050565b60006020820190508181036000830152614d2581614ce9565b9050919050565b7f596f7520616c7265616479206861766520616e206163636f756e740000000000600082015250565b6000614d62601b8361481c565b9150614d6d82614d2c565b602082019050919050565b60006020820190508181036000830152614d9181614d55565b9050919050565b6000604082019050614dad6000830185614c48565b614dba6020830184614c48565b9392505050565b600081519050614dd081613d4d565b92915050565b600060208284031215614dec57614deb613cdb565b5b6000614dfa84828501614dc1565b91505092915050565b7f616c6c6f77616e6365206572726f72202c206f776e65722073686f756c64206960008201527f6e63726561736520796f757220616c6c6f77616e636500000000000000000000602082015250565b6000614e5f60368361481c565b9150614e6a82614e03565b604082019050919050565b60006020820190508181036000830152614e8e81614e52565b9050919050565b7f596f752772652061646d696e2021212100000000000000000000000000000000600082015250565b6000614ecb60108361481c565b9150614ed682614e95565b602082019050919050565b60006020820190508181036000830152614efa81614ebe565b9050919050565b6000602082019050614f166000830184614c48565b92915050565b6000604082019050614f316000830185614c48565b614f3e6020830184614424565b9392505050565b600081519050614f5481614497565b92915050565b600060208284031215614f7057614f6f613cdb565b5b6000614f7e84828501614f45565b91505092915050565b7f4368696c64206e616d6520616c72656164792065786973740000000000000000600082015250565b6000614fbd60188361481c565b9150614fc882614f87565b602082019050919050565b60006020820190508181036000830152614fec81614fb0565b905091905056fea2646970667358221220c99619877f51800b3ad8d3aebce0cb7b317d59ec6da047afe63c30bc8931f1ab64736f6c63430008090033",
  "linkReferences": {},
  "deployedLinkReferences": {}
}