{
  "_format": "hh-sol-artifact-1",
  "contractName": "BankingApp",
  "sourceName": "contracts/Banking.sol",
  "abi": [
    {
      "inputs": [
        {
          "internalType": "string",
          "name": "firstMsg",
          "type": "string"
        }
      ],
      "stateMutability": "nonpayable",
      "type": "constructor"
    },
    {
      "anonymous": false,
      "inputs": [
        {
          "indexed": false,
          "internalType": "string",
          "name": "ldMsg",
          "type": "string"
        },
        {
          "indexed": false,
          "internalType": "string",
          "name": "newMsg",
          "type": "string"
        }
      ],
      "name": "msgChanged",
      "type": "event"
    },
    {
      "inputs": [],
      "name": "msg",
      "outputs": [
        {
          "internalType": "string",
          "name": "",
          "type": "string"
        }
      ],
      "stateMutability": "view",
      "type": "function"
    },
    {
      "inputs": [
        {
          "internalType": "string",
          "name": "newmsg",
          "type": "string"
        }
      ],
      "name": "update",
      "outputs": [],
      "stateMutability": "nonpayable",
      "type": "function"
    }
  ],
  "bytecode": "0x60806040523480156200001157600080fd5b50604051620009a3380380620009a38339818101604052810190620000379190620002a4565b80600090805190602001906200004f92919062000057565b50506200035a565b828054620000659062000324565b90600052602060002090601f016020900481019282620000895760008555620000d5565b82601f10620000a457805160ff1916838001178555620000d5565b82800160010185558215620000d5579182015b82811115620000d4578251825591602001919060010190620000b7565b5b509050620000e49190620000e8565b5090565b5b8082111562000103576000816000905550600101620000e9565b5090565b6000604051905090565b600080fd5b600080fd5b600080fd5b600080fd5b6000601f19601f8301169050919050565b7f4e487b7100000000000000000000000000000000000000000000000000000000600052604160045260246000fd5b620001708262000125565b810181811067ffffffffffffffff8211171562000192576200019162000136565b5b80604052505050565b6000620001a762000107565b9050620001b5828262000165565b919050565b600067ffffffffffffffff821115620001d857620001d762000136565b5b620001e38262000125565b9050602081019050919050565b60005b8381101562000210578082015181840152602081019050620001f3565b8381111562000220576000848401525b50505050565b60006200023d6200023784620001ba565b6200019b565b9050828152602081018484840111156200025c576200025b62000120565b5b62000269848285620001f0565b509392505050565b600082601f8301126200028957620002886200011b565b5b81516200029b84826020860162000226565b91505092915050565b600060208284031215620002bd57620002bc62000111565b5b600082015167ffffffffffffffff811115620002de57620002dd62000116565b5b620002ec8482850162000271565b91505092915050565b7f4e487b7100000000000000000000000000000000000000000000000000000000600052602260045260246000fd5b600060028204905060018216806200033d57607f821691505b60208210811415620003545762000353620002f5565b5b50919050565b610639806200036a6000396000f3fe608060405234801561001057600080fd5b50600436106100365760003560e01c80633d7403a31461003b5780636b473fca14610057575b600080fd5b610055600480360381019061005091906103e3565b610075565b005b61005f610158565b60405161006c91906104b4565b60405180910390f35b600080805461008390610505565b80601f01602080910402602001604051908101604052809291908181526020018280546100af90610505565b80156100fc5780601f106100d1576101008083540402835291602001916100fc565b820191906000526020600020905b8154815290600101906020018083116100df57829003601f168201915b5050505050905081600090805190602001906101199291906101e6565b507f7a53b83355ea4eadb5ada7c432408c78e558d1c641206bb57138d738f4a2b5cf81600060405161014c9291906105cc565b60405180910390a15050565b6000805461016590610505565b80601f016020809104026020016040519081016040528092919081815260200182805461019190610505565b80156101de5780601f106101b3576101008083540402835291602001916101de565b820191906000526020600020905b8154815290600101906020018083116101c157829003601f168201915b505050505081565b8280546101f290610505565b90600052602060002090601f016020900481019282610214576000855561025b565b82601f1061022d57805160ff191683800117855561025b565b8280016001018555821561025b579182015b8281111561025a57825182559160200191906001019061023f565b5b509050610268919061026c565b5090565b5b8082111561028557600081600090555060010161026d565b5090565b6000604051905090565b600080fd5b600080fd5b600080fd5b600080fd5b6000601f19601f8301169050919050565b7f4e487b7100000000000000000000000000000000000000000000000000000000600052604160045260246000fd5b6102f0826102a7565b810181811067ffffffffffffffff8211171561030f5761030e6102b8565b5b80604052505050565b6000610322610289565b905061032e82826102e7565b919050565b600067ffffffffffffffff82111561034e5761034d6102b8565b5b610357826102a7565b9050602081019050919050565b82818337600083830152505050565b600061038661038184610333565b610318565b9050828152602081018484840111156103a2576103a16102a2565b5b6103ad848285610364565b509392505050565b600082601f8301126103ca576103c961029d565b5b81356103da848260208601610373565b91505092915050565b6000602082840312156103f9576103f8610293565b5b600082013567ffffffffffffffff81111561041757610416610298565b5b610423848285016103b5565b91505092915050565b600081519050919050565b600082825260208201905092915050565b60005b8381101561046657808201518184015260208101905061044b565b83811115610475576000848401525b50505050565b60006104868261042c565b6104908185610437565b93506104a0818560208601610448565b6104a9816102a7565b840191505092915050565b600060208201905081810360008301526104ce818461047b565b905092915050565b7f4e487b7100000000000000000000000000000000000000000000000000000000600052602260045260246000fd5b6000600282049050600182168061051d57607f821691505b60208210811415610531576105306104d6565b5b50919050565b60008190508160005260206000209050919050565b6000815461055981610505565b6105638186610437565b9450600182166000811461057e5760018114610590576105c3565b60ff19831686526020860193506105c3565b61059985610537565b60005b838110156105bb5781548189015260018201915060208101905061059c565b808801955050505b50505092915050565b600060408201905081810360008301526105e6818561047b565b905081810360208301526105fa818461054c565b9050939250505056fea26469706673582212200af5a88c4ca25f0cc4c4a51e82333bf86a6b0c6fc4ead9b524fc9a709529048b64736f6c63430008090033",
  "linkReferences": {},
  "deployedLinkReferences": {}
}